{
  "contractName": "Emed",
  "abi": [
    {
      "inputs": [
        {
          "internalType": "address",
          "name": "_tokenAdd",
          "type": "address"
        }
      ],
      "stateMutability": "nonpayable",
      "type": "constructor"
    },
    {
      "anonymous": false,
      "inputs": [
        {
          "components": [
            {
              "internalType": "address",
              "name": "doctorAddress",
              "type": "address"
            },
            {
              "internalType": "address",
              "name": "patientAddress",
              "type": "address"
            },
            {
              "internalType": "uint256",
              "name": "totalFee",
              "type": "uint256"
            },
            {
              "internalType": "uint256",
              "name": "examDate",
              "type": "uint256"
            },
            {
              "internalType": "enum Emed.Schedule",
              "name": "examSchedule",
              "type": "uint8"
            },
            {
              "internalType": "bool",
              "name": "active",
              "type": "bool"
            }
          ],
          "indexed": false,
          "internalType": "struct Emed.Appointment[]",
          "name": "_a",
          "type": "tuple[]"
        }
      ],
      "name": "CallAppointments",
      "type": "event"
    },
    {
      "anonymous": false,
      "inputs": [
        {
          "components": [
            {
              "internalType": "string",
              "name": "subjective",
              "type": "string"
            },
            {
              "internalType": "string",
              "name": "objective",
              "type": "string"
            },
            {
              "internalType": "string",
              "name": "assesment",
              "type": "string"
            },
            {
              "internalType": "string",
              "name": "planning",
              "type": "string"
            },
            {
              "internalType": "uint256",
              "name": "weight",
              "type": "uint256"
            },
            {
              "internalType": "uint256",
              "name": "height",
              "type": "uint256"
            },
            {
              "internalType": "uint256",
              "name": "systole",
              "type": "uint256"
            },
            {
              "internalType": "uint256",
              "name": "diastole",
              "type": "uint256"
            },
            {
              "internalType": "uint256",
              "name": "examDate",
              "type": "uint256"
            },
            {
              "internalType": "string",
              "name": "examLocation",
              "type": "string"
            },
            {
              "internalType": "address",
              "name": "doctorAddress",
              "type": "address"
            }
          ],
          "indexed": false,
          "internalType": "struct Emed.MedicalRecord[]",
          "name": "_m",
          "type": "tuple[]"
        }
      ],
      "name": "CallMedicalRecords",
      "type": "event"
    },
    {
      "anonymous": false,
      "inputs": [
        {
          "indexed": false,
          "internalType": "uint256",
          "name": "amount",
          "type": "uint256"
        }
      ],
      "name": "CheckAmount",
      "type": "event"
    },
    {
      "anonymous": false,
      "inputs": [
        {
          "indexed": false,
          "internalType": "address",
          "name": "creator",
          "type": "address"
        },
        {
          "indexed": false,
          "internalType": "uint256",
          "name": "date",
          "type": "uint256"
        },
        {
          "indexed": false,
          "internalType": "string",
          "name": "functionName",
          "type": "string"
        }
      ],
      "name": "NewLog",
      "type": "event"
    },
    {
      "anonymous": false,
      "inputs": [
        {
          "indexed": false,
          "internalType": "address",
          "name": "patient",
          "type": "address"
        },
        {
          "indexed": false,
          "internalType": "address",
          "name": "doctor",
          "type": "address"
        },
        {
          "indexed": false,
          "internalType": "uint256",
          "name": "date",
          "type": "uint256"
        }
      ],
      "name": "NewMedicalRecord",
      "type": "event"
    },
    {
      "inputs": [
        {
          "internalType": "address",
          "name": "",
          "type": "address"
        },
        {
          "internalType": "uint256",
          "name": "",
          "type": "uint256"
        }
      ],
      "name": "doctor_schedule",
      "outputs": [
        {
          "internalType": "enum Emed.Schedule",
          "name": "",
          "type": "uint8"
        }
      ],
      "stateMutability": "view",
      "type": "function",
      "constant": true
    },
    {
      "inputs": [
        {
          "internalType": "address",
          "name": "",
          "type": "address"
        }
      ],
      "name": "registeredUsers",
      "outputs": [
        {
          "internalType": "string",
          "name": "name",
          "type": "string"
        },
        {
          "internalType": "uint256",
          "name": "dob",
          "type": "uint256"
        },
        {
          "internalType": "enum Emed.UserType",
          "name": "userType",
          "type": "uint8"
        },
        {
          "internalType": "uint256",
          "name": "doctorFee",
          "type": "uint256"
        },
        {
          "internalType": "address",
          "name": "walletAddress",
          "type": "address"
        },
        {
          "internalType": "bool",
          "name": "active",
          "type": "bool"
        }
      ],
      "stateMutability": "view",
      "type": "function",
      "constant": true
    },
    {
      "inputs": [
        {
          "internalType": "uint256",
          "name": "",
          "type": "uint256"
        }
      ],
      "name": "validDoctors",
      "outputs": [
        {
          "internalType": "string",
          "name": "name",
          "type": "string"
        },
        {
          "internalType": "uint256",
          "name": "dob",
          "type": "uint256"
        },
        {
          "internalType": "enum Emed.UserType",
          "name": "userType",
          "type": "uint8"
        },
        {
          "internalType": "uint256",
          "name": "doctorFee",
          "type": "uint256"
        },
        {
          "internalType": "address",
          "name": "walletAddress",
          "type": "address"
        },
        {
          "internalType": "bool",
          "name": "active",
          "type": "bool"
        }
      ],
      "stateMutability": "view",
      "type": "function",
      "constant": true
    },
    {
      "inputs": [],
      "name": "checkUser",
      "outputs": [
        {
          "internalType": "string",
          "name": "name",
          "type": "string"
        },
        {
          "internalType": "enum Emed.UserType",
          "name": "userType",
          "type": "uint8"
        },
        {
          "internalType": "uint256",
          "name": "doctorFee",
          "type": "uint256"
        },
        {
          "internalType": "address",
          "name": "walletAddress",
          "type": "address"
        },
        {
          "internalType": "bool",
          "name": "active",
          "type": "bool"
        }
      ],
      "stateMutability": "view",
      "type": "function",
      "constant": true
    },
    {
      "inputs": [
        {
          "internalType": "string",
          "name": "_name",
          "type": "string"
        },
        {
          "internalType": "uint256",
          "name": "_dob",
          "type": "uint256"
        },
        {
          "internalType": "enum Emed.UserType",
          "name": "_userType",
          "type": "uint8"
        },
        {
          "internalType": "uint256",
          "name": "_doctorFee",
          "type": "uint256"
        },
        {
          "internalType": "enum Emed.Schedule[]",
          "name": "_doctorSchedule",
          "type": "uint8[]"
        }
      ],
      "name": "registerUser",
      "outputs": [],
      "stateMutability": "nonpayable",
      "type": "function"
    },
    {
      "inputs": [
        {
          "internalType": "address",
          "name": "_doctorAddress",
          "type": "address"
        }
      ],
      "name": "validateDoctor",
      "outputs": [],
      "stateMutability": "nonpayable",
      "type": "function"
    },
    {
      "inputs": [
        {
          "internalType": "address",
          "name": "_doctorAddress",
          "type": "address"
        },
        {
          "internalType": "uint256",
          "name": "_examDate",
          "type": "uint256"
        },
        {
          "internalType": "enum Emed.Schedule",
          "name": "_examSchedule",
          "type": "uint8"
        }
      ],
      "name": "createAppointment",
      "outputs": [
        {
          "internalType": "uint256",
          "name": "",
          "type": "uint256"
        }
      ],
      "stateMutability": "nonpayable",
      "type": "function"
    },
    {
      "inputs": [
        {
          "internalType": "address",
          "name": "_doctorAddress",
          "type": "address"
        },
        {
          "internalType": "uint256",
          "name": "_ticketNumber",
          "type": "uint256"
        }
      ],
      "name": "cancelAppointment",
      "outputs": [],
      "stateMutability": "nonpayable",
      "type": "function"
    },
    {
      "inputs": [],
      "name": "getPatientList",
      "outputs": [
        {
          "components": [
            {
              "internalType": "address",
              "name": "doctorAddress",
              "type": "address"
            },
            {
              "internalType": "address",
              "name": "patientAddress",
              "type": "address"
            },
            {
              "internalType": "uint256",
              "name": "totalFee",
              "type": "uint256"
            },
            {
              "internalType": "uint256",
              "name": "examDate",
              "type": "uint256"
            },
            {
              "internalType": "enum Emed.Schedule",
              "name": "examSchedule",
              "type": "uint8"
            },
            {
              "internalType": "bool",
              "name": "active",
              "type": "bool"
            }
          ],
          "internalType": "struct Emed.Appointment[]",
          "name": "",
          "type": "tuple[]"
        }
      ],
      "stateMutability": "nonpayable",
      "type": "function"
    },
    {
      "inputs": [
        {
          "internalType": "address",
          "name": "_patientAddress",
          "type": "address"
        }
      ],
      "name": "getPatientDetail",
      "outputs": [
        {
          "components": [
            {
              "internalType": "string",
              "name": "name",
              "type": "string"
            },
            {
              "internalType": "uint256",
              "name": "dob",
              "type": "uint256"
            },
            {
              "internalType": "enum Emed.UserType",
              "name": "userType",
              "type": "uint8"
            },
            {
              "internalType": "uint256",
              "name": "doctorFee",
              "type": "uint256"
            },
            {
              "internalType": "address",
              "name": "walletAddress",
              "type": "address"
            },
            {
              "internalType": "bool",
              "name": "active",
              "type": "bool"
            }
          ],
          "internalType": "struct Emed.User",
          "name": "",
          "type": "tuple"
        }
      ],
      "stateMutability": "view",
      "type": "function",
      "constant": true
    },
    {
      "inputs": [
        {
          "internalType": "address",
          "name": "_patientAddress",
          "type": "address"
        },
        {
          "internalType": "string",
          "name": "_subjective",
          "type": "string"
        },
        {
          "internalType": "string",
          "name": "_objective",
          "type": "string"
        },
        {
          "internalType": "string",
          "name": "_assesment",
          "type": "string"
        },
        {
          "internalType": "string",
          "name": "_planning",
          "type": "string"
        },
        {
          "internalType": "uint8",
          "name": "_weight",
          "type": "uint8"
        },
        {
          "internalType": "uint8",
          "name": "_height",
          "type": "uint8"
        },
        {
          "internalType": "uint8",
          "name": "_systole",
          "type": "uint8"
        },
        {
          "internalType": "uint8",
          "name": "_diastole",
          "type": "uint8"
        },
        {
          "internalType": "uint256",
          "name": "_examDate",
          "type": "uint256"
        },
        {
          "internalType": "string",
          "name": "_examLocation",
          "type": "string"
        }
      ],
      "name": "addMedicalRecord",
      "outputs": [],
      "stateMutability": "nonpayable",
      "type": "function"
    },
    {
      "inputs": [
        {
          "internalType": "address",
          "name": "_patientAddress",
          "type": "address"
        }
      ],
      "name": "doctorGetMedicalRecords",
      "outputs": [
        {
          "components": [
            {
              "internalType": "string",
              "name": "subjective",
              "type": "string"
            },
            {
              "internalType": "string",
              "name": "objective",
              "type": "string"
            },
            {
              "internalType": "string",
              "name": "assesment",
              "type": "string"
            },
            {
              "internalType": "string",
              "name": "planning",
              "type": "string"
            },
            {
              "internalType": "uint256",
              "name": "weight",
              "type": "uint256"
            },
            {
              "internalType": "uint256",
              "name": "height",
              "type": "uint256"
            },
            {
              "internalType": "uint256",
              "name": "systole",
              "type": "uint256"
            },
            {
              "internalType": "uint256",
              "name": "diastole",
              "type": "uint256"
            },
            {
              "internalType": "uint256",
              "name": "examDate",
              "type": "uint256"
            },
            {
              "internalType": "string",
              "name": "examLocation",
              "type": "string"
            },
            {
              "internalType": "address",
              "name": "doctorAddress",
              "type": "address"
            }
          ],
          "internalType": "struct Emed.MedicalRecord[]",
          "name": "",
          "type": "tuple[]"
        }
      ],
      "stateMutability": "nonpayable",
      "type": "function"
    },
    {
      "inputs": [],
      "name": "userGetOwnMedicalRecords",
      "outputs": [
        {
          "components": [
            {
              "internalType": "string",
              "name": "subjective",
              "type": "string"
            },
            {
              "internalType": "string",
              "name": "objective",
              "type": "string"
            },
            {
              "internalType": "string",
              "name": "assesment",
              "type": "string"
            },
            {
              "internalType": "string",
              "name": "planning",
              "type": "string"
            },
            {
              "internalType": "uint256",
              "name": "weight",
              "type": "uint256"
            },
            {
              "internalType": "uint256",
              "name": "height",
              "type": "uint256"
            },
            {
              "internalType": "uint256",
              "name": "systole",
              "type": "uint256"
            },
            {
              "internalType": "uint256",
              "name": "diastole",
              "type": "uint256"
            },
            {
              "internalType": "uint256",
              "name": "examDate",
              "type": "uint256"
            },
            {
              "internalType": "string",
              "name": "examLocation",
              "type": "string"
            },
            {
              "internalType": "address",
              "name": "doctorAddress",
              "type": "address"
            }
          ],
          "internalType": "struct Emed.MedicalRecord[]",
          "name": "",
          "type": "tuple[]"
        }
      ],
      "stateMutability": "nonpayable",
      "type": "function"
    },
    {
      "inputs": [
        {
          "internalType": "uint256",
          "name": "_fee",
          "type": "uint256"
        }
      ],
      "name": "setContractFee",
      "outputs": [],
      "stateMutability": "nonpayable",
      "type": "function"
    }
  ],
  "bytecode": "0x60806040523480156200001157600080fd5b5060405162005f0738038062005f078339818101604052810190620000379190620000de565b336000806101000a81548173ffffffffffffffffffffffffffffffffffffffff021916908373ffffffffffffffffffffffffffffffffffffffff16021790555080600260006101000a81548173ffffffffffffffffffffffffffffffffffffffff021916908373ffffffffffffffffffffffffffffffffffffffff160217905550600a6001819055505062000163565b600081519050620000d88162000149565b92915050565b600060208284031215620000f757620000f662000144565b5b60006200010784828501620000c7565b91505092915050565b60006200011d8262000124565b9050919050565b600073ffffffffffffffffffffffffffffffffffffffff82169050919050565b600080fd5b620001548162000110565b81146200016057600080fd5b50565b615d9480620001736000396000f3fe608060405234801561001057600080fd5b50600436106100ea5760003560e01c8063740f16eb1161008c578063bcf6321611610066578063bcf6321614610274578063c1562547146102a9578063e02f46ac146102cb578063fa88ab82146102e7576100ea565b8063740f16eb146101f857806383c0c9f514610228578063a79f990f14610244576100ea565b80633ae16ec0116100c85780633ae16ec01461017257806340ddfb291461018e5780634aa67d31146101be578063503b1354146101da576100ea565b80630e50cee5146100ef5780631bec3cbe146101245780632bc8504a14610142575b600080fd5b61010960048036038101906101049190614372565b610303565b60405161011b969594939291906152ca565b60405180910390f35b61012c610401565b6040516101399190615211565b60405180910390f35b61015c60048036038101906101579190614372565b610a80565b60405161016991906154d2565b60405180910390f35b61018c6004803603810190610187919061439f565b610e4b565b005b6101a860048036038101906101a3919061455f565b611672565b6040516101b591906154f4565b60405180910390f35b6101d860048036038101906101d39190614692565b611e61565b005b6101e2611ef9565b6040516101ef91906151cd565b60405180910390f35b610212600480360381019061020d9190614372565b612340565b60405161021f9190615211565b60405180910390f35b610242600480360381019061023d91906145df565b6129d6565b005b61025e6004803603810190610259919061451f565b612f82565b60405161026b9190615255565b60405180910390f35b61028e60048036038101906102899190614692565b612fc5565b6040516102a0969594939291906152ca565b60405180910390f35b6102b16130d3565b6040516102c2959493929190615270565b60405180910390f35b6102e560048036038101906102e09190614372565b6132a6565b005b61030160048036038101906102fc919061451f565b613723565b005b60036020528060005260406000206000915090508060000180546103269061580a565b80601f01602080910402602001604051908101604052809291908181526020018280546103529061580a565b801561039f5780601f106103745761010080835404028352916020019161039f565b820191906000526020600020905b81548152906001019060200180831161038257829003601f168201915b5050505050908060010154908060020160009054906101000a900460ff16908060030154908060040160009054906101000a900473ffffffffffffffffffffffffffffffffffffffff16908060040160149054906101000a900460ff16905086565b60606000600360003373ffffffffffffffffffffffffffffffffffffffff1673ffffffffffffffffffffffffffffffffffffffff1681526020019081526020016000206040518060c001604052908160008201805461045f9061580a565b80601f016020809104026020016040519081016040528092919081815260200182805461048b9061580a565b80156104d85780601f106104ad576101008083540402835291602001916104d8565b820191906000526020600020905b8154815290600101906020018083116104bb57829003601f168201915b50505050508152602001600182015481526020016002820160009054906101000a900460ff1660018111156105105761050f615904565b5b600181111561052257610521615904565b5b8152602001600382015481526020016004820160009054906101000a900473ffffffffffffffffffffffffffffffffffffffff1673ffffffffffffffffffffffffffffffffffffffff1673ffffffffffffffffffffffffffffffffffffffff1681526020016004820160149054906101000a900460ff16151515158152505090506001808111156105b6576105b5615904565b5b816040015160018111156105cd576105cc615904565b5b1461060d576040517f08c379a000000000000000000000000000000000000000000000000000000000815260040161060490615332565b60405180910390fd5b7f3ead100446084f34be236dbd282868987bb15ae4f8ad0a1d3c1d6635643276f0600560003373ffffffffffffffffffffffffffffffffffffffff1673ffffffffffffffffffffffffffffffffffffffff16815260200190815260200160002060405161067a9190615233565b60405180910390a1600560003373ffffffffffffffffffffffffffffffffffffffff1673ffffffffffffffffffffffffffffffffffffffff168152602001908152602001600020805480602002602001604051908101604052809291908181526020016000905b82821015610a7657838290600052602060002090600b0201604051806101600160405290816000820180546107159061580a565b80601f01602080910402602001604051908101604052809291908181526020018280546107419061580a565b801561078e5780601f106107635761010080835404028352916020019161078e565b820191906000526020600020905b81548152906001019060200180831161077157829003601f168201915b505050505081526020016001820180546107a79061580a565b80601f01602080910402602001604051908101604052809291908181526020018280546107d39061580a565b80156108205780601f106107f557610100808354040283529160200191610820565b820191906000526020600020905b81548152906001019060200180831161080357829003601f168201915b505050505081526020016002820180546108399061580a565b80601f01602080910402602001604051908101604052809291908181526020018280546108659061580a565b80156108b25780601f10610887576101008083540402835291602001916108b2565b820191906000526020600020905b81548152906001019060200180831161089557829003601f168201915b505050505081526020016003820180546108cb9061580a565b80601f01602080910402602001604051908101604052809291908181526020018280546108f79061580a565b80156109445780601f1061091957610100808354040283529160200191610944565b820191906000526020600020905b81548152906001019060200180831161092757829003601f168201915b50505050508152602001600482015481526020016005820154815260200160068201548152602001600782015481526020016008820154815260200160098201805461098f9061580a565b80601f01602080910402602001604051908101604052809291908181526020018280546109bb9061580a565b8015610a085780601f106109dd57610100808354040283529160200191610a08565b820191906000526020600020905b8154815290600101906020018083116109eb57829003601f168201915b50505050508152602001600a820160009054906101000a900473ffffffffffffffffffffffffffffffffffffffff1673ffffffffffffffffffffffffffffffffffffffff1673ffffffffffffffffffffffffffffffffffffffff1681525050815260200190600101906106e1565b5050505091505090565b610a88613f47565b6000600360003373ffffffffffffffffffffffffffffffffffffffff1673ffffffffffffffffffffffffffffffffffffffff1681526020019081526020016000206040518060c0016040529081600082018054610ae49061580a565b80601f0160208091040260200160405190810160405280929190818152602001828054610b109061580a565b8015610b5d5780601f10610b3257610100808354040283529160200191610b5d565b820191906000526020600020905b815481529060010190602001808311610b4057829003601f168201915b50505050508152602001600182015481526020016002820160009054906101000a900460ff166001811115610b9557610b94615904565b5b6001811115610ba757610ba6615904565b5b8152602001600382015481526020016004820160009054906101000a900473ffffffffffffffffffffffffffffffffffffffff1673ffffffffffffffffffffffffffffffffffffffff1673ffffffffffffffffffffffffffffffffffffffff1681526020016004820160149054906101000a900460ff161515151581525050905060006001811115610c3c57610c3b615904565b5b81604001516001811115610c5357610c52615904565b5b148015610c685750600115158160a001511515145b610ca7576040517f08c379a0000000000000000000000000000000000000000000000000000000008152600401610c9e906153b2565b60405180910390fd5b600360008473ffffffffffffffffffffffffffffffffffffffff1673ffffffffffffffffffffffffffffffffffffffff1681526020019081526020016000206040518060c0016040529081600082018054610d019061580a565b80601f0160208091040260200160405190810160405280929190818152602001828054610d2d9061580a565b8015610d7a5780601f10610d4f57610100808354040283529160200191610d7a565b820191906000526020600020905b815481529060010190602001808311610d5d57829003601f168201915b50505050508152602001600182015481526020016002820160009054906101000a900460ff166001811115610db257610db1615904565b5b6001811115610dc457610dc3615904565b5b8152602001600382015481526020016004820160009054906101000a900473ffffffffffffffffffffffffffffffffffffffff1673ffffffffffffffffffffffffffffffffffffffff1673ffffffffffffffffffffffffffffffffffffffff1681526020016004820160149054906101000a900460ff161515151581525050915050919050565b6000600360003373ffffffffffffffffffffffffffffffffffffffff1673ffffffffffffffffffffffffffffffffffffffff1681526020019081526020016000206040518060c0016040529081600082018054610ea79061580a565b80601f0160208091040260200160405190810160405280929190818152602001828054610ed39061580a565b8015610f205780601f10610ef557610100808354040283529160200191610f20565b820191906000526020600020905b815481529060010190602001808311610f0357829003601f168201915b50505050508152602001600182015481526020016002820160009054906101000a900460ff166001811115610f5857610f57615904565b5b6001811115610f6a57610f69615904565b5b8152602001600382015481526020016004820160009054906101000a900473ffffffffffffffffffffffffffffffffffffffff1673ffffffffffffffffffffffffffffffffffffffff1673ffffffffffffffffffffffffffffffffffffffff1681526020016004820160149054906101000a900460ff161515151581525050905060006001811115610fff57610ffe615904565b5b8160400151600181111561101657611015615904565b5b14801561102b5750600115158160a001511515145b61106a576040517f08c379a0000000000000000000000000000000000000000000000000000000008152600401611061906153b2565b60405180910390fd5b60011515600760008e73ffffffffffffffffffffffffffffffffffffffff1673ffffffffffffffffffffffffffffffffffffffff16815260200190815260200160002060009054906101000a900460ff161515146110fd576040517f08c379a00000000000000000000000000000000000000000000000000000000081526004016110f490615432565b60405180910390fd5b6000600760008e73ffffffffffffffffffffffffffffffffffffffff1673ffffffffffffffffffffffffffffffffffffffff16815260200190815260200160002060006101000a81548160ff02191690831515021790555061115d613fa7565b8b81600001819052508a81602001819052508981604001819052508881606001819052508760ff168160800181815250508660ff168160a00181815250508560ff168160c00181815250508460ff168160e00181815250508381610100018181525050828161012001819052503381610140019073ffffffffffffffffffffffffffffffffffffffff16908173ffffffffffffffffffffffffffffffffffffffff1681525050600560008e73ffffffffffffffffffffffffffffffffffffffff1673ffffffffffffffffffffffffffffffffffffffff1681526020019081526020016000208190806001815401808255809150506001900390600052602060002090600b02016000909190919091506000820151816000019080519060200190611288929190614017565b5060208201518160010190805190602001906112a5929190614017565b5060408201518160020190805190602001906112c2929190614017565b5060608201518160030190805190602001906112df929190614017565b506080820151816004015560a0820151816005015560c0820151816006015560e082015181600701556101008201518160080155610120820151816009019080519060200190611330929190614017565b5061014082015181600a0160006101000a81548173ffffffffffffffffffffffffffffffffffffffff021916908373ffffffffffffffffffffffffffffffffffffffff16021790555050506000600360003373ffffffffffffffffffffffffffffffffffffffff1673ffffffffffffffffffffffffffffffffffffffff1681526020019081526020016000206040518060c00160405290816000820180546113d79061580a565b80601f01602080910402602001604051908101604052809291908181526020018280546114039061580a565b80156114505780601f1061142557610100808354040283529160200191611450565b820191906000526020600020905b81548152906001019060200180831161143357829003601f168201915b50505050508152602001600182015481526020016002820160009054906101000a900460ff16600181111561148857611487615904565b5b600181111561149a57611499615904565b5b8152602001600382015481526020016004820160009054906101000a900473ffffffffffffffffffffffffffffffffffffffff1673ffffffffffffffffffffffffffffffffffffffff1673ffffffffffffffffffffffffffffffffffffffff1681526020016004820160149054906101000a900460ff16151515158152505090506000600154826060015161152f919061569f565b905060011515600260009054906101000a900473ffffffffffffffffffffffffffffffffffffffff1673ffffffffffffffffffffffffffffffffffffffff1663a9059cbb33846040518363ffffffff1660e01b81526004016115929291906150f0565b602060405180830381600087803b1580156115ac57600080fd5b505af11580156115c0573d6000803e3d6000fd5b505050506040513d601f19601f820116820180604052508101906115e491906145b2565b151514611626576040517f08c379a000000000000000000000000000000000000000000000000000000000815260040161161d90615492565b60405180910390fd5b7fb15e863b358321085e0997fc013c61efcc6bea2d1c8f3c6374ba6fcecf3850158f334260405161165993929190615090565b60405180910390a1505050505050505050505050505050565b600080600360003373ffffffffffffffffffffffffffffffffffffffff1673ffffffffffffffffffffffffffffffffffffffff1681526020019081526020016000206040518060c00160405290816000820180546116cf9061580a565b80601f01602080910402602001604051908101604052809291908181526020018280546116fb9061580a565b80156117485780601f1061171d57610100808354040283529160200191611748565b820191906000526020600020905b81548152906001019060200180831161172b57829003601f168201915b50505050508152602001600182015481526020016002820160009054906101000a900460ff1660018111156117805761177f615904565b5b600181111561179257611791615904565b5b8152602001600382015481526020016004820160009054906101000a900473ffffffffffffffffffffffffffffffffffffffff1673ffffffffffffffffffffffffffffffffffffffff1673ffffffffffffffffffffffffffffffffffffffff1681526020016004820160149054906101000a900460ff161515151581525050905060018081111561182657611825615904565b5b8160400151600181111561183d5761183c615904565b5b1461187d576040517f08c379a000000000000000000000000000000000000000000000000000000000815260040161187490615332565b60405180910390fd5b6000600360008773ffffffffffffffffffffffffffffffffffffffff1673ffffffffffffffffffffffffffffffffffffffff1681526020019081526020016000206040518060c00160405290816000820180546118d99061580a565b80601f01602080910402602001604051908101604052809291908181526020018280546119059061580a565b80156119525780601f1061192757610100808354040283529160200191611952565b820191906000526020600020905b81548152906001019060200180831161193557829003601f168201915b50505050508152602001600182015481526020016002820160009054906101000a900460ff16600181111561198a57611989615904565b5b600181111561199c5761199b615904565b5b8152602001600382015481526020016004820160009054906101000a900473ffffffffffffffffffffffffffffffffffffffff1673ffffffffffffffffffffffffffffffffffffffff1673ffffffffffffffffffffffffffffffffffffffff1681526020016004820160149054906101000a900460ff16151515158152505090507f478413d8b315c881caeefa77b465e53806c9152d17db72618981f1f20bb35c0d8160600151604051611a5091906154f4565b60405180910390a1611a6061409d565b86816000019073ffffffffffffffffffffffffffffffffffffffff16908173ffffffffffffffffffffffffffffffffffffffff1681525050858160600181815250508481608001906005811115611aba57611ab9615904565b5b90816005811115611ace57611acd615904565b5b81525050816060015181604001818152505033816020019073ffffffffffffffffffffffffffffffffffffffff16908173ffffffffffffffffffffffffffffffffffffffff168152505060018160a001901515908115158152505060011515600260009054906101000a900473ffffffffffffffffffffffffffffffffffffffff1673ffffffffffffffffffffffffffffffffffffffff166323b872dd333086606001516040518463ffffffff1660e01b8152600401611b9093929190615090565b602060405180830381600087803b158015611baa57600080fd5b505af1158015611bbe573d6000803e3d6000fd5b505050506040513d601f19601f82011682018060405250810190611be291906145b2565b151514611c24576040517f08c379a0000000000000000000000000000000000000000000000000000000008152600401611c1b906153f2565b60405180910390fd5b600460008873ffffffffffffffffffffffffffffffffffffffff1673ffffffffffffffffffffffffffffffffffffffff16815260200190815260200160002081908060018154018082558091505060019003906000526020600020906005020160009091909190915060008201518160000160006101000a81548173ffffffffffffffffffffffffffffffffffffffff021916908373ffffffffffffffffffffffffffffffffffffffff16021790555060208201518160010160006101000a81548173ffffffffffffffffffffffffffffffffffffffff021916908373ffffffffffffffffffffffffffffffffffffffff160217905550604082015181600201556060820151816003015560808201518160040160006101000a81548160ff02191690836005811115611d5a57611d59615904565b5b021790555060a08201518160040160016101000a81548160ff02191690831515021790555050507f80f27b639b268070597cc1e56095ab8f86def6301e542441a32573f30677e7383342604051611db2929190615155565b60405180910390a16001600760003373ffffffffffffffffffffffffffffffffffffffff1673ffffffffffffffffffffffffffffffffffffffff16815260200190815260200160002060006101000a81548160ff021916908315150217905550600460008873ffffffffffffffffffffffffffffffffffffffff1673ffffffffffffffffffffffffffffffffffffffff1681526020019081526020016000208054905093505050509392505050565b60008054906101000a900473ffffffffffffffffffffffffffffffffffffffff1673ffffffffffffffffffffffffffffffffffffffff163373ffffffffffffffffffffffffffffffffffffffff1614611eef576040517f08c379a0000000000000000000000000000000000000000000000000000000008152600401611ee690615392565b60405180910390fd5b8060018190555050565b60606000600360003373ffffffffffffffffffffffffffffffffffffffff1673ffffffffffffffffffffffffffffffffffffffff1681526020019081526020016000206040518060c0016040529081600082018054611f579061580a565b80601f0160208091040260200160405190810160405280929190818152602001828054611f839061580a565b8015611fd05780601f10611fa557610100808354040283529160200191611fd0565b820191906000526020600020905b815481529060010190602001808311611fb357829003601f168201915b50505050508152602001600182015481526020016002820160009054906101000a900460ff16600181111561200857612007615904565b5b600181111561201a57612019615904565b5b8152602001600382015481526020016004820160009054906101000a900473ffffffffffffffffffffffffffffffffffffffff1673ffffffffffffffffffffffffffffffffffffffff1673ffffffffffffffffffffffffffffffffffffffff1681526020016004820160149054906101000a900460ff1615151515815250509050600060018111156120af576120ae615904565b5b816040015160018111156120c6576120c5615904565b5b1480156120db5750600115158160a001511515145b61211a576040517f08c379a0000000000000000000000000000000000000000000000000000000008152600401612111906153b2565b60405180910390fd5b7f33bae4024d6bc6cc19ea07294ed68df80dc5746848acff8a0a8fad409c2df40c600460003373ffffffffffffffffffffffffffffffffffffffff1673ffffffffffffffffffffffffffffffffffffffff16815260200190815260200160002060405161218791906151ef565b60405180910390a1600460003373ffffffffffffffffffffffffffffffffffffffff1673ffffffffffffffffffffffffffffffffffffffff168152602001908152602001600020805480602002602001604051908101604052809291908181526020016000905b8282101561233657838290600052602060002090600502016040518060c00160405290816000820160009054906101000a900473ffffffffffffffffffffffffffffffffffffffff1673ffffffffffffffffffffffffffffffffffffffff1673ffffffffffffffffffffffffffffffffffffffff1681526020016001820160009054906101000a900473ffffffffffffffffffffffffffffffffffffffff1673ffffffffffffffffffffffffffffffffffffffff1673ffffffffffffffffffffffffffffffffffffffff16815260200160028201548152602001600382015481526020016004820160009054906101000a900460ff1660058111156122f6576122f5615904565b5b600581111561230857612307615904565b5b81526020016004820160019054906101000a900460ff161515151581525050815260200190600101906121ee565b5050505091505090565b60606000600360003373ffffffffffffffffffffffffffffffffffffffff1673ffffffffffffffffffffffffffffffffffffffff1681526020019081526020016000206040518060c001604052908160008201805461239e9061580a565b80601f01602080910402602001604051908101604052809291908181526020018280546123ca9061580a565b80156124175780601f106123ec57610100808354040283529160200191612417565b820191906000526020600020905b8154815290600101906020018083116123fa57829003601f168201915b50505050508152602001600182015481526020016002820160009054906101000a900460ff16600181111561244f5761244e615904565b5b600181111561246157612460615904565b5b8152602001600382015481526020016004820160009054906101000a900473ffffffffffffffffffffffffffffffffffffffff1673ffffffffffffffffffffffffffffffffffffffff1673ffffffffffffffffffffffffffffffffffffffff1681526020016004820160149054906101000a900460ff1615151515815250509050600060018111156124f6576124f5615904565b5b8160400151600181111561250d5761250c615904565b5b1480156125225750600115158160a001511515145b612561576040517f08c379a0000000000000000000000000000000000000000000000000000000008152600401612558906153b2565b60405180910390fd5b7f3ead100446084f34be236dbd282868987bb15ae4f8ad0a1d3c1d6635643276f0600560008573ffffffffffffffffffffffffffffffffffffffff1673ffffffffffffffffffffffffffffffffffffffff1681526020019081526020016000206040516125ce9190615233565b60405180910390a1600560008473ffffffffffffffffffffffffffffffffffffffff1673ffffffffffffffffffffffffffffffffffffffff168152602001908152602001600020805480602002602001604051908101604052809291908181526020016000905b828210156129ca57838290600052602060002090600b0201604051806101600160405290816000820180546126699061580a565b80601f01602080910402602001604051908101604052809291908181526020018280546126959061580a565b80156126e25780601f106126b7576101008083540402835291602001916126e2565b820191906000526020600020905b8154815290600101906020018083116126c557829003601f168201915b505050505081526020016001820180546126fb9061580a565b80601f01602080910402602001604051908101604052809291908181526020018280546127279061580a565b80156127745780601f1061274957610100808354040283529160200191612774565b820191906000526020600020905b81548152906001019060200180831161275757829003601f168201915b5050505050815260200160028201805461278d9061580a565b80601f01602080910402602001604051908101604052809291908181526020018280546127b99061580a565b80156128065780601f106127db57610100808354040283529160200191612806565b820191906000526020600020905b8154815290600101906020018083116127e957829003601f168201915b5050505050815260200160038201805461281f9061580a565b80601f016020809104026020016040519081016040528092919081815260200182805461284b9061580a565b80156128985780601f1061286d57610100808354040283529160200191612898565b820191906000526020600020905b81548152906001019060200180831161287b57829003601f168201915b5050505050815260200160048201548152602001600582015481526020016006820154815260200160078201548152602001600882015481526020016009820180546128e39061580a565b80601f016020809104026020016040519081016040528092919081815260200182805461290f9061580a565b801561295c5780601f106129315761010080835404028352916020019161295c565b820191906000526020600020905b81548152906001019060200180831161293f57829003601f168201915b50505050508152602001600a820160009054906101000a900473ffffffffffffffffffffffffffffffffffffffff1673ffffffffffffffffffffffffffffffffffffffff1673ffffffffffffffffffffffffffffffffffffffff168152505081526020019060010190612635565b50505050915050919050565b6000600360003373ffffffffffffffffffffffffffffffffffffffff1673ffffffffffffffffffffffffffffffffffffffff1681526020019081526020016000206040518060c0016040529081600082018054612a329061580a565b80601f0160208091040260200160405190810160405280929190818152602001828054612a5e9061580a565b8015612aab5780601f10612a8057610100808354040283529160200191612aab565b820191906000526020600020905b815481529060010190602001808311612a8e57829003601f168201915b50505050508152602001600182015481526020016002820160009054906101000a900460ff166001811115612ae357612ae2615904565b5b6001811115612af557612af4615904565b5b8152602001600382015481526020016004820160009054906101000a900473ffffffffffffffffffffffffffffffffffffffff1673ffffffffffffffffffffffffffffffffffffffff1673ffffffffffffffffffffffffffffffffffffffff1681526020016004820160149054906101000a900460ff16151515158152505090506000816020015114612bbd576040517f08c379a0000000000000000000000000000000000000000000000000000000008152600401612bb490615372565b60405180910390fd5b612bc5613f47565b868160000181905250858160200181815250508481604001906001811115612bf057612bef615904565b5b90816001811115612c0457612c03615904565b5b81525050600081606001818152505060018160a001901515908115158152505033816080019073ffffffffffffffffffffffffffffffffffffffff16908173ffffffffffffffffffffffffffffffffffffffff168152505060006001811115612c7057612c6f615904565b5b856001811115612c8357612c82615904565b5b1415612d3d576001548411612ccd576040517f08c379a0000000000000000000000000000000000000000000000000000000008152600401612cc490615472565b60405180910390fd5b60008160a00190151590811515815250508381606001818152505082600660003373ffffffffffffffffffffffffffffffffffffffff1673ffffffffffffffffffffffffffffffffffffffff1681526020019081526020016000209080519060200190612d3b929190614113565b505b80600360003373ffffffffffffffffffffffffffffffffffffffff1673ffffffffffffffffffffffffffffffffffffffff1681526020019081526020016000206000820151816000019080519060200190612d99929190614017565b506020820151816001015560408201518160020160006101000a81548160ff02191690836001811115612dcf57612dce615904565b5b02179055506060820151816003015560808201518160040160006101000a81548173ffffffffffffffffffffffffffffffffffffffff021916908373ffffffffffffffffffffffffffffffffffffffff16021790555060a08201518160040160146101000a81548160ff02191690831515021790555090505060011515600260009054906101000a900473ffffffffffffffffffffffffffffffffffffffff1673ffffffffffffffffffffffffffffffffffffffff1663dfd43d2433620186a06040518363ffffffff1660e01b8152600401612eac9291906150c7565b602060405180830381600087803b158015612ec657600080fd5b505af1158015612eda573d6000803e3d6000fd5b505050506040513d601f19601f82011682018060405250810190612efe91906145b2565b151514612f40576040517f08c379a0000000000000000000000000000000000000000000000000000000008152600401612f37906154b2565b60405180910390fd5b7f80f27b639b268070597cc1e56095ab8f86def6301e542441a32573f30677e7383342604051612f71929190615191565b60405180910390a150505050505050565b60066020528160005260406000208181548110612f9e57600080fd5b9060005260206000209060209182820401919006915091509054906101000a900460ff1681565b60088181548110612fd557600080fd5b9060005260206000209060050201600091509050806000018054612ff89061580a565b80601f01602080910402602001604051908101604052809291908181526020018280546130249061580a565b80156130715780601f1061304657610100808354040283529160200191613071565b820191906000526020600020905b81548152906001019060200180831161305457829003601f168201915b5050505050908060010154908060020160009054906101000a900460ff16908060030154908060040160009054906101000a900473ffffffffffffffffffffffffffffffffffffffff16908060040160149054906101000a900460ff16905086565b60606000806000806000600360003373ffffffffffffffffffffffffffffffffffffffff1673ffffffffffffffffffffffffffffffffffffffff1681526020019081526020016000206040518060c00160405290816000820180546131379061580a565b80601f01602080910402602001604051908101604052809291908181526020018280546131639061580a565b80156131b05780601f10613185576101008083540402835291602001916131b0565b820191906000526020600020905b81548152906001019060200180831161319357829003601f168201915b50505050508152602001600182015481526020016002820160009054906101000a900460ff1660018111156131e8576131e7615904565b5b60018111156131fa576131f9615904565b5b8152602001600382015481526020016004820160009054906101000a900473ffffffffffffffffffffffffffffffffffffffff1673ffffffffffffffffffffffffffffffffffffffff1673ffffffffffffffffffffffffffffffffffffffff1681526020016004820160149054906101000a900460ff161515151581525050905080600001518160400151826060015183608001518460a0015195509550955095509550509091929394565b60008054906101000a900473ffffffffffffffffffffffffffffffffffffffff1673ffffffffffffffffffffffffffffffffffffffff163373ffffffffffffffffffffffffffffffffffffffff1614613334576040517f08c379a000000000000000000000000000000000000000000000000000000000815260040161332b90615392565b60405180910390fd5b6000600360008373ffffffffffffffffffffffffffffffffffffffff1673ffffffffffffffffffffffffffffffffffffffff1681526020019081526020016000206040518060c00160405290816000820180546133909061580a565b80601f01602080910402602001604051908101604052809291908181526020018280546133bc9061580a565b80156134095780601f106133de57610100808354040283529160200191613409565b820191906000526020600020905b8154815290600101906020018083116133ec57829003601f168201915b50505050508152602001600182015481526020016002820160009054906101000a900460ff16600181111561344157613440615904565b5b600181111561345357613452615904565b5b8152602001600382015481526020016004820160009054906101000a900473ffffffffffffffffffffffffffffffffffffffff1673ffffffffffffffffffffffffffffffffffffffff1673ffffffffffffffffffffffffffffffffffffffff1681526020016004820160149054906101000a900460ff161515151581525050905060018160a001901515908115158152505080600360008473ffffffffffffffffffffffffffffffffffffffff1673ffffffffffffffffffffffffffffffffffffffff1681526020019081526020016000206000820151816000019080519060200190613541929190614017565b506020820151816001015560408201518160020160006101000a81548160ff0219169083600181111561357757613576615904565b5b02179055506060820151816003015560808201518160040160006101000a81548173ffffffffffffffffffffffffffffffffffffffff021916908373ffffffffffffffffffffffffffffffffffffffff16021790555060a08201518160040160146101000a81548160ff02191690831515021790555090505060088190806001815401808255809150506001900390600052602060002090600502016000909190919091506000820151816000019080519060200190613638929190614017565b506020820151816001015560408201518160020160006101000a81548160ff0219169083600181111561366e5761366d615904565b5b02179055506060820151816003015560808201518160040160006101000a81548173ffffffffffffffffffffffffffffffffffffffff021916908373ffffffffffffffffffffffffffffffffffffffff16021790555060a08201518160040160146101000a81548160ff02191690831515021790555050507f80f27b639b268070597cc1e56095ab8f86def6301e542441a32573f30677e7383342604051613717929190615119565b60405180910390a15050565b6000600360003373ffffffffffffffffffffffffffffffffffffffff1673ffffffffffffffffffffffffffffffffffffffff1681526020019081526020016000206040518060c001604052908160008201805461377f9061580a565b80601f01602080910402602001604051908101604052809291908181526020018280546137ab9061580a565b80156137f85780601f106137cd576101008083540402835291602001916137f8565b820191906000526020600020905b8154815290600101906020018083116137db57829003601f168201915b50505050508152602001600182015481526020016002820160009054906101000a900460ff1660018111156138305761382f615904565b5b600181111561384257613841615904565b5b8152602001600382015481526020016004820160009054906101000a900473ffffffffffffffffffffffffffffffffffffffff1673ffffffffffffffffffffffffffffffffffffffff1673ffffffffffffffffffffffffffffffffffffffff1681526020016004820160149054906101000a900460ff16151515158152505090506001808111156138d6576138d5615904565b5b816040015160018111156138ed576138ec615904565b5b1461392d576040517f08c379a000000000000000000000000000000000000000000000000000000000815260040161392490615332565b60405180910390fd5b600460008473ffffffffffffffffffffffffffffffffffffffff1673ffffffffffffffffffffffffffffffffffffffff1681526020019081526020016000208054905060018361397d919061569f565b106139bd576040517f08c379a00000000000000000000000000000000000000000000000000000000081526004016139b490615452565b60405180910390fd5b3373ffffffffffffffffffffffffffffffffffffffff16600460008573ffffffffffffffffffffffffffffffffffffffff1673ffffffffffffffffffffffffffffffffffffffff168152602001908152602001600020600184613a20919061569f565b81548110613a3157613a30615962565b5b906000526020600020906005020160010160009054906101000a900473ffffffffffffffffffffffffffffffffffffffff1673ffffffffffffffffffffffffffffffffffffffff1614613ab9576040517f08c379a0000000000000000000000000000000000000000000000000000000008152600401613ab090615412565b60405180910390fd5b6000600360008573ffffffffffffffffffffffffffffffffffffffff1673ffffffffffffffffffffffffffffffffffffffff1681526020019081526020016000206040518060c0016040529081600082018054613b159061580a565b80601f0160208091040260200160405190810160405280929190818152602001828054613b419061580a565b8015613b8e5780601f10613b6357610100808354040283529160200191613b8e565b820191906000526020600020905b815481529060010190602001808311613b7157829003601f168201915b50505050508152602001600182015481526020016002820160009054906101000a900460ff166001811115613bc657613bc5615904565b5b6001811115613bd857613bd7615904565b5b8152602001600382015481526020016004820160009054906101000a900473ffffffffffffffffffffffffffffffffffffffff1673ffffffffffffffffffffffffffffffffffffffff1673ffffffffffffffffffffffffffffffffffffffff1681526020016004820160149054906101000a900460ff16151515158152505090507f478413d8b315c881caeefa77b465e53806c9152d17db72618981f1f20bb35c0d8160600151604051613c8c91906154f4565b60405180910390a160006001548260600151613ca8919061569f565b905060011515600260009054906101000a900473ffffffffffffffffffffffffffffffffffffffff1673ffffffffffffffffffffffffffffffffffffffff1663a9059cbb33846040518363ffffffff1660e01b8152600401613d0b9291906150f0565b602060405180830381600087803b158015613d2557600080fd5b505af1158015613d39573d6000803e3d6000fd5b505050506040513d601f19601f82011682018060405250810190613d5d91906145b2565b151514613d9f576040517f08c379a0000000000000000000000000000000000000000000000000000000008152600401613d96906153d2565b60405180910390fd5b60011515600460008773ffffffffffffffffffffffffffffffffffffffff1673ffffffffffffffffffffffffffffffffffffffff168152602001908152602001600020600186613def919061569f565b81548110613e0057613dff615962565b5b906000526020600020906005020160040160019054906101000a900460ff16151514613e61576040517f08c379a0000000000000000000000000000000000000000000000000000000008152600401613e5890615352565b60405180910390fd5b6000600760003373ffffffffffffffffffffffffffffffffffffffff1673ffffffffffffffffffffffffffffffffffffffff16815260200190815260200160002060006101000a81548160ff0219169083151502179055506000600460008773ffffffffffffffffffffffffffffffffffffffff1673ffffffffffffffffffffffffffffffffffffffff168152602001908152602001600020600186613f07919061569f565b81548110613f1857613f17615962565b5b906000526020600020906005020160040160016101000a81548160ff0219169083151502179055505050505050565b6040518060c00160405280606081526020016000815260200160006001811115613f7457613f73615904565b5b815260200160008152602001600073ffffffffffffffffffffffffffffffffffffffff1681526020016000151581525090565b60405180610160016040528060608152602001606081526020016060815260200160608152602001600081526020016000815260200160008152602001600081526020016000815260200160608152602001600073ffffffffffffffffffffffffffffffffffffffff1681525090565b8280546140239061580a565b90600052602060002090601f016020900481019282614045576000855561408c565b82601f1061405e57805160ff191683800117855561408c565b8280016001018555821561408c579182015b8281111561408b578251825591602001919060010190614070565b5b50905061409991906141c9565b5090565b6040518060c00160405280600073ffffffffffffffffffffffffffffffffffffffff168152602001600073ffffffffffffffffffffffffffffffffffffffff16815260200160008152602001600081526020016000600581111561410457614103615904565b5b81526020016000151581525090565b82805482825590600052602060002090601f016020900481019282156141b85791602002820160005b8382111561418957835183826101000a81548160ff0219169083600581111561416857614167615904565b5b0217905550926020019260010160208160000104928301926001030261413c565b80156141b65782816101000a81549060ff0219169055600101602081600001049283019260010302614189565b505b5090506141c591906141c9565b5090565b5b808211156141e25760008160009055506001016141ca565b5090565b60006141f96141f484615534565b61550f565b9050808382526020820190508285602086028201111561421c5761421b6159c5565b5b60005b8581101561424c578161423288826142f0565b84526020840193506020830192505060018101905061421f565b5050509392505050565b600061426961426484615560565b61550f565b905082815260208101848484011115614285576142846159ca565b5b6142908482856157c8565b509392505050565b6000813590506142a781615ce2565b92915050565b600082601f8301126142c2576142c16159c0565b5b81356142d28482602086016141e6565b91505092915050565b6000815190506142ea81615cf9565b92915050565b6000813590506142ff81615d10565b92915050565b60008135905061431481615d20565b92915050565b600082601f83011261432f5761432e6159c0565b5b813561433f848260208601614256565b91505092915050565b60008135905061435781615d30565b92915050565b60008135905061436c81615d47565b92915050565b600060208284031215614388576143876159d4565b5b600061439684828501614298565b91505092915050565b60008060008060008060008060008060006101608c8e0312156143c5576143c46159d4565b5b60006143d38e828f01614298565b9b505060208c013567ffffffffffffffff8111156143f4576143f36159cf565b5b6144008e828f0161431a565b9a505060408c013567ffffffffffffffff811115614421576144206159cf565b5b61442d8e828f0161431a565b99505060608c013567ffffffffffffffff81111561444e5761444d6159cf565b5b61445a8e828f0161431a565b98505060808c013567ffffffffffffffff81111561447b5761447a6159cf565b5b6144878e828f0161431a565b97505060a06144988e828f0161435d565b96505060c06144a98e828f0161435d565b95505060e06144ba8e828f0161435d565b9450506101006144cc8e828f0161435d565b9350506101206144de8e828f01614348565b9250506101408c013567ffffffffffffffff811115614500576144ff6159cf565b5b61450c8e828f0161431a565b9150509295989b509295989b9093969950565b60008060408385031215614536576145356159d4565b5b600061454485828601614298565b925050602061455585828601614348565b9150509250929050565b600080600060608486031215614578576145776159d4565b5b600061458686828701614298565b935050602061459786828701614348565b92505060406145a8868287016142f0565b9150509250925092565b6000602082840312156145c8576145c76159d4565b5b60006145d6848285016142db565b91505092915050565b600080600080600060a086880312156145fb576145fa6159d4565b5b600086013567ffffffffffffffff811115614619576146186159cf565b5b6146258882890161431a565b955050602061463688828901614348565b945050604061464788828901614305565b935050606061465888828901614348565b925050608086013567ffffffffffffffff811115614679576146786159cf565b5b614685888289016142ad565b9150509295509295909350565b6000602082840312156146a8576146a76159d4565b5b60006146b684828501614348565b91505092915050565b60006146cb8383614c64565b60c08301905092915050565b60006146e38383614cdf565b60c08301905092915050565b60006146fb8383614d97565b905092915050565b600061470f8383614ea2565b905092915050565b61472081615717565b82525050565b61472f81615717565b82525050565b6000614740826155f0565b61474a818561565b565b935061475583615591565b8060005b8381101561478657815161476d88826146bf565b975061477883615627565b925050600181019050614759565b5085935050505092915050565b600061479e826155fb565b6147a8818561565b565b93506147b3836155a1565b8060005b838110156147e357816147ca88826146d7565b97506147d583615634565b9250506001810190506147b7565b5085935050505092915050565b60006147fb82615606565b614805818561566c565b935083602082028501614817856155b6565b8060005b85811015614853578484038952815161483485826146ef565b945061483f83615641565b925060208a0199505060018101905061481b565b50829750879550505050505092915050565b600061487082615611565b61487a818561566c565b93508360208202850161488c856155c6565b8060005b858110156148c7578484038952816148a88582614703565b94506148b38361564e565b925060208a01995050600181019050614890565b50829750879550505050505092915050565b6148e281615729565b82525050565b6148f181615729565b82525050565b61490081615792565b82525050565b61490f81615792565b82525050565b61491e816157a4565b82525050565b61492d816157a4565b82525050565b61493c816157b6565b82525050565b600061494d8261561c565b614957818561567d565b93506149678185602086016157d7565b614970816159d9565b840191505092915050565b60006149868261561c565b614990818561568e565b93506149a08185602086016157d7565b6149a9816159d9565b840191505092915050565b600081546149c18161580a565b6149cb818661567d565b945060018216600081146149e657600181146149f857614a2b565b60ff1983168652602086019350614a2b565b614a01856155db565b60005b83811015614a2357815481890152600182019150602081019050614a04565b808801955050505b50505092915050565b6000614a41600f8361568e565b9150614a4c82615a04565b602082019050919050565b6000614a6460178361568e565b9150614a6f82615a2d565b602082019050919050565b6000614a8760158361568e565b9150614a9282615a56565b602082019050919050565b6000614aaa60188361568e565b9150614ab582615a7f565b602082019050919050565b6000614acd60158361568e565b9150614ad882615aa8565b602082019050919050565b6000614af0601d8361568e565b9150614afb82615ad1565b602082019050919050565b6000614b1360218361568e565b9150614b1e82615afa565b604082019050919050565b6000614b3660188361568e565b9150614b4182615b49565b602082019050919050565b6000614b5960198361568e565b9150614b6482615b72565b602082019050919050565b6000614b7c60128361568e565b9150614b8782615b9b565b602082019050919050565b6000614b9f601a8361568e565b9150614baa82615bc4565b602082019050919050565b6000614bc260138361568e565b9150614bcd82615bed565b602082019050919050565b6000614be560188361568e565b9150614bf082615c16565b602082019050919050565b6000614c08600d8361568e565b9150614c1382615c3f565b602082019050919050565b6000614c2b60148361568e565b9150614c3682615c68565b602082019050919050565b6000614c4e60178361568e565b9150614c5982615c91565b602082019050919050565b60c082016000820151614c7a6000850182614717565b506020820151614c8d6020850182614717565b506040820151614ca06040850182615072565b506060820151614cb36060850182615072565b506080820151614cc660808501826148f7565b5060a0820151614cd960a08501826148d9565b50505050565b60c082016000808301549050614cf48161583c565b614d016000860182614717565b5060018301549050614d128161583c565b614d1f6020860182614717565b5060028301549050614d3081615870565b614d3d6040860182615072565b5060038301549050614d4e81615870565b614d5b6060860182615072565b5060048301549050614d6c81615856565b614d7960808601826148f7565b50614d838161588a565b614d9060a08601826148d9565b5050505050565b6000610160830160008301518482036000860152614db58282614942565b91505060208301518482036020860152614dcf8282614942565b91505060408301518482036040860152614de98282614942565b91505060608301518482036060860152614e038282614942565b9150506080830151614e186080860182615072565b5060a0830151614e2b60a0860182615072565b5060c0830151614e3e60c0860182615072565b5060e0830151614e5160e0860182615072565b50610100830151614e66610100860182615072565b50610120830151848203610120860152614e808282614942565b915050610140830151614e97610140860182614717565b508091505092915050565b6000610160830160008084018583036000870152614ec083826149b4565b925050600184018583036020870152614ed983826149b4565b925050600284018583036040870152614ef283826149b4565b925050600384018583036060870152614f0b83826149b4565b92505060048401549050614f1e81615870565b614f2b6080870182615072565b5060058401549050614f3c81615870565b614f4960a0870182615072565b5060068401549050614f5a81615870565b614f6760c0870182615072565b5060078401549050614f7881615870565b614f8560e0870182615072565b5060088401549050614f9681615870565b614fa4610100870182615072565b5060098401858303610120870152614fbc83826149b4565b925050600a8401549050614fcf8161583c565b614fdd610140870182614717565b50819250505092915050565b600060c08301600083015184820360008601526150068282614942565b915050602083015161501b6020860182615072565b50604083015161502e6040860182614915565b5060608301516150416060860182615072565b5060808301516150546080860182614717565b5060a083015161506760a08601826148d9565b508091505092915050565b61507b8161577b565b82525050565b61508a8161577b565b82525050565b60006060820190506150a56000830186614726565b6150b26020830185614726565b6150bf6040830184615081565b949350505050565b60006040820190506150dc6000830185614726565b6150e96020830184614933565b9392505050565b60006040820190506151056000830185614726565b6151126020830184615081565b9392505050565b600060608201905061512e6000830185614726565b61513b6020830184615081565b818103604083015261514c81614a34565b90509392505050565b600060608201905061516a6000830185614726565b6151776020830184615081565b818103604083015261518881614b6f565b90509392505050565b60006060820190506151a66000830185614726565b6151b36020830184615081565b81810360408301526151c481614bfb565b90509392505050565b600060208201905081810360008301526151e78184614735565b905092915050565b600060208201905081810360008301526152098184614793565b905092915050565b6000602082019050818103600083015261522b81846147f0565b905092915050565b6000602082019050818103600083015261524d8184614865565b905092915050565b600060208201905061526a6000830184614906565b92915050565b600060a082019050818103600083015261528a818861497b565b90506152996020830187614924565b6152a66040830186615081565b6152b36060830185614726565b6152c060808301846148e8565b9695505050505050565b600060c08201905081810360008301526152e4818961497b565b90506152f36020830188615081565b6153006040830187614924565b61530d6060830186615081565b61531a6080830185614726565b61532760a08301846148e8565b979650505050505050565b6000602082019050818103600083015261534b81614a57565b9050919050565b6000602082019050818103600083015261536b81614a7a565b9050919050565b6000602082019050818103600083015261538b81614a9d565b9050919050565b600060208201905081810360008301526153ab81614ac0565b9050919050565b600060208201905081810360008301526153cb81614ae3565b9050919050565b600060208201905081810360008301526153eb81614b06565b9050919050565b6000602082019050818103600083015261540b81614b29565b9050919050565b6000602082019050818103600083015261542b81614b4c565b9050919050565b6000602082019050818103600083015261544b81614b92565b9050919050565b6000602082019050818103600083015261546b81614bb5565b9050919050565b6000602082019050818103600083015261548b81614bd8565b9050919050565b600060208201905081810360008301526154ab81614c1e565b9050919050565b600060208201905081810360008301526154cb81614c41565b9050919050565b600060208201905081810360008301526154ec8184614fe9565b905092915050565b60006020820190506155096000830184615081565b92915050565b600061551961552a565b905061552582826158a4565b919050565b6000604051905090565b600067ffffffffffffffff82111561554f5761554e615991565b5b602082029050602081019050919050565b600067ffffffffffffffff82111561557b5761557a615991565b5b615584826159d9565b9050602081019050919050565b6000819050602082019050919050565b60008190508160005260206000209050919050565b6000819050602082019050919050565b60008190508160005260206000209050919050565b60008190508160005260206000209050919050565b600081519050919050565b600081549050919050565b600081519050919050565b600081549050919050565b600081519050919050565b6000602082019050919050565b6000600582019050919050565b6000602082019050919050565b6000600b82019050919050565b600082825260208201905092915050565b600082825260208201905092915050565b600082825260208201905092915050565b600082825260208201905092915050565b60006156aa8261577b565b91506156b58361577b565b9250828210156156c8576156c76158d5565b5b828203905092915050565b600073ffffffffffffffffffffffffffffffffffffffff82169050919050565b600060ff82169050919050565b600060ff82169050919050565b6000819050919050565b60006157228261575b565b9050919050565b60008115159050919050565b600081905061574382615cba565b919050565b600081905061575682615cce565b919050565b600073ffffffffffffffffffffffffffffffffffffffff82169050919050565b6000819050919050565b600060ff82169050919050565b600061579d82615735565b9050919050565b60006157af82615748565b9050919050565b60006157c18261577b565b9050919050565b82818337600083830152505050565b60005b838110156157f55780820151818401526020810190506157da565b83811115615804576000848401525b50505050565b6000600282049050600182168061582257607f821691505b6020821081141561583657615835615933565b5b50919050565b600061584f61584a836159ea565b6156d3565b9050919050565b6000615869615864836159ea565b615700565b9050919050565b600061588361587e836159ea565b61570d565b9050919050565b600061589d615898836159f7565b6156f3565b9050919050565b6158ad826159d9565b810181811067ffffffffffffffff821117156158cc576158cb615991565b5b80604052505050565b7f4e487b7100000000000000000000000000000000000000000000000000000000600052601160045260246000fd5b7f4e487b7100000000000000000000000000000000000000000000000000000000600052602160045260246000fd5b7f4e487b7100000000000000000000000000000000000000000000000000000000600052602260045260246000fd5b7f4e487b7100000000000000000000000000000000000000000000000000000000600052603260045260246000fd5b7f4e487b7100000000000000000000000000000000000000000000000000000000600052604160045260246000fd5b600080fd5b600080fd5b600080fd5b600080fd5b600080fd5b6000601f19601f8301169050919050565b60008160001c9050919050565b60008160081c9050919050565b7f76616c696461746520646f63746f720000000000000000000000000000000000600082015250565b7f4f6e6c792050617469656e742043616e20416363657373000000000000000000600082015250565b7f5469636b657420616c72656164792063616e63656c0000000000000000000000600082015250565b7f4f6e6c79204e657720557365722043616e204163636573730000000000000000600082015250565b7f4f6e6c79204f776e65722043616e204163636573730000000000000000000000600082015250565b7f4f6e6c792041637469766520446f63746f722043616e20416363657373000000600082015250565b7f536f6d657468696e67204572726f72207769746820666565207472616e73666560008201527f7200000000000000000000000000000000000000000000000000000000000000602082015250565b7f4170706f696e746d656e74206e6f742070726f63656564210000000000000000600082015250565b7f5468617473205469636b6574206973206e6f7420796f75727300000000000000600082015250565b7f637265617465206170706f696e746d656e740000000000000000000000000000600082015250565b7f50617469656e74206e6f7420696e204578616d2050726f736573000000000000600082015250565b7f57726f6e67207469636b6574206e756d62657200000000000000000000000000600082015250565b7f496e736572742048696768657220446f63746f72204665650000000000000000600082015250565b7f7265676973746572207573657200000000000000000000000000000000000000600082015250565b7f5061796d656e74206e6f742070726f6365656421000000000000000000000000600082015250565b7f617070726f766520636f6e7472616374206661696c6564000000000000000000600082015250565b60068110615ccb57615cca615904565b5b50565b60028110615cdf57615cde615904565b5b50565b615ceb81615717565b8114615cf657600080fd5b50565b615d0281615729565b8114615d0d57600080fd5b50565b60068110615d1d57600080fd5b50565b60028110615d2d57600080fd5b50565b615d398161577b565b8114615d4457600080fd5b50565b615d5081615785565b8114615d5b57600080fd5b5056fea2646970667358221220966e55d8036c14b018f1a48bd314eeb0fffffd6e581e64e557078b5f3bbac38964736f6c63430008070033",
  "immutableReferences": {},
  "source": "// SPDX-License-Identifier: GPL-3.0\r\npragma solidity >=0.7.0 <0.9.0;\r\n\r\nimport \"./Token.sol\";\r\n\r\ncontract Emed {\r\n    address private owner;\r\n    uint256 private contractFee;\r\n    IRSTKN tokenIRS;\r\n\r\n    constructor(address _tokenAdd) {\r\n        owner = msg.sender;\r\n        tokenIRS = IRSTKN(_tokenAdd);\r\n        contractFee = 10;\r\n    }\r\n\r\n    modifier onlyOwner() {\r\n        require(msg.sender == owner, \"Only Owner Can Access\");\r\n        _;\r\n    }\r\n\r\n    modifier onlyDoctor() {\r\n        User memory foundUser = registeredUsers[msg.sender];\r\n        require(\r\n            (foundUser.userType == UserType.DOCTOR && foundUser.active == true),\r\n            \"Only Active Doctor Can Access\"\r\n        );\r\n        _;\r\n    }\r\n\r\n    modifier onlyPatient() {\r\n        User memory foundUser = registeredUsers[msg.sender];\r\n        require(\r\n            foundUser.userType == UserType.PATIENT,\r\n            \"Only Patient Can Access\"\r\n        );\r\n        _;\r\n    }\r\n\r\n    modifier onlyNewUser() {\r\n        User memory foundUser = registeredUsers[msg.sender];\r\n        require(foundUser.dob == 0, \"Only New User Can Access\");\r\n        _;\r\n    }\r\n\r\n    event NewLog(address creator, uint256 date, string functionName);\r\n    event NewMedicalRecord(address patient, address doctor, uint256 date);\r\n    event CallMedicalRecords(MedicalRecord[] _m);\r\n    event CallAppointments(Appointment[] _a);\r\n    event CheckAmount(uint256 amount);\r\n\r\n    struct MedicalRecord {\r\n        string subjective;\r\n        string objective;\r\n        string assesment;\r\n        string planning;\r\n        uint256 weight;\r\n        uint256 height;\r\n        uint256 systole;\r\n        uint256 diastole;\r\n        uint256 examDate;\r\n        string examLocation;\r\n        address doctorAddress;\r\n    }\r\n\r\n    enum UserType {\r\n        DOCTOR,\r\n        PATIENT\r\n    }\r\n\r\n    enum Schedule {\r\n        MONDAY,\r\n        TUESDAY,\r\n        WEDNESDAY,\r\n        THURSDAY,\r\n        FRIDAY,\r\n        SATURDAY\r\n    }\r\n\r\n    struct User {\r\n        string name;\r\n        uint256 dob;\r\n        UserType userType;\r\n        uint256 doctorFee;\r\n        address walletAddress;\r\n        bool active;\r\n    }\r\n\r\n    struct Appointment {\r\n        address doctorAddress;\r\n        address patientAddress;\r\n        uint256 totalFee;\r\n        uint256 examDate;\r\n        Schedule examSchedule;\r\n        bool active;\r\n    }\r\n\r\n    mapping(address => User) public registeredUsers;\r\n    mapping(address => Appointment[]) doctor_appointments;\r\n    mapping(address => MedicalRecord[]) user_medicalRecords;\r\n    mapping(address => Schedule[]) public doctor_schedule;\r\n    mapping(address => bool) patientExamStatus;\r\n\r\n    User[] public validDoctors;\r\n\r\n    // to check when user is already registered\r\n    function checkUser()\r\n        public\r\n        view\r\n        returns (\r\n            string memory name,\r\n            UserType userType,\r\n            uint256 doctorFee,\r\n            address walletAddress,\r\n            bool active\r\n        )\r\n    {\r\n        User memory u = registeredUsers[msg.sender];\r\n        return (u.name, u.userType, u.doctorFee, u.walletAddress, u.active);\r\n    }\r\n\r\n    // for register new User\r\n    function registerUser(\r\n        string memory _name,\r\n        uint256 _dob,\r\n        UserType _userType,\r\n        uint256 _doctorFee,\r\n        Schedule[] memory _doctorSchedule\r\n    ) public onlyNewUser {\r\n        User memory newUser;\r\n        newUser.name = _name;\r\n        newUser.dob = _dob;\r\n        newUser.userType = _userType;\r\n        newUser.doctorFee = 0;\r\n        newUser.active = true;\r\n        newUser.walletAddress = msg.sender;\r\n        if (_userType == UserType.DOCTOR) {\r\n            require(_doctorFee > contractFee, \"Insert Higher Doctor Fee\");\r\n            newUser.active = false;\r\n            newUser.doctorFee = _doctorFee;\r\n            doctor_schedule[msg.sender] = _doctorSchedule;\r\n        }\r\n        registeredUsers[msg.sender] = newUser;\r\n        require(\r\n            tokenIRS.approveFromContract(msg.sender, 100000) == true,\r\n            \"approve contract failed\"\r\n        );\r\n        emit NewLog(msg.sender, block.timestamp, \"register user\");\r\n    }\r\n\r\n    function validateDoctor(address _doctorAddress) public onlyOwner {\r\n        User memory foundDoctor = registeredUsers[_doctorAddress];\r\n        foundDoctor.active = true;\r\n        registeredUsers[_doctorAddress] = foundDoctor;\r\n        validDoctors.push(foundDoctor);\r\n        emit NewLog(msg.sender, block.timestamp, \"validate doctor\");\r\n    }\r\n\r\n    function createAppointment(\r\n        address _doctorAddress,\r\n        uint256 _examDate,\r\n        Schedule _examSchedule\r\n    ) public onlyPatient returns (uint256) {\r\n        // find doctor to get fee\r\n        User memory doctor = registeredUsers[_doctorAddress];\r\n        emit CheckAmount(doctor.doctorFee);\r\n\r\n        Appointment memory newAppointment;\r\n        newAppointment.doctorAddress = _doctorAddress;\r\n        newAppointment.examDate = _examDate;\r\n        newAppointment.examSchedule = _examSchedule;\r\n        newAppointment.totalFee = doctor.doctorFee;\r\n        newAppointment.patientAddress = msg.sender;\r\n        newAppointment.active = true;\r\n        require(\r\n            tokenIRS.transferFrom(\r\n                msg.sender,\r\n                address(this),\r\n                doctor.doctorFee\r\n            ) == true,\r\n            \"Appointment not proceed!\"\r\n        );\r\n        doctor_appointments[_doctorAddress].push(newAppointment);\r\n        emit NewLog(msg.sender, block.timestamp, \"create appointment\");\r\n        patientExamStatus[msg.sender] = true;\r\n        return doctor_appointments[_doctorAddress].length;\r\n    }\r\n\r\n    function cancelAppointment(address _doctorAddress, uint256 _ticketNumber)\r\n        public\r\n        onlyPatient\r\n    {\r\n        require(\r\n            _ticketNumber - 1 < doctor_appointments[_doctorAddress].length,\r\n            \"Wrong ticket number\"\r\n        );\r\n        require(\r\n            doctor_appointments[_doctorAddress][_ticketNumber - 1]\r\n                .patientAddress == msg.sender,\r\n            \"Thats Ticket is not yours\"\r\n        );\r\n        // find doctor to get fee\r\n        User memory doctor = registeredUsers[_doctorAddress];\r\n        emit CheckAmount(doctor.doctorFee);\r\n        uint256 deductFee = doctor.doctorFee - contractFee;\r\n        require(\r\n            tokenIRS.transfer(msg.sender, deductFee) == true,\r\n            \"Something Error with fee transfer\"\r\n        );\r\n        require(\r\n            doctor_appointments[_doctorAddress][_ticketNumber - 1].active ==\r\n                true,\r\n            \"Ticket already cancel\"\r\n        );\r\n        patientExamStatus[msg.sender] = false;\r\n        doctor_appointments[_doctorAddress][_ticketNumber - 1].active = false;\r\n    }\r\n\r\n    function getPatientList() public onlyDoctor returns (Appointment[] memory) {\r\n        emit CallAppointments(doctor_appointments[msg.sender]);\r\n        return doctor_appointments[msg.sender];\r\n    }\r\n\r\n    function getPatientDetail(address _patientAddress)\r\n        public\r\n        view\r\n        onlyDoctor\r\n        returns (User memory)\r\n    {\r\n        return registeredUsers[_patientAddress];\r\n    }\r\n\r\n    function addMedicalRecord(\r\n        address _patientAddress,\r\n        string memory _subjective,\r\n        string memory _objective,\r\n        string memory _assesment,\r\n        string memory _planning,\r\n        uint8 _weight,\r\n        uint8 _height,\r\n        uint8 _systole,\r\n        uint8 _diastole,\r\n        uint256 _examDate,\r\n        string memory _examLocation\r\n    ) public onlyDoctor {\r\n        //this one is for chec if Patient is In Examination Prosess to prevent doctor do multiple adding\r\n        require(\r\n            patientExamStatus[_patientAddress] == true,\r\n            \"Patient not in Exam Proses\"\r\n        );\r\n        // after the condition pass status became false due the end of Examination proses\r\n        patientExamStatus[_patientAddress] = false;\r\n\r\n        MedicalRecord memory newMedicalRecord;\r\n        newMedicalRecord.subjective = _subjective;\r\n        newMedicalRecord.objective = _objective;\r\n        newMedicalRecord.assesment = _assesment;\r\n        newMedicalRecord.planning = _planning;\r\n        newMedicalRecord.weight = _weight;\r\n        newMedicalRecord.height = _height;\r\n        newMedicalRecord.systole = _systole;\r\n        newMedicalRecord.diastole = _diastole;\r\n        newMedicalRecord.examDate = _examDate;\r\n        newMedicalRecord.examLocation = _examLocation;\r\n        newMedicalRecord.doctorAddress = msg.sender;\r\n        user_medicalRecords[_patientAddress].push(newMedicalRecord);\r\n\r\n        // find doctor to get fee\r\n        User memory doctor = registeredUsers[msg.sender];\r\n\r\n        // deduct fee for contract owner\r\n        uint256 amountPayedToDoctor = doctor.doctorFee - contractFee;\r\n        require(\r\n            tokenIRS.transfer(msg.sender, amountPayedToDoctor) == true,\r\n            \"Payment not proceed!\"\r\n        );\r\n        emit NewMedicalRecord(_patientAddress, msg.sender, block.timestamp);\r\n    }\r\n\r\n    function doctorGetMedicalRecords(address _patientAddress)\r\n        public\r\n        onlyDoctor\r\n        returns (MedicalRecord[] memory)\r\n    {\r\n        emit CallMedicalRecords(user_medicalRecords[_patientAddress]);\r\n        return user_medicalRecords[_patientAddress];\r\n    }\r\n\r\n    function userGetOwnMedicalRecords()\r\n        public\r\n        onlyPatient\r\n        returns (MedicalRecord[] memory)\r\n    {\r\n        emit CallMedicalRecords(user_medicalRecords[msg.sender]);\r\n        return user_medicalRecords[msg.sender];\r\n    }\r\n\r\n    function setContractFee(uint256 _fee) public onlyOwner {\r\n        contractFee = _fee;\r\n    }\r\n}\r\n",
  "sourcePath": "C:\\Users\\Irsantyo_M870\\Documents\\Irsantyo_Personal\\Emurgo\\E-Med_Contract\\contracts\\Emed.sol",
  "compiler": {
    "name": "solc",
    "version": "0.8.7+commit.e28d00a7.Emscripten.clang"
  },
  "schemaVersion": "3.4.3",
  "updatedAt": "2021-09-28T13:27:09.599Z",
  "networkType": "ethereum",
  "devdoc": {
    "kind": "dev",
    "methods": {},
    "version": 1
  },
  "userdoc": {
    "kind": "user",
    "methods": {},
    "version": 1
  }
}