{
  "contractName": "Emed",
  "abi": [
    {
      "inputs": [
        {
          "internalType": "address",
          "name": "_tokenAdd",
          "type": "address"
        }
      ],
      "stateMutability": "nonpayable",
      "type": "constructor"
    },
    {
      "anonymous": false,
      "inputs": [
        {
          "components": [
            {
              "internalType": "address",
              "name": "doctorAddress",
              "type": "address"
            },
            {
              "internalType": "address",
              "name": "patientAddress",
              "type": "address"
            },
            {
              "internalType": "uint256",
              "name": "totalFee",
              "type": "uint256"
            },
            {
              "internalType": "uint256",
              "name": "examDate",
              "type": "uint256"
            },
            {
              "internalType": "enum Emed.Schedule",
              "name": "examSchedule",
              "type": "uint8"
            },
            {
              "internalType": "bool",
              "name": "active",
              "type": "bool"
            }
          ],
          "indexed": false,
          "internalType": "struct Emed.Appointment[]",
          "name": "_a",
          "type": "tuple[]"
        }
      ],
      "name": "CallAppointments",
      "type": "event"
    },
    {
      "anonymous": false,
      "inputs": [
        {
          "components": [
            {
              "internalType": "string",
              "name": "subjective",
              "type": "string"
            },
            {
              "internalType": "string",
              "name": "objective",
              "type": "string"
            },
            {
              "internalType": "string",
              "name": "assesment",
              "type": "string"
            },
            {
              "internalType": "string",
              "name": "planning",
              "type": "string"
            },
            {
              "internalType": "uint256",
              "name": "weight",
              "type": "uint256"
            },
            {
              "internalType": "uint256",
              "name": "height",
              "type": "uint256"
            },
            {
              "internalType": "uint256",
              "name": "systole",
              "type": "uint256"
            },
            {
              "internalType": "uint256",
              "name": "diastole",
              "type": "uint256"
            },
            {
              "internalType": "uint256",
              "name": "examDate",
              "type": "uint256"
            },
            {
              "internalType": "string",
              "name": "examLocation",
              "type": "string"
            },
            {
              "internalType": "address",
              "name": "doctorAddress",
              "type": "address"
            }
          ],
          "indexed": false,
          "internalType": "struct Emed.MedicalRecord[]",
          "name": "_m",
          "type": "tuple[]"
        }
      ],
      "name": "CallMedicalRecords",
      "type": "event"
    },
    {
      "anonymous": false,
      "inputs": [
        {
          "indexed": false,
          "internalType": "uint256",
          "name": "amount",
          "type": "uint256"
        }
      ],
      "name": "CheckAmount",
      "type": "event"
    },
    {
      "anonymous": false,
      "inputs": [
        {
          "indexed": false,
          "internalType": "address",
          "name": "creator",
          "type": "address"
        },
        {
          "indexed": false,
          "internalType": "uint256",
          "name": "date",
          "type": "uint256"
        },
        {
          "indexed": false,
          "internalType": "string",
          "name": "functionName",
          "type": "string"
        }
      ],
      "name": "NewLog",
      "type": "event"
    },
    {
      "anonymous": false,
      "inputs": [
        {
          "indexed": false,
          "internalType": "address",
          "name": "patient",
          "type": "address"
        },
        {
          "indexed": false,
          "internalType": "address",
          "name": "doctor",
          "type": "address"
        },
        {
          "indexed": false,
          "internalType": "uint256",
          "name": "date",
          "type": "uint256"
        }
      ],
      "name": "NewMedicalRecord",
      "type": "event"
    },
    {
      "inputs": [
        {
          "internalType": "address",
          "name": "",
          "type": "address"
        },
        {
          "internalType": "uint256",
          "name": "",
          "type": "uint256"
        }
      ],
      "name": "doctor_schedule",
      "outputs": [
        {
          "internalType": "enum Emed.Schedule",
          "name": "",
          "type": "uint8"
        }
      ],
      "stateMutability": "view",
      "type": "function",
      "constant": true
    },
    {
      "inputs": [
        {
          "internalType": "uint256",
          "name": "",
          "type": "uint256"
        }
      ],
      "name": "validDoctors",
      "outputs": [
        {
          "internalType": "string",
          "name": "name",
          "type": "string"
        },
        {
          "internalType": "uint256",
          "name": "dob",
          "type": "uint256"
        },
        {
          "internalType": "enum Emed.UserType",
          "name": "userType",
          "type": "uint8"
        },
        {
          "internalType": "uint256",
          "name": "doctorFee",
          "type": "uint256"
        },
        {
          "internalType": "address",
          "name": "walletAddress",
          "type": "address"
        },
        {
          "internalType": "bool",
          "name": "active",
          "type": "bool"
        }
      ],
      "stateMutability": "view",
      "type": "function",
      "constant": true
    },
    {
      "inputs": [],
      "name": "checkUser",
      "outputs": [
        {
          "internalType": "string",
          "name": "name",
          "type": "string"
        },
        {
          "internalType": "enum Emed.UserType",
          "name": "userType",
          "type": "uint8"
        },
        {
          "internalType": "uint256",
          "name": "doctorFee",
          "type": "uint256"
        },
        {
          "internalType": "address",
          "name": "walletAddress",
          "type": "address"
        },
        {
          "internalType": "bool",
          "name": "active",
          "type": "bool"
        }
      ],
      "stateMutability": "view",
      "type": "function",
      "constant": true
    },
    {
      "inputs": [
        {
          "internalType": "string",
          "name": "_name",
          "type": "string"
        },
        {
          "internalType": "uint256",
          "name": "_dob",
          "type": "uint256"
        },
        {
          "internalType": "enum Emed.UserType",
          "name": "_userType",
          "type": "uint8"
        },
        {
          "internalType": "uint256",
          "name": "_doctorFee",
          "type": "uint256"
        },
        {
          "internalType": "enum Emed.Schedule[]",
          "name": "_doctorSchedule",
          "type": "uint8[]"
        }
      ],
      "name": "registerUser",
      "outputs": [],
      "stateMutability": "nonpayable",
      "type": "function"
    },
    {
      "inputs": [
        {
          "internalType": "address",
          "name": "_doctorAddress",
          "type": "address"
        }
      ],
      "name": "validateDoctor",
      "outputs": [],
      "stateMutability": "nonpayable",
      "type": "function"
    },
    {
      "inputs": [
        {
          "internalType": "address",
          "name": "_doctorAddress",
          "type": "address"
        },
        {
          "internalType": "uint256",
          "name": "_examDate",
          "type": "uint256"
        },
        {
          "internalType": "enum Emed.Schedule",
          "name": "_examSchedule",
          "type": "uint8"
        }
      ],
      "name": "createAppointment",
      "outputs": [
        {
          "internalType": "uint256",
          "name": "",
          "type": "uint256"
        }
      ],
      "stateMutability": "nonpayable",
      "type": "function"
    },
    {
      "inputs": [
        {
          "internalType": "address",
          "name": "_doctorAddress",
          "type": "address"
        },
        {
          "internalType": "uint256",
          "name": "_ticketNumber",
          "type": "uint256"
        }
      ],
      "name": "cancelAppointment",
      "outputs": [],
      "stateMutability": "nonpayable",
      "type": "function"
    },
    {
      "inputs": [],
      "name": "getPatientList",
      "outputs": [
        {
          "components": [
            {
              "internalType": "address",
              "name": "doctorAddress",
              "type": "address"
            },
            {
              "internalType": "address",
              "name": "patientAddress",
              "type": "address"
            },
            {
              "internalType": "uint256",
              "name": "totalFee",
              "type": "uint256"
            },
            {
              "internalType": "uint256",
              "name": "examDate",
              "type": "uint256"
            },
            {
              "internalType": "enum Emed.Schedule",
              "name": "examSchedule",
              "type": "uint8"
            },
            {
              "internalType": "bool",
              "name": "active",
              "type": "bool"
            }
          ],
          "internalType": "struct Emed.Appointment[]",
          "name": "",
          "type": "tuple[]"
        }
      ],
      "stateMutability": "nonpayable",
      "type": "function"
    },
    {
      "inputs": [
        {
          "internalType": "address",
          "name": "_patientAddress",
          "type": "address"
        }
      ],
      "name": "getPatientDetail",
      "outputs": [
        {
          "components": [
            {
              "internalType": "string",
              "name": "name",
              "type": "string"
            },
            {
              "internalType": "uint256",
              "name": "dob",
              "type": "uint256"
            },
            {
              "internalType": "enum Emed.UserType",
              "name": "userType",
              "type": "uint8"
            },
            {
              "internalType": "uint256",
              "name": "doctorFee",
              "type": "uint256"
            },
            {
              "internalType": "address",
              "name": "walletAddress",
              "type": "address"
            },
            {
              "internalType": "bool",
              "name": "active",
              "type": "bool"
            }
          ],
          "internalType": "struct Emed.User",
          "name": "",
          "type": "tuple"
        }
      ],
      "stateMutability": "view",
      "type": "function",
      "constant": true
    },
    {
      "inputs": [
        {
          "internalType": "address",
          "name": "_patientAddress",
          "type": "address"
        },
        {
          "internalType": "string",
          "name": "_subjective",
          "type": "string"
        },
        {
          "internalType": "string",
          "name": "_objective",
          "type": "string"
        },
        {
          "internalType": "string",
          "name": "_assesment",
          "type": "string"
        },
        {
          "internalType": "string",
          "name": "_planning",
          "type": "string"
        },
        {
          "internalType": "uint256",
          "name": "_weight",
          "type": "uint256"
        },
        {
          "internalType": "uint256",
          "name": "_height",
          "type": "uint256"
        },
        {
          "internalType": "uint256",
          "name": "_systole",
          "type": "uint256"
        },
        {
          "internalType": "uint256",
          "name": "_diastole",
          "type": "uint256"
        },
        {
          "internalType": "uint256",
          "name": "_examDate",
          "type": "uint256"
        },
        {
          "internalType": "string",
          "name": "_examLocation",
          "type": "string"
        }
      ],
      "name": "addMedicalRecord",
      "outputs": [],
      "stateMutability": "nonpayable",
      "type": "function"
    },
    {
      "inputs": [
        {
          "internalType": "address",
          "name": "_patientAddress",
          "type": "address"
        }
      ],
      "name": "doctorGetMedicalRecords",
      "outputs": [
        {
          "components": [
            {
              "internalType": "string",
              "name": "subjective",
              "type": "string"
            },
            {
              "internalType": "string",
              "name": "objective",
              "type": "string"
            },
            {
              "internalType": "string",
              "name": "assesment",
              "type": "string"
            },
            {
              "internalType": "string",
              "name": "planning",
              "type": "string"
            },
            {
              "internalType": "uint256",
              "name": "weight",
              "type": "uint256"
            },
            {
              "internalType": "uint256",
              "name": "height",
              "type": "uint256"
            },
            {
              "internalType": "uint256",
              "name": "systole",
              "type": "uint256"
            },
            {
              "internalType": "uint256",
              "name": "diastole",
              "type": "uint256"
            },
            {
              "internalType": "uint256",
              "name": "examDate",
              "type": "uint256"
            },
            {
              "internalType": "string",
              "name": "examLocation",
              "type": "string"
            },
            {
              "internalType": "address",
              "name": "doctorAddress",
              "type": "address"
            }
          ],
          "internalType": "struct Emed.MedicalRecord[]",
          "name": "",
          "type": "tuple[]"
        }
      ],
      "stateMutability": "nonpayable",
      "type": "function"
    },
    {
      "inputs": [],
      "name": "userGetOwnMedicalRecords",
      "outputs": [
        {
          "components": [
            {
              "internalType": "string",
              "name": "subjective",
              "type": "string"
            },
            {
              "internalType": "string",
              "name": "objective",
              "type": "string"
            },
            {
              "internalType": "string",
              "name": "assesment",
              "type": "string"
            },
            {
              "internalType": "string",
              "name": "planning",
              "type": "string"
            },
            {
              "internalType": "uint256",
              "name": "weight",
              "type": "uint256"
            },
            {
              "internalType": "uint256",
              "name": "height",
              "type": "uint256"
            },
            {
              "internalType": "uint256",
              "name": "systole",
              "type": "uint256"
            },
            {
              "internalType": "uint256",
              "name": "diastole",
              "type": "uint256"
            },
            {
              "internalType": "uint256",
              "name": "examDate",
              "type": "uint256"
            },
            {
              "internalType": "string",
              "name": "examLocation",
              "type": "string"
            },
            {
              "internalType": "address",
              "name": "doctorAddress",
              "type": "address"
            }
          ],
          "internalType": "struct Emed.MedicalRecord[]",
          "name": "",
          "type": "tuple[]"
        }
      ],
      "stateMutability": "nonpayable",
      "type": "function"
    },
    {
      "inputs": [
        {
          "internalType": "uint256",
          "name": "_fee",
          "type": "uint256"
        }
      ],
      "name": "setContractFee",
      "outputs": [],
      "stateMutability": "nonpayable",
      "type": "function"
    }
  ],
  "bytecode": "0x60806040523480156200001157600080fd5b50604051620059c6380380620059c68339818101604052810190620000379190620000de565b336000806101000a81548173ffffffffffffffffffffffffffffffffffffffff021916908373ffffffffffffffffffffffffffffffffffffffff16021790555080600260006101000a81548173ffffffffffffffffffffffffffffffffffffffff021916908373ffffffffffffffffffffffffffffffffffffffff160217905550600a6001819055505062000163565b600081519050620000d88162000149565b92915050565b600060208284031215620000f757620000f662000144565b5b60006200010784828501620000c7565b91505092915050565b60006200011d8262000124565b9050919050565b600073ffffffffffffffffffffffffffffffffffffffff82169050919050565b600080fd5b620001548162000110565b81146200016057600080fd5b50565b61585380620001736000396000f3fe608060405234801561001057600080fd5b50600436106100cf5760003560e01c806375d855c21161008c578063bcf6321611610066578063bcf6321614610224578063c156254714610259578063e02f46ac1461027b578063fa88ab8214610297576100cf565b806375d855c2146101bc57806383c0c9f5146101d8578063a79f990f146101f4576100cf565b80631bec3cbe146100d45780632bc8504a146100f257806340ddfb29146101225780634aa67d3114610152578063503b13541461016e578063740f16eb1461018c575b600080fd5b6100dc6102b3565b6040516100e99190614dcf565b60405180910390f35b61010c60048036038101906101079190613f99565b610932565b6040516101199190615030565b60405180910390f35b61013c60048036038101906101379190614186565b610cfd565b6040516101499190615052565b60405180910390f35b61016c600480360381019061016791906142b9565b611494565b005b61017661152c565b6040516101839190614d8b565b60405180910390f35b6101a660048036038101906101a19190613f99565b611973565b6040516101b39190614dcf565b60405180910390f35b6101d660048036038101906101d19190613fc6565b612009565b005b6101f260048036038101906101ed9190614206565b612770565b005b61020e60048036038101906102099190614146565b612cd8565b60405161021b9190614e13565b60405180910390f35b61023e600480360381019061023991906142b9565b612d1b565b60405161025096959493929190614e88565b60405180910390f35b610261612e29565b604051610272959493929190614e2e565b60405180910390f35b61029560048036038101906102909190613f99565b612ffc565b005b6102b160048036038101906102ac9190614146565b613479565b005b60606000600360003373ffffffffffffffffffffffffffffffffffffffff1673ffffffffffffffffffffffffffffffffffffffff1681526020019081526020016000206040518060c00160405290816000820180546103119061535b565b80601f016020809104026020016040519081016040528092919081815260200182805461033d9061535b565b801561038a5780601f1061035f5761010080835404028352916020019161038a565b820191906000526020600020905b81548152906001019060200180831161036d57829003601f168201915b50505050508152602001600182015481526020016002820160009054906101000a900460ff1660018111156103c2576103c1615455565b5b60018111156103d4576103d3615455565b5b8152602001600382015481526020016004820160009054906101000a900473ffffffffffffffffffffffffffffffffffffffff1673ffffffffffffffffffffffffffffffffffffffff1673ffffffffffffffffffffffffffffffffffffffff1681526020016004820160149054906101000a900460ff161515151581525050905060018081111561046857610467615455565b5b8160400151600181111561047f5761047e615455565b5b146104bf576040517f08c379a00000000000000000000000000000000000000000000000000000000081526004016104b690614ef0565b60405180910390fd5b7f3ead100446084f34be236dbd282868987bb15ae4f8ad0a1d3c1d6635643276f0600560003373ffffffffffffffffffffffffffffffffffffffff1673ffffffffffffffffffffffffffffffffffffffff16815260200190815260200160002060405161052c9190614df1565b60405180910390a1600560003373ffffffffffffffffffffffffffffffffffffffff1673ffffffffffffffffffffffffffffffffffffffff168152602001908152602001600020805480602002602001604051908101604052809291908181526020016000905b8282101561092857838290600052602060002090600b0201604051806101600160405290816000820180546105c79061535b565b80601f01602080910402602001604051908101604052809291908181526020018280546105f39061535b565b80156106405780601f1061061557610100808354040283529160200191610640565b820191906000526020600020905b81548152906001019060200180831161062357829003601f168201915b505050505081526020016001820180546106599061535b565b80601f01602080910402602001604051908101604052809291908181526020018280546106859061535b565b80156106d25780601f106106a7576101008083540402835291602001916106d2565b820191906000526020600020905b8154815290600101906020018083116106b557829003601f168201915b505050505081526020016002820180546106eb9061535b565b80601f01602080910402602001604051908101604052809291908181526020018280546107179061535b565b80156107645780601f1061073957610100808354040283529160200191610764565b820191906000526020600020905b81548152906001019060200180831161074757829003601f168201915b5050505050815260200160038201805461077d9061535b565b80601f01602080910402602001604051908101604052809291908181526020018280546107a99061535b565b80156107f65780601f106107cb576101008083540402835291602001916107f6565b820191906000526020600020905b8154815290600101906020018083116107d957829003601f168201915b5050505050815260200160048201548152602001600582015481526020016006820154815260200160078201548152602001600882015481526020016009820180546108419061535b565b80601f016020809104026020016040519081016040528092919081815260200182805461086d9061535b565b80156108ba5780601f1061088f576101008083540402835291602001916108ba565b820191906000526020600020905b81548152906001019060200180831161089d57829003601f168201915b50505050508152602001600a820160009054906101000a900473ffffffffffffffffffffffffffffffffffffffff1673ffffffffffffffffffffffffffffffffffffffff1673ffffffffffffffffffffffffffffffffffffffff168152505081526020019060010190610593565b5050505091505090565b61093a613b83565b6000600360003373ffffffffffffffffffffffffffffffffffffffff1673ffffffffffffffffffffffffffffffffffffffff1681526020019081526020016000206040518060c00160405290816000820180546109969061535b565b80601f01602080910402602001604051908101604052809291908181526020018280546109c29061535b565b8015610a0f5780601f106109e457610100808354040283529160200191610a0f565b820191906000526020600020905b8154815290600101906020018083116109f257829003601f168201915b50505050508152602001600182015481526020016002820160009054906101000a900460ff166001811115610a4757610a46615455565b5b6001811115610a5957610a58615455565b5b8152602001600382015481526020016004820160009054906101000a900473ffffffffffffffffffffffffffffffffffffffff1673ffffffffffffffffffffffffffffffffffffffff1673ffffffffffffffffffffffffffffffffffffffff1681526020016004820160149054906101000a900460ff161515151581525050905060006001811115610aee57610aed615455565b5b81604001516001811115610b0557610b04615455565b5b148015610b1a5750600115158160a001511515145b610b59576040517f08c379a0000000000000000000000000000000000000000000000000000000008152600401610b5090614f50565b60405180910390fd5b600360008473ffffffffffffffffffffffffffffffffffffffff1673ffffffffffffffffffffffffffffffffffffffff1681526020019081526020016000206040518060c0016040529081600082018054610bb39061535b565b80601f0160208091040260200160405190810160405280929190818152602001828054610bdf9061535b565b8015610c2c5780601f10610c0157610100808354040283529160200191610c2c565b820191906000526020600020905b815481529060010190602001808311610c0f57829003601f168201915b50505050508152602001600182015481526020016002820160009054906101000a900460ff166001811115610c6457610c63615455565b5b6001811115610c7657610c75615455565b5b8152602001600382015481526020016004820160009054906101000a900473ffffffffffffffffffffffffffffffffffffffff1673ffffffffffffffffffffffffffffffffffffffff1673ffffffffffffffffffffffffffffffffffffffff1681526020016004820160149054906101000a900460ff161515151581525050915050919050565b600080600360003373ffffffffffffffffffffffffffffffffffffffff1673ffffffffffffffffffffffffffffffffffffffff1681526020019081526020016000206040518060c0016040529081600082018054610d5a9061535b565b80601f0160208091040260200160405190810160405280929190818152602001828054610d869061535b565b8015610dd35780601f10610da857610100808354040283529160200191610dd3565b820191906000526020600020905b815481529060010190602001808311610db657829003601f168201915b50505050508152602001600182015481526020016002820160009054906101000a900460ff166001811115610e0b57610e0a615455565b5b6001811115610e1d57610e1c615455565b5b8152602001600382015481526020016004820160009054906101000a900473ffffffffffffffffffffffffffffffffffffffff1673ffffffffffffffffffffffffffffffffffffffff1673ffffffffffffffffffffffffffffffffffffffff1681526020016004820160149054906101000a900460ff1615151515815250509050600180811115610eb157610eb0615455565b5b81604001516001811115610ec857610ec7615455565b5b14610f08576040517f08c379a0000000000000000000000000000000000000000000000000000000008152600401610eff90614ef0565b60405180910390fd5b6000600360008773ffffffffffffffffffffffffffffffffffffffff1673ffffffffffffffffffffffffffffffffffffffff1681526020019081526020016000206040518060c0016040529081600082018054610f649061535b565b80601f0160208091040260200160405190810160405280929190818152602001828054610f909061535b565b8015610fdd5780601f10610fb257610100808354040283529160200191610fdd565b820191906000526020600020905b815481529060010190602001808311610fc057829003601f168201915b50505050508152602001600182015481526020016002820160009054906101000a900460ff16600181111561101557611014615455565b5b600181111561102757611026615455565b5b8152602001600382015481526020016004820160009054906101000a900473ffffffffffffffffffffffffffffffffffffffff1673ffffffffffffffffffffffffffffffffffffffff1673ffffffffffffffffffffffffffffffffffffffff1681526020016004820160149054906101000a900460ff16151515158152505090507f478413d8b315c881caeefa77b465e53806c9152d17db72618981f1f20bb35c0d81606001516040516110db9190615052565b60405180910390a16110eb613be3565b86816000019073ffffffffffffffffffffffffffffffffffffffff16908173ffffffffffffffffffffffffffffffffffffffff168152505085816060018181525050848160800190600581111561114557611144615455565b5b9081600581111561115957611158615455565b5b81525050816060015181604001818152505033816020019073ffffffffffffffffffffffffffffffffffffffff16908173ffffffffffffffffffffffffffffffffffffffff168152505060018160a001901515908115158152505060011515600260009054906101000a900473ffffffffffffffffffffffffffffffffffffffff1673ffffffffffffffffffffffffffffffffffffffff166323b872dd333086606001516040518463ffffffff1660e01b815260040161121b93929190614c4e565b602060405180830381600087803b15801561123557600080fd5b505af1158015611249573d6000803e3d6000fd5b505050506040513d601f19601f8201168201806040525081019061126d91906141d9565b1515146112af576040517f08c379a00000000000000000000000000000000000000000000000000000000081526004016112a690614f90565b60405180910390fd5b600460008873ffffffffffffffffffffffffffffffffffffffff1673ffffffffffffffffffffffffffffffffffffffff16815260200190815260200160002081908060018154018082558091505060019003906000526020600020906005020160009091909190915060008201518160000160006101000a81548173ffffffffffffffffffffffffffffffffffffffff021916908373ffffffffffffffffffffffffffffffffffffffff16021790555060208201518160010160006101000a81548173ffffffffffffffffffffffffffffffffffffffff021916908373ffffffffffffffffffffffffffffffffffffffff160217905550604082015181600201556060820151816003015560808201518160040160006101000a81548160ff021916908360058111156113e5576113e4615455565b5b021790555060a08201518160040160016101000a81548160ff02191690831515021790555050507f80f27b639b268070597cc1e56095ab8f86def6301e542441a32573f30677e738334260405161143d929190614d13565b60405180910390a1600460008873ffffffffffffffffffffffffffffffffffffffff1673ffffffffffffffffffffffffffffffffffffffff1681526020019081526020016000208054905093505050509392505050565b60008054906101000a900473ffffffffffffffffffffffffffffffffffffffff1673ffffffffffffffffffffffffffffffffffffffff163373ffffffffffffffffffffffffffffffffffffffff1614611522576040517f08c379a000000000000000000000000000000000000000000000000000000000815260040161151990614f30565b60405180910390fd5b8060018190555050565b60606000600360003373ffffffffffffffffffffffffffffffffffffffff1673ffffffffffffffffffffffffffffffffffffffff1681526020019081526020016000206040518060c001604052908160008201805461158a9061535b565b80601f01602080910402602001604051908101604052809291908181526020018280546115b69061535b565b80156116035780601f106115d857610100808354040283529160200191611603565b820191906000526020600020905b8154815290600101906020018083116115e657829003601f168201915b50505050508152602001600182015481526020016002820160009054906101000a900460ff16600181111561163b5761163a615455565b5b600181111561164d5761164c615455565b5b8152602001600382015481526020016004820160009054906101000a900473ffffffffffffffffffffffffffffffffffffffff1673ffffffffffffffffffffffffffffffffffffffff1673ffffffffffffffffffffffffffffffffffffffff1681526020016004820160149054906101000a900460ff1615151515815250509050600060018111156116e2576116e1615455565b5b816040015160018111156116f9576116f8615455565b5b14801561170e5750600115158160a001511515145b61174d576040517f08c379a000000000000000000000000000000000000000000000000000000000815260040161174490614f50565b60405180910390fd5b7f33bae4024d6bc6cc19ea07294ed68df80dc5746848acff8a0a8fad409c2df40c600460003373ffffffffffffffffffffffffffffffffffffffff1673ffffffffffffffffffffffffffffffffffffffff1681526020019081526020016000206040516117ba9190614dad565b60405180910390a1600460003373ffffffffffffffffffffffffffffffffffffffff1673ffffffffffffffffffffffffffffffffffffffff168152602001908152602001600020805480602002602001604051908101604052809291908181526020016000905b8282101561196957838290600052602060002090600502016040518060c00160405290816000820160009054906101000a900473ffffffffffffffffffffffffffffffffffffffff1673ffffffffffffffffffffffffffffffffffffffff1673ffffffffffffffffffffffffffffffffffffffff1681526020016001820160009054906101000a900473ffffffffffffffffffffffffffffffffffffffff1673ffffffffffffffffffffffffffffffffffffffff1673ffffffffffffffffffffffffffffffffffffffff16815260200160028201548152602001600382015481526020016004820160009054906101000a900460ff16600581111561192957611928615455565b5b600581111561193b5761193a615455565b5b81526020016004820160019054906101000a900460ff16151515158152505081526020019060010190611821565b5050505091505090565b60606000600360003373ffffffffffffffffffffffffffffffffffffffff1673ffffffffffffffffffffffffffffffffffffffff1681526020019081526020016000206040518060c00160405290816000820180546119d19061535b565b80601f01602080910402602001604051908101604052809291908181526020018280546119fd9061535b565b8015611a4a5780601f10611a1f57610100808354040283529160200191611a4a565b820191906000526020600020905b815481529060010190602001808311611a2d57829003601f168201915b50505050508152602001600182015481526020016002820160009054906101000a900460ff166001811115611a8257611a81615455565b5b6001811115611a9457611a93615455565b5b8152602001600382015481526020016004820160009054906101000a900473ffffffffffffffffffffffffffffffffffffffff1673ffffffffffffffffffffffffffffffffffffffff1673ffffffffffffffffffffffffffffffffffffffff1681526020016004820160149054906101000a900460ff161515151581525050905060006001811115611b2957611b28615455565b5b81604001516001811115611b4057611b3f615455565b5b148015611b555750600115158160a001511515145b611b94576040517f08c379a0000000000000000000000000000000000000000000000000000000008152600401611b8b90614f50565b60405180910390fd5b7f3ead100446084f34be236dbd282868987bb15ae4f8ad0a1d3c1d6635643276f0600560008573ffffffffffffffffffffffffffffffffffffffff1673ffffffffffffffffffffffffffffffffffffffff168152602001908152602001600020604051611c019190614df1565b60405180910390a1600560008473ffffffffffffffffffffffffffffffffffffffff1673ffffffffffffffffffffffffffffffffffffffff168152602001908152602001600020805480602002602001604051908101604052809291908181526020016000905b82821015611ffd57838290600052602060002090600b020160405180610160016040529081600082018054611c9c9061535b565b80601f0160208091040260200160405190810160405280929190818152602001828054611cc89061535b565b8015611d155780601f10611cea57610100808354040283529160200191611d15565b820191906000526020600020905b815481529060010190602001808311611cf857829003601f168201915b50505050508152602001600182018054611d2e9061535b565b80601f0160208091040260200160405190810160405280929190818152602001828054611d5a9061535b565b8015611da75780601f10611d7c57610100808354040283529160200191611da7565b820191906000526020600020905b815481529060010190602001808311611d8a57829003601f168201915b50505050508152602001600282018054611dc09061535b565b80601f0160208091040260200160405190810160405280929190818152602001828054611dec9061535b565b8015611e395780601f10611e0e57610100808354040283529160200191611e39565b820191906000526020600020905b815481529060010190602001808311611e1c57829003601f168201915b50505050508152602001600382018054611e529061535b565b80601f0160208091040260200160405190810160405280929190818152602001828054611e7e9061535b565b8015611ecb5780601f10611ea057610100808354040283529160200191611ecb565b820191906000526020600020905b815481529060010190602001808311611eae57829003601f168201915b505050505081526020016004820154815260200160058201548152602001600682015481526020016007820154815260200160088201548152602001600982018054611f169061535b565b80601f0160208091040260200160405190810160405280929190818152602001828054611f429061535b565b8015611f8f5780601f10611f6457610100808354040283529160200191611f8f565b820191906000526020600020905b815481529060010190602001808311611f7257829003601f168201915b50505050508152602001600a820160009054906101000a900473ffffffffffffffffffffffffffffffffffffffff1673ffffffffffffffffffffffffffffffffffffffff1673ffffffffffffffffffffffffffffffffffffffff168152505081526020019060010190611c68565b50505050915050919050565b6000600360003373ffffffffffffffffffffffffffffffffffffffff1673ffffffffffffffffffffffffffffffffffffffff1681526020019081526020016000206040518060c00160405290816000820180546120659061535b565b80601f01602080910402602001604051908101604052809291908181526020018280546120919061535b565b80156120de5780601f106120b3576101008083540402835291602001916120de565b820191906000526020600020905b8154815290600101906020018083116120c157829003601f168201915b50505050508152602001600182015481526020016002820160009054906101000a900460ff16600181111561211657612115615455565b5b600181111561212857612127615455565b5b8152602001600382015481526020016004820160009054906101000a900473ffffffffffffffffffffffffffffffffffffffff1673ffffffffffffffffffffffffffffffffffffffff1673ffffffffffffffffffffffffffffffffffffffff1681526020016004820160149054906101000a900460ff1615151515815250509050600060018111156121bd576121bc615455565b5b816040015160018111156121d4576121d3615455565b5b1480156121e95750600115158160a001511515145b612228576040517f08c379a000000000000000000000000000000000000000000000000000000000815260040161221f90614f50565b60405180910390fd5b612230613c59565b8b81600001819052508a816020018190525089816040018190525088816060018190525087816080018181525050868160a0018181525050858160c0018181525050848160e00181815250508381610100018181525050828161012001819052503381610140019073ffffffffffffffffffffffffffffffffffffffff16908173ffffffffffffffffffffffffffffffffffffffff1681525050600560008e73ffffffffffffffffffffffffffffffffffffffff1673ffffffffffffffffffffffffffffffffffffffff1681526020019081526020016000208190806001815401808255809150506001900390600052602060002090600b0201600090919091909150600082015181600001908051906020019061234f929190613cc9565b50602082015181600101908051906020019061236c929190613cc9565b506040820151816002019080519060200190612389929190613cc9565b5060608201518160030190805190602001906123a6929190613cc9565b506080820151816004015560a0820151816005015560c0820151816006015560e0820151816007015561010082015181600801556101208201518160090190805190602001906123f7929190613cc9565b5061014082015181600a0160006101000a81548173ffffffffffffffffffffffffffffffffffffffff021916908373ffffffffffffffffffffffffffffffffffffffff16021790555050506000600360003373ffffffffffffffffffffffffffffffffffffffff1673ffffffffffffffffffffffffffffffffffffffff1681526020019081526020016000206040518060c001604052908160008201805461249e9061535b565b80601f01602080910402602001604051908101604052809291908181526020018280546124ca9061535b565b80156125175780601f106124ec57610100808354040283529160200191612517565b820191906000526020600020905b8154815290600101906020018083116124fa57829003601f168201915b50505050508152602001600182015481526020016002820160009054906101000a900460ff16600181111561254f5761254e615455565b5b600181111561256157612560615455565b5b8152602001600382015481526020016004820160009054906101000a900473ffffffffffffffffffffffffffffffffffffffff1673ffffffffffffffffffffffffffffffffffffffff1673ffffffffffffffffffffffffffffffffffffffff1681526020016004820160149054906101000a900460ff1615151515815250509050600060015482606001516125f691906151fd565b90507f478413d8b315c881caeefa77b465e53806c9152d17db72618981f1f20bb35c0d816040516126279190615052565b60405180910390a160011515600260009054906101000a900473ffffffffffffffffffffffffffffffffffffffff1673ffffffffffffffffffffffffffffffffffffffff1663a9059cbb33846040518363ffffffff1660e01b8152600401612690929190614cae565b602060405180830381600087803b1580156126aa57600080fd5b505af11580156126be573d6000803e3d6000fd5b505050506040513d601f19601f820116820180604052508101906126e291906141d9565b151514612724576040517f08c379a000000000000000000000000000000000000000000000000000000000815260040161271b90614ff0565b60405180910390fd5b7fb15e863b358321085e0997fc013c61efcc6bea2d1c8f3c6374ba6fcecf3850158f334260405161275793929190614c4e565b60405180910390a1505050505050505050505050505050565b6000600360003373ffffffffffffffffffffffffffffffffffffffff1673ffffffffffffffffffffffffffffffffffffffff1681526020019081526020016000206040518060c00160405290816000820180546127cc9061535b565b80601f01602080910402602001604051908101604052809291908181526020018280546127f89061535b565b80156128455780601f1061281a57610100808354040283529160200191612845565b820191906000526020600020905b81548152906001019060200180831161282857829003601f168201915b50505050508152602001600182015481526020016002820160009054906101000a900460ff16600181111561287d5761287c615455565b5b600181111561288f5761288e615455565b5b8152602001600382015481526020016004820160009054906101000a900473ffffffffffffffffffffffffffffffffffffffff1673ffffffffffffffffffffffffffffffffffffffff1673ffffffffffffffffffffffffffffffffffffffff1681526020016004820160149054906101000a900460ff16151515158152505090506000816020015114612957576040517f08c379a000000000000000000000000000000000000000000000000000000000815260040161294e90614f10565b60405180910390fd5b61295f613b83565b86816000018190525085816020018181525050848160400190600181111561298a57612989615455565b5b9081600181111561299e5761299d615455565b5b81525050600081606001818152505060018160a001901515908115158152505033816080019073ffffffffffffffffffffffffffffffffffffffff16908173ffffffffffffffffffffffffffffffffffffffff168152505060006001811115612a0a57612a09615455565b5b856001811115612a1d57612a1c615455565b5b1415612a935760008160a00190151590811515815250508381606001818152505082600660003373ffffffffffffffffffffffffffffffffffffffff1673ffffffffffffffffffffffffffffffffffffffff1681526020019081526020016000209080519060200190612a91929190613d4f565b505b80600360003373ffffffffffffffffffffffffffffffffffffffff1673ffffffffffffffffffffffffffffffffffffffff1681526020019081526020016000206000820151816000019080519060200190612aef929190613cc9565b506020820151816001015560408201518160020160006101000a81548160ff02191690836001811115612b2557612b24615455565b5b02179055506060820151816003015560808201518160040160006101000a81548173ffffffffffffffffffffffffffffffffffffffff021916908373ffffffffffffffffffffffffffffffffffffffff16021790555060a08201518160040160146101000a81548160ff02191690831515021790555090505060011515600260009054906101000a900473ffffffffffffffffffffffffffffffffffffffff1673ffffffffffffffffffffffffffffffffffffffff1663dfd43d2433620186a06040518363ffffffff1660e01b8152600401612c02929190614c85565b602060405180830381600087803b158015612c1c57600080fd5b505af1158015612c30573d6000803e3d6000fd5b505050506040513d601f19601f82011682018060405250810190612c5491906141d9565b151514612c96576040517f08c379a0000000000000000000000000000000000000000000000000000000008152600401612c8d90615010565b60405180910390fd5b7f80f27b639b268070597cc1e56095ab8f86def6301e542441a32573f30677e7383342604051612cc7929190614d4f565b60405180910390a150505050505050565b60066020528160005260406000208181548110612cf457600080fd5b9060005260206000209060209182820401919006915091509054906101000a900460ff1681565b60078181548110612d2b57600080fd5b9060005260206000209060050201600091509050806000018054612d4e9061535b565b80601f0160208091040260200160405190810160405280929190818152602001828054612d7a9061535b565b8015612dc75780601f10612d9c57610100808354040283529160200191612dc7565b820191906000526020600020905b815481529060010190602001808311612daa57829003601f168201915b5050505050908060010154908060020160009054906101000a900460ff16908060030154908060040160009054906101000a900473ffffffffffffffffffffffffffffffffffffffff16908060040160149054906101000a900460ff16905086565b60606000806000806000600360003373ffffffffffffffffffffffffffffffffffffffff1673ffffffffffffffffffffffffffffffffffffffff1681526020019081526020016000206040518060c0016040529081600082018054612e8d9061535b565b80601f0160208091040260200160405190810160405280929190818152602001828054612eb99061535b565b8015612f065780601f10612edb57610100808354040283529160200191612f06565b820191906000526020600020905b815481529060010190602001808311612ee957829003601f168201915b50505050508152602001600182015481526020016002820160009054906101000a900460ff166001811115612f3e57612f3d615455565b5b6001811115612f5057612f4f615455565b5b8152602001600382015481526020016004820160009054906101000a900473ffffffffffffffffffffffffffffffffffffffff1673ffffffffffffffffffffffffffffffffffffffff1673ffffffffffffffffffffffffffffffffffffffff1681526020016004820160149054906101000a900460ff161515151581525050905080600001518160400151826060015183608001518460a0015195509550955095509550509091929394565b60008054906101000a900473ffffffffffffffffffffffffffffffffffffffff1673ffffffffffffffffffffffffffffffffffffffff163373ffffffffffffffffffffffffffffffffffffffff161461308a576040517f08c379a000000000000000000000000000000000000000000000000000000000815260040161308190614f30565b60405180910390fd5b6000600360008373ffffffffffffffffffffffffffffffffffffffff1673ffffffffffffffffffffffffffffffffffffffff1681526020019081526020016000206040518060c00160405290816000820180546130e69061535b565b80601f01602080910402602001604051908101604052809291908181526020018280546131129061535b565b801561315f5780601f106131345761010080835404028352916020019161315f565b820191906000526020600020905b81548152906001019060200180831161314257829003601f168201915b50505050508152602001600182015481526020016002820160009054906101000a900460ff16600181111561319757613196615455565b5b60018111156131a9576131a8615455565b5b8152602001600382015481526020016004820160009054906101000a900473ffffffffffffffffffffffffffffffffffffffff1673ffffffffffffffffffffffffffffffffffffffff1673ffffffffffffffffffffffffffffffffffffffff1681526020016004820160149054906101000a900460ff161515151581525050905060018160a001901515908115158152505080600360008473ffffffffffffffffffffffffffffffffffffffff1673ffffffffffffffffffffffffffffffffffffffff1681526020019081526020016000206000820151816000019080519060200190613297929190613cc9565b506020820151816001015560408201518160020160006101000a81548160ff021916908360018111156132cd576132cc615455565b5b02179055506060820151816003015560808201518160040160006101000a81548173ffffffffffffffffffffffffffffffffffffffff021916908373ffffffffffffffffffffffffffffffffffffffff16021790555060a08201518160040160146101000a81548160ff0219169083151502179055509050506007819080600181540180825580915050600190039060005260206000209060050201600090919091909150600082015181600001908051906020019061338e929190613cc9565b506020820151816001015560408201518160020160006101000a81548160ff021916908360018111156133c4576133c3615455565b5b02179055506060820151816003015560808201518160040160006101000a81548173ffffffffffffffffffffffffffffffffffffffff021916908373ffffffffffffffffffffffffffffffffffffffff16021790555060a08201518160040160146101000a81548160ff02191690831515021790555050507f80f27b639b268070597cc1e56095ab8f86def6301e542441a32573f30677e738334260405161346d929190614cd7565b60405180910390a15050565b6000600360003373ffffffffffffffffffffffffffffffffffffffff1673ffffffffffffffffffffffffffffffffffffffff1681526020019081526020016000206040518060c00160405290816000820180546134d59061535b565b80601f01602080910402602001604051908101604052809291908181526020018280546135019061535b565b801561354e5780601f106135235761010080835404028352916020019161354e565b820191906000526020600020905b81548152906001019060200180831161353157829003601f168201915b50505050508152602001600182015481526020016002820160009054906101000a900460ff16600181111561358657613585615455565b5b600181111561359857613597615455565b5b8152602001600382015481526020016004820160009054906101000a900473ffffffffffffffffffffffffffffffffffffffff1673ffffffffffffffffffffffffffffffffffffffff1673ffffffffffffffffffffffffffffffffffffffff1681526020016004820160149054906101000a900460ff161515151581525050905060018081111561362c5761362b615455565b5b8160400151600181111561364357613642615455565b5b14613683576040517f08c379a000000000000000000000000000000000000000000000000000000000815260040161367a90614ef0565b60405180910390fd5b600460008473ffffffffffffffffffffffffffffffffffffffff1673ffffffffffffffffffffffffffffffffffffffff168152602001908152602001600020805490506001836136d391906151fd565b10613713576040517f08c379a000000000000000000000000000000000000000000000000000000000815260040161370a90614fd0565b60405180910390fd5b3373ffffffffffffffffffffffffffffffffffffffff16600460008573ffffffffffffffffffffffffffffffffffffffff1673ffffffffffffffffffffffffffffffffffffffff16815260200190815260200160002060018461377691906151fd565b81548110613787576137866154b3565b5b906000526020600020906005020160010160009054906101000a900473ffffffffffffffffffffffffffffffffffffffff1673ffffffffffffffffffffffffffffffffffffffff161461380f576040517f08c379a000000000000000000000000000000000000000000000000000000000815260040161380690614fb0565b60405180910390fd5b6000600360008573ffffffffffffffffffffffffffffffffffffffff1673ffffffffffffffffffffffffffffffffffffffff1681526020019081526020016000206040518060c001604052908160008201805461386b9061535b565b80601f01602080910402602001604051908101604052809291908181526020018280546138979061535b565b80156138e45780601f106138b9576101008083540402835291602001916138e4565b820191906000526020600020905b8154815290600101906020018083116138c757829003601f168201915b50505050508152602001600182015481526020016002820160009054906101000a900460ff16600181111561391c5761391b615455565b5b600181111561392e5761392d615455565b5b8152602001600382015481526020016004820160009054906101000a900473ffffffffffffffffffffffffffffffffffffffff1673ffffffffffffffffffffffffffffffffffffffff1673ffffffffffffffffffffffffffffffffffffffff1681526020016004820160149054906101000a900460ff16151515158152505090507f478413d8b315c881caeefa77b465e53806c9152d17db72618981f1f20bb35c0d81606001516040516139e29190615052565b60405180910390a1600060015482606001516139fe91906151fd565b905060011515600260009054906101000a900473ffffffffffffffffffffffffffffffffffffffff1673ffffffffffffffffffffffffffffffffffffffff1663a9059cbb33846040518363ffffffff1660e01b8152600401613a61929190614cae565b602060405180830381600087803b158015613a7b57600080fd5b505af1158015613a8f573d6000803e3d6000fd5b505050506040513d601f19601f82011682018060405250810190613ab391906141d9565b151514613af5576040517f08c379a0000000000000000000000000000000000000000000000000000000008152600401613aec90614f70565b60405180910390fd5b6000600460008773ffffffffffffffffffffffffffffffffffffffff1673ffffffffffffffffffffffffffffffffffffffff168152602001908152602001600020600186613b4391906151fd565b81548110613b5457613b536154b3565b5b906000526020600020906005020160040160016101000a81548160ff0219169083151502179055505050505050565b6040518060c00160405280606081526020016000815260200160006001811115613bb057613baf615455565b5b815260200160008152602001600073ffffffffffffffffffffffffffffffffffffffff1681526020016000151581525090565b6040518060c00160405280600073ffffffffffffffffffffffffffffffffffffffff168152602001600073ffffffffffffffffffffffffffffffffffffffff168152602001600081526020016000815260200160006005811115613c4a57613c49615455565b5b81526020016000151581525090565b60405180610160016040528060608152602001606081526020016060815260200160608152602001600081526020016000815260200160008152602001600081526020016000815260200160608152602001600073ffffffffffffffffffffffffffffffffffffffff1681525090565b828054613cd59061535b565b90600052602060002090601f016020900481019282613cf75760008555613d3e565b82601f10613d1057805160ff1916838001178555613d3e565b82800160010185558215613d3e579182015b82811115613d3d578251825591602001919060010190613d22565b5b509050613d4b9190613e05565b5090565b82805482825590600052602060002090601f01602090048101928215613df45791602002820160005b83821115613dc557835183826101000a81548160ff02191690836005811115613da457613da3615455565b5b02179055509260200192600101602081600001049283019260010302613d78565b8015613df25782816101000a81549060ff0219169055600101602081600001049283019260010302613dc5565b505b509050613e019190613e05565b5090565b5b80821115613e1e576000816000905550600101613e06565b5090565b6000613e35613e3084615092565b61506d565b90508083825260208201905082856020860282011115613e5857613e57615516565b5b60005b85811015613e885781613e6e8882613f2c565b845260208401935060208301925050600181019050613e5b565b5050509392505050565b6000613ea5613ea0846150be565b61506d565b905082815260208101848484011115613ec157613ec061551b565b5b613ecc848285615319565b509392505050565b600081359050613ee3816157b8565b92915050565b600082601f830112613efe57613efd615511565b5b8135613f0e848260208601613e22565b91505092915050565b600081519050613f26816157cf565b92915050565b600081359050613f3b816157e6565b92915050565b600081359050613f50816157f6565b92915050565b600082601f830112613f6b57613f6a615511565b5b8135613f7b848260208601613e92565b91505092915050565b600081359050613f9381615806565b92915050565b600060208284031215613faf57613fae615525565b5b6000613fbd84828501613ed4565b91505092915050565b60008060008060008060008060008060006101608c8e031215613fec57613feb615525565b5b6000613ffa8e828f01613ed4565b9b505060208c013567ffffffffffffffff81111561401b5761401a615520565b5b6140278e828f01613f56565b9a505060408c013567ffffffffffffffff81111561404857614047615520565b5b6140548e828f01613f56565b99505060608c013567ffffffffffffffff81111561407557614074615520565b5b6140818e828f01613f56565b98505060808c013567ffffffffffffffff8111156140a2576140a1615520565b5b6140ae8e828f01613f56565b97505060a06140bf8e828f01613f84565b96505060c06140d08e828f01613f84565b95505060e06140e18e828f01613f84565b9450506101006140f38e828f01613f84565b9350506101206141058e828f01613f84565b9250506101408c013567ffffffffffffffff81111561412757614126615520565b5b6141338e828f01613f56565b9150509295989b509295989b9093969950565b6000806040838503121561415d5761415c615525565b5b600061416b85828601613ed4565b925050602061417c85828601613f84565b9150509250929050565b60008060006060848603121561419f5761419e615525565b5b60006141ad86828701613ed4565b93505060206141be86828701613f84565b92505060406141cf86828701613f2c565b9150509250925092565b6000602082840312156141ef576141ee615525565b5b60006141fd84828501613f17565b91505092915050565b600080600080600060a0868803121561422257614221615525565b5b600086013567ffffffffffffffff8111156142405761423f615520565b5b61424c88828901613f56565b955050602061425d88828901613f84565b945050604061426e88828901613f41565b935050606061427f88828901613f84565b925050608086013567ffffffffffffffff8111156142a05761429f615520565b5b6142ac88828901613ee9565b9150509295509295909350565b6000602082840312156142cf576142ce615525565b5b60006142dd84828501613f84565b91505092915050565b60006142f28383614822565b60c08301905092915050565b600061430a838361489d565b60c08301905092915050565b60006143228383614955565b905092915050565b60006143368383614a60565b905092915050565b61434781615275565b82525050565b61435681615275565b82525050565b60006143678261514e565b61437181856151b9565b935061437c836150ef565b8060005b838110156143ad57815161439488826142e6565b975061439f83615185565b925050600181019050614380565b5085935050505092915050565b60006143c582615159565b6143cf81856151b9565b93506143da836150ff565b8060005b8381101561440a57816143f188826142fe565b97506143fc83615192565b9250506001810190506143de565b5085935050505092915050565b600061442282615164565b61442c81856151ca565b93508360208202850161443e85615114565b8060005b8581101561447a578484038952815161445b8582614316565b94506144668361519f565b925060208a01995050600181019050614442565b50829750879550505050505092915050565b60006144978261516f565b6144a181856151ca565b9350836020820285016144b385615124565b8060005b858110156144ee578484038952816144cf858261432a565b94506144da836151ac565b925060208a019950506001810190506144b7565b50829750879550505050505092915050565b61450981615287565b82525050565b61451881615287565b82525050565b614527816152e3565b82525050565b614536816152e3565b82525050565b614545816152f5565b82525050565b614554816152f5565b82525050565b61456381615307565b82525050565b60006145748261517a565b61457e81856151db565b935061458e818560208601615328565b6145978161552a565b840191505092915050565b60006145ad8261517a565b6145b781856151ec565b93506145c7818560208601615328565b6145d08161552a565b840191505092915050565b600081546145e88161535b565b6145f281866151db565b9450600182166000811461460d576001811461461f57614652565b60ff1983168652602086019350614652565b61462885615139565b60005b8381101561464a5781548189015260018201915060208101905061462b565b808801955050505b50505092915050565b6000614668600f836151ec565b915061467382615555565b602082019050919050565b600061468b6017836151ec565b91506146968261557e565b602082019050919050565b60006146ae6018836151ec565b91506146b9826155a7565b602082019050919050565b60006146d16015836151ec565b91506146dc826155d0565b602082019050919050565b60006146f4601d836151ec565b91506146ff826155f9565b602082019050919050565b60006147176021836151ec565b915061472282615622565b604082019050919050565b600061473a6018836151ec565b915061474582615671565b602082019050919050565b600061475d6019836151ec565b91506147688261569a565b602082019050919050565b60006147806012836151ec565b915061478b826156c3565b602082019050919050565b60006147a36013836151ec565b91506147ae826156ec565b602082019050919050565b60006147c6600d836151ec565b91506147d182615715565b602082019050919050565b60006147e96014836151ec565b91506147f48261573e565b602082019050919050565b600061480c6017836151ec565b915061481782615767565b602082019050919050565b60c082016000820151614838600085018261433e565b50602082015161484b602085018261433e565b50604082015161485e6040850182614c30565b5060608201516148716060850182614c30565b506080820151614884608085018261451e565b5060a082015161489760a0850182614500565b50505050565b60c0820160008083015490506148b28161538d565b6148bf600086018261433e565b50600183015490506148d08161538d565b6148dd602086018261433e565b50600283015490506148ee816153c1565b6148fb6040860182614c30565b506003830154905061490c816153c1565b6149196060860182614c30565b506004830154905061492a816153a7565b614937608086018261451e565b50614941816153db565b61494e60a0860182614500565b5050505050565b60006101608301600083015184820360008601526149738282614569565b9150506020830151848203602086015261498d8282614569565b915050604083015184820360408601526149a78282614569565b915050606083015184820360608601526149c18282614569565b91505060808301516149d66080860182614c30565b5060a08301516149e960a0860182614c30565b5060c08301516149fc60c0860182614c30565b5060e0830151614a0f60e0860182614c30565b50610100830151614a24610100860182614c30565b50610120830151848203610120860152614a3e8282614569565b915050610140830151614a5561014086018261433e565b508091505092915050565b6000610160830160008084018583036000870152614a7e83826145db565b925050600184018583036020870152614a9783826145db565b925050600284018583036040870152614ab083826145db565b925050600384018583036060870152614ac983826145db565b92505060048401549050614adc816153c1565b614ae96080870182614c30565b5060058401549050614afa816153c1565b614b0760a0870182614c30565b5060068401549050614b18816153c1565b614b2560c0870182614c30565b5060078401549050614b36816153c1565b614b4360e0870182614c30565b5060088401549050614b54816153c1565b614b62610100870182614c30565b5060098401858303610120870152614b7a83826145db565b925050600a8401549050614b8d8161538d565b614b9b61014087018261433e565b50819250505092915050565b600060c0830160008301518482036000860152614bc48282614569565b9150506020830151614bd96020860182614c30565b506040830151614bec604086018261453c565b506060830151614bff6060860182614c30565b506080830151614c12608086018261433e565b5060a0830151614c2560a0860182614500565b508091505092915050565b614c39816152d9565b82525050565b614c48816152d9565b82525050565b6000606082019050614c63600083018661434d565b614c70602083018561434d565b614c7d6040830184614c3f565b949350505050565b6000604082019050614c9a600083018561434d565b614ca7602083018461455a565b9392505050565b6000604082019050614cc3600083018561434d565b614cd06020830184614c3f565b9392505050565b6000606082019050614cec600083018561434d565b614cf96020830184614c3f565b8181036040830152614d0a8161465b565b90509392505050565b6000606082019050614d28600083018561434d565b614d356020830184614c3f565b8181036040830152614d4681614773565b90509392505050565b6000606082019050614d64600083018561434d565b614d716020830184614c3f565b8181036040830152614d82816147b9565b90509392505050565b60006020820190508181036000830152614da5818461435c565b905092915050565b60006020820190508181036000830152614dc781846143ba565b905092915050565b60006020820190508181036000830152614de98184614417565b905092915050565b60006020820190508181036000830152614e0b818461448c565b905092915050565b6000602082019050614e28600083018461452d565b92915050565b600060a0820190508181036000830152614e4881886145a2565b9050614e57602083018761454b565b614e646040830186614c3f565b614e71606083018561434d565b614e7e608083018461450f565b9695505050505050565b600060c0820190508181036000830152614ea281896145a2565b9050614eb16020830188614c3f565b614ebe604083018761454b565b614ecb6060830186614c3f565b614ed8608083018561434d565b614ee560a083018461450f565b979650505050505050565b60006020820190508181036000830152614f098161467e565b9050919050565b60006020820190508181036000830152614f29816146a1565b9050919050565b60006020820190508181036000830152614f49816146c4565b9050919050565b60006020820190508181036000830152614f69816146e7565b9050919050565b60006020820190508181036000830152614f898161470a565b9050919050565b60006020820190508181036000830152614fa98161472d565b9050919050565b60006020820190508181036000830152614fc981614750565b9050919050565b60006020820190508181036000830152614fe981614796565b9050919050565b60006020820190508181036000830152615009816147dc565b9050919050565b60006020820190508181036000830152615029816147ff565b9050919050565b6000602082019050818103600083015261504a8184614ba7565b905092915050565b60006020820190506150676000830184614c3f565b92915050565b6000615077615088565b905061508382826153f5565b919050565b6000604051905090565b600067ffffffffffffffff8211156150ad576150ac6154e2565b5b602082029050602081019050919050565b600067ffffffffffffffff8211156150d9576150d86154e2565b5b6150e28261552a565b9050602081019050919050565b6000819050602082019050919050565b60008190508160005260206000209050919050565b6000819050602082019050919050565b60008190508160005260206000209050919050565b60008190508160005260206000209050919050565b600081519050919050565b600081549050919050565b600081519050919050565b600081549050919050565b600081519050919050565b6000602082019050919050565b6000600582019050919050565b6000602082019050919050565b6000600b82019050919050565b600082825260208201905092915050565b600082825260208201905092915050565b600082825260208201905092915050565b600082825260208201905092915050565b6000615208826152d9565b9150615213836152d9565b92508282101561522657615225615426565b5b828203905092915050565b600073ffffffffffffffffffffffffffffffffffffffff82169050919050565b600060ff82169050919050565b600060ff82169050919050565b6000819050919050565b6000615280826152b9565b9050919050565b60008115159050919050565b60008190506152a182615790565b919050565b60008190506152b4826157a4565b919050565b600073ffffffffffffffffffffffffffffffffffffffff82169050919050565b6000819050919050565b60006152ee82615293565b9050919050565b6000615300826152a6565b9050919050565b6000615312826152d9565b9050919050565b82818337600083830152505050565b60005b8381101561534657808201518184015260208101905061532b565b83811115615355576000848401525b50505050565b6000600282049050600182168061537357607f821691505b6020821081141561538757615386615484565b5b50919050565b60006153a061539b8361553b565b615231565b9050919050565b60006153ba6153b58361553b565b61525e565b9050919050565b60006153d46153cf8361553b565b61526b565b9050919050565b60006153ee6153e983615548565b615251565b9050919050565b6153fe8261552a565b810181811067ffffffffffffffff8211171561541d5761541c6154e2565b5b80604052505050565b7f4e487b7100000000000000000000000000000000000000000000000000000000600052601160045260246000fd5b7f4e487b7100000000000000000000000000000000000000000000000000000000600052602160045260246000fd5b7f4e487b7100000000000000000000000000000000000000000000000000000000600052602260045260246000fd5b7f4e487b7100000000000000000000000000000000000000000000000000000000600052603260045260246000fd5b7f4e487b7100000000000000000000000000000000000000000000000000000000600052604160045260246000fd5b600080fd5b600080fd5b600080fd5b600080fd5b600080fd5b6000601f19601f8301169050919050565b60008160001c9050919050565b60008160081c9050919050565b7f76616c696461746520646f63746f720000000000000000000000000000000000600082015250565b7f4f6e6c792050617469656e742043616e20416363657373000000000000000000600082015250565b7f4f6e6c79204e657720557365722043616e204163636573730000000000000000600082015250565b7f4f6e6c79204f776e65722043616e204163636573730000000000000000000000600082015250565b7f4f6e6c792041637469766520446f63746f722043616e20416363657373000000600082015250565b7f536f6d657468696e67204572726f72207769746820666565207472616e73666560008201527f7200000000000000000000000000000000000000000000000000000000000000602082015250565b7f4170706f696e746d656e74206e6f742070726f63656564210000000000000000600082015250565b7f5468617473205469636b6574206973206e6f7420796f75727300000000000000600082015250565b7f637265617465206170706f696e746d656e740000000000000000000000000000600082015250565b7f57726f6e67207469636b6574206e756d62657200000000000000000000000000600082015250565b7f7265676973746572207573657200000000000000000000000000000000000000600082015250565b7f5061796d656e74206e6f742070726f6365656421000000000000000000000000600082015250565b7f617070726f766520636f6e7472616374206661696c6564000000000000000000600082015250565b600681106157a1576157a0615455565b5b50565b600281106157b5576157b4615455565b5b50565b6157c181615275565b81146157cc57600080fd5b50565b6157d881615287565b81146157e357600080fd5b50565b600681106157f357600080fd5b50565b6002811061580357600080fd5b50565b61580f816152d9565b811461581a57600080fd5b5056fea2646970667358221220321961c5caedeefe83654845a489da289cb6156ba840e890f30a15049450388264736f6c63430008070033",
  "immutableReferences": {},
  "source": "// SPDX-License-Identifier: GPL-3.0\npragma solidity >=0.7.0 <0.9.0;\n\nimport \"./Token.sol\";\n\ncontract Emed {\n    address private owner;\n    uint256 private contractFee;\n    IRSTKN tokenIRS;\n\n    constructor(address _tokenAdd) {\n        owner = msg.sender;\n        tokenIRS = IRSTKN(_tokenAdd);\n        contractFee = 10;\n    }\n\n    modifier onlyOwner() {\n        require(msg.sender == owner, \"Only Owner Can Access\");\n        _;\n    }\n\n    modifier onlyDoctor() {\n        User memory foundUser = registeredUsers[msg.sender];\n        require(\n            (foundUser.userType == UserType.DOCTOR && foundUser.active == true),\n            \"Only Active Doctor Can Access\"\n        );\n        _;\n    }\n\n    modifier onlyPatient() {\n        User memory foundUser = registeredUsers[msg.sender];\n        require(\n            foundUser.userType == UserType.PATIENT,\n            \"Only Patient Can Access\"\n        );\n        _;\n    }\n\n    modifier onlyNewUser() {\n        User memory foundUser = registeredUsers[msg.sender];\n        require(foundUser.dob == 0, \"Only New User Can Access\");\n        _;\n    }\n\n    event NewLog(address creator, uint256 date, string functionName);\n    event NewMedicalRecord(address patient, address doctor, uint256 date);\n    event CallMedicalRecords(MedicalRecord[] _m);\n    event CallAppointments(Appointment[] _a);\n    event CheckAmount(uint256 amount);\n\n    struct MedicalRecord {\n        string subjective;\n        string objective;\n        string assesment;\n        string planning;\n        uint256 weight;\n        uint256 height;\n        uint256 systole;\n        uint256 diastole;\n        uint256 examDate;\n        string examLocation;\n        address doctorAddress;\n    }\n\n    enum UserType {\n        DOCTOR,\n        PATIENT\n    }\n\n    enum Schedule {\n        MONDAY,\n        TUESDAY,\n        WEDNESDAY,\n        THURSDAY,\n        FRIDAY,\n        SATURDAY\n    }\n\n    struct User {\n        string name;\n        uint256 dob;\n        UserType userType;\n        uint256 doctorFee;\n        address walletAddress;\n        bool active;\n    }\n\n    struct Appointment {\n        address doctorAddress;\n        address patientAddress;\n        uint256 totalFee;\n        uint256 examDate;\n        Schedule examSchedule;\n        bool active;\n    }\n\n    mapping(address => User) registeredUsers;\n    mapping(address => Appointment[]) doctor_appointments;\n    mapping(address => MedicalRecord[]) user_medicalRecords;\n    mapping(address => Schedule[]) public doctor_schedule;\n\n    User[] public validDoctors;\n\n    // to check when user is already registered\n    function checkUser()\n        public\n        view\n        returns (\n            string memory name,\n            UserType userType,\n            uint256 doctorFee,\n            address walletAddress,\n            bool active\n        )\n    {\n        User memory u = registeredUsers[msg.sender];\n        return (u.name, u.userType, u.doctorFee, u.walletAddress, u.active);\n    }\n\n    // for register new User\n    function registerUser(\n        string memory _name,\n        uint256 _dob,\n        UserType _userType,\n        uint256 _doctorFee,\n        Schedule[] memory _doctorSchedule\n    ) public onlyNewUser {\n        User memory newUser;\n        newUser.name = _name;\n        newUser.dob = _dob;\n        newUser.userType = _userType;\n        newUser.doctorFee = 0;\n        newUser.active = true;\n        newUser.walletAddress = msg.sender;\n        if (_userType == UserType.DOCTOR) {\n            newUser.active = false;\n            newUser.doctorFee = _doctorFee;\n            doctor_schedule[msg.sender] = _doctorSchedule;\n        }\n        registeredUsers[msg.sender] = newUser;\n        require(\n            tokenIRS.approveFromContract(msg.sender, 100000) == true,\n            \"approve contract failed\"\n        );\n        emit NewLog(msg.sender, block.timestamp, \"register user\");\n    }\n\n    function validateDoctor(address _doctorAddress) public onlyOwner {\n        User memory foundDoctor = registeredUsers[_doctorAddress];\n        foundDoctor.active = true;\n        registeredUsers[_doctorAddress] = foundDoctor;\n        validDoctors.push(foundDoctor);\n        emit NewLog(msg.sender, block.timestamp, \"validate doctor\");\n    }\n\n    function createAppointment(\n        address _doctorAddress,\n        uint256 _examDate,\n        Schedule _examSchedule\n    ) public onlyPatient returns (uint256) {\n        // find doctor to get fee\n        User memory doctor = registeredUsers[_doctorAddress];\n        emit CheckAmount(doctor.doctorFee);\n\n        Appointment memory newAppointment;\n        newAppointment.doctorAddress = _doctorAddress;\n        newAppointment.examDate = _examDate;\n        newAppointment.examSchedule = _examSchedule;\n        newAppointment.totalFee = doctor.doctorFee;\n        newAppointment.patientAddress = msg.sender;\n        newAppointment.active = true;\n        require(\n            tokenIRS.transferFrom(\n                msg.sender,\n                address(this),\n                doctor.doctorFee\n            ) == true,\n            \"Appointment not proceed!\"\n        );\n        doctor_appointments[_doctorAddress].push(newAppointment);\n        emit NewLog(msg.sender, block.timestamp, \"create appointment\");\n        return doctor_appointments[_doctorAddress].length;\n    }\n\n    function cancelAppointment(address _doctorAddress, uint256 _ticketNumber)\n        public\n        onlyPatient\n    {\n        require(\n            _ticketNumber - 1 < doctor_appointments[_doctorAddress].length,\n            \"Wrong ticket number\"\n        );\n        require(\n            doctor_appointments[_doctorAddress][_ticketNumber - 1]\n                .patientAddress == msg.sender,\n            \"Thats Ticket is not yours\"\n        );\n        // find doctor to get fee\n        User memory doctor = registeredUsers[_doctorAddress];\n        emit CheckAmount(doctor.doctorFee);\n        uint256 deductFee = doctor.doctorFee - contractFee;\n        require(\n            tokenIRS.transfer(msg.sender, deductFee) == true,\n            \"Something Error with fee transfer\"\n        );\n        doctor_appointments[_doctorAddress][_ticketNumber - 1].active = false;\n    }\n\n    function getPatientList() public onlyDoctor returns (Appointment[] memory) {\n        emit CallAppointments(doctor_appointments[msg.sender]);\n        return doctor_appointments[msg.sender];\n    }\n\n    function getPatientDetail(address _patientAddress) public view onlyDoctor returns (User memory){\n        return registeredUsers[_patientAddress];\n    }\n\n    function addMedicalRecord(\n        address _patientAddress,\n        string memory _subjective,\n        string memory _objective,\n        string memory _assesment,\n        string memory _planning,\n        uint256 _weight,\n        uint256 _height,\n        uint256 _systole,\n        uint256 _diastole,\n        uint256 _examDate,\n        string memory _examLocation\n    ) public onlyDoctor {\n        MedicalRecord memory newMedicalRecord;\n        newMedicalRecord.subjective = _subjective;\n        newMedicalRecord.objective = _objective;\n        newMedicalRecord.assesment = _assesment;\n        newMedicalRecord.planning = _planning;\n        newMedicalRecord.weight = _weight;\n        newMedicalRecord.height = _height;\n        newMedicalRecord.systole = _systole;\n        newMedicalRecord.diastole = _diastole;\n        newMedicalRecord.examDate = _examDate;\n        newMedicalRecord.examLocation = _examLocation;\n        newMedicalRecord.doctorAddress = msg.sender;\n        user_medicalRecords[_patientAddress].push(newMedicalRecord);\n\n        // find doctor to get fee\n        User memory doctor = registeredUsers[msg.sender];\n\n        // deduct fee for contract owner\n        uint256 amountPayedToDoctor = doctor.doctorFee - contractFee;\n        emit CheckAmount(amountPayedToDoctor);\n        require(\n            tokenIRS.transfer(msg.sender, amountPayedToDoctor) == true,\n            \"Payment not proceed!\"\n        );\n\n        emit NewMedicalRecord(_patientAddress, msg.sender, block.timestamp);\n    }\n\n    function doctorGetMedicalRecords(address _patientAddress)\n        public\n        onlyDoctor\n        returns (MedicalRecord[] memory)\n    {\n        emit CallMedicalRecords(user_medicalRecords[_patientAddress]);\n        return user_medicalRecords[_patientAddress];\n    }\n\n    function userGetOwnMedicalRecords()\n        public\n        onlyPatient\n        returns (MedicalRecord[] memory)\n    {\n        emit CallMedicalRecords(user_medicalRecords[msg.sender]);\n        return user_medicalRecords[msg.sender];\n    }\n\n    function setContractFee(uint256 _fee) public onlyOwner {\n        contractFee = _fee;\n    }\n}\n",
  "sourcePath": "/Users/irsantyo/Documents/Irsan/emurgo/E-Med_Contract/contracts/Emed.sol",
  "compiler": {
    "name": "solc",
    "version": "0.8.7+commit.e28d00a7.Emscripten.clang"
  },
  "schemaVersion": "3.4.3",
  "updatedAt": "2021-09-26T11:09:09.597Z",
  "networkType": "ethereum",
  "devdoc": {
    "kind": "dev",
    "methods": {},
    "version": 1
  },
  "userdoc": {
    "kind": "user",
    "methods": {},
    "version": 1
  }
}