{
  "contractName": "Emed",
  "abi": [
    {
      "inputs": [
        {
          "internalType": "address",
          "name": "_tokenAdd",
          "type": "address"
        }
      ],
      "stateMutability": "nonpayable",
      "type": "constructor"
    },
    {
      "anonymous": false,
      "inputs": [
        {
          "components": [
            {
              "internalType": "address",
              "name": "doctorAddress",
              "type": "address"
            },
            {
              "internalType": "address",
              "name": "patientAddress",
              "type": "address"
            },
            {
              "internalType": "uint256",
              "name": "totalFee",
              "type": "uint256"
            },
            {
              "internalType": "bool",
              "name": "active",
              "type": "bool"
            }
          ],
          "indexed": false,
          "internalType": "struct Emed.Appointment[]",
          "name": "_a",
          "type": "tuple[]"
        }
      ],
      "name": "CallAppointments",
      "type": "event"
    },
    {
      "anonymous": false,
      "inputs": [
        {
          "components": [
            {
              "internalType": "string",
              "name": "doctorName",
              "type": "string"
            },
            {
              "internalType": "string",
              "name": "subjective",
              "type": "string"
            },
            {
              "internalType": "string",
              "name": "assesment",
              "type": "string"
            },
            {
              "internalType": "string",
              "name": "planning",
              "type": "string"
            },
            {
              "internalType": "string",
              "name": "doctor_notes",
              "type": "string"
            },
            {
              "internalType": "address",
              "name": "doctorAddress",
              "type": "address"
            },
            {
              "internalType": "uint256",
              "name": "examDate",
              "type": "uint256"
            }
          ],
          "indexed": false,
          "internalType": "struct Emed.MedicalRecord[]",
          "name": "_m",
          "type": "tuple[]"
        }
      ],
      "name": "CallMedicalRecords",
      "type": "event"
    },
    {
      "anonymous": false,
      "inputs": [
        {
          "indexed": false,
          "internalType": "uint256",
          "name": "amount",
          "type": "uint256"
        }
      ],
      "name": "CheckAmount",
      "type": "event"
    },
    {
      "anonymous": false,
      "inputs": [
        {
          "indexed": false,
          "internalType": "address",
          "name": "creator",
          "type": "address"
        },
        {
          "indexed": false,
          "internalType": "uint256",
          "name": "date",
          "type": "uint256"
        },
        {
          "indexed": false,
          "internalType": "string",
          "name": "functionName",
          "type": "string"
        }
      ],
      "name": "NewLog",
      "type": "event"
    },
    {
      "anonymous": false,
      "inputs": [
        {
          "indexed": false,
          "internalType": "address",
          "name": "patient",
          "type": "address"
        },
        {
          "indexed": false,
          "internalType": "address",
          "name": "doctor",
          "type": "address"
        },
        {
          "indexed": false,
          "internalType": "uint256",
          "name": "date",
          "type": "uint256"
        }
      ],
      "name": "NewMedicalRecord",
      "type": "event"
    },
    {
      "inputs": [
        {
          "internalType": "address",
          "name": "",
          "type": "address"
        },
        {
          "internalType": "uint256",
          "name": "",
          "type": "uint256"
        }
      ],
      "name": "doctor_schedule",
      "outputs": [
        {
          "internalType": "enum Emed.Schedule",
          "name": "",
          "type": "uint8"
        }
      ],
      "stateMutability": "view",
      "type": "function",
      "constant": true
    },
    {
      "inputs": [
        {
          "internalType": "address",
          "name": "",
          "type": "address"
        }
      ],
      "name": "registeredUsers",
      "outputs": [
        {
          "internalType": "string",
          "name": "name",
          "type": "string"
        },
        {
          "internalType": "uint256",
          "name": "dob",
          "type": "uint256"
        },
        {
          "internalType": "enum Emed.UserType",
          "name": "userType",
          "type": "uint8"
        },
        {
          "internalType": "uint256",
          "name": "doctorFee",
          "type": "uint256"
        },
        {
          "internalType": "address",
          "name": "walletAddress",
          "type": "address"
        },
        {
          "internalType": "bool",
          "name": "active",
          "type": "bool"
        }
      ],
      "stateMutability": "view",
      "type": "function",
      "constant": true
    },
    {
      "inputs": [
        {
          "internalType": "uint256",
          "name": "",
          "type": "uint256"
        }
      ],
      "name": "validDoctors",
      "outputs": [
        {
          "internalType": "string",
          "name": "name",
          "type": "string"
        },
        {
          "internalType": "uint256",
          "name": "dob",
          "type": "uint256"
        },
        {
          "internalType": "enum Emed.UserType",
          "name": "userType",
          "type": "uint8"
        },
        {
          "internalType": "uint256",
          "name": "doctorFee",
          "type": "uint256"
        },
        {
          "internalType": "address",
          "name": "walletAddress",
          "type": "address"
        },
        {
          "internalType": "bool",
          "name": "active",
          "type": "bool"
        }
      ],
      "stateMutability": "view",
      "type": "function",
      "constant": true
    },
    {
      "inputs": [],
      "name": "checkUser",
      "outputs": [
        {
          "internalType": "string",
          "name": "name",
          "type": "string"
        },
        {
          "internalType": "enum Emed.UserType",
          "name": "userType",
          "type": "uint8"
        },
        {
          "internalType": "uint256",
          "name": "doctorFee",
          "type": "uint256"
        },
        {
          "internalType": "address",
          "name": "walletAddress",
          "type": "address"
        },
        {
          "internalType": "bool",
          "name": "active",
          "type": "bool"
        }
      ],
      "stateMutability": "view",
      "type": "function",
      "constant": true
    },
    {
      "inputs": [
        {
          "internalType": "string",
          "name": "_name",
          "type": "string"
        },
        {
          "internalType": "uint256",
          "name": "_dob",
          "type": "uint256"
        },
        {
          "internalType": "enum Emed.UserType",
          "name": "_userType",
          "type": "uint8"
        },
        {
          "internalType": "uint256",
          "name": "_doctorFee",
          "type": "uint256"
        }
      ],
      "name": "registerUser",
      "outputs": [],
      "stateMutability": "nonpayable",
      "type": "function"
    },
    {
      "inputs": [
        {
          "internalType": "address",
          "name": "_doctorAddress",
          "type": "address"
        }
      ],
      "name": "validateDoctor",
      "outputs": [],
      "stateMutability": "nonpayable",
      "type": "function"
    },
    {
      "inputs": [
        {
          "internalType": "address",
          "name": "_doctorAddress",
          "type": "address"
        }
      ],
      "name": "createAppointment",
      "outputs": [
        {
          "internalType": "uint256",
          "name": "",
          "type": "uint256"
        }
      ],
      "stateMutability": "nonpayable",
      "type": "function"
    },
    {
      "inputs": [
        {
          "internalType": "address",
          "name": "_doctorAddress",
          "type": "address"
        },
        {
          "internalType": "uint256",
          "name": "_ticketNumber",
          "type": "uint256"
        }
      ],
      "name": "cancelAppointment",
      "outputs": [],
      "stateMutability": "nonpayable",
      "type": "function"
    },
    {
      "inputs": [],
      "name": "getPatientList",
      "outputs": [
        {
          "components": [
            {
              "internalType": "address",
              "name": "doctorAddress",
              "type": "address"
            },
            {
              "internalType": "address",
              "name": "patientAddress",
              "type": "address"
            },
            {
              "internalType": "uint256",
              "name": "totalFee",
              "type": "uint256"
            },
            {
              "internalType": "bool",
              "name": "active",
              "type": "bool"
            }
          ],
          "internalType": "struct Emed.Appointment[]",
          "name": "",
          "type": "tuple[]"
        }
      ],
      "stateMutability": "nonpayable",
      "type": "function"
    },
    {
      "inputs": [
        {
          "internalType": "address",
          "name": "_patientAddress",
          "type": "address"
        }
      ],
      "name": "getPatientDetail",
      "outputs": [
        {
          "components": [
            {
              "internalType": "string",
              "name": "name",
              "type": "string"
            },
            {
              "internalType": "uint256",
              "name": "dob",
              "type": "uint256"
            },
            {
              "internalType": "enum Emed.UserType",
              "name": "userType",
              "type": "uint8"
            },
            {
              "internalType": "uint256",
              "name": "doctorFee",
              "type": "uint256"
            },
            {
              "internalType": "address",
              "name": "walletAddress",
              "type": "address"
            },
            {
              "internalType": "bool",
              "name": "active",
              "type": "bool"
            }
          ],
          "internalType": "struct Emed.User",
          "name": "",
          "type": "tuple"
        }
      ],
      "stateMutability": "view",
      "type": "function",
      "constant": true
    },
    {
      "inputs": [
        {
          "internalType": "address",
          "name": "_patientAddress",
          "type": "address"
        },
        {
          "internalType": "string",
          "name": "_subjective",
          "type": "string"
        },
        {
          "internalType": "string",
          "name": "_assesment",
          "type": "string"
        },
        {
          "internalType": "string",
          "name": "_planning",
          "type": "string"
        },
        {
          "internalType": "string",
          "name": "_doctorNotes",
          "type": "string"
        },
        {
          "internalType": "uint256",
          "name": "_examDate",
          "type": "uint256"
        }
      ],
      "name": "addMedicalRecord",
      "outputs": [],
      "stateMutability": "nonpayable",
      "type": "function"
    },
    {
      "inputs": [
        {
          "internalType": "address",
          "name": "_patientAddress",
          "type": "address"
        }
      ],
      "name": "doctorGetMedicalRecords",
      "outputs": [
        {
          "components": [
            {
              "internalType": "string",
              "name": "doctorName",
              "type": "string"
            },
            {
              "internalType": "string",
              "name": "subjective",
              "type": "string"
            },
            {
              "internalType": "string",
              "name": "assesment",
              "type": "string"
            },
            {
              "internalType": "string",
              "name": "planning",
              "type": "string"
            },
            {
              "internalType": "string",
              "name": "doctor_notes",
              "type": "string"
            },
            {
              "internalType": "address",
              "name": "doctorAddress",
              "type": "address"
            },
            {
              "internalType": "uint256",
              "name": "examDate",
              "type": "uint256"
            }
          ],
          "internalType": "struct Emed.MedicalRecord[]",
          "name": "",
          "type": "tuple[]"
        }
      ],
      "stateMutability": "nonpayable",
      "type": "function"
    },
    {
      "inputs": [],
      "name": "userGetOwnMedicalRecords",
      "outputs": [
        {
          "components": [
            {
              "internalType": "string",
              "name": "doctorName",
              "type": "string"
            },
            {
              "internalType": "string",
              "name": "subjective",
              "type": "string"
            },
            {
              "internalType": "string",
              "name": "assesment",
              "type": "string"
            },
            {
              "internalType": "string",
              "name": "planning",
              "type": "string"
            },
            {
              "internalType": "string",
              "name": "doctor_notes",
              "type": "string"
            },
            {
              "internalType": "address",
              "name": "doctorAddress",
              "type": "address"
            },
            {
              "internalType": "uint256",
              "name": "examDate",
              "type": "uint256"
            }
          ],
          "internalType": "struct Emed.MedicalRecord[]",
          "name": "",
          "type": "tuple[]"
        }
      ],
      "stateMutability": "nonpayable",
      "type": "function"
    },
    {
      "inputs": [
        {
          "internalType": "uint256",
          "name": "_fee",
          "type": "uint256"
        }
      ],
      "name": "setContractFee",
      "outputs": [],
      "stateMutability": "nonpayable",
      "type": "function"
    }
  ],
  "bytecode": "0x60806040523480156200001157600080fd5b50604051620059a5380380620059a58339818101604052810190620000379190620000de565b336000806101000a81548173ffffffffffffffffffffffffffffffffffffffff021916908373ffffffffffffffffffffffffffffffffffffffff16021790555080600260006101000a81548173ffffffffffffffffffffffffffffffffffffffff021916908373ffffffffffffffffffffffffffffffffffffffff160217905550600a6001819055505062000163565b600081519050620000d88162000149565b92915050565b600060208284031215620000f757620000f662000144565b5b60006200010784828501620000c7565b91505092915050565b60006200011d8262000124565b9050919050565b600073ffffffffffffffffffffffffffffffffffffffff82169050919050565b600080fd5b620001548162000110565b81146200016057600080fd5b50565b61583280620001736000396000f3fe608060405234801561001057600080fd5b50600436106100ea5760003560e01c8063a79f990f1161008c578063e02f46ac11610066578063e02f46ac1461027f578063e916d7621461029b578063ecfedc47146102b7578063fa88ab82146102e7576100ea565b8063a79f990f146101f8578063bcf6321614610228578063c15625471461025d576100ea565b80634aa67d31116100c85780634aa67d3114610172578063503b13541461018e578063740f16eb146101ac57806377d1a426146101dc576100ea565b80630e50cee5146100ef5780631bec3cbe146101245780632bc8504a14610142575b600080fd5b610109600480360381019061010491906140e8565b610303565b60405161011b96959493929190614e01565b60405180910390f35b61012c610401565b6040516101399190614d48565b60405180910390f35b61015c600480360381019061015791906140e8565b610a57565b6040516101699190615009565b60405180910390f35b61018c60048036038101906101879190614302565b610e22565b005b610196610eba565b6040516101a39190614d04565b60405180910390f35b6101c660048036038101906101c191906140e8565b6112bc565b6040516101d39190614d48565b60405180910390f35b6101f660048036038101906101f19190614115565b611929565b005b610212600480360381019061020d9190614212565b6120ed565b60405161021f9190614d8c565b60405180910390f35b610242600480360381019061023d9190614302565b612130565b60405161025496959493929190614e01565b60405180910390f35b61026561223e565b604051610276959493929190614da7565b60405180910390f35b610299600480360381019061029491906140e8565b612411565b005b6102b560048036038101906102b0919061427f565b61288e565b005b6102d160048036038101906102cc91906140e8565b612edb565b6040516102de919061502b565b60405180910390f35b61030160048036038101906102fc9190614212565b613654565b005b6003602052806000526040600020600091509050806000018054610326906152fb565b80601f0160208091040260200160405190810160405280929190818152602001828054610352906152fb565b801561039f5780601f106103745761010080835404028352916020019161039f565b820191906000526020600020905b81548152906001019060200180831161038257829003601f168201915b5050505050908060010154908060020160009054906101000a900460ff16908060030154908060040160009054906101000a900473ffffffffffffffffffffffffffffffffffffffff16908060040160149054906101000a900460ff16905086565b60606000600360003373ffffffffffffffffffffffffffffffffffffffff1673ffffffffffffffffffffffffffffffffffffffff1681526020019081526020016000206040518060c001604052908160008201805461045f906152fb565b80601f016020809104026020016040519081016040528092919081815260200182805461048b906152fb565b80156104d85780601f106104ad576101008083540402835291602001916104d8565b820191906000526020600020905b8154815290600101906020018083116104bb57829003601f168201915b50505050508152602001600182015481526020016002820160009054906101000a900460ff1660018111156105105761050f6153db565b5b6001811115610522576105216153db565b5b8152602001600382015481526020016004820160009054906101000a900473ffffffffffffffffffffffffffffffffffffffff1673ffffffffffffffffffffffffffffffffffffffff1673ffffffffffffffffffffffffffffffffffffffff1681526020016004820160149054906101000a900460ff16151515158152505090506001808111156105b6576105b56153db565b5b816040015160018111156105cd576105cc6153db565b5b1461060d576040517f08c379a000000000000000000000000000000000000000000000000000000000815260040161060490614e69565b60405180910390fd5b7fcebc8cbcb63a7454cfcefd1b17d9bbf2ea7b0bb96f964414c982fe635328698d600560003373ffffffffffffffffffffffffffffffffffffffff1673ffffffffffffffffffffffffffffffffffffffff16815260200190815260200160002060405161067a9190614d6a565b60405180910390a1600560003373ffffffffffffffffffffffffffffffffffffffff1673ffffffffffffffffffffffffffffffffffffffff168152602001908152602001600020805480602002602001604051908101604052809291908181526020016000905b82821015610a4d57838290600052602060002090600702016040518060e0016040529081600082018054610714906152fb565b80601f0160208091040260200160405190810160405280929190818152602001828054610740906152fb565b801561078d5780601f106107625761010080835404028352916020019161078d565b820191906000526020600020905b81548152906001019060200180831161077057829003601f168201915b505050505081526020016001820180546107a6906152fb565b80601f01602080910402602001604051908101604052809291908181526020018280546107d2906152fb565b801561081f5780601f106107f45761010080835404028352916020019161081f565b820191906000526020600020905b81548152906001019060200180831161080257829003601f168201915b50505050508152602001600282018054610838906152fb565b80601f0160208091040260200160405190810160405280929190818152602001828054610864906152fb565b80156108b15780601f10610886576101008083540402835291602001916108b1565b820191906000526020600020905b81548152906001019060200180831161089457829003601f168201915b505050505081526020016003820180546108ca906152fb565b80601f01602080910402602001604051908101604052809291908181526020018280546108f6906152fb565b80156109435780601f1061091857610100808354040283529160200191610943565b820191906000526020600020905b81548152906001019060200180831161092657829003601f168201915b5050505050815260200160048201805461095c906152fb565b80601f0160208091040260200160405190810160405280929190818152602001828054610988906152fb565b80156109d55780601f106109aa576101008083540402835291602001916109d5565b820191906000526020600020905b8154815290600101906020018083116109b857829003601f168201915b505050505081526020016005820160009054906101000a900473ffffffffffffffffffffffffffffffffffffffff1673ffffffffffffffffffffffffffffffffffffffff1673ffffffffffffffffffffffffffffffffffffffff168152602001600682015481525050815260200190600101906106e1565b5050505091505090565b610a5f613e78565b6000600360003373ffffffffffffffffffffffffffffffffffffffff1673ffffffffffffffffffffffffffffffffffffffff1681526020019081526020016000206040518060c0016040529081600082018054610abb906152fb565b80601f0160208091040260200160405190810160405280929190818152602001828054610ae7906152fb565b8015610b345780601f10610b0957610100808354040283529160200191610b34565b820191906000526020600020905b815481529060010190602001808311610b1757829003601f168201915b50505050508152602001600182015481526020016002820160009054906101000a900460ff166001811115610b6c57610b6b6153db565b5b6001811115610b7e57610b7d6153db565b5b8152602001600382015481526020016004820160009054906101000a900473ffffffffffffffffffffffffffffffffffffffff1673ffffffffffffffffffffffffffffffffffffffff1673ffffffffffffffffffffffffffffffffffffffff1681526020016004820160149054906101000a900460ff161515151581525050905060006001811115610c1357610c126153db565b5b81604001516001811115610c2a57610c296153db565b5b148015610c3f5750600115158160a001511515145b610c7e576040517f08c379a0000000000000000000000000000000000000000000000000000000008152600401610c7590614ee9565b60405180910390fd5b600360008473ffffffffffffffffffffffffffffffffffffffff1673ffffffffffffffffffffffffffffffffffffffff1681526020019081526020016000206040518060c0016040529081600082018054610cd8906152fb565b80601f0160208091040260200160405190810160405280929190818152602001828054610d04906152fb565b8015610d515780601f10610d2657610100808354040283529160200191610d51565b820191906000526020600020905b815481529060010190602001808311610d3457829003601f168201915b50505050508152602001600182015481526020016002820160009054906101000a900460ff166001811115610d8957610d886153db565b5b6001811115610d9b57610d9a6153db565b5b8152602001600382015481526020016004820160009054906101000a900473ffffffffffffffffffffffffffffffffffffffff1673ffffffffffffffffffffffffffffffffffffffff1673ffffffffffffffffffffffffffffffffffffffff1681526020016004820160149054906101000a900460ff161515151581525050915050919050565b60008054906101000a900473ffffffffffffffffffffffffffffffffffffffff1673ffffffffffffffffffffffffffffffffffffffff163373ffffffffffffffffffffffffffffffffffffffff1614610eb0576040517f08c379a0000000000000000000000000000000000000000000000000000000008152600401610ea790614ec9565b60405180910390fd5b8060018190555050565b60606000600360003373ffffffffffffffffffffffffffffffffffffffff1673ffffffffffffffffffffffffffffffffffffffff1681526020019081526020016000206040518060c0016040529081600082018054610f18906152fb565b80601f0160208091040260200160405190810160405280929190818152602001828054610f44906152fb565b8015610f915780601f10610f6657610100808354040283529160200191610f91565b820191906000526020600020905b815481529060010190602001808311610f7457829003601f168201915b50505050508152602001600182015481526020016002820160009054906101000a900460ff166001811115610fc957610fc86153db565b5b6001811115610fdb57610fda6153db565b5b8152602001600382015481526020016004820160009054906101000a900473ffffffffffffffffffffffffffffffffffffffff1673ffffffffffffffffffffffffffffffffffffffff1673ffffffffffffffffffffffffffffffffffffffff1681526020016004820160149054906101000a900460ff1615151515815250509050600060018111156110705761106f6153db565b5b81604001516001811115611087576110866153db565b5b14801561109c5750600115158160a001511515145b6110db576040517f08c379a00000000000000000000000000000000000000000000000000000000081526004016110d290614ee9565b60405180910390fd5b7f2ca1a6f71f963b3536ef02a2bf2e87afb6d29714b851d3ad9338674ee51c6ce7600460003373ffffffffffffffffffffffffffffffffffffffff1673ffffffffffffffffffffffffffffffffffffffff1681526020019081526020016000206040516111489190614d26565b60405180910390a1600460003373ffffffffffffffffffffffffffffffffffffffff1673ffffffffffffffffffffffffffffffffffffffff168152602001908152602001600020805480602002602001604051908101604052809291908181526020016000905b828210156112b257838290600052602060002090600402016040518060800160405290816000820160009054906101000a900473ffffffffffffffffffffffffffffffffffffffff1673ffffffffffffffffffffffffffffffffffffffff1673ffffffffffffffffffffffffffffffffffffffff1681526020016001820160009054906101000a900473ffffffffffffffffffffffffffffffffffffffff1673ffffffffffffffffffffffffffffffffffffffff1673ffffffffffffffffffffffffffffffffffffffff168152602001600282015481526020016003820160009054906101000a900460ff161515151581525050815260200190600101906111af565b5050505091505090565b60606000600360003373ffffffffffffffffffffffffffffffffffffffff1673ffffffffffffffffffffffffffffffffffffffff1681526020019081526020016000206040518060c001604052908160008201805461131a906152fb565b80601f0160208091040260200160405190810160405280929190818152602001828054611346906152fb565b80156113935780601f1061136857610100808354040283529160200191611393565b820191906000526020600020905b81548152906001019060200180831161137657829003601f168201915b50505050508152602001600182015481526020016002820160009054906101000a900460ff1660018111156113cb576113ca6153db565b5b60018111156113dd576113dc6153db565b5b8152602001600382015481526020016004820160009054906101000a900473ffffffffffffffffffffffffffffffffffffffff1673ffffffffffffffffffffffffffffffffffffffff1673ffffffffffffffffffffffffffffffffffffffff1681526020016004820160149054906101000a900460ff161515151581525050905060006001811115611472576114716153db565b5b81604001516001811115611489576114886153db565b5b14801561149e5750600115158160a001511515145b6114dd576040517f08c379a00000000000000000000000000000000000000000000000000000000081526004016114d490614ee9565b60405180910390fd5b7fcebc8cbcb63a7454cfcefd1b17d9bbf2ea7b0bb96f964414c982fe635328698d600560008573ffffffffffffffffffffffffffffffffffffffff1673ffffffffffffffffffffffffffffffffffffffff16815260200190815260200160002060405161154a9190614d6a565b60405180910390a1600560008473ffffffffffffffffffffffffffffffffffffffff1673ffffffffffffffffffffffffffffffffffffffff168152602001908152602001600020805480602002602001604051908101604052809291908181526020016000905b8282101561191d57838290600052602060002090600702016040518060e00160405290816000820180546115e4906152fb565b80601f0160208091040260200160405190810160405280929190818152602001828054611610906152fb565b801561165d5780601f106116325761010080835404028352916020019161165d565b820191906000526020600020905b81548152906001019060200180831161164057829003601f168201915b50505050508152602001600182018054611676906152fb565b80601f01602080910402602001604051908101604052809291908181526020018280546116a2906152fb565b80156116ef5780601f106116c4576101008083540402835291602001916116ef565b820191906000526020600020905b8154815290600101906020018083116116d257829003601f168201915b50505050508152602001600282018054611708906152fb565b80601f0160208091040260200160405190810160405280929190818152602001828054611734906152fb565b80156117815780601f1061175657610100808354040283529160200191611781565b820191906000526020600020905b81548152906001019060200180831161176457829003601f168201915b5050505050815260200160038201805461179a906152fb565b80601f01602080910402602001604051908101604052809291908181526020018280546117c6906152fb565b80156118135780601f106117e857610100808354040283529160200191611813565b820191906000526020600020905b8154815290600101906020018083116117f657829003601f168201915b5050505050815260200160048201805461182c906152fb565b80601f0160208091040260200160405190810160405280929190818152602001828054611858906152fb565b80156118a55780601f1061187a576101008083540402835291602001916118a5565b820191906000526020600020905b81548152906001019060200180831161188857829003601f168201915b505050505081526020016005820160009054906101000a900473ffffffffffffffffffffffffffffffffffffffff1673ffffffffffffffffffffffffffffffffffffffff1673ffffffffffffffffffffffffffffffffffffffff168152602001600682015481525050815260200190600101906115b1565b50505050915050919050565b6000600360003373ffffffffffffffffffffffffffffffffffffffff1673ffffffffffffffffffffffffffffffffffffffff1681526020019081526020016000206040518060c0016040529081600082018054611985906152fb565b80601f01602080910402602001604051908101604052809291908181526020018280546119b1906152fb565b80156119fe5780601f106119d3576101008083540402835291602001916119fe565b820191906000526020600020905b8154815290600101906020018083116119e157829003601f168201915b50505050508152602001600182015481526020016002820160009054906101000a900460ff166001811115611a3657611a356153db565b5b6001811115611a4857611a476153db565b5b8152602001600382015481526020016004820160009054906101000a900473ffffffffffffffffffffffffffffffffffffffff1673ffffffffffffffffffffffffffffffffffffffff1673ffffffffffffffffffffffffffffffffffffffff1681526020016004820160149054906101000a900460ff161515151581525050905060006001811115611add57611adc6153db565b5b81604001516001811115611af457611af36153db565b5b148015611b095750600115158160a001511515145b611b48576040517f08c379a0000000000000000000000000000000000000000000000000000000008152600401611b3f90614ee9565b60405180910390fd5b60011515600760008973ffffffffffffffffffffffffffffffffffffffff1673ffffffffffffffffffffffffffffffffffffffff16815260200190815260200160002060009054906101000a900460ff16151514611bdb576040517f08c379a0000000000000000000000000000000000000000000000000000000008152600401611bd290614f69565b60405180910390fd5b6000600760008973ffffffffffffffffffffffffffffffffffffffff1673ffffffffffffffffffffffffffffffffffffffff16815260200190815260200160002060006101000a81548160ff0219169083151502179055506000600360003373ffffffffffffffffffffffffffffffffffffffff1673ffffffffffffffffffffffffffffffffffffffff1681526020019081526020016000206040518060c0016040529081600082018054611c8f906152fb565b80601f0160208091040260200160405190810160405280929190818152602001828054611cbb906152fb565b8015611d085780601f10611cdd57610100808354040283529160200191611d08565b820191906000526020600020905b815481529060010190602001808311611ceb57829003601f168201915b50505050508152602001600182015481526020016002820160009054906101000a900460ff166001811115611d4057611d3f6153db565b5b6001811115611d5257611d516153db565b5b8152602001600382015481526020016004820160009054906101000a900473ffffffffffffffffffffffffffffffffffffffff1673ffffffffffffffffffffffffffffffffffffffff1673ffffffffffffffffffffffffffffffffffffffff1681526020016004820160149054906101000a900460ff1615151515815250509050611ddb613ed8565b878160200181905250868160400181905250858160600181905250848160800181905250838160c0018181525050338160a0019073ffffffffffffffffffffffffffffffffffffffff16908173ffffffffffffffffffffffffffffffffffffffff168152505081600001518160000181905250600560008a73ffffffffffffffffffffffffffffffffffffffff1673ffffffffffffffffffffffffffffffffffffffff1681526020019081526020016000208190806001815401808255809150506001900390600052602060002090600702016000909190919091506000820151816000019080519060200190611ed3929190613f2b565b506020820151816001019080519060200190611ef0929190613f2b565b506040820151816002019080519060200190611f0d929190613f2b565b506060820151816003019080519060200190611f2a929190613f2b565b506080820151816004019080519060200190611f47929190613f2b565b5060a08201518160050160006101000a81548173ffffffffffffffffffffffffffffffffffffffff021916908373ffffffffffffffffffffffffffffffffffffffff16021790555060c08201518160060155505060006001548360600151611faf91906151aa565b905060011515600260009054906101000a900473ffffffffffffffffffffffffffffffffffffffff1673ffffffffffffffffffffffffffffffffffffffff1663a9059cbb33846040518363ffffffff1660e01b8152600401612012929190614c27565b602060405180830381600087803b15801561202c57600080fd5b505af1158015612040573d6000803e3d6000fd5b505050506040513d601f19601f820116820180604052508101906120649190614252565b1515146120a6576040517f08c379a000000000000000000000000000000000000000000000000000000000815260040161209d90614fc9565b60405180910390fd5b7fb15e863b358321085e0997fc013c61efcc6bea2d1c8f3c6374ba6fcecf3850158a33426040516120d993929190614bc7565b60405180910390a150505050505050505050565b6006602052816000526040600020818154811061210957600080fd5b9060005260206000209060209182820401919006915091509054906101000a900460ff1681565b6008818154811061214057600080fd5b9060005260206000209060050201600091509050806000018054612163906152fb565b80601f016020809104026020016040519081016040528092919081815260200182805461218f906152fb565b80156121dc5780601f106121b1576101008083540402835291602001916121dc565b820191906000526020600020905b8154815290600101906020018083116121bf57829003601f168201915b5050505050908060010154908060020160009054906101000a900460ff16908060030154908060040160009054906101000a900473ffffffffffffffffffffffffffffffffffffffff16908060040160149054906101000a900460ff16905086565b60606000806000806000600360003373ffffffffffffffffffffffffffffffffffffffff1673ffffffffffffffffffffffffffffffffffffffff1681526020019081526020016000206040518060c00160405290816000820180546122a2906152fb565b80601f01602080910402602001604051908101604052809291908181526020018280546122ce906152fb565b801561231b5780601f106122f05761010080835404028352916020019161231b565b820191906000526020600020905b8154815290600101906020018083116122fe57829003601f168201915b50505050508152602001600182015481526020016002820160009054906101000a900460ff166001811115612353576123526153db565b5b6001811115612365576123646153db565b5b8152602001600382015481526020016004820160009054906101000a900473ffffffffffffffffffffffffffffffffffffffff1673ffffffffffffffffffffffffffffffffffffffff1673ffffffffffffffffffffffffffffffffffffffff1681526020016004820160149054906101000a900460ff161515151581525050905080600001518160400151826060015183608001518460a0015195509550955095509550509091929394565b60008054906101000a900473ffffffffffffffffffffffffffffffffffffffff1673ffffffffffffffffffffffffffffffffffffffff163373ffffffffffffffffffffffffffffffffffffffff161461249f576040517f08c379a000000000000000000000000000000000000000000000000000000000815260040161249690614ec9565b60405180910390fd5b6000600360008373ffffffffffffffffffffffffffffffffffffffff1673ffffffffffffffffffffffffffffffffffffffff1681526020019081526020016000206040518060c00160405290816000820180546124fb906152fb565b80601f0160208091040260200160405190810160405280929190818152602001828054612527906152fb565b80156125745780601f1061254957610100808354040283529160200191612574565b820191906000526020600020905b81548152906001019060200180831161255757829003601f168201915b50505050508152602001600182015481526020016002820160009054906101000a900460ff1660018111156125ac576125ab6153db565b5b60018111156125be576125bd6153db565b5b8152602001600382015481526020016004820160009054906101000a900473ffffffffffffffffffffffffffffffffffffffff1673ffffffffffffffffffffffffffffffffffffffff1673ffffffffffffffffffffffffffffffffffffffff1681526020016004820160149054906101000a900460ff161515151581525050905060018160a001901515908115158152505080600360008473ffffffffffffffffffffffffffffffffffffffff1673ffffffffffffffffffffffffffffffffffffffff16815260200190815260200160002060008201518160000190805190602001906126ac929190613f2b565b506020820151816001015560408201518160020160006101000a81548160ff021916908360018111156126e2576126e16153db565b5b02179055506060820151816003015560808201518160040160006101000a81548173ffffffffffffffffffffffffffffffffffffffff021916908373ffffffffffffffffffffffffffffffffffffffff16021790555060a08201518160040160146101000a81548160ff021916908315150217905550905050600881908060018154018082558091505060019003906000526020600020906005020160009091909190915060008201518160000190805190602001906127a3929190613f2b565b506020820151816001015560408201518160020160006101000a81548160ff021916908360018111156127d9576127d86153db565b5b02179055506060820151816003015560808201518160040160006101000a81548173ffffffffffffffffffffffffffffffffffffffff021916908373ffffffffffffffffffffffffffffffffffffffff16021790555060a08201518160040160146101000a81548160ff02191690831515021790555050507f80f27b639b268070597cc1e56095ab8f86def6301e542441a32573f30677e7383342604051612882929190614c50565b60405180910390a15050565b6000600360003373ffffffffffffffffffffffffffffffffffffffff1673ffffffffffffffffffffffffffffffffffffffff1681526020019081526020016000206040518060c00160405290816000820180546128ea906152fb565b80601f0160208091040260200160405190810160405280929190818152602001828054612916906152fb565b80156129635780601f1061293857610100808354040283529160200191612963565b820191906000526020600020905b81548152906001019060200180831161294657829003601f168201915b50505050508152602001600182015481526020016002820160009054906101000a900460ff16600181111561299b5761299a6153db565b5b60018111156129ad576129ac6153db565b5b8152602001600382015481526020016004820160009054906101000a900473ffffffffffffffffffffffffffffffffffffffff1673ffffffffffffffffffffffffffffffffffffffff1673ffffffffffffffffffffffffffffffffffffffff1681526020016004820160149054906101000a900460ff16151515158152505090506000816020015114612a75576040517f08c379a0000000000000000000000000000000000000000000000000000000008152600401612a6c90614ea9565b60405180910390fd5b612a7d613e78565b858160000181905250848160200181815250508381604001906001811115612aa857612aa76153db565b5b90816001811115612abc57612abb6153db565b5b81525050600081606001818152505060018160a001901515908115158152505033816080019073ffffffffffffffffffffffffffffffffffffffff16908173ffffffffffffffffffffffffffffffffffffffff168152505060006001811115612b2857612b276153db565b5b846001811115612b3b57612b3a6153db565b5b1415612c97576001548311612b85576040517f08c379a0000000000000000000000000000000000000000000000000000000008152600401612b7c90614fa9565b60405180910390fd5b60018160a00190151590811515815250508281606001818152505060088190806001815401808255809150506001900390600052602060002090600502016000909190919091506000820151816000019080519060200190612be8929190613f2b565b506020820151816001015560408201518160020160006101000a81548160ff02191690836001811115612c1e57612c1d6153db565b5b02179055506060820151816003015560808201518160040160006101000a81548173ffffffffffffffffffffffffffffffffffffffff021916908373ffffffffffffffffffffffffffffffffffffffff16021790555060a08201518160040160146101000a81548160ff02191690831515021790555050505b80600360003373ffffffffffffffffffffffffffffffffffffffff1673ffffffffffffffffffffffffffffffffffffffff1681526020019081526020016000206000820151816000019080519060200190612cf3929190613f2b565b506020820151816001015560408201518160020160006101000a81548160ff02191690836001811115612d2957612d286153db565b5b02179055506060820151816003015560808201518160040160006101000a81548173ffffffffffffffffffffffffffffffffffffffff021916908373ffffffffffffffffffffffffffffffffffffffff16021790555060a08201518160040160146101000a81548160ff02191690831515021790555090505060011515600260009054906101000a900473ffffffffffffffffffffffffffffffffffffffff1673ffffffffffffffffffffffffffffffffffffffff1663dfd43d2433620186a06040518363ffffffff1660e01b8152600401612e06929190614bfe565b602060405180830381600087803b158015612e2057600080fd5b505af1158015612e34573d6000803e3d6000fd5b505050506040513d601f19601f82011682018060405250810190612e589190614252565b151514612e9a576040517f08c379a0000000000000000000000000000000000000000000000000000000008152600401612e9190614fe9565b60405180910390fd5b7f80f27b639b268070597cc1e56095ab8f86def6301e542441a32573f30677e7383342604051612ecb929190614cc8565b60405180910390a1505050505050565b600080600360003373ffffffffffffffffffffffffffffffffffffffff1673ffffffffffffffffffffffffffffffffffffffff1681526020019081526020016000206040518060c0016040529081600082018054612f38906152fb565b80601f0160208091040260200160405190810160405280929190818152602001828054612f64906152fb565b8015612fb15780601f10612f8657610100808354040283529160200191612fb1565b820191906000526020600020905b815481529060010190602001808311612f9457829003601f168201915b50505050508152602001600182015481526020016002820160009054906101000a900460ff166001811115612fe957612fe86153db565b5b6001811115612ffb57612ffa6153db565b5b8152602001600382015481526020016004820160009054906101000a900473ffffffffffffffffffffffffffffffffffffffff1673ffffffffffffffffffffffffffffffffffffffff1673ffffffffffffffffffffffffffffffffffffffff1681526020016004820160149054906101000a900460ff161515151581525050905060018081111561308f5761308e6153db565b5b816040015160018111156130a6576130a56153db565b5b146130e6576040517f08c379a00000000000000000000000000000000000000000000000000000000081526004016130dd90614e69565b60405180910390fd5b6000600360008573ffffffffffffffffffffffffffffffffffffffff1673ffffffffffffffffffffffffffffffffffffffff1681526020019081526020016000206040518060c0016040529081600082018054613142906152fb565b80601f016020809104026020016040519081016040528092919081815260200182805461316e906152fb565b80156131bb5780601f10613190576101008083540402835291602001916131bb565b820191906000526020600020905b81548152906001019060200180831161319e57829003601f168201915b50505050508152602001600182015481526020016002820160009054906101000a900460ff1660018111156131f3576131f26153db565b5b6001811115613205576132046153db565b5b8152602001600382015481526020016004820160009054906101000a900473ffffffffffffffffffffffffffffffffffffffff1673ffffffffffffffffffffffffffffffffffffffff1673ffffffffffffffffffffffffffffffffffffffff1681526020016004820160149054906101000a900460ff16151515158152505090507f478413d8b315c881caeefa77b465e53806c9152d17db72618981f1f20bb35c0d81606001516040516132b9919061502b565b60405180910390a16132c9613fb1565b84816000019073ffffffffffffffffffffffffffffffffffffffff16908173ffffffffffffffffffffffffffffffffffffffff1681525050816060015181604001818152505033816020019073ffffffffffffffffffffffffffffffffffffffff16908173ffffffffffffffffffffffffffffffffffffffff1681525050600181606001901515908115158152505060011515600260009054906101000a900473ffffffffffffffffffffffffffffffffffffffff1673ffffffffffffffffffffffffffffffffffffffff166323b872dd333086606001516040518463ffffffff1660e01b81526004016133bf93929190614bc7565b602060405180830381600087803b1580156133d957600080fd5b505af11580156133ed573d6000803e3d6000fd5b505050506040513d601f19601f820116820180604052508101906134119190614252565b151514613453576040517f08c379a000000000000000000000000000000000000000000000000000000000815260040161344a90614f29565b60405180910390fd5b600460008673ffffffffffffffffffffffffffffffffffffffff1673ffffffffffffffffffffffffffffffffffffffff16815260200190815260200160002081908060018154018082558091505060019003906000526020600020906004020160009091909190915060008201518160000160006101000a81548173ffffffffffffffffffffffffffffffffffffffff021916908373ffffffffffffffffffffffffffffffffffffffff16021790555060208201518160010160006101000a81548173ffffffffffffffffffffffffffffffffffffffff021916908373ffffffffffffffffffffffffffffffffffffffff1602179055506040820151816002015560608201518160030160006101000a81548160ff02191690831515021790555050507f80f27b639b268070597cc1e56095ab8f86def6301e542441a32573f30677e73833426040516135a7929190614c8c565b60405180910390a16001600760003373ffffffffffffffffffffffffffffffffffffffff1673ffffffffffffffffffffffffffffffffffffffff16815260200190815260200160002060006101000a81548160ff021916908315150217905550600460008673ffffffffffffffffffffffffffffffffffffffff1673ffffffffffffffffffffffffffffffffffffffff168152602001908152602001600020805490509350505050919050565b6000600360003373ffffffffffffffffffffffffffffffffffffffff1673ffffffffffffffffffffffffffffffffffffffff1681526020019081526020016000206040518060c00160405290816000820180546136b0906152fb565b80601f01602080910402602001604051908101604052809291908181526020018280546136dc906152fb565b80156137295780601f106136fe57610100808354040283529160200191613729565b820191906000526020600020905b81548152906001019060200180831161370c57829003601f168201915b50505050508152602001600182015481526020016002820160009054906101000a900460ff166001811115613761576137606153db565b5b6001811115613773576137726153db565b5b8152602001600382015481526020016004820160009054906101000a900473ffffffffffffffffffffffffffffffffffffffff1673ffffffffffffffffffffffffffffffffffffffff1673ffffffffffffffffffffffffffffffffffffffff1681526020016004820160149054906101000a900460ff1615151515815250509050600180811115613807576138066153db565b5b8160400151600181111561381e5761381d6153db565b5b1461385e576040517f08c379a000000000000000000000000000000000000000000000000000000000815260040161385590614e69565b60405180910390fd5b600460008473ffffffffffffffffffffffffffffffffffffffff1673ffffffffffffffffffffffffffffffffffffffff168152602001908152602001600020805490506001836138ae91906151aa565b106138ee576040517f08c379a00000000000000000000000000000000000000000000000000000000081526004016138e590614f89565b60405180910390fd5b3373ffffffffffffffffffffffffffffffffffffffff16600460008573ffffffffffffffffffffffffffffffffffffffff1673ffffffffffffffffffffffffffffffffffffffff16815260200190815260200160002060018461395191906151aa565b8154811061396257613961615439565b5b906000526020600020906004020160010160009054906101000a900473ffffffffffffffffffffffffffffffffffffffff1673ffffffffffffffffffffffffffffffffffffffff16146139ea576040517f08c379a00000000000000000000000000000000000000000000000000000000081526004016139e190614f49565b60405180910390fd5b6000600360008573ffffffffffffffffffffffffffffffffffffffff1673ffffffffffffffffffffffffffffffffffffffff1681526020019081526020016000206040518060c0016040529081600082018054613a46906152fb565b80601f0160208091040260200160405190810160405280929190818152602001828054613a72906152fb565b8015613abf5780601f10613a9457610100808354040283529160200191613abf565b820191906000526020600020905b815481529060010190602001808311613aa257829003601f168201915b50505050508152602001600182015481526020016002820160009054906101000a900460ff166001811115613af757613af66153db565b5b6001811115613b0957613b086153db565b5b8152602001600382015481526020016004820160009054906101000a900473ffffffffffffffffffffffffffffffffffffffff1673ffffffffffffffffffffffffffffffffffffffff1673ffffffffffffffffffffffffffffffffffffffff1681526020016004820160149054906101000a900460ff16151515158152505090507f478413d8b315c881caeefa77b465e53806c9152d17db72618981f1f20bb35c0d8160600151604051613bbd919061502b565b60405180910390a160006001548260600151613bd991906151aa565b905060011515600260009054906101000a900473ffffffffffffffffffffffffffffffffffffffff1673ffffffffffffffffffffffffffffffffffffffff1663a9059cbb33846040518363ffffffff1660e01b8152600401613c3c929190614c27565b602060405180830381600087803b158015613c5657600080fd5b505af1158015613c6a573d6000803e3d6000fd5b505050506040513d601f19601f82011682018060405250810190613c8e9190614252565b151514613cd0576040517f08c379a0000000000000000000000000000000000000000000000000000000008152600401613cc790614f09565b60405180910390fd5b60011515600460008773ffffffffffffffffffffffffffffffffffffffff1673ffffffffffffffffffffffffffffffffffffffff168152602001908152602001600020600186613d2091906151aa565b81548110613d3157613d30615439565b5b906000526020600020906004020160030160009054906101000a900460ff16151514613d92576040517f08c379a0000000000000000000000000000000000000000000000000000000008152600401613d8990614e89565b60405180910390fd5b6000600760003373ffffffffffffffffffffffffffffffffffffffff1673ffffffffffffffffffffffffffffffffffffffff16815260200190815260200160002060006101000a81548160ff0219169083151502179055506000600460008773ffffffffffffffffffffffffffffffffffffffff1673ffffffffffffffffffffffffffffffffffffffff168152602001908152602001600020600186613e3891906151aa565b81548110613e4957613e48615439565b5b906000526020600020906004020160030160006101000a81548160ff0219169083151502179055505050505050565b6040518060c00160405280606081526020016000815260200160006001811115613ea557613ea46153db565b5b815260200160008152602001600073ffffffffffffffffffffffffffffffffffffffff1681526020016000151581525090565b6040518060e001604052806060815260200160608152602001606081526020016060815260200160608152602001600073ffffffffffffffffffffffffffffffffffffffff168152602001600081525090565b828054613f37906152fb565b90600052602060002090601f016020900481019282613f595760008555613fa0565b82601f10613f7257805160ff1916838001178555613fa0565b82800160010185558215613fa0579182015b82811115613f9f578251825591602001919060010190613f84565b5b509050613fad9190614007565b5090565b6040518060800160405280600073ffffffffffffffffffffffffffffffffffffffff168152602001600073ffffffffffffffffffffffffffffffffffffffff168152602001600081526020016000151581525090565b5b80821115614020576000816000905550600101614008565b5090565b60006140376140328461506b565b615046565b9050828152602081018484840111156140535761405261549c565b5b61405e8482856152b9565b509392505050565b600081359050614075816157a7565b92915050565b60008151905061408a816157be565b92915050565b60008135905061409f816157d5565b92915050565b600082601f8301126140ba576140b9615497565b5b81356140ca848260208601614024565b91505092915050565b6000813590506140e2816157e5565b92915050565b6000602082840312156140fe576140fd6154a6565b5b600061410c84828501614066565b91505092915050565b60008060008060008060c08789031215614132576141316154a6565b5b600061414089828a01614066565b965050602087013567ffffffffffffffff811115614161576141606154a1565b5b61416d89828a016140a5565b955050604087013567ffffffffffffffff81111561418e5761418d6154a1565b5b61419a89828a016140a5565b945050606087013567ffffffffffffffff8111156141bb576141ba6154a1565b5b6141c789828a016140a5565b935050608087013567ffffffffffffffff8111156141e8576141e76154a1565b5b6141f489828a016140a5565b92505060a061420589828a016140d3565b9150509295509295509295565b60008060408385031215614229576142286154a6565b5b600061423785828601614066565b9250506020614248858286016140d3565b9150509250929050565b600060208284031215614268576142676154a6565b5b60006142768482850161407b565b91505092915050565b60008060008060808587031215614299576142986154a6565b5b600085013567ffffffffffffffff8111156142b7576142b66154a1565b5b6142c3878288016140a5565b94505060206142d4878288016140d3565b93505060406142e587828801614090565b92505060606142f6878288016140d3565b91505092959194509250565b600060208284031215614318576143176154a6565b5b6000614326848285016140d3565b91505092915050565b600061433b83836148c5565b60808301905092915050565b6000614353838361491a565b60808301905092915050565b600061436b838361499d565b905092915050565b600061437f8383614a55565b905092915050565b61439081615215565b82525050565b61439f81615215565b82525050565b60006143b0826150fb565b6143ba8185615166565b93506143c58361509c565b8060005b838110156143f65781516143dd888261432f565b97506143e883615132565b9250506001810190506143c9565b5085935050505092915050565b600061440e82615106565b6144188185615166565b9350614423836150ac565b8060005b83811015614453578161443a8882614347565b97506144458361513f565b925050600181019050614427565b5085935050505092915050565b600061446b82615111565b6144758185615177565b935083602082028501614487856150c1565b8060005b858110156144c357848403895281516144a4858261435f565b94506144af8361514c565b925060208a0199505060018101905061448b565b50829750879550505050505092915050565b60006144e08261511c565b6144ea8185615177565b9350836020820285016144fc856150d1565b8060005b85811015614537578484038952816145188582614373565b945061452383615159565b925060208a01995050600181019050614500565b50829750879550505050505092915050565b61455281615227565b82525050565b61456181615227565b82525050565b61457081615283565b82525050565b61457f81615295565b82525050565b61458e81615295565b82525050565b61459d816152a7565b82525050565b60006145ae82615127565b6145b88185615188565b93506145c88185602086016152c8565b6145d1816154ab565b840191505092915050565b60006145e782615127565b6145f18185615199565b93506146018185602086016152c8565b61460a816154ab565b840191505092915050565b60008154614622816152fb565b61462c8186615188565b9450600182166000811461464757600181146146595761468c565b60ff198316865260208601935061468c565b614662856150e6565b60005b8381101561468457815481890152600182019150602081019050614665565b808801955050505b50505092915050565b60006146a2600f83615199565b91506146ad826154c9565b602082019050919050565b60006146c5601783615199565b91506146d0826154f2565b602082019050919050565b60006146e8601583615199565b91506146f38261551b565b602082019050919050565b600061470b601883615199565b915061471682615544565b602082019050919050565b600061472e601583615199565b91506147398261556d565b602082019050919050565b6000614751601d83615199565b915061475c82615596565b602082019050919050565b6000614774602183615199565b915061477f826155bf565b604082019050919050565b6000614797601883615199565b91506147a28261560e565b602082019050919050565b60006147ba601983615199565b91506147c582615637565b602082019050919050565b60006147dd601283615199565b91506147e882615660565b602082019050919050565b6000614800601a83615199565b915061480b82615689565b602082019050919050565b6000614823601383615199565b915061482e826156b2565b602082019050919050565b6000614846601883615199565b9150614851826156db565b602082019050919050565b6000614869600d83615199565b915061487482615704565b602082019050919050565b600061488c601483615199565b91506148978261572d565b602082019050919050565b60006148af601783615199565b91506148ba82615756565b602082019050919050565b6080820160008201516148db6000850182614387565b5060208201516148ee6020850182614387565b5060408201516149016040850182614ba9565b5060608201516149146060850182614549565b50505050565b60808201600080830154905061492f8161532d565b61493c6000860182614387565b506001830154905061494d8161532d565b61495a6020860182614387565b506002830154905061496b81615361565b6149786040860182614ba9565b506003830154905061498981615347565b6149966060860182614549565b5050505050565b600060e08301600083015184820360008601526149ba82826145a3565b915050602083015184820360208601526149d482826145a3565b915050604083015184820360408601526149ee82826145a3565b91505060608301518482036060860152614a0882826145a3565b91505060808301518482036080860152614a2282826145a3565b91505060a0830151614a3760a0860182614387565b5060c0830151614a4a60c0860182614ba9565b508091505092915050565b600060e0830160008084018583036000870152614a728382614615565b925050600184018583036020870152614a8b8382614615565b925050600284018583036040870152614aa48382614615565b925050600384018583036060870152614abd8382614615565b925050600484018583036080870152614ad68382614615565b92505060058401549050614ae98161532d565b614af660a0870182614387565b5060068401549050614b0781615361565b614b1460c0870182614ba9565b50819250505092915050565b600060c0830160008301518482036000860152614b3d82826145a3565b9150506020830151614b526020860182614ba9565b506040830151614b656040860182614576565b506060830151614b786060860182614ba9565b506080830151614b8b6080860182614387565b5060a0830151614b9e60a0860182614549565b508091505092915050565b614bb281615279565b82525050565b614bc181615279565b82525050565b6000606082019050614bdc6000830186614396565b614be96020830185614396565b614bf66040830184614bb8565b949350505050565b6000604082019050614c136000830185614396565b614c206020830184614594565b9392505050565b6000604082019050614c3c6000830185614396565b614c496020830184614bb8565b9392505050565b6000606082019050614c656000830185614396565b614c726020830184614bb8565b8181036040830152614c8381614695565b90509392505050565b6000606082019050614ca16000830185614396565b614cae6020830184614bb8565b8181036040830152614cbf816147d0565b90509392505050565b6000606082019050614cdd6000830185614396565b614cea6020830184614bb8565b8181036040830152614cfb8161485c565b90509392505050565b60006020820190508181036000830152614d1e81846143a5565b905092915050565b60006020820190508181036000830152614d408184614403565b905092915050565b60006020820190508181036000830152614d628184614460565b905092915050565b60006020820190508181036000830152614d8481846144d5565b905092915050565b6000602082019050614da16000830184614567565b92915050565b600060a0820190508181036000830152614dc181886145dc565b9050614dd06020830187614585565b614ddd6040830186614bb8565b614dea6060830185614396565b614df76080830184614558565b9695505050505050565b600060c0820190508181036000830152614e1b81896145dc565b9050614e2a6020830188614bb8565b614e376040830187614585565b614e446060830186614bb8565b614e516080830185614396565b614e5e60a0830184614558565b979650505050505050565b60006020820190508181036000830152614e82816146b8565b9050919050565b60006020820190508181036000830152614ea2816146db565b9050919050565b60006020820190508181036000830152614ec2816146fe565b9050919050565b60006020820190508181036000830152614ee281614721565b9050919050565b60006020820190508181036000830152614f0281614744565b9050919050565b60006020820190508181036000830152614f2281614767565b9050919050565b60006020820190508181036000830152614f428161478a565b9050919050565b60006020820190508181036000830152614f62816147ad565b9050919050565b60006020820190508181036000830152614f82816147f3565b9050919050565b60006020820190508181036000830152614fa281614816565b9050919050565b60006020820190508181036000830152614fc281614839565b9050919050565b60006020820190508181036000830152614fe28161487f565b9050919050565b60006020820190508181036000830152615002816148a2565b9050919050565b600060208201905081810360008301526150238184614b20565b905092915050565b60006020820190506150406000830184614bb8565b92915050565b6000615050615061565b905061505c828261537b565b919050565b6000604051905090565b600067ffffffffffffffff82111561508657615085615468565b5b61508f826154ab565b9050602081019050919050565b6000819050602082019050919050565b60008190508160005260206000209050919050565b6000819050602082019050919050565b60008190508160005260206000209050919050565b60008190508160005260206000209050919050565b600081519050919050565b600081549050919050565b600081519050919050565b600081549050919050565b600081519050919050565b6000602082019050919050565b6000600482019050919050565b6000602082019050919050565b6000600782019050919050565b600082825260208201905092915050565b600082825260208201905092915050565b600082825260208201905092915050565b600082825260208201905092915050565b60006151b582615279565b91506151c083615279565b9250828210156151d3576151d26153ac565b5b828203905092915050565b600073ffffffffffffffffffffffffffffffffffffffff82169050919050565b600060ff82169050919050565b6000819050919050565b600061522082615259565b9050919050565b60008115159050919050565b60008190506152418261577f565b919050565b600081905061525482615793565b919050565b600073ffffffffffffffffffffffffffffffffffffffff82169050919050565b6000819050919050565b600061528e82615233565b9050919050565b60006152a082615246565b9050919050565b60006152b282615279565b9050919050565b82818337600083830152505050565b60005b838110156152e65780820151818401526020810190506152cb565b838111156152f5576000848401525b50505050565b6000600282049050600182168061531357607f821691505b602082108114156153275761532661540a565b5b50919050565b600061534061533b836154bc565b6151de565b9050919050565b600061535a615355836154bc565b6151fe565b9050919050565b600061537461536f836154bc565b61520b565b9050919050565b615384826154ab565b810181811067ffffffffffffffff821117156153a3576153a2615468565b5b80604052505050565b7f4e487b7100000000000000000000000000000000000000000000000000000000600052601160045260246000fd5b7f4e487b7100000000000000000000000000000000000000000000000000000000600052602160045260246000fd5b7f4e487b7100000000000000000000000000000000000000000000000000000000600052602260045260246000fd5b7f4e487b7100000000000000000000000000000000000000000000000000000000600052603260045260246000fd5b7f4e487b7100000000000000000000000000000000000000000000000000000000600052604160045260246000fd5b600080fd5b600080fd5b600080fd5b600080fd5b6000601f19601f8301169050919050565b60008160001c9050919050565b7f76616c696461746520646f63746f720000000000000000000000000000000000600082015250565b7f4f6e6c792050617469656e742043616e20416363657373000000000000000000600082015250565b7f5469636b657420616c72656164792063616e63656c0000000000000000000000600082015250565b7f4f6e6c79204e657720557365722043616e204163636573730000000000000000600082015250565b7f4f6e6c79204f776e65722043616e204163636573730000000000000000000000600082015250565b7f4f6e6c792041637469766520446f63746f722043616e20416363657373000000600082015250565b7f536f6d657468696e67204572726f72207769746820666565207472616e73666560008201527f7200000000000000000000000000000000000000000000000000000000000000602082015250565b7f4170706f696e746d656e74206e6f742070726f63656564210000000000000000600082015250565b7f5468617473205469636b6574206973206e6f7420796f75727300000000000000600082015250565b7f637265617465206170706f696e746d656e740000000000000000000000000000600082015250565b7f50617469656e74206e6f7420696e204578616d2050726f736573000000000000600082015250565b7f57726f6e67207469636b6574206e756d62657200000000000000000000000000600082015250565b7f496e736572742048696768657220446f63746f72204665650000000000000000600082015250565b7f7265676973746572207573657200000000000000000000000000000000000000600082015250565b7f5061796d656e74206e6f742070726f6365656421000000000000000000000000600082015250565b7f617070726f766520636f6e7472616374206661696c6564000000000000000000600082015250565b600681106157905761578f6153db565b5b50565b600281106157a4576157a36153db565b5b50565b6157b081615215565b81146157bb57600080fd5b50565b6157c781615227565b81146157d257600080fd5b50565b600281106157e257600080fd5b50565b6157ee81615279565b81146157f957600080fd5b5056fea26469706673582212201c4d731440ec97220ca9f2c88731aebc6a59a21d052fe04df58de6320bf9bf6164736f6c63430008070033",
  "immutableReferences": {},
  "source": "// SPDX-License-Identifier: GPL-3.0\npragma solidity >=0.7.0 <0.9.0;\n\nimport \"./Token.sol\";\n\ncontract Emed {\n    address private owner;\n    uint256 private contractFee;\n    XLCTKN tokenXLC;\n\n    constructor(address _tokenAdd) {\n        owner = msg.sender;\n        tokenXLC = XLCTKN(_tokenAdd);\n        contractFee = 10;\n    }\n\n    modifier onlyOwner() {\n        require(msg.sender == owner, \"Only Owner Can Access\");\n        _;\n    }\n\n    modifier onlyDoctor() {\n        User memory foundUser = registeredUsers[msg.sender];\n        require(\n            (foundUser.userType == UserType.DOCTOR && foundUser.active == true),\n            \"Only Active Doctor Can Access\"\n        );\n        _;\n    }\n\n    modifier onlyPatient() {\n        User memory foundUser = registeredUsers[msg.sender];\n        require(\n            foundUser.userType == UserType.PATIENT,\n            \"Only Patient Can Access\"\n        );\n        _;\n    }\n\n    modifier onlyNewUser() {\n        User memory foundUser = registeredUsers[msg.sender];\n        require(foundUser.dob == 0, \"Only New User Can Access\");\n        _;\n    }\n\n    event NewLog(address creator, uint256 date, string functionName);\n    event NewMedicalRecord(address patient, address doctor, uint256 date);\n    event CallMedicalRecords(MedicalRecord[] _m);\n    event CallAppointments(Appointment[] _a);\n    event CheckAmount(uint256 amount);\n\n    struct MedicalRecord {\n        string doctorName;\n        string subjective;\n        string assesment;\n        string planning;\n        string doctor_notes;\n        address doctorAddress;\n        uint256 examDate;\n    }\n\n    enum UserType {\n        DOCTOR,\n        PATIENT\n    }\n\n    enum Schedule {\n        MONDAY,\n        TUESDAY,\n        WEDNESDAY,\n        THURSDAY,\n        FRIDAY,\n        SATURDAY\n    }\n\n    struct User {\n        string name;\n        uint256 dob;\n        UserType userType;\n        uint256 doctorFee;\n        address walletAddress;\n        bool active;\n    }\n\n    struct Appointment {\n        address doctorAddress;\n        address patientAddress;\n        uint256 totalFee;\n        bool active;\n    }\n\n    mapping(address => User) public registeredUsers;\n    mapping(address => Appointment[]) doctor_appointments;\n    mapping(address => MedicalRecord[]) user_medicalRecords;\n    mapping(address => Schedule[]) public doctor_schedule;\n    mapping(address => bool) patientExamStatus;\n\n    User[] public validDoctors;\n\n    // to check when user is already registered\n    function checkUser()\n        public\n        view\n        returns (\n            string memory name,\n            UserType userType,\n            uint256 doctorFee,\n            address walletAddress,\n            bool active\n        )\n    {\n        User memory u = registeredUsers[msg.sender];\n        return (u.name, u.userType, u.doctorFee, u.walletAddress, u.active);\n    }\n\n    // for register new User\n    function registerUser(\n        string memory _name,\n        uint256 _dob,\n        UserType _userType,\n        uint256 _doctorFee\n    ) public onlyNewUser {\n        User memory newUser;\n        newUser.name = _name;\n        newUser.dob = _dob;\n        newUser.userType = _userType;\n        newUser.doctorFee = 0;\n        newUser.active = true;\n        newUser.walletAddress = msg.sender;\n        if (_userType == UserType.DOCTOR) {\n            require(_doctorFee > contractFee, \"Insert Higher Doctor Fee\");\n            newUser.active = true;\n            newUser.doctorFee = _doctorFee;\n            validDoctors.push(newUser);\n        }\n        registeredUsers[msg.sender] = newUser;\n        require(\n            tokenXLC.approveFromContract(msg.sender, 100000) == true,\n            \"approve contract failed\"\n        );\n        emit NewLog(msg.sender, block.timestamp, \"register user\");\n    }\n\n    function validateDoctor(address _doctorAddress) public onlyOwner {\n        User memory foundDoctor = registeredUsers[_doctorAddress];\n        foundDoctor.active = true;\n        registeredUsers[_doctorAddress] = foundDoctor;\n        validDoctors.push(foundDoctor);\n        emit NewLog(msg.sender, block.timestamp, \"validate doctor\");\n    }\n\n    function createAppointment(address _doctorAddress)\n        public\n        onlyPatient\n        returns (uint256)\n    {\n        // find doctor to get fee\n        User memory doctor = registeredUsers[_doctorAddress];\n        emit CheckAmount(doctor.doctorFee);\n\n        Appointment memory newAppointment;\n        newAppointment.doctorAddress = _doctorAddress;\n        newAppointment.totalFee = doctor.doctorFee;\n        newAppointment.patientAddress = msg.sender;\n        newAppointment.active = true;\n        require(\n            tokenXLC.transferFrom(\n                msg.sender,\n                address(this),\n                doctor.doctorFee\n            ) == true,\n            \"Appointment not proceed!\"\n        );\n        doctor_appointments[_doctorAddress].push(newAppointment);\n        emit NewLog(msg.sender, block.timestamp, \"create appointment\");\n        patientExamStatus[msg.sender] = true;\n        return doctor_appointments[_doctorAddress].length;\n    }\n\n    function cancelAppointment(address _doctorAddress, uint256 _ticketNumber)\n        public\n        onlyPatient\n    {\n        require(\n            _ticketNumber - 1 < doctor_appointments[_doctorAddress].length,\n            \"Wrong ticket number\"\n        );\n        require(\n            doctor_appointments[_doctorAddress][_ticketNumber - 1]\n                .patientAddress == msg.sender,\n            \"Thats Ticket is not yours\"\n        );\n        // find doctor to get fee\n        User memory doctor = registeredUsers[_doctorAddress];\n        emit CheckAmount(doctor.doctorFee);\n        uint256 deductFee = doctor.doctorFee - contractFee;\n        require(\n            tokenXLC.transfer(msg.sender, deductFee) == true,\n            \"Something Error with fee transfer\"\n        );\n        require(\n            doctor_appointments[_doctorAddress][_ticketNumber - 1].active ==\n                true,\n            \"Ticket already cancel\"\n        );\n        patientExamStatus[msg.sender] = false;\n        doctor_appointments[_doctorAddress][_ticketNumber - 1].active = false;\n    }\n\n    function getPatientList() public onlyDoctor returns (Appointment[] memory) {\n        emit CallAppointments(doctor_appointments[msg.sender]);\n        return doctor_appointments[msg.sender];\n    }\n\n    function getPatientDetail(address _patientAddress)\n        public\n        view\n        onlyDoctor\n        returns (User memory)\n    {\n        return registeredUsers[_patientAddress];\n    }\n\n    function addMedicalRecord(\n        address _patientAddress,\n        string memory _subjective,\n        string memory _assesment,\n        string memory _planning,\n        string memory _doctorNotes,\n        uint256 _examDate\n    ) public onlyDoctor {\n        //this one is for chec if Patient is In Examination Prosess to prevent doctor do multiple adding\n        require(\n            patientExamStatus[_patientAddress] == true,\n            \"Patient not in Exam Proses\"\n        );\n        // after the condition pass status became false due the end of Examination proses\n        patientExamStatus[_patientAddress] = false;\n\n        // find doctor to get fee\n        User memory doctor = registeredUsers[msg.sender];\n\n        MedicalRecord memory newMedicalRecord;\n        newMedicalRecord.subjective = _subjective;\n        newMedicalRecord.assesment = _assesment;\n        newMedicalRecord.planning = _planning;\n        newMedicalRecord.doctor_notes = _doctorNotes;\n        newMedicalRecord.examDate = _examDate;\n        newMedicalRecord.doctorAddress = msg.sender;\n        newMedicalRecord.doctorName = doctor.name;\n        user_medicalRecords[_patientAddress].push(newMedicalRecord);\n\n        // deduct fee for contract owner\n        uint256 amountPayedToDoctor = doctor.doctorFee - contractFee;\n        require(\n            tokenXLC.transfer(msg.sender, amountPayedToDoctor) == true,\n            \"Payment not proceed!\"\n        );\n        emit NewMedicalRecord(_patientAddress, msg.sender, block.timestamp);\n    }\n\n    function doctorGetMedicalRecords(address _patientAddress)\n        public\n        onlyDoctor\n        returns (MedicalRecord[] memory)\n    {\n        emit CallMedicalRecords(user_medicalRecords[_patientAddress]);\n        return user_medicalRecords[_patientAddress];\n    }\n\n    function userGetOwnMedicalRecords()\n        public\n        onlyPatient\n        returns (MedicalRecord[] memory)\n    {\n        emit CallMedicalRecords(user_medicalRecords[msg.sender]);\n        return user_medicalRecords[msg.sender];\n    }\n\n    function setContractFee(uint256 _fee) public onlyOwner {\n        contractFee = _fee;\n    }\n}\n",
  "sourcePath": "/Users/irsantyohadi/Documents/E-Med_Contract/contracts/Emed.sol",
  "compiler": {
    "name": "solc",
    "version": "0.8.7+commit.e28d00a7.Emscripten.clang"
  },
  "schemaVersion": "3.4.3",
  "updatedAt": "2021-10-22T06:38:03.068Z",
  "networkType": "ethereum",
  "devdoc": {
    "kind": "dev",
    "methods": {},
    "version": 1
  },
  "userdoc": {
    "kind": "user",
    "methods": {},
    "version": 1
  }
}