{
  "contractName": "Emed",
  "abi": [
    {
      "inputs": [
        {
          "internalType": "address",
          "name": "_tokenAdd",
          "type": "address"
        }
      ],
      "stateMutability": "nonpayable",
      "type": "constructor"
    },
    {
      "anonymous": false,
      "inputs": [
        {
          "components": [
            {
              "internalType": "address",
              "name": "doctorAddress",
              "type": "address"
            },
            {
              "internalType": "address",
              "name": "patientAddress",
              "type": "address"
            },
            {
              "internalType": "uint256",
              "name": "totalFee",
              "type": "uint256"
            },
            {
              "internalType": "uint256",
              "name": "examDate",
              "type": "uint256"
            },
            {
              "internalType": "enum Emed.Schedule",
              "name": "examSchedule",
              "type": "uint8"
            },
            {
              "internalType": "bool",
              "name": "active",
              "type": "bool"
            }
          ],
          "indexed": false,
          "internalType": "struct Emed.Appointment[]",
          "name": "_a",
          "type": "tuple[]"
        }
      ],
      "name": "CallAppointments",
      "type": "event"
    },
    {
      "anonymous": false,
      "inputs": [
        {
          "components": [
            {
              "internalType": "string",
              "name": "subjective",
              "type": "string"
            },
            {
              "internalType": "string",
              "name": "objective",
              "type": "string"
            },
            {
              "internalType": "string",
              "name": "assesment",
              "type": "string"
            },
            {
              "internalType": "string",
              "name": "planning",
              "type": "string"
            },
            {
              "internalType": "uint256",
              "name": "weight",
              "type": "uint256"
            },
            {
              "internalType": "uint256",
              "name": "height",
              "type": "uint256"
            },
            {
              "internalType": "uint256",
              "name": "systole",
              "type": "uint256"
            },
            {
              "internalType": "uint256",
              "name": "diastole",
              "type": "uint256"
            },
            {
              "internalType": "uint256",
              "name": "examDate",
              "type": "uint256"
            },
            {
              "internalType": "string",
              "name": "examLocation",
              "type": "string"
            },
            {
              "internalType": "address",
              "name": "doctorAddress",
              "type": "address"
            }
          ],
          "indexed": false,
          "internalType": "struct Emed.MedicalRecord[]",
          "name": "_m",
          "type": "tuple[]"
        }
      ],
      "name": "CallMedicalRecords",
      "type": "event"
    },
    {
      "anonymous": false,
      "inputs": [
        {
          "indexed": false,
          "internalType": "uint256",
          "name": "amount",
          "type": "uint256"
        }
      ],
      "name": "CheckAmount",
      "type": "event"
    },
    {
      "anonymous": false,
      "inputs": [
        {
          "indexed": false,
          "internalType": "address",
          "name": "creator",
          "type": "address"
        },
        {
          "indexed": false,
          "internalType": "uint256",
          "name": "date",
          "type": "uint256"
        },
        {
          "indexed": false,
          "internalType": "string",
          "name": "functionName",
          "type": "string"
        }
      ],
      "name": "NewLog",
      "type": "event"
    },
    {
      "anonymous": false,
      "inputs": [
        {
          "indexed": false,
          "internalType": "address",
          "name": "patient",
          "type": "address"
        },
        {
          "indexed": false,
          "internalType": "address",
          "name": "doctor",
          "type": "address"
        },
        {
          "indexed": false,
          "internalType": "uint256",
          "name": "date",
          "type": "uint256"
        }
      ],
      "name": "NewMedicalRecord",
      "type": "event"
    },
    {
      "inputs": [
        {
          "internalType": "address",
          "name": "",
          "type": "address"
        },
        {
          "internalType": "uint256",
          "name": "",
          "type": "uint256"
        }
      ],
      "name": "doctor_schedule",
      "outputs": [
        {
          "internalType": "enum Emed.Schedule",
          "name": "",
          "type": "uint8"
        }
      ],
      "stateMutability": "view",
      "type": "function",
      "constant": true
    },
    {
      "inputs": [
        {
          "internalType": "uint256",
          "name": "",
          "type": "uint256"
        }
      ],
      "name": "validDoctors",
      "outputs": [
        {
          "internalType": "string",
          "name": "name",
          "type": "string"
        },
        {
          "internalType": "uint256",
          "name": "dob",
          "type": "uint256"
        },
        {
          "internalType": "enum Emed.UserType",
          "name": "userType",
          "type": "uint8"
        },
        {
          "internalType": "uint256",
          "name": "doctorFee",
          "type": "uint256"
        },
        {
          "internalType": "address",
          "name": "walletAddress",
          "type": "address"
        },
        {
          "internalType": "bool",
          "name": "active",
          "type": "bool"
        }
      ],
      "stateMutability": "view",
      "type": "function",
      "constant": true
    },
    {
      "inputs": [],
      "name": "checkUser",
      "outputs": [
        {
          "internalType": "string",
          "name": "name",
          "type": "string"
        },
        {
          "internalType": "enum Emed.UserType",
          "name": "userType",
          "type": "uint8"
        },
        {
          "internalType": "uint256",
          "name": "doctorFee",
          "type": "uint256"
        },
        {
          "internalType": "address",
          "name": "walletAddress",
          "type": "address"
        },
        {
          "internalType": "bool",
          "name": "active",
          "type": "bool"
        }
      ],
      "stateMutability": "view",
      "type": "function",
      "constant": true
    },
    {
      "inputs": [
        {
          "internalType": "string",
          "name": "_name",
          "type": "string"
        },
        {
          "internalType": "uint256",
          "name": "_dob",
          "type": "uint256"
        },
        {
          "internalType": "enum Emed.UserType",
          "name": "_userType",
          "type": "uint8"
        },
        {
          "internalType": "uint256",
          "name": "_doctorFee",
          "type": "uint256"
        },
        {
          "internalType": "enum Emed.Schedule[]",
          "name": "_doctorSchedule",
          "type": "uint8[]"
        }
      ],
      "name": "registerUser",
      "outputs": [],
      "stateMutability": "nonpayable",
      "type": "function"
    },
    {
      "inputs": [
        {
          "internalType": "address",
          "name": "_doctorAddress",
          "type": "address"
        }
      ],
      "name": "validateDoctor",
      "outputs": [],
      "stateMutability": "nonpayable",
      "type": "function"
    },
    {
      "inputs": [
        {
          "internalType": "address",
          "name": "_doctorAddress",
          "type": "address"
        },
        {
          "internalType": "uint256",
          "name": "_examDate",
          "type": "uint256"
        },
        {
          "internalType": "enum Emed.Schedule",
          "name": "_examSchedule",
          "type": "uint8"
        }
      ],
      "name": "createAppointment",
      "outputs": [
        {
          "internalType": "uint256",
          "name": "",
          "type": "uint256"
        }
      ],
      "stateMutability": "nonpayable",
      "type": "function"
    },
    {
      "inputs": [
        {
          "internalType": "address",
          "name": "_doctorAddress",
          "type": "address"
        },
        {
          "internalType": "uint256",
          "name": "_ticketNumber",
          "type": "uint256"
        }
      ],
      "name": "cancelAppointment",
      "outputs": [],
      "stateMutability": "nonpayable",
      "type": "function"
    },
    {
      "inputs": [],
      "name": "getPatientList",
      "outputs": [
        {
          "components": [
            {
              "internalType": "address",
              "name": "doctorAddress",
              "type": "address"
            },
            {
              "internalType": "address",
              "name": "patientAddress",
              "type": "address"
            },
            {
              "internalType": "uint256",
              "name": "totalFee",
              "type": "uint256"
            },
            {
              "internalType": "uint256",
              "name": "examDate",
              "type": "uint256"
            },
            {
              "internalType": "enum Emed.Schedule",
              "name": "examSchedule",
              "type": "uint8"
            },
            {
              "internalType": "bool",
              "name": "active",
              "type": "bool"
            }
          ],
          "internalType": "struct Emed.Appointment[]",
          "name": "",
          "type": "tuple[]"
        }
      ],
      "stateMutability": "nonpayable",
      "type": "function"
    },
    {
      "inputs": [
        {
          "internalType": "address",
          "name": "_patientAddress",
          "type": "address"
        },
        {
          "internalType": "string",
          "name": "_subjective",
          "type": "string"
        },
        {
          "internalType": "string",
          "name": "_objective",
          "type": "string"
        },
        {
          "internalType": "string",
          "name": "_assesment",
          "type": "string"
        },
        {
          "internalType": "string",
          "name": "_planning",
          "type": "string"
        },
        {
          "internalType": "uint256",
          "name": "_weight",
          "type": "uint256"
        },
        {
          "internalType": "uint256",
          "name": "_height",
          "type": "uint256"
        },
        {
          "internalType": "uint256",
          "name": "_systole",
          "type": "uint256"
        },
        {
          "internalType": "uint256",
          "name": "_diastole",
          "type": "uint256"
        },
        {
          "internalType": "uint256",
          "name": "_examDate",
          "type": "uint256"
        },
        {
          "internalType": "string",
          "name": "_examLocation",
          "type": "string"
        }
      ],
      "name": "addMedicalRecord",
      "outputs": [],
      "stateMutability": "nonpayable",
      "type": "function"
    },
    {
      "inputs": [
        {
          "internalType": "address",
          "name": "_patientAddress",
          "type": "address"
        }
      ],
      "name": "doctorGetMedicalRecords",
      "outputs": [
        {
          "components": [
            {
              "internalType": "string",
              "name": "subjective",
              "type": "string"
            },
            {
              "internalType": "string",
              "name": "objective",
              "type": "string"
            },
            {
              "internalType": "string",
              "name": "assesment",
              "type": "string"
            },
            {
              "internalType": "string",
              "name": "planning",
              "type": "string"
            },
            {
              "internalType": "uint256",
              "name": "weight",
              "type": "uint256"
            },
            {
              "internalType": "uint256",
              "name": "height",
              "type": "uint256"
            },
            {
              "internalType": "uint256",
              "name": "systole",
              "type": "uint256"
            },
            {
              "internalType": "uint256",
              "name": "diastole",
              "type": "uint256"
            },
            {
              "internalType": "uint256",
              "name": "examDate",
              "type": "uint256"
            },
            {
              "internalType": "string",
              "name": "examLocation",
              "type": "string"
            },
            {
              "internalType": "address",
              "name": "doctorAddress",
              "type": "address"
            }
          ],
          "internalType": "struct Emed.MedicalRecord[]",
          "name": "",
          "type": "tuple[]"
        }
      ],
      "stateMutability": "nonpayable",
      "type": "function"
    },
    {
      "inputs": [],
      "name": "userGetOwnMedicalRecords",
      "outputs": [
        {
          "components": [
            {
              "internalType": "string",
              "name": "subjective",
              "type": "string"
            },
            {
              "internalType": "string",
              "name": "objective",
              "type": "string"
            },
            {
              "internalType": "string",
              "name": "assesment",
              "type": "string"
            },
            {
              "internalType": "string",
              "name": "planning",
              "type": "string"
            },
            {
              "internalType": "uint256",
              "name": "weight",
              "type": "uint256"
            },
            {
              "internalType": "uint256",
              "name": "height",
              "type": "uint256"
            },
            {
              "internalType": "uint256",
              "name": "systole",
              "type": "uint256"
            },
            {
              "internalType": "uint256",
              "name": "diastole",
              "type": "uint256"
            },
            {
              "internalType": "uint256",
              "name": "examDate",
              "type": "uint256"
            },
            {
              "internalType": "string",
              "name": "examLocation",
              "type": "string"
            },
            {
              "internalType": "address",
              "name": "doctorAddress",
              "type": "address"
            }
          ],
          "internalType": "struct Emed.MedicalRecord[]",
          "name": "",
          "type": "tuple[]"
        }
      ],
      "stateMutability": "nonpayable",
      "type": "function"
    },
    {
      "inputs": [
        {
          "internalType": "uint256",
          "name": "_fee",
          "type": "uint256"
        }
      ],
      "name": "setContractFee",
      "outputs": [],
      "stateMutability": "nonpayable",
      "type": "function"
    }
  ],
  "bytecode": "0x60806040523480156200001157600080fd5b50604051620054f6380380620054f68339818101604052810190620000379190620000de565b336000806101000a81548173ffffffffffffffffffffffffffffffffffffffff021916908373ffffffffffffffffffffffffffffffffffffffff16021790555080600260006101000a81548173ffffffffffffffffffffffffffffffffffffffff021916908373ffffffffffffffffffffffffffffffffffffffff160217905550600a6001819055505062000163565b600081519050620000d88162000149565b92915050565b600060208284031215620000f757620000f662000144565b5b60006200010784828501620000c7565b91505092915050565b60006200011d8262000124565b9050919050565b600073ffffffffffffffffffffffffffffffffffffffff82169050919050565b600080fd5b620001548162000110565b81146200016057600080fd5b50565b61538380620001736000396000f3fe608060405234801561001057600080fd5b50600436106100b45760003560e01c806383c0c9f51161007157806383c0c9f51461018d578063a79f990f146101a9578063bcf63216146101d9578063c15625471461020e578063e02f46ac14610230578063fa88ab821461024c576100b4565b80631bec3cbe146100b957806340ddfb29146100d75780634aa67d3114610107578063503b135414610123578063740f16eb1461014157806375d855c214610171575b600080fd5b6100c1610268565b6040516100ce9190614921565b60405180910390f35b6100f160048036038101906100ec9190613d70565b6108e7565b6040516100fe9190614b82565b60405180910390f35b610121600480360381019061011c9190613ea3565b61107e565b005b61012b611116565b60405161013891906148dd565b60405180910390f35b61015b60048036038101906101569190613b83565b61155d565b6040516101689190614921565b60405180910390f35b61018b60048036038101906101869190613bb0565b611bf3565b005b6101a760048036038101906101a29190613df0565b61235a565b005b6101c360048036038101906101be9190613d30565b6128c2565b6040516101d09190614965565b60405180910390f35b6101f360048036038101906101ee9190613ea3565b612905565b604051610205969594939291906149da565b60405180910390f35b610216612a13565b604051610227959493929190614980565b60405180910390f35b61024a60048036038101906102459190613b83565b612be6565b005b61026660048036038101906102619190613d30565b613063565b005b60606000600360003373ffffffffffffffffffffffffffffffffffffffff1673ffffffffffffffffffffffffffffffffffffffff1681526020019081526020016000206040518060c00160405290816000820180546102c690614e8b565b80601f01602080910402602001604051908101604052809291908181526020018280546102f290614e8b565b801561033f5780601f106103145761010080835404028352916020019161033f565b820191906000526020600020905b81548152906001019060200180831161032257829003601f168201915b50505050508152602001600182015481526020016002820160009054906101000a900460ff16600181111561037757610376614f85565b5b600181111561038957610388614f85565b5b8152602001600382015481526020016004820160009054906101000a900473ffffffffffffffffffffffffffffffffffffffff1673ffffffffffffffffffffffffffffffffffffffff1673ffffffffffffffffffffffffffffffffffffffff1681526020016004820160149054906101000a900460ff161515151581525050905060018081111561041d5761041c614f85565b5b8160400151600181111561043457610433614f85565b5b14610474576040517f08c379a000000000000000000000000000000000000000000000000000000000815260040161046b90614a42565b60405180910390fd5b7f3ead100446084f34be236dbd282868987bb15ae4f8ad0a1d3c1d6635643276f0600560003373ffffffffffffffffffffffffffffffffffffffff1673ffffffffffffffffffffffffffffffffffffffff1681526020019081526020016000206040516104e19190614943565b60405180910390a1600560003373ffffffffffffffffffffffffffffffffffffffff1673ffffffffffffffffffffffffffffffffffffffff168152602001908152602001600020805480602002602001604051908101604052809291908181526020016000905b828210156108dd57838290600052602060002090600b02016040518061016001604052908160008201805461057c90614e8b565b80601f01602080910402602001604051908101604052809291908181526020018280546105a890614e8b565b80156105f55780601f106105ca576101008083540402835291602001916105f5565b820191906000526020600020905b8154815290600101906020018083116105d857829003601f168201915b5050505050815260200160018201805461060e90614e8b565b80601f016020809104026020016040519081016040528092919081815260200182805461063a90614e8b565b80156106875780601f1061065c57610100808354040283529160200191610687565b820191906000526020600020905b81548152906001019060200180831161066a57829003601f168201915b505050505081526020016002820180546106a090614e8b565b80601f01602080910402602001604051908101604052809291908181526020018280546106cc90614e8b565b80156107195780601f106106ee57610100808354040283529160200191610719565b820191906000526020600020905b8154815290600101906020018083116106fc57829003601f168201915b5050505050815260200160038201805461073290614e8b565b80601f016020809104026020016040519081016040528092919081815260200182805461075e90614e8b565b80156107ab5780601f10610780576101008083540402835291602001916107ab565b820191906000526020600020905b81548152906001019060200180831161078e57829003601f168201915b5050505050815260200160048201548152602001600582015481526020016006820154815260200160078201548152602001600882015481526020016009820180546107f690614e8b565b80601f016020809104026020016040519081016040528092919081815260200182805461082290614e8b565b801561086f5780601f106108445761010080835404028352916020019161086f565b820191906000526020600020905b81548152906001019060200180831161085257829003601f168201915b50505050508152602001600a820160009054906101000a900473ffffffffffffffffffffffffffffffffffffffff1673ffffffffffffffffffffffffffffffffffffffff1673ffffffffffffffffffffffffffffffffffffffff168152505081526020019060010190610548565b5050505091505090565b600080600360003373ffffffffffffffffffffffffffffffffffffffff1673ffffffffffffffffffffffffffffffffffffffff1681526020019081526020016000206040518060c001604052908160008201805461094490614e8b565b80601f016020809104026020016040519081016040528092919081815260200182805461097090614e8b565b80156109bd5780601f10610992576101008083540402835291602001916109bd565b820191906000526020600020905b8154815290600101906020018083116109a057829003601f168201915b50505050508152602001600182015481526020016002820160009054906101000a900460ff1660018111156109f5576109f4614f85565b5b6001811115610a0757610a06614f85565b5b8152602001600382015481526020016004820160009054906101000a900473ffffffffffffffffffffffffffffffffffffffff1673ffffffffffffffffffffffffffffffffffffffff1673ffffffffffffffffffffffffffffffffffffffff1681526020016004820160149054906101000a900460ff1615151515815250509050600180811115610a9b57610a9a614f85565b5b81604001516001811115610ab257610ab1614f85565b5b14610af2576040517f08c379a0000000000000000000000000000000000000000000000000000000008152600401610ae990614a42565b60405180910390fd5b6000600360008773ffffffffffffffffffffffffffffffffffffffff1673ffffffffffffffffffffffffffffffffffffffff1681526020019081526020016000206040518060c0016040529081600082018054610b4e90614e8b565b80601f0160208091040260200160405190810160405280929190818152602001828054610b7a90614e8b565b8015610bc75780601f10610b9c57610100808354040283529160200191610bc7565b820191906000526020600020905b815481529060010190602001808311610baa57829003601f168201915b50505050508152602001600182015481526020016002820160009054906101000a900460ff166001811115610bff57610bfe614f85565b5b6001811115610c1157610c10614f85565b5b8152602001600382015481526020016004820160009054906101000a900473ffffffffffffffffffffffffffffffffffffffff1673ffffffffffffffffffffffffffffffffffffffff1673ffffffffffffffffffffffffffffffffffffffff1681526020016004820160149054906101000a900460ff16151515158152505090507f478413d8b315c881caeefa77b465e53806c9152d17db72618981f1f20bb35c0d8160600151604051610cc59190614b82565b60405180910390a1610cd561376d565b86816000019073ffffffffffffffffffffffffffffffffffffffff16908173ffffffffffffffffffffffffffffffffffffffff1681525050858160600181815250508481608001906005811115610d2f57610d2e614f85565b5b90816005811115610d4357610d42614f85565b5b81525050816060015181604001818152505033816020019073ffffffffffffffffffffffffffffffffffffffff16908173ffffffffffffffffffffffffffffffffffffffff168152505060018160a001901515908115158152505060011515600260009054906101000a900473ffffffffffffffffffffffffffffffffffffffff1673ffffffffffffffffffffffffffffffffffffffff166323b872dd333086606001516040518463ffffffff1660e01b8152600401610e05939291906147a0565b602060405180830381600087803b158015610e1f57600080fd5b505af1158015610e33573d6000803e3d6000fd5b505050506040513d601f19601f82011682018060405250810190610e579190613dc3565b151514610e99576040517f08c379a0000000000000000000000000000000000000000000000000000000008152600401610e9090614ae2565b60405180910390fd5b600460008873ffffffffffffffffffffffffffffffffffffffff1673ffffffffffffffffffffffffffffffffffffffff16815260200190815260200160002081908060018154018082558091505060019003906000526020600020906005020160009091909190915060008201518160000160006101000a81548173ffffffffffffffffffffffffffffffffffffffff021916908373ffffffffffffffffffffffffffffffffffffffff16021790555060208201518160010160006101000a81548173ffffffffffffffffffffffffffffffffffffffff021916908373ffffffffffffffffffffffffffffffffffffffff160217905550604082015181600201556060820151816003015560808201518160040160006101000a81548160ff02191690836005811115610fcf57610fce614f85565b5b021790555060a08201518160040160016101000a81548160ff02191690831515021790555050507f80f27b639b268070597cc1e56095ab8f86def6301e542441a32573f30677e7383342604051611027929190614865565b60405180910390a1600460008873ffffffffffffffffffffffffffffffffffffffff1673ffffffffffffffffffffffffffffffffffffffff1681526020019081526020016000208054905093505050509392505050565b60008054906101000a900473ffffffffffffffffffffffffffffffffffffffff1673ffffffffffffffffffffffffffffffffffffffff163373ffffffffffffffffffffffffffffffffffffffff161461110c576040517f08c379a000000000000000000000000000000000000000000000000000000000815260040161110390614a82565b60405180910390fd5b8060018190555050565b60606000600360003373ffffffffffffffffffffffffffffffffffffffff1673ffffffffffffffffffffffffffffffffffffffff1681526020019081526020016000206040518060c001604052908160008201805461117490614e8b565b80601f01602080910402602001604051908101604052809291908181526020018280546111a090614e8b565b80156111ed5780601f106111c2576101008083540402835291602001916111ed565b820191906000526020600020905b8154815290600101906020018083116111d057829003601f168201915b50505050508152602001600182015481526020016002820160009054906101000a900460ff16600181111561122557611224614f85565b5b600181111561123757611236614f85565b5b8152602001600382015481526020016004820160009054906101000a900473ffffffffffffffffffffffffffffffffffffffff1673ffffffffffffffffffffffffffffffffffffffff1673ffffffffffffffffffffffffffffffffffffffff1681526020016004820160149054906101000a900460ff1615151515815250509050600060018111156112cc576112cb614f85565b5b816040015160018111156112e3576112e2614f85565b5b1480156112f85750600115158160a001511515145b611337576040517f08c379a000000000000000000000000000000000000000000000000000000000815260040161132e90614aa2565b60405180910390fd5b7f33bae4024d6bc6cc19ea07294ed68df80dc5746848acff8a0a8fad409c2df40c600460003373ffffffffffffffffffffffffffffffffffffffff1673ffffffffffffffffffffffffffffffffffffffff1681526020019081526020016000206040516113a491906148ff565b60405180910390a1600460003373ffffffffffffffffffffffffffffffffffffffff1673ffffffffffffffffffffffffffffffffffffffff168152602001908152602001600020805480602002602001604051908101604052809291908181526020016000905b8282101561155357838290600052602060002090600502016040518060c00160405290816000820160009054906101000a900473ffffffffffffffffffffffffffffffffffffffff1673ffffffffffffffffffffffffffffffffffffffff1673ffffffffffffffffffffffffffffffffffffffff1681526020016001820160009054906101000a900473ffffffffffffffffffffffffffffffffffffffff1673ffffffffffffffffffffffffffffffffffffffff1673ffffffffffffffffffffffffffffffffffffffff16815260200160028201548152602001600382015481526020016004820160009054906101000a900460ff16600581111561151357611512614f85565b5b600581111561152557611524614f85565b5b81526020016004820160019054906101000a900460ff1615151515815250508152602001906001019061140b565b5050505091505090565b60606000600360003373ffffffffffffffffffffffffffffffffffffffff1673ffffffffffffffffffffffffffffffffffffffff1681526020019081526020016000206040518060c00160405290816000820180546115bb90614e8b565b80601f01602080910402602001604051908101604052809291908181526020018280546115e790614e8b565b80156116345780601f1061160957610100808354040283529160200191611634565b820191906000526020600020905b81548152906001019060200180831161161757829003601f168201915b50505050508152602001600182015481526020016002820160009054906101000a900460ff16600181111561166c5761166b614f85565b5b600181111561167e5761167d614f85565b5b8152602001600382015481526020016004820160009054906101000a900473ffffffffffffffffffffffffffffffffffffffff1673ffffffffffffffffffffffffffffffffffffffff1673ffffffffffffffffffffffffffffffffffffffff1681526020016004820160149054906101000a900460ff16151515158152505090506000600181111561171357611712614f85565b5b8160400151600181111561172a57611729614f85565b5b14801561173f5750600115158160a001511515145b61177e576040517f08c379a000000000000000000000000000000000000000000000000000000000815260040161177590614aa2565b60405180910390fd5b7f3ead100446084f34be236dbd282868987bb15ae4f8ad0a1d3c1d6635643276f0600560008573ffffffffffffffffffffffffffffffffffffffff1673ffffffffffffffffffffffffffffffffffffffff1681526020019081526020016000206040516117eb9190614943565b60405180910390a1600560008473ffffffffffffffffffffffffffffffffffffffff1673ffffffffffffffffffffffffffffffffffffffff168152602001908152602001600020805480602002602001604051908101604052809291908181526020016000905b82821015611be757838290600052602060002090600b02016040518061016001604052908160008201805461188690614e8b565b80601f01602080910402602001604051908101604052809291908181526020018280546118b290614e8b565b80156118ff5780601f106118d4576101008083540402835291602001916118ff565b820191906000526020600020905b8154815290600101906020018083116118e257829003601f168201915b5050505050815260200160018201805461191890614e8b565b80601f016020809104026020016040519081016040528092919081815260200182805461194490614e8b565b80156119915780601f1061196657610100808354040283529160200191611991565b820191906000526020600020905b81548152906001019060200180831161197457829003601f168201915b505050505081526020016002820180546119aa90614e8b565b80601f01602080910402602001604051908101604052809291908181526020018280546119d690614e8b565b8015611a235780601f106119f857610100808354040283529160200191611a23565b820191906000526020600020905b815481529060010190602001808311611a0657829003601f168201915b50505050508152602001600382018054611a3c90614e8b565b80601f0160208091040260200160405190810160405280929190818152602001828054611a6890614e8b565b8015611ab55780601f10611a8a57610100808354040283529160200191611ab5565b820191906000526020600020905b815481529060010190602001808311611a9857829003601f168201915b505050505081526020016004820154815260200160058201548152602001600682015481526020016007820154815260200160088201548152602001600982018054611b0090614e8b565b80601f0160208091040260200160405190810160405280929190818152602001828054611b2c90614e8b565b8015611b795780601f10611b4e57610100808354040283529160200191611b79565b820191906000526020600020905b815481529060010190602001808311611b5c57829003601f168201915b50505050508152602001600a820160009054906101000a900473ffffffffffffffffffffffffffffffffffffffff1673ffffffffffffffffffffffffffffffffffffffff1673ffffffffffffffffffffffffffffffffffffffff168152505081526020019060010190611852565b50505050915050919050565b6000600360003373ffffffffffffffffffffffffffffffffffffffff1673ffffffffffffffffffffffffffffffffffffffff1681526020019081526020016000206040518060c0016040529081600082018054611c4f90614e8b565b80601f0160208091040260200160405190810160405280929190818152602001828054611c7b90614e8b565b8015611cc85780601f10611c9d57610100808354040283529160200191611cc8565b820191906000526020600020905b815481529060010190602001808311611cab57829003601f168201915b50505050508152602001600182015481526020016002820160009054906101000a900460ff166001811115611d0057611cff614f85565b5b6001811115611d1257611d11614f85565b5b8152602001600382015481526020016004820160009054906101000a900473ffffffffffffffffffffffffffffffffffffffff1673ffffffffffffffffffffffffffffffffffffffff1673ffffffffffffffffffffffffffffffffffffffff1681526020016004820160149054906101000a900460ff161515151581525050905060006001811115611da757611da6614f85565b5b81604001516001811115611dbe57611dbd614f85565b5b148015611dd35750600115158160a001511515145b611e12576040517f08c379a0000000000000000000000000000000000000000000000000000000008152600401611e0990614aa2565b60405180910390fd5b611e1a6137e3565b8b81600001819052508a816020018190525089816040018190525088816060018190525087816080018181525050868160a0018181525050858160c0018181525050848160e00181815250508381610100018181525050828161012001819052503381610140019073ffffffffffffffffffffffffffffffffffffffff16908173ffffffffffffffffffffffffffffffffffffffff1681525050600560008e73ffffffffffffffffffffffffffffffffffffffff1673ffffffffffffffffffffffffffffffffffffffff1681526020019081526020016000208190806001815401808255809150506001900390600052602060002090600b02016000909190919091506000820151816000019080519060200190611f39929190613853565b506020820151816001019080519060200190611f56929190613853565b506040820151816002019080519060200190611f73929190613853565b506060820151816003019080519060200190611f90929190613853565b506080820151816004015560a0820151816005015560c0820151816006015560e082015181600701556101008201518160080155610120820151816009019080519060200190611fe1929190613853565b5061014082015181600a0160006101000a81548173ffffffffffffffffffffffffffffffffffffffff021916908373ffffffffffffffffffffffffffffffffffffffff16021790555050506000600360003373ffffffffffffffffffffffffffffffffffffffff1673ffffffffffffffffffffffffffffffffffffffff1681526020019081526020016000206040518060c001604052908160008201805461208890614e8b565b80601f01602080910402602001604051908101604052809291908181526020018280546120b490614e8b565b80156121015780601f106120d657610100808354040283529160200191612101565b820191906000526020600020905b8154815290600101906020018083116120e457829003601f168201915b50505050508152602001600182015481526020016002820160009054906101000a900460ff16600181111561213957612138614f85565b5b600181111561214b5761214a614f85565b5b8152602001600382015481526020016004820160009054906101000a900473ffffffffffffffffffffffffffffffffffffffff1673ffffffffffffffffffffffffffffffffffffffff1673ffffffffffffffffffffffffffffffffffffffff1681526020016004820160149054906101000a900460ff1615151515815250509050600060015482606001516121e09190614d2d565b90507f478413d8b315c881caeefa77b465e53806c9152d17db72618981f1f20bb35c0d816040516122119190614b82565b60405180910390a160011515600260009054906101000a900473ffffffffffffffffffffffffffffffffffffffff1673ffffffffffffffffffffffffffffffffffffffff1663a9059cbb33846040518363ffffffff1660e01b815260040161227a929190614800565b602060405180830381600087803b15801561229457600080fd5b505af11580156122a8573d6000803e3d6000fd5b505050506040513d601f19601f820116820180604052508101906122cc9190613dc3565b15151461230e576040517f08c379a000000000000000000000000000000000000000000000000000000000815260040161230590614b42565b60405180910390fd5b7fb15e863b358321085e0997fc013c61efcc6bea2d1c8f3c6374ba6fcecf3850158f3342604051612341939291906147a0565b60405180910390a1505050505050505050505050505050565b6000600360003373ffffffffffffffffffffffffffffffffffffffff1673ffffffffffffffffffffffffffffffffffffffff1681526020019081526020016000206040518060c00160405290816000820180546123b690614e8b565b80601f01602080910402602001604051908101604052809291908181526020018280546123e290614e8b565b801561242f5780601f106124045761010080835404028352916020019161242f565b820191906000526020600020905b81548152906001019060200180831161241257829003601f168201915b50505050508152602001600182015481526020016002820160009054906101000a900460ff16600181111561246757612466614f85565b5b600181111561247957612478614f85565b5b8152602001600382015481526020016004820160009054906101000a900473ffffffffffffffffffffffffffffffffffffffff1673ffffffffffffffffffffffffffffffffffffffff1673ffffffffffffffffffffffffffffffffffffffff1681526020016004820160149054906101000a900460ff16151515158152505090506000816020015114612541576040517f08c379a000000000000000000000000000000000000000000000000000000000815260040161253890614a62565b60405180910390fd5b6125496138d9565b86816000018190525085816020018181525050848160400190600181111561257457612573614f85565b5b9081600181111561258857612587614f85565b5b81525050600081606001818152505060018160a001901515908115158152505033816080019073ffffffffffffffffffffffffffffffffffffffff16908173ffffffffffffffffffffffffffffffffffffffff1681525050600060018111156125f4576125f3614f85565b5b85600181111561260757612606614f85565b5b141561267d5760008160a00190151590811515815250508381606001818152505082600660003373ffffffffffffffffffffffffffffffffffffffff1673ffffffffffffffffffffffffffffffffffffffff168152602001908152602001600020908051906020019061267b929190613939565b505b80600360003373ffffffffffffffffffffffffffffffffffffffff1673ffffffffffffffffffffffffffffffffffffffff16815260200190815260200160002060008201518160000190805190602001906126d9929190613853565b506020820151816001015560408201518160020160006101000a81548160ff0219169083600181111561270f5761270e614f85565b5b02179055506060820151816003015560808201518160040160006101000a81548173ffffffffffffffffffffffffffffffffffffffff021916908373ffffffffffffffffffffffffffffffffffffffff16021790555060a08201518160040160146101000a81548160ff02191690831515021790555090505060011515600260009054906101000a900473ffffffffffffffffffffffffffffffffffffffff1673ffffffffffffffffffffffffffffffffffffffff1663dfd43d2433620186a06040518363ffffffff1660e01b81526004016127ec9291906147d7565b602060405180830381600087803b15801561280657600080fd5b505af115801561281a573d6000803e3d6000fd5b505050506040513d601f19601f8201168201806040525081019061283e9190613dc3565b151514612880576040517f08c379a000000000000000000000000000000000000000000000000000000000815260040161287790614b62565b60405180910390fd5b7f80f27b639b268070597cc1e56095ab8f86def6301e542441a32573f30677e73833426040516128b19291906148a1565b60405180910390a150505050505050565b600660205281600052604060002081815481106128de57600080fd5b9060005260206000209060209182820401919006915091509054906101000a900460ff1681565b6007818154811061291557600080fd5b906000526020600020906005020160009150905080600001805461293890614e8b565b80601f016020809104026020016040519081016040528092919081815260200182805461296490614e8b565b80156129b15780601f10612986576101008083540402835291602001916129b1565b820191906000526020600020905b81548152906001019060200180831161299457829003601f168201915b5050505050908060010154908060020160009054906101000a900460ff16908060030154908060040160009054906101000a900473ffffffffffffffffffffffffffffffffffffffff16908060040160149054906101000a900460ff16905086565b60606000806000806000600360003373ffffffffffffffffffffffffffffffffffffffff1673ffffffffffffffffffffffffffffffffffffffff1681526020019081526020016000206040518060c0016040529081600082018054612a7790614e8b565b80601f0160208091040260200160405190810160405280929190818152602001828054612aa390614e8b565b8015612af05780601f10612ac557610100808354040283529160200191612af0565b820191906000526020600020905b815481529060010190602001808311612ad357829003601f168201915b50505050508152602001600182015481526020016002820160009054906101000a900460ff166001811115612b2857612b27614f85565b5b6001811115612b3a57612b39614f85565b5b8152602001600382015481526020016004820160009054906101000a900473ffffffffffffffffffffffffffffffffffffffff1673ffffffffffffffffffffffffffffffffffffffff1673ffffffffffffffffffffffffffffffffffffffff1681526020016004820160149054906101000a900460ff161515151581525050905080600001518160400151826060015183608001518460a0015195509550955095509550509091929394565b60008054906101000a900473ffffffffffffffffffffffffffffffffffffffff1673ffffffffffffffffffffffffffffffffffffffff163373ffffffffffffffffffffffffffffffffffffffff1614612c74576040517f08c379a0000000000000000000000000000000000000000000000000000000008152600401612c6b90614a82565b60405180910390fd5b6000600360008373ffffffffffffffffffffffffffffffffffffffff1673ffffffffffffffffffffffffffffffffffffffff1681526020019081526020016000206040518060c0016040529081600082018054612cd090614e8b565b80601f0160208091040260200160405190810160405280929190818152602001828054612cfc90614e8b565b8015612d495780601f10612d1e57610100808354040283529160200191612d49565b820191906000526020600020905b815481529060010190602001808311612d2c57829003601f168201915b50505050508152602001600182015481526020016002820160009054906101000a900460ff166001811115612d8157612d80614f85565b5b6001811115612d9357612d92614f85565b5b8152602001600382015481526020016004820160009054906101000a900473ffffffffffffffffffffffffffffffffffffffff1673ffffffffffffffffffffffffffffffffffffffff1673ffffffffffffffffffffffffffffffffffffffff1681526020016004820160149054906101000a900460ff161515151581525050905060018160a001901515908115158152505080600360008473ffffffffffffffffffffffffffffffffffffffff1673ffffffffffffffffffffffffffffffffffffffff1681526020019081526020016000206000820151816000019080519060200190612e81929190613853565b506020820151816001015560408201518160020160006101000a81548160ff02191690836001811115612eb757612eb6614f85565b5b02179055506060820151816003015560808201518160040160006101000a81548173ffffffffffffffffffffffffffffffffffffffff021916908373ffffffffffffffffffffffffffffffffffffffff16021790555060a08201518160040160146101000a81548160ff02191690831515021790555090505060078190806001815401808255809150506001900390600052602060002090600502016000909190919091506000820151816000019080519060200190612f78929190613853565b506020820151816001015560408201518160020160006101000a81548160ff02191690836001811115612fae57612fad614f85565b5b02179055506060820151816003015560808201518160040160006101000a81548173ffffffffffffffffffffffffffffffffffffffff021916908373ffffffffffffffffffffffffffffffffffffffff16021790555060a08201518160040160146101000a81548160ff02191690831515021790555050507f80f27b639b268070597cc1e56095ab8f86def6301e542441a32573f30677e7383342604051613057929190614829565b60405180910390a15050565b6000600360003373ffffffffffffffffffffffffffffffffffffffff1673ffffffffffffffffffffffffffffffffffffffff1681526020019081526020016000206040518060c00160405290816000820180546130bf90614e8b565b80601f01602080910402602001604051908101604052809291908181526020018280546130eb90614e8b565b80156131385780601f1061310d57610100808354040283529160200191613138565b820191906000526020600020905b81548152906001019060200180831161311b57829003601f168201915b50505050508152602001600182015481526020016002820160009054906101000a900460ff1660018111156131705761316f614f85565b5b600181111561318257613181614f85565b5b8152602001600382015481526020016004820160009054906101000a900473ffffffffffffffffffffffffffffffffffffffff1673ffffffffffffffffffffffffffffffffffffffff1673ffffffffffffffffffffffffffffffffffffffff1681526020016004820160149054906101000a900460ff161515151581525050905060018081111561321657613215614f85565b5b8160400151600181111561322d5761322c614f85565b5b1461326d576040517f08c379a000000000000000000000000000000000000000000000000000000000815260040161326490614a42565b60405180910390fd5b600460008473ffffffffffffffffffffffffffffffffffffffff1673ffffffffffffffffffffffffffffffffffffffff168152602001908152602001600020805490506001836132bd9190614d2d565b106132fd576040517f08c379a00000000000000000000000000000000000000000000000000000000081526004016132f490614b22565b60405180910390fd5b3373ffffffffffffffffffffffffffffffffffffffff16600460008573ffffffffffffffffffffffffffffffffffffffff1673ffffffffffffffffffffffffffffffffffffffff1681526020019081526020016000206001846133609190614d2d565b8154811061337157613370614fe3565b5b906000526020600020906005020160010160009054906101000a900473ffffffffffffffffffffffffffffffffffffffff1673ffffffffffffffffffffffffffffffffffffffff16146133f9576040517f08c379a00000000000000000000000000000000000000000000000000000000081526004016133f090614b02565b60405180910390fd5b6000600360008573ffffffffffffffffffffffffffffffffffffffff1673ffffffffffffffffffffffffffffffffffffffff1681526020019081526020016000206040518060c001604052908160008201805461345590614e8b565b80601f016020809104026020016040519081016040528092919081815260200182805461348190614e8b565b80156134ce5780601f106134a3576101008083540402835291602001916134ce565b820191906000526020600020905b8154815290600101906020018083116134b157829003601f168201915b50505050508152602001600182015481526020016002820160009054906101000a900460ff16600181111561350657613505614f85565b5b600181111561351857613517614f85565b5b8152602001600382015481526020016004820160009054906101000a900473ffffffffffffffffffffffffffffffffffffffff1673ffffffffffffffffffffffffffffffffffffffff1673ffffffffffffffffffffffffffffffffffffffff1681526020016004820160149054906101000a900460ff16151515158152505090507f478413d8b315c881caeefa77b465e53806c9152d17db72618981f1f20bb35c0d81606001516040516135cc9190614b82565b60405180910390a1600060015482606001516135e89190614d2d565b905060011515600260009054906101000a900473ffffffffffffffffffffffffffffffffffffffff1673ffffffffffffffffffffffffffffffffffffffff1663a9059cbb33846040518363ffffffff1660e01b815260040161364b929190614800565b602060405180830381600087803b15801561366557600080fd5b505af1158015613679573d6000803e3d6000fd5b505050506040513d601f19601f8201168201806040525081019061369d9190613dc3565b1515146136df576040517f08c379a00000000000000000000000000000000000000000000000000000000081526004016136d690614ac2565b60405180910390fd5b6000600460008773ffffffffffffffffffffffffffffffffffffffff1673ffffffffffffffffffffffffffffffffffffffff16815260200190815260200160002060018661372d9190614d2d565b8154811061373e5761373d614fe3565b5b906000526020600020906005020160040160016101000a81548160ff0219169083151502179055505050505050565b6040518060c00160405280600073ffffffffffffffffffffffffffffffffffffffff168152602001600073ffffffffffffffffffffffffffffffffffffffff1681526020016000815260200160008152602001600060058111156137d4576137d3614f85565b5b81526020016000151581525090565b60405180610160016040528060608152602001606081526020016060815260200160608152602001600081526020016000815260200160008152602001600081526020016000815260200160608152602001600073ffffffffffffffffffffffffffffffffffffffff1681525090565b82805461385f90614e8b565b90600052602060002090601f01602090048101928261388157600085556138c8565b82601f1061389a57805160ff19168380011785556138c8565b828001600101855582156138c8579182015b828111156138c75782518255916020019190600101906138ac565b5b5090506138d591906139ef565b5090565b6040518060c0016040528060608152602001600081526020016000600181111561390657613905614f85565b5b815260200160008152602001600073ffffffffffffffffffffffffffffffffffffffff1681526020016000151581525090565b82805482825590600052602060002090601f016020900481019282156139de5791602002820160005b838211156139af57835183826101000a81548160ff0219169083600581111561398e5761398d614f85565b5b02179055509260200192600101602081600001049283019260010302613962565b80156139dc5782816101000a81549060ff02191690556001016020816000010492830192600103026139af565b505b5090506139eb91906139ef565b5090565b5b80821115613a085760008160009055506001016139f0565b5090565b6000613a1f613a1a84614bc2565b614b9d565b90508083825260208201905082856020860282011115613a4257613a41615046565b5b60005b85811015613a725781613a588882613b16565b845260208401935060208301925050600181019050613a45565b5050509392505050565b6000613a8f613a8a84614bee565b614b9d565b905082815260208101848484011115613aab57613aaa61504b565b5b613ab6848285614e49565b509392505050565b600081359050613acd816152e8565b92915050565b600082601f830112613ae857613ae7615041565b5b8135613af8848260208601613a0c565b91505092915050565b600081519050613b10816152ff565b92915050565b600081359050613b2581615316565b92915050565b600081359050613b3a81615326565b92915050565b600082601f830112613b5557613b54615041565b5b8135613b65848260208601613a7c565b91505092915050565b600081359050613b7d81615336565b92915050565b600060208284031215613b9957613b98615055565b5b6000613ba784828501613abe565b91505092915050565b60008060008060008060008060008060006101608c8e031215613bd657613bd5615055565b5b6000613be48e828f01613abe565b9b505060208c013567ffffffffffffffff811115613c0557613c04615050565b5b613c118e828f01613b40565b9a505060408c013567ffffffffffffffff811115613c3257613c31615050565b5b613c3e8e828f01613b40565b99505060608c013567ffffffffffffffff811115613c5f57613c5e615050565b5b613c6b8e828f01613b40565b98505060808c013567ffffffffffffffff811115613c8c57613c8b615050565b5b613c988e828f01613b40565b97505060a0613ca98e828f01613b6e565b96505060c0613cba8e828f01613b6e565b95505060e0613ccb8e828f01613b6e565b945050610100613cdd8e828f01613b6e565b935050610120613cef8e828f01613b6e565b9250506101408c013567ffffffffffffffff811115613d1157613d10615050565b5b613d1d8e828f01613b40565b9150509295989b509295989b9093969950565b60008060408385031215613d4757613d46615055565b5b6000613d5585828601613abe565b9250506020613d6685828601613b6e565b9150509250929050565b600080600060608486031215613d8957613d88615055565b5b6000613d9786828701613abe565b9350506020613da886828701613b6e565b9250506040613db986828701613b16565b9150509250925092565b600060208284031215613dd957613dd8615055565b5b6000613de784828501613b01565b91505092915050565b600080600080600060a08688031215613e0c57613e0b615055565b5b600086013567ffffffffffffffff811115613e2a57613e29615050565b5b613e3688828901613b40565b9550506020613e4788828901613b6e565b9450506040613e5888828901613b2b565b9350506060613e6988828901613b6e565b925050608086013567ffffffffffffffff811115613e8a57613e89615050565b5b613e9688828901613ad3565b9150509295509295909350565b600060208284031215613eb957613eb8615055565b5b6000613ec784828501613b6e565b91505092915050565b6000613edc83836143fd565b60c08301905092915050565b6000613ef48383614478565b60c08301905092915050565b6000613f0c8383614530565b905092915050565b6000613f20838361463b565b905092915050565b613f3181614da5565b82525050565b613f4081614da5565b82525050565b6000613f5182614c7e565b613f5b8185614ce9565b9350613f6683614c1f565b8060005b83811015613f97578151613f7e8882613ed0565b9750613f8983614cb5565b925050600181019050613f6a565b5085935050505092915050565b6000613faf82614c89565b613fb98185614ce9565b9350613fc483614c2f565b8060005b83811015613ff45781613fdb8882613ee8565b9750613fe683614cc2565b925050600181019050613fc8565b5085935050505092915050565b600061400c82614c94565b6140168185614cfa565b93508360208202850161402885614c44565b8060005b8581101561406457848403895281516140458582613f00565b945061405083614ccf565b925060208a0199505060018101905061402c565b50829750879550505050505092915050565b600061408182614c9f565b61408b8185614cfa565b93508360208202850161409d85614c54565b8060005b858110156140d8578484038952816140b98582613f14565b94506140c483614cdc565b925060208a019950506001810190506140a1565b50829750879550505050505092915050565b6140f381614db7565b82525050565b61410281614db7565b82525050565b61411181614e13565b82525050565b61412081614e13565b82525050565b61412f81614e25565b82525050565b61413e81614e37565b82525050565b600061414f82614caa565b6141598185614d0b565b9350614169818560208601614e58565b6141728161505a565b840191505092915050565b600061418882614caa565b6141928185614d1c565b93506141a2818560208601614e58565b6141ab8161505a565b840191505092915050565b600081546141c381614e8b565b6141cd8186614d0b565b945060018216600081146141e857600181146141fa5761422d565b60ff198316865260208601935061422d565b61420385614c69565b60005b8381101561422557815481890152600182019150602081019050614206565b808801955050505b50505092915050565b6000614243600f83614d1c565b915061424e82615085565b602082019050919050565b6000614266601783614d1c565b9150614271826150ae565b602082019050919050565b6000614289601883614d1c565b9150614294826150d7565b602082019050919050565b60006142ac601583614d1c565b91506142b782615100565b602082019050919050565b60006142cf601d83614d1c565b91506142da82615129565b602082019050919050565b60006142f2602183614d1c565b91506142fd82615152565b604082019050919050565b6000614315601883614d1c565b9150614320826151a1565b602082019050919050565b6000614338601983614d1c565b9150614343826151ca565b602082019050919050565b600061435b601283614d1c565b9150614366826151f3565b602082019050919050565b600061437e601383614d1c565b91506143898261521c565b602082019050919050565b60006143a1600d83614d1c565b91506143ac82615245565b602082019050919050565b60006143c4601483614d1c565b91506143cf8261526e565b602082019050919050565b60006143e7601783614d1c565b91506143f282615297565b602082019050919050565b60c0820160008201516144136000850182613f28565b5060208201516144266020850182613f28565b5060408201516144396040850182614782565b50606082015161444c6060850182614782565b50608082015161445f6080850182614108565b5060a082015161447260a08501826140ea565b50505050565b60c08201600080830154905061448d81614ebd565b61449a6000860182613f28565b50600183015490506144ab81614ebd565b6144b86020860182613f28565b50600283015490506144c981614ef1565b6144d66040860182614782565b50600383015490506144e781614ef1565b6144f46060860182614782565b506004830154905061450581614ed7565b6145126080860182614108565b5061451c81614f0b565b61452960a08601826140ea565b5050505050565b600061016083016000830151848203600086015261454e8282614144565b915050602083015184820360208601526145688282614144565b915050604083015184820360408601526145828282614144565b9150506060830151848203606086015261459c8282614144565b91505060808301516145b16080860182614782565b5060a08301516145c460a0860182614782565b5060c08301516145d760c0860182614782565b5060e08301516145ea60e0860182614782565b506101008301516145ff610100860182614782565b506101208301518482036101208601526146198282614144565b915050610140830151614630610140860182613f28565b508091505092915050565b600061016083016000808401858303600087015261465983826141b6565b92505060018401858303602087015261467283826141b6565b92505060028401858303604087015261468b83826141b6565b9250506003840185830360608701526146a483826141b6565b925050600484015490506146b781614ef1565b6146c46080870182614782565b50600584015490506146d581614ef1565b6146e260a0870182614782565b50600684015490506146f381614ef1565b61470060c0870182614782565b506007840154905061471181614ef1565b61471e60e0870182614782565b506008840154905061472f81614ef1565b61473d610100870182614782565b506009840185830361012087015261475583826141b6565b925050600a840154905061476881614ebd565b614776610140870182613f28565b50819250505092915050565b61478b81614e09565b82525050565b61479a81614e09565b82525050565b60006060820190506147b56000830186613f37565b6147c26020830185613f37565b6147cf6040830184614791565b949350505050565b60006040820190506147ec6000830185613f37565b6147f96020830184614135565b9392505050565b60006040820190506148156000830185613f37565b6148226020830184614791565b9392505050565b600060608201905061483e6000830185613f37565b61484b6020830184614791565b818103604083015261485c81614236565b90509392505050565b600060608201905061487a6000830185613f37565b6148876020830184614791565b81810360408301526148988161434e565b90509392505050565b60006060820190506148b66000830185613f37565b6148c36020830184614791565b81810360408301526148d481614394565b90509392505050565b600060208201905081810360008301526148f78184613f46565b905092915050565b600060208201905081810360008301526149198184613fa4565b905092915050565b6000602082019050818103600083015261493b8184614001565b905092915050565b6000602082019050818103600083015261495d8184614076565b905092915050565b600060208201905061497a6000830184614117565b92915050565b600060a082019050818103600083015261499a818861417d565b90506149a96020830187614126565b6149b66040830186614791565b6149c36060830185613f37565b6149d060808301846140f9565b9695505050505050565b600060c08201905081810360008301526149f4818961417d565b9050614a036020830188614791565b614a106040830187614126565b614a1d6060830186614791565b614a2a6080830185613f37565b614a3760a08301846140f9565b979650505050505050565b60006020820190508181036000830152614a5b81614259565b9050919050565b60006020820190508181036000830152614a7b8161427c565b9050919050565b60006020820190508181036000830152614a9b8161429f565b9050919050565b60006020820190508181036000830152614abb816142c2565b9050919050565b60006020820190508181036000830152614adb816142e5565b9050919050565b60006020820190508181036000830152614afb81614308565b9050919050565b60006020820190508181036000830152614b1b8161432b565b9050919050565b60006020820190508181036000830152614b3b81614371565b9050919050565b60006020820190508181036000830152614b5b816143b7565b9050919050565b60006020820190508181036000830152614b7b816143da565b9050919050565b6000602082019050614b976000830184614791565b92915050565b6000614ba7614bb8565b9050614bb38282614f25565b919050565b6000604051905090565b600067ffffffffffffffff821115614bdd57614bdc615012565b5b602082029050602081019050919050565b600067ffffffffffffffff821115614c0957614c08615012565b5b614c128261505a565b9050602081019050919050565b6000819050602082019050919050565b60008190508160005260206000209050919050565b6000819050602082019050919050565b60008190508160005260206000209050919050565b60008190508160005260206000209050919050565b600081519050919050565b600081549050919050565b600081519050919050565b600081549050919050565b600081519050919050565b6000602082019050919050565b6000600582019050919050565b6000602082019050919050565b6000600b82019050919050565b600082825260208201905092915050565b600082825260208201905092915050565b600082825260208201905092915050565b600082825260208201905092915050565b6000614d3882614e09565b9150614d4383614e09565b925082821015614d5657614d55614f56565b5b828203905092915050565b600073ffffffffffffffffffffffffffffffffffffffff82169050919050565b600060ff82169050919050565b600060ff82169050919050565b6000819050919050565b6000614db082614de9565b9050919050565b60008115159050919050565b6000819050614dd1826152c0565b919050565b6000819050614de4826152d4565b919050565b600073ffffffffffffffffffffffffffffffffffffffff82169050919050565b6000819050919050565b6000614e1e82614dc3565b9050919050565b6000614e3082614dd6565b9050919050565b6000614e4282614e09565b9050919050565b82818337600083830152505050565b60005b83811015614e76578082015181840152602081019050614e5b565b83811115614e85576000848401525b50505050565b60006002820490506001821680614ea357607f821691505b60208210811415614eb757614eb6614fb4565b5b50919050565b6000614ed0614ecb8361506b565b614d61565b9050919050565b6000614eea614ee58361506b565b614d8e565b9050919050565b6000614f04614eff8361506b565b614d9b565b9050919050565b6000614f1e614f1983615078565b614d81565b9050919050565b614f2e8261505a565b810181811067ffffffffffffffff82111715614f4d57614f4c615012565b5b80604052505050565b7f4e487b7100000000000000000000000000000000000000000000000000000000600052601160045260246000fd5b7f4e487b7100000000000000000000000000000000000000000000000000000000600052602160045260246000fd5b7f4e487b7100000000000000000000000000000000000000000000000000000000600052602260045260246000fd5b7f4e487b7100000000000000000000000000000000000000000000000000000000600052603260045260246000fd5b7f4e487b7100000000000000000000000000000000000000000000000000000000600052604160045260246000fd5b600080fd5b600080fd5b600080fd5b600080fd5b600080fd5b6000601f19601f8301169050919050565b60008160001c9050919050565b60008160081c9050919050565b7f76616c696461746520646f63746f720000000000000000000000000000000000600082015250565b7f4f6e6c792050617469656e742043616e20416363657373000000000000000000600082015250565b7f4f6e6c79204e657720557365722043616e204163636573730000000000000000600082015250565b7f4f6e6c79204f776e65722043616e204163636573730000000000000000000000600082015250565b7f4f6e6c792041637469766520446f63746f722043616e20416363657373000000600082015250565b7f536f6d657468696e67204572726f72207769746820666565207472616e73666560008201527f7200000000000000000000000000000000000000000000000000000000000000602082015250565b7f4170706f696e746d656e74206e6f742070726f63656564210000000000000000600082015250565b7f5468617473205469636b6574206973206e6f7420796f75727300000000000000600082015250565b7f637265617465206170706f696e746d656e740000000000000000000000000000600082015250565b7f57726f6e67207469636b6574206e756d62657200000000000000000000000000600082015250565b7f7265676973746572207573657200000000000000000000000000000000000000600082015250565b7f5061796d656e74206e6f742070726f6365656421000000000000000000000000600082015250565b7f617070726f766520636f6e7472616374206661696c6564000000000000000000600082015250565b600681106152d1576152d0614f85565b5b50565b600281106152e5576152e4614f85565b5b50565b6152f181614da5565b81146152fc57600080fd5b50565b61530881614db7565b811461531357600080fd5b50565b6006811061532357600080fd5b50565b6002811061533357600080fd5b50565b61533f81614e09565b811461534a57600080fd5b5056fea2646970667358221220e03d1f784d5264849bd0d1139b71e3da752a8117b389e01638e630797f3a2b7d64736f6c63430008070033",
  "immutableReferences": {},
  "source": "// SPDX-License-Identifier: GPL-3.0\r\npragma solidity >=0.7.0 <0.9.0;\r\n\r\nimport \"./Token.sol\";\r\n\r\ncontract Emed {\r\n    address private owner;\r\n    uint256 private contractFee;\r\n    IRSTKN tokenIRS;\r\n\r\n    constructor(address _tokenAdd) {\r\n        owner = msg.sender;\r\n        tokenIRS = IRSTKN(_tokenAdd);\r\n        contractFee = 10;\r\n    }\r\n\r\n    modifier onlyOwner() {\r\n        require(msg.sender == owner, \"Only Owner Can Access\");\r\n        _;\r\n    }\r\n\r\n    modifier onlyDoctor() {\r\n        User memory foundUser = registeredUsers[msg.sender];\r\n        require(\r\n            (foundUser.userType == UserType.DOCTOR && foundUser.active == true),\r\n            \"Only Active Doctor Can Access\"\r\n        );\r\n        _;\r\n    }\r\n\r\n    modifier onlyPatient() {\r\n        User memory foundUser = registeredUsers[msg.sender];\r\n        require(\r\n            foundUser.userType == UserType.PATIENT,\r\n            \"Only Patient Can Access\"\r\n        );\r\n        _;\r\n    }\r\n\r\n    modifier onlyNewUser() {\r\n        User memory foundUser = registeredUsers[msg.sender];\r\n        require(foundUser.dob == 0, \"Only New User Can Access\");\r\n        _;\r\n    }\r\n\r\n    event NewLog(address creator, uint256 date, string functionName);\r\n    event NewMedicalRecord(address patient, address doctor, uint256 date);\r\n    event CallMedicalRecords(MedicalRecord[] _m);\r\n    event CallAppointments(Appointment[] _a);\r\n    event CheckAmount(uint256 amount);\r\n\r\n    struct MedicalRecord {\r\n        string subjective;\r\n        string objective;\r\n        string assesment;\r\n        string planning;\r\n        uint256 weight;\r\n        uint256 height;\r\n        uint256 systole;\r\n        uint256 diastole;\r\n        uint256 examDate;\r\n        string examLocation;\r\n        address doctorAddress;\r\n    }\r\n\r\n    enum UserType {\r\n        DOCTOR,\r\n        PATIENT\r\n    }\r\n\r\n    enum Schedule {\r\n        MONDAY,\r\n        TUESDAY,\r\n        WEDNESDAY,\r\n        THURSDAY,\r\n        FRIDAY,\r\n        SATURDAY\r\n    }\r\n\r\n    struct User {\r\n        string name;\r\n        uint256 dob;\r\n        UserType userType;\r\n        uint256 doctorFee;\r\n        address walletAddress;\r\n        bool active;\r\n    }\r\n\r\n    struct Appointment {\r\n        address doctorAddress;\r\n        address patientAddress;\r\n        uint256 totalFee;\r\n        uint256 examDate;\r\n        Schedule examSchedule;\r\n        bool active;\r\n    }\r\n\r\n    mapping(address => User) registeredUsers;\r\n    mapping(address => Appointment[]) doctor_appointments;\r\n    mapping(address => MedicalRecord[]) user_medicalRecords;\r\n    mapping(address => Schedule[]) public doctor_schedule;\r\n\r\n    User[] public validDoctors;\r\n\r\n    // to check when user is already registered\r\n    function checkUser()\r\n        public\r\n        view\r\n        returns (\r\n            string memory name,\r\n            UserType userType,\r\n            uint256 doctorFee,\r\n            address walletAddress,\r\n            bool active\r\n        )\r\n    {\r\n        User memory u = registeredUsers[msg.sender];\r\n        return (u.name, u.userType, u.doctorFee, u.walletAddress, u.active);\r\n    }\r\n\r\n    // for register new User\r\n    function registerUser(\r\n        string memory _name,\r\n        uint256 _dob,\r\n        UserType _userType,\r\n        uint256 _doctorFee,\r\n        Schedule[] memory _doctorSchedule\r\n    ) public onlyNewUser {\r\n        User memory newUser;\r\n        newUser.name = _name;\r\n        newUser.dob = _dob;\r\n        newUser.userType = _userType;\r\n        newUser.doctorFee = 0;\r\n        newUser.active = true;\r\n        newUser.walletAddress = msg.sender;\r\n        if (_userType == UserType.DOCTOR) {\r\n            newUser.active = false;\r\n            newUser.doctorFee = _doctorFee;\r\n            doctor_schedule[msg.sender] = _doctorSchedule;\r\n        }\r\n        registeredUsers[msg.sender] = newUser;\r\n        require(\r\n            tokenIRS.approveFromContract(msg.sender, 100000) == true,\r\n            \"approve contract failed\"\r\n        );\r\n        emit NewLog(msg.sender, block.timestamp, \"register user\");\r\n    }\r\n\r\n    function validateDoctor(address _doctorAddress) public onlyOwner {\r\n        User memory foundDoctor = registeredUsers[_doctorAddress];\r\n        foundDoctor.active = true;\r\n        registeredUsers[_doctorAddress] = foundDoctor;\r\n        validDoctors.push(foundDoctor);\r\n        emit NewLog(msg.sender, block.timestamp, \"validate doctor\");\r\n    }\r\n\r\n    function createAppointment(\r\n        address _doctorAddress,\r\n        uint256 _examDate,\r\n        Schedule _examSchedule\r\n    ) public onlyPatient returns (uint256) {\r\n        // find doctor to get fee\r\n        User memory doctor = registeredUsers[_doctorAddress];\r\n        emit CheckAmount(doctor.doctorFee);\r\n\r\n        Appointment memory newAppointment;\r\n        newAppointment.doctorAddress = _doctorAddress;\r\n        newAppointment.examDate = _examDate;\r\n        newAppointment.examSchedule = _examSchedule;\r\n        newAppointment.totalFee = doctor.doctorFee;\r\n        newAppointment.patientAddress = msg.sender;\r\n        newAppointment.active = true;\r\n        require(\r\n            tokenIRS.transferFrom(\r\n                msg.sender,\r\n                address(this),\r\n                doctor.doctorFee\r\n            ) == true,\r\n            \"Appointment not proceed!\"\r\n        );\r\n        doctor_appointments[_doctorAddress].push(newAppointment);\r\n        emit NewLog(msg.sender, block.timestamp, \"create appointment\");\r\n        return doctor_appointments[_doctorAddress].length;\r\n    }\r\n\r\n    function cancelAppointment(address _doctorAddress, uint256 _ticketNumber)\r\n        public\r\n        onlyPatient\r\n    {\r\n        require(\r\n            _ticketNumber - 1 < doctor_appointments[_doctorAddress].length,\r\n            \"Wrong ticket number\"\r\n        );\r\n        require(\r\n            doctor_appointments[_doctorAddress][_ticketNumber - 1]\r\n                .patientAddress == msg.sender,\r\n            \"Thats Ticket is not yours\"\r\n        );\r\n        // find doctor to get fee\r\n        User memory doctor = registeredUsers[_doctorAddress];\r\n        emit CheckAmount(doctor.doctorFee);\r\n        uint256 deductFee = doctor.doctorFee - contractFee;\r\n        require(\r\n            tokenIRS.transfer(msg.sender, deductFee) == true,\r\n            \"Something Error with fee transfer\"\r\n        );\r\n        doctor_appointments[_doctorAddress][_ticketNumber - 1].active = false;\r\n    }\r\n\r\n    function getPatientList() public onlyDoctor returns (Appointment[] memory) {\r\n        emit CallAppointments(doctor_appointments[msg.sender]);\r\n        return doctor_appointments[msg.sender];\r\n    }\r\n\r\n    function addMedicalRecord(\r\n        address _patientAddress,\r\n        string memory _subjective,\r\n        string memory _objective,\r\n        string memory _assesment,\r\n        string memory _planning,\r\n        uint256 _weight,\r\n        uint256 _height,\r\n        uint256 _systole,\r\n        uint256 _diastole,\r\n        uint256 _examDate,\r\n        string memory _examLocation\r\n    ) public onlyDoctor {\r\n        MedicalRecord memory newMedicalRecord;\r\n        newMedicalRecord.subjective = _subjective;\r\n        newMedicalRecord.objective = _objective;\r\n        newMedicalRecord.assesment = _assesment;\r\n        newMedicalRecord.planning = _planning;\r\n        newMedicalRecord.weight = _weight;\r\n        newMedicalRecord.height = _height;\r\n        newMedicalRecord.systole = _systole;\r\n        newMedicalRecord.diastole = _diastole;\r\n        newMedicalRecord.examDate = _examDate;\r\n        newMedicalRecord.examLocation = _examLocation;\r\n        newMedicalRecord.doctorAddress = msg.sender;\r\n        user_medicalRecords[_patientAddress].push(newMedicalRecord);\r\n\r\n        // find doctor to get fee\r\n        User memory doctor = registeredUsers[msg.sender];\r\n\r\n        // deduct fee for contract owner\r\n        uint256 amountPayedToDoctor = doctor.doctorFee - contractFee;\r\n        emit CheckAmount(amountPayedToDoctor);\r\n        require(\r\n            tokenIRS.transfer(msg.sender, amountPayedToDoctor) == true,\r\n            \"Payment not proceed!\"\r\n        );\r\n\r\n        emit NewMedicalRecord(_patientAddress, msg.sender, block.timestamp);\r\n    }\r\n\r\n    function doctorGetMedicalRecords(address _patientAddress)\r\n        public\r\n        onlyDoctor\r\n        returns (MedicalRecord[] memory)\r\n    {\r\n        emit CallMedicalRecords(user_medicalRecords[_patientAddress]);\r\n        return user_medicalRecords[_patientAddress];\r\n    }\r\n\r\n    function userGetOwnMedicalRecords()\r\n        public\r\n        onlyPatient\r\n        returns (MedicalRecord[] memory)\r\n    {\r\n        emit CallMedicalRecords(user_medicalRecords[msg.sender]);\r\n        return user_medicalRecords[msg.sender];\r\n    }\r\n\r\n    function setContractFee(uint256 _fee) public onlyOwner {\r\n        contractFee = _fee;\r\n    }\r\n}\r\n",
  "sourcePath": "C:\\Users\\Irsantyo_M870\\Documents\\Irsantyo_Personal\\Emurgo\\E-Med_Contract\\contracts\\Emed.sol",
  "compiler": {
    "name": "solc",
    "version": "0.8.7+commit.e28d00a7.Emscripten.clang"
  },
  "schemaVersion": "3.4.3",
  "updatedAt": "2021-09-25T08:31:33.971Z",
  "networkType": "ethereum",
  "devdoc": {
    "kind": "dev",
    "methods": {},
    "version": 1
  },
  "userdoc": {
    "kind": "user",
    "methods": {},
    "version": 1
  }
}