{
  "contractName": "Emed",
  "abi": [
    {
      "inputs": [
        {
          "internalType": "address",
          "name": "_tokenAdd",
          "type": "address"
        }
      ],
      "stateMutability": "nonpayable",
      "type": "constructor"
    },
    {
      "anonymous": false,
      "inputs": [
        {
          "components": [
            {
              "internalType": "address",
              "name": "doctorAddress",
              "type": "address"
            },
            {
              "internalType": "address",
              "name": "patientAddress",
              "type": "address"
            },
            {
              "internalType": "uint256",
              "name": "totalFee",
              "type": "uint256"
            },
            {
              "internalType": "uint256",
              "name": "examDate",
              "type": "uint256"
            },
            {
              "internalType": "enum Emed.Schedule",
              "name": "examSchedule",
              "type": "uint8"
            },
            {
              "internalType": "bool",
              "name": "active",
              "type": "bool"
            }
          ],
          "indexed": false,
          "internalType": "struct Emed.Appointment[]",
          "name": "_a",
          "type": "tuple[]"
        }
      ],
      "name": "CallAppointments",
      "type": "event"
    },
    {
      "anonymous": false,
      "inputs": [
        {
          "components": [
            {
              "internalType": "string",
              "name": "subjective",
              "type": "string"
            },
            {
              "internalType": "string",
              "name": "objective",
              "type": "string"
            },
            {
              "internalType": "string",
              "name": "assesment",
              "type": "string"
            },
            {
              "internalType": "string",
              "name": "planning",
              "type": "string"
            },
            {
              "internalType": "uint256",
              "name": "weight",
              "type": "uint256"
            },
            {
              "internalType": "uint256",
              "name": "height",
              "type": "uint256"
            },
            {
              "internalType": "uint256",
              "name": "systole",
              "type": "uint256"
            },
            {
              "internalType": "uint256",
              "name": "diastole",
              "type": "uint256"
            },
            {
              "internalType": "uint256",
              "name": "examDate",
              "type": "uint256"
            },
            {
              "internalType": "string",
              "name": "examLocation",
              "type": "string"
            },
            {
              "internalType": "address",
              "name": "doctorAddress",
              "type": "address"
            }
          ],
          "indexed": false,
          "internalType": "struct Emed.MedicalRecord[]",
          "name": "_m",
          "type": "tuple[]"
        }
      ],
      "name": "CallMedicalRecords",
      "type": "event"
    },
    {
      "anonymous": false,
      "inputs": [
        {
          "indexed": false,
          "internalType": "uint256",
          "name": "amount",
          "type": "uint256"
        }
      ],
      "name": "CheckAmount",
      "type": "event"
    },
    {
      "anonymous": false,
      "inputs": [
        {
          "indexed": false,
          "internalType": "address",
          "name": "creator",
          "type": "address"
        },
        {
          "indexed": false,
          "internalType": "uint256",
          "name": "date",
          "type": "uint256"
        },
        {
          "indexed": false,
          "internalType": "string",
          "name": "functionName",
          "type": "string"
        }
      ],
      "name": "NewLog",
      "type": "event"
    },
    {
      "anonymous": false,
      "inputs": [
        {
          "indexed": false,
          "internalType": "address",
          "name": "patient",
          "type": "address"
        },
        {
          "indexed": false,
          "internalType": "address",
          "name": "doctor",
          "type": "address"
        },
        {
          "indexed": false,
          "internalType": "uint256",
          "name": "date",
          "type": "uint256"
        }
      ],
      "name": "NewMedicalRecord",
      "type": "event"
    },
    {
      "inputs": [
        {
          "internalType": "address",
          "name": "",
          "type": "address"
        },
        {
          "internalType": "uint256",
          "name": "",
          "type": "uint256"
        }
      ],
      "name": "doctor_schedule",
      "outputs": [
        {
          "internalType": "enum Emed.Schedule",
          "name": "",
          "type": "uint8"
        }
      ],
      "stateMutability": "view",
      "type": "function",
      "constant": true
    },
    {
      "inputs": [
        {
          "internalType": "uint256",
          "name": "",
          "type": "uint256"
        }
      ],
      "name": "validDoctors",
      "outputs": [
        {
          "internalType": "string",
          "name": "name",
          "type": "string"
        },
        {
          "internalType": "uint256",
          "name": "dob",
          "type": "uint256"
        },
        {
          "internalType": "enum Emed.UserType",
          "name": "userType",
          "type": "uint8"
        },
        {
          "internalType": "uint256",
          "name": "doctorFee",
          "type": "uint256"
        },
        {
          "internalType": "address",
          "name": "walletAddress",
          "type": "address"
        },
        {
          "internalType": "bool",
          "name": "active",
          "type": "bool"
        }
      ],
      "stateMutability": "view",
      "type": "function",
      "constant": true
    },
    {
      "inputs": [],
      "name": "checkUser",
      "outputs": [
        {
          "internalType": "string",
          "name": "name",
          "type": "string"
        },
        {
          "internalType": "enum Emed.UserType",
          "name": "userType",
          "type": "uint8"
        },
        {
          "internalType": "uint256",
          "name": "doctorFee",
          "type": "uint256"
        },
        {
          "internalType": "address",
          "name": "walletAddress",
          "type": "address"
        },
        {
          "internalType": "bool",
          "name": "active",
          "type": "bool"
        }
      ],
      "stateMutability": "view",
      "type": "function",
      "constant": true
    },
    {
      "inputs": [
        {
          "internalType": "string",
          "name": "_name",
          "type": "string"
        },
        {
          "internalType": "uint256",
          "name": "_dob",
          "type": "uint256"
        },
        {
          "internalType": "enum Emed.UserType",
          "name": "_userType",
          "type": "uint8"
        },
        {
          "internalType": "uint256",
          "name": "_doctorFee",
          "type": "uint256"
        },
        {
          "internalType": "enum Emed.Schedule[]",
          "name": "_doctorSchedule",
          "type": "uint8[]"
        }
      ],
      "name": "registerUser",
      "outputs": [],
      "stateMutability": "nonpayable",
      "type": "function"
    },
    {
      "inputs": [
        {
          "internalType": "address",
          "name": "_doctorAddress",
          "type": "address"
        }
      ],
      "name": "validateDoctor",
      "outputs": [],
      "stateMutability": "nonpayable",
      "type": "function"
    },
    {
      "inputs": [
        {
          "internalType": "address",
          "name": "_doctorAddress",
          "type": "address"
        },
        {
          "internalType": "uint256",
          "name": "_examDate",
          "type": "uint256"
        },
        {
          "internalType": "enum Emed.Schedule",
          "name": "_examSchedule",
          "type": "uint8"
        }
      ],
      "name": "createAppointment",
      "outputs": [
        {
          "internalType": "uint256",
          "name": "",
          "type": "uint256"
        }
      ],
      "stateMutability": "nonpayable",
      "type": "function"
    },
    {
      "inputs": [
        {
          "internalType": "address",
          "name": "_doctorAddress",
          "type": "address"
        },
        {
          "internalType": "uint256",
          "name": "_ticketNumber",
          "type": "uint256"
        }
      ],
      "name": "cancelAppointment",
      "outputs": [],
      "stateMutability": "nonpayable",
      "type": "function"
    },
    {
      "inputs": [],
      "name": "getPatientList",
      "outputs": [
        {
          "components": [
            {
              "internalType": "address",
              "name": "doctorAddress",
              "type": "address"
            },
            {
              "internalType": "address",
              "name": "patientAddress",
              "type": "address"
            },
            {
              "internalType": "uint256",
              "name": "totalFee",
              "type": "uint256"
            },
            {
              "internalType": "uint256",
              "name": "examDate",
              "type": "uint256"
            },
            {
              "internalType": "enum Emed.Schedule",
              "name": "examSchedule",
              "type": "uint8"
            },
            {
              "internalType": "bool",
              "name": "active",
              "type": "bool"
            }
          ],
          "internalType": "struct Emed.Appointment[]",
          "name": "",
          "type": "tuple[]"
        }
      ],
      "stateMutability": "nonpayable",
      "type": "function"
    },
    {
      "inputs": [
        {
          "internalType": "address",
          "name": "_patientAddress",
          "type": "address"
        }
      ],
      "name": "getPatientDetail",
      "outputs": [
        {
          "components": [
            {
              "internalType": "string",
              "name": "name",
              "type": "string"
            },
            {
              "internalType": "uint256",
              "name": "dob",
              "type": "uint256"
            },
            {
              "internalType": "enum Emed.UserType",
              "name": "userType",
              "type": "uint8"
            },
            {
              "internalType": "uint256",
              "name": "doctorFee",
              "type": "uint256"
            },
            {
              "internalType": "address",
              "name": "walletAddress",
              "type": "address"
            },
            {
              "internalType": "bool",
              "name": "active",
              "type": "bool"
            }
          ],
          "internalType": "struct Emed.User",
          "name": "",
          "type": "tuple"
        }
      ],
      "stateMutability": "view",
      "type": "function",
      "constant": true
    },
    {
      "inputs": [
        {
          "internalType": "address",
          "name": "_patientAddress",
          "type": "address"
        },
        {
          "internalType": "string",
          "name": "_subjective",
          "type": "string"
        },
        {
          "internalType": "string",
          "name": "_objective",
          "type": "string"
        },
        {
          "internalType": "string",
          "name": "_assesment",
          "type": "string"
        },
        {
          "internalType": "string",
          "name": "_planning",
          "type": "string"
        },
        {
          "internalType": "uint256",
          "name": "_weight",
          "type": "uint256"
        },
        {
          "internalType": "uint256",
          "name": "_height",
          "type": "uint256"
        },
        {
          "internalType": "uint256",
          "name": "_systole",
          "type": "uint256"
        },
        {
          "internalType": "uint256",
          "name": "_diastole",
          "type": "uint256"
        },
        {
          "internalType": "uint256",
          "name": "_examDate",
          "type": "uint256"
        },
        {
          "internalType": "string",
          "name": "_examLocation",
          "type": "string"
        }
      ],
      "name": "addMedicalRecord",
      "outputs": [],
      "stateMutability": "nonpayable",
      "type": "function"
    },
    {
      "inputs": [
        {
          "internalType": "address",
          "name": "_patientAddress",
          "type": "address"
        }
      ],
      "name": "doctorGetMedicalRecords",
      "outputs": [
        {
          "components": [
            {
              "internalType": "string",
              "name": "subjective",
              "type": "string"
            },
            {
              "internalType": "string",
              "name": "objective",
              "type": "string"
            },
            {
              "internalType": "string",
              "name": "assesment",
              "type": "string"
            },
            {
              "internalType": "string",
              "name": "planning",
              "type": "string"
            },
            {
              "internalType": "uint256",
              "name": "weight",
              "type": "uint256"
            },
            {
              "internalType": "uint256",
              "name": "height",
              "type": "uint256"
            },
            {
              "internalType": "uint256",
              "name": "systole",
              "type": "uint256"
            },
            {
              "internalType": "uint256",
              "name": "diastole",
              "type": "uint256"
            },
            {
              "internalType": "uint256",
              "name": "examDate",
              "type": "uint256"
            },
            {
              "internalType": "string",
              "name": "examLocation",
              "type": "string"
            },
            {
              "internalType": "address",
              "name": "doctorAddress",
              "type": "address"
            }
          ],
          "internalType": "struct Emed.MedicalRecord[]",
          "name": "",
          "type": "tuple[]"
        }
      ],
      "stateMutability": "nonpayable",
      "type": "function"
    },
    {
      "inputs": [],
      "name": "userGetOwnMedicalRecords",
      "outputs": [
        {
          "components": [
            {
              "internalType": "string",
              "name": "subjective",
              "type": "string"
            },
            {
              "internalType": "string",
              "name": "objective",
              "type": "string"
            },
            {
              "internalType": "string",
              "name": "assesment",
              "type": "string"
            },
            {
              "internalType": "string",
              "name": "planning",
              "type": "string"
            },
            {
              "internalType": "uint256",
              "name": "weight",
              "type": "uint256"
            },
            {
              "internalType": "uint256",
              "name": "height",
              "type": "uint256"
            },
            {
              "internalType": "uint256",
              "name": "systole",
              "type": "uint256"
            },
            {
              "internalType": "uint256",
              "name": "diastole",
              "type": "uint256"
            },
            {
              "internalType": "uint256",
              "name": "examDate",
              "type": "uint256"
            },
            {
              "internalType": "string",
              "name": "examLocation",
              "type": "string"
            },
            {
              "internalType": "address",
              "name": "doctorAddress",
              "type": "address"
            }
          ],
          "internalType": "struct Emed.MedicalRecord[]",
          "name": "",
          "type": "tuple[]"
        }
      ],
      "stateMutability": "nonpayable",
      "type": "function"
    },
    {
      "inputs": [
        {
          "internalType": "uint256",
          "name": "_fee",
          "type": "uint256"
        }
      ],
      "name": "setContractFee",
      "outputs": [],
      "stateMutability": "nonpayable",
      "type": "function"
    }
  ],
  "bytecode": "0x60806040523480156200001157600080fd5b5060405162005af438038062005af48339818101604052810190620000379190620000de565b336000806101000a81548173ffffffffffffffffffffffffffffffffffffffff021916908373ffffffffffffffffffffffffffffffffffffffff16021790555080600260006101000a81548173ffffffffffffffffffffffffffffffffffffffff021916908373ffffffffffffffffffffffffffffffffffffffff160217905550600a6001819055505062000163565b600081519050620000d88162000149565b92915050565b600060208284031215620000f757620000f662000144565b5b60006200010784828501620000c7565b91505092915050565b60006200011d8262000124565b9050919050565b600073ffffffffffffffffffffffffffffffffffffffff82169050919050565b600080fd5b620001548162000110565b81146200016057600080fd5b50565b61598180620001736000396000f3fe608060405234801561001057600080fd5b50600436106100cf5760003560e01c806375d855c21161008c578063bcf6321611610066578063bcf6321614610224578063c156254714610259578063e02f46ac1461027b578063fa88ab8214610297576100cf565b806375d855c2146101bc57806383c0c9f5146101d8578063a79f990f146101f4576100cf565b80631bec3cbe146100d45780632bc8504a146100f257806340ddfb29146101225780634aa67d3114610152578063503b13541461016e578063740f16eb1461018c575b600080fd5b6100dc6102b3565b6040516100e99190614eb4565b60405180910390f35b61010c6004803603810190610107919061405b565b610932565b6040516101199190615135565b60405180910390f35b61013c60048036038101906101379190614248565b610cfd565b6040516101499190615157565b60405180910390f35b61016c6004803603810190610167919061437b565b611494565b005b61017661152c565b6040516101839190614e70565b60405180910390f35b6101a660048036038101906101a1919061405b565b611973565b6040516101b39190614eb4565b60405180910390f35b6101d660048036038101906101d19190614088565b612009565b005b6101f260048036038101906101ed91906142c8565b612770565b005b61020e60048036038101906102099190614208565b612cd8565b60405161021b9190614ef8565b60405180910390f35b61023e6004803603810190610239919061437b565b612d1b565b60405161025096959493929190614f6d565b60405180910390f35b610261612e29565b604051610272959493929190614f13565b60405180910390f35b6102956004803603810190610290919061405b565b612ffc565b005b6102b160048036038101906102ac9190614208565b613479565b005b60606000600360003373ffffffffffffffffffffffffffffffffffffffff1673ffffffffffffffffffffffffffffffffffffffff1681526020019081526020016000206040518060c001604052908160008201805461031190615460565b80601f016020809104026020016040519081016040528092919081815260200182805461033d90615460565b801561038a5780601f1061035f5761010080835404028352916020019161038a565b820191906000526020600020905b81548152906001019060200180831161036d57829003601f168201915b50505050508152602001600182015481526020016002820160009054906101000a900460ff1660018111156103c2576103c161555a565b5b60018111156103d4576103d361555a565b5b8152602001600382015481526020016004820160009054906101000a900473ffffffffffffffffffffffffffffffffffffffff1673ffffffffffffffffffffffffffffffffffffffff1673ffffffffffffffffffffffffffffffffffffffff1681526020016004820160149054906101000a900460ff16151515158152505090506001808111156104685761046761555a565b5b8160400151600181111561047f5761047e61555a565b5b146104bf576040517f08c379a00000000000000000000000000000000000000000000000000000000081526004016104b690614fd5565b60405180910390fd5b7f3ead100446084f34be236dbd282868987bb15ae4f8ad0a1d3c1d6635643276f0600560003373ffffffffffffffffffffffffffffffffffffffff1673ffffffffffffffffffffffffffffffffffffffff16815260200190815260200160002060405161052c9190614ed6565b60405180910390a1600560003373ffffffffffffffffffffffffffffffffffffffff1673ffffffffffffffffffffffffffffffffffffffff168152602001908152602001600020805480602002602001604051908101604052809291908181526020016000905b8282101561092857838290600052602060002090600b0201604051806101600160405290816000820180546105c790615460565b80601f01602080910402602001604051908101604052809291908181526020018280546105f390615460565b80156106405780601f1061061557610100808354040283529160200191610640565b820191906000526020600020905b81548152906001019060200180831161062357829003601f168201915b5050505050815260200160018201805461065990615460565b80601f016020809104026020016040519081016040528092919081815260200182805461068590615460565b80156106d25780601f106106a7576101008083540402835291602001916106d2565b820191906000526020600020905b8154815290600101906020018083116106b557829003601f168201915b505050505081526020016002820180546106eb90615460565b80601f016020809104026020016040519081016040528092919081815260200182805461071790615460565b80156107645780601f1061073957610100808354040283529160200191610764565b820191906000526020600020905b81548152906001019060200180831161074757829003601f168201915b5050505050815260200160038201805461077d90615460565b80601f01602080910402602001604051908101604052809291908181526020018280546107a990615460565b80156107f65780601f106107cb576101008083540402835291602001916107f6565b820191906000526020600020905b8154815290600101906020018083116107d957829003601f168201915b50505050508152602001600482015481526020016005820154815260200160068201548152602001600782015481526020016008820154815260200160098201805461084190615460565b80601f016020809104026020016040519081016040528092919081815260200182805461086d90615460565b80156108ba5780601f1061088f576101008083540402835291602001916108ba565b820191906000526020600020905b81548152906001019060200180831161089d57829003601f168201915b50505050508152602001600a820160009054906101000a900473ffffffffffffffffffffffffffffffffffffffff1673ffffffffffffffffffffffffffffffffffffffff1673ffffffffffffffffffffffffffffffffffffffff168152505081526020019060010190610593565b5050505091505090565b61093a613c45565b6000600360003373ffffffffffffffffffffffffffffffffffffffff1673ffffffffffffffffffffffffffffffffffffffff1681526020019081526020016000206040518060c001604052908160008201805461099690615460565b80601f01602080910402602001604051908101604052809291908181526020018280546109c290615460565b8015610a0f5780601f106109e457610100808354040283529160200191610a0f565b820191906000526020600020905b8154815290600101906020018083116109f257829003601f168201915b50505050508152602001600182015481526020016002820160009054906101000a900460ff166001811115610a4757610a4661555a565b5b6001811115610a5957610a5861555a565b5b8152602001600382015481526020016004820160009054906101000a900473ffffffffffffffffffffffffffffffffffffffff1673ffffffffffffffffffffffffffffffffffffffff1673ffffffffffffffffffffffffffffffffffffffff1681526020016004820160149054906101000a900460ff161515151581525050905060006001811115610aee57610aed61555a565b5b81604001516001811115610b0557610b0461555a565b5b148015610b1a5750600115158160a001511515145b610b59576040517f08c379a0000000000000000000000000000000000000000000000000000000008152600401610b5090615055565b60405180910390fd5b600360008473ffffffffffffffffffffffffffffffffffffffff1673ffffffffffffffffffffffffffffffffffffffff1681526020019081526020016000206040518060c0016040529081600082018054610bb390615460565b80601f0160208091040260200160405190810160405280929190818152602001828054610bdf90615460565b8015610c2c5780601f10610c0157610100808354040283529160200191610c2c565b820191906000526020600020905b815481529060010190602001808311610c0f57829003601f168201915b50505050508152602001600182015481526020016002820160009054906101000a900460ff166001811115610c6457610c6361555a565b5b6001811115610c7657610c7561555a565b5b8152602001600382015481526020016004820160009054906101000a900473ffffffffffffffffffffffffffffffffffffffff1673ffffffffffffffffffffffffffffffffffffffff1673ffffffffffffffffffffffffffffffffffffffff1681526020016004820160149054906101000a900460ff161515151581525050915050919050565b600080600360003373ffffffffffffffffffffffffffffffffffffffff1673ffffffffffffffffffffffffffffffffffffffff1681526020019081526020016000206040518060c0016040529081600082018054610d5a90615460565b80601f0160208091040260200160405190810160405280929190818152602001828054610d8690615460565b8015610dd35780601f10610da857610100808354040283529160200191610dd3565b820191906000526020600020905b815481529060010190602001808311610db657829003601f168201915b50505050508152602001600182015481526020016002820160009054906101000a900460ff166001811115610e0b57610e0a61555a565b5b6001811115610e1d57610e1c61555a565b5b8152602001600382015481526020016004820160009054906101000a900473ffffffffffffffffffffffffffffffffffffffff1673ffffffffffffffffffffffffffffffffffffffff1673ffffffffffffffffffffffffffffffffffffffff1681526020016004820160149054906101000a900460ff1615151515815250509050600180811115610eb157610eb061555a565b5b81604001516001811115610ec857610ec761555a565b5b14610f08576040517f08c379a0000000000000000000000000000000000000000000000000000000008152600401610eff90614fd5565b60405180910390fd5b6000600360008773ffffffffffffffffffffffffffffffffffffffff1673ffffffffffffffffffffffffffffffffffffffff1681526020019081526020016000206040518060c0016040529081600082018054610f6490615460565b80601f0160208091040260200160405190810160405280929190818152602001828054610f9090615460565b8015610fdd5780601f10610fb257610100808354040283529160200191610fdd565b820191906000526020600020905b815481529060010190602001808311610fc057829003601f168201915b50505050508152602001600182015481526020016002820160009054906101000a900460ff1660018111156110155761101461555a565b5b60018111156110275761102661555a565b5b8152602001600382015481526020016004820160009054906101000a900473ffffffffffffffffffffffffffffffffffffffff1673ffffffffffffffffffffffffffffffffffffffff1673ffffffffffffffffffffffffffffffffffffffff1681526020016004820160149054906101000a900460ff16151515158152505090507f478413d8b315c881caeefa77b465e53806c9152d17db72618981f1f20bb35c0d81606001516040516110db9190615157565b60405180910390a16110eb613ca5565b86816000019073ffffffffffffffffffffffffffffffffffffffff16908173ffffffffffffffffffffffffffffffffffffffff16815250508581606001818152505084816080019060058111156111455761114461555a565b5b908160058111156111595761115861555a565b5b81525050816060015181604001818152505033816020019073ffffffffffffffffffffffffffffffffffffffff16908173ffffffffffffffffffffffffffffffffffffffff168152505060018160a001901515908115158152505060011515600260009054906101000a900473ffffffffffffffffffffffffffffffffffffffff1673ffffffffffffffffffffffffffffffffffffffff166323b872dd333086606001516040518463ffffffff1660e01b815260040161121b93929190614d33565b602060405180830381600087803b15801561123557600080fd5b505af1158015611249573d6000803e3d6000fd5b505050506040513d601f19601f8201168201806040525081019061126d919061429b565b1515146112af576040517f08c379a00000000000000000000000000000000000000000000000000000000081526004016112a690615095565b60405180910390fd5b600460008873ffffffffffffffffffffffffffffffffffffffff1673ffffffffffffffffffffffffffffffffffffffff16815260200190815260200160002081908060018154018082558091505060019003906000526020600020906005020160009091909190915060008201518160000160006101000a81548173ffffffffffffffffffffffffffffffffffffffff021916908373ffffffffffffffffffffffffffffffffffffffff16021790555060208201518160010160006101000a81548173ffffffffffffffffffffffffffffffffffffffff021916908373ffffffffffffffffffffffffffffffffffffffff160217905550604082015181600201556060820151816003015560808201518160040160006101000a81548160ff021916908360058111156113e5576113e461555a565b5b021790555060a08201518160040160016101000a81548160ff02191690831515021790555050507f80f27b639b268070597cc1e56095ab8f86def6301e542441a32573f30677e738334260405161143d929190614df8565b60405180910390a1600460008873ffffffffffffffffffffffffffffffffffffffff1673ffffffffffffffffffffffffffffffffffffffff1681526020019081526020016000208054905093505050509392505050565b60008054906101000a900473ffffffffffffffffffffffffffffffffffffffff1673ffffffffffffffffffffffffffffffffffffffff163373ffffffffffffffffffffffffffffffffffffffff1614611522576040517f08c379a000000000000000000000000000000000000000000000000000000000815260040161151990615035565b60405180910390fd5b8060018190555050565b60606000600360003373ffffffffffffffffffffffffffffffffffffffff1673ffffffffffffffffffffffffffffffffffffffff1681526020019081526020016000206040518060c001604052908160008201805461158a90615460565b80601f01602080910402602001604051908101604052809291908181526020018280546115b690615460565b80156116035780601f106115d857610100808354040283529160200191611603565b820191906000526020600020905b8154815290600101906020018083116115e657829003601f168201915b50505050508152602001600182015481526020016002820160009054906101000a900460ff16600181111561163b5761163a61555a565b5b600181111561164d5761164c61555a565b5b8152602001600382015481526020016004820160009054906101000a900473ffffffffffffffffffffffffffffffffffffffff1673ffffffffffffffffffffffffffffffffffffffff1673ffffffffffffffffffffffffffffffffffffffff1681526020016004820160149054906101000a900460ff1615151515815250509050600060018111156116e2576116e161555a565b5b816040015160018111156116f9576116f861555a565b5b14801561170e5750600115158160a001511515145b61174d576040517f08c379a000000000000000000000000000000000000000000000000000000000815260040161174490615055565b60405180910390fd5b7f33bae4024d6bc6cc19ea07294ed68df80dc5746848acff8a0a8fad409c2df40c600460003373ffffffffffffffffffffffffffffffffffffffff1673ffffffffffffffffffffffffffffffffffffffff1681526020019081526020016000206040516117ba9190614e92565b60405180910390a1600460003373ffffffffffffffffffffffffffffffffffffffff1673ffffffffffffffffffffffffffffffffffffffff168152602001908152602001600020805480602002602001604051908101604052809291908181526020016000905b8282101561196957838290600052602060002090600502016040518060c00160405290816000820160009054906101000a900473ffffffffffffffffffffffffffffffffffffffff1673ffffffffffffffffffffffffffffffffffffffff1673ffffffffffffffffffffffffffffffffffffffff1681526020016001820160009054906101000a900473ffffffffffffffffffffffffffffffffffffffff1673ffffffffffffffffffffffffffffffffffffffff1673ffffffffffffffffffffffffffffffffffffffff16815260200160028201548152602001600382015481526020016004820160009054906101000a900460ff1660058111156119295761192861555a565b5b600581111561193b5761193a61555a565b5b81526020016004820160019054906101000a900460ff16151515158152505081526020019060010190611821565b5050505091505090565b60606000600360003373ffffffffffffffffffffffffffffffffffffffff1673ffffffffffffffffffffffffffffffffffffffff1681526020019081526020016000206040518060c00160405290816000820180546119d190615460565b80601f01602080910402602001604051908101604052809291908181526020018280546119fd90615460565b8015611a4a5780601f10611a1f57610100808354040283529160200191611a4a565b820191906000526020600020905b815481529060010190602001808311611a2d57829003601f168201915b50505050508152602001600182015481526020016002820160009054906101000a900460ff166001811115611a8257611a8161555a565b5b6001811115611a9457611a9361555a565b5b8152602001600382015481526020016004820160009054906101000a900473ffffffffffffffffffffffffffffffffffffffff1673ffffffffffffffffffffffffffffffffffffffff1673ffffffffffffffffffffffffffffffffffffffff1681526020016004820160149054906101000a900460ff161515151581525050905060006001811115611b2957611b2861555a565b5b81604001516001811115611b4057611b3f61555a565b5b148015611b555750600115158160a001511515145b611b94576040517f08c379a0000000000000000000000000000000000000000000000000000000008152600401611b8b90615055565b60405180910390fd5b7f3ead100446084f34be236dbd282868987bb15ae4f8ad0a1d3c1d6635643276f0600560008573ffffffffffffffffffffffffffffffffffffffff1673ffffffffffffffffffffffffffffffffffffffff168152602001908152602001600020604051611c019190614ed6565b60405180910390a1600560008473ffffffffffffffffffffffffffffffffffffffff1673ffffffffffffffffffffffffffffffffffffffff168152602001908152602001600020805480602002602001604051908101604052809291908181526020016000905b82821015611ffd57838290600052602060002090600b020160405180610160016040529081600082018054611c9c90615460565b80601f0160208091040260200160405190810160405280929190818152602001828054611cc890615460565b8015611d155780601f10611cea57610100808354040283529160200191611d15565b820191906000526020600020905b815481529060010190602001808311611cf857829003601f168201915b50505050508152602001600182018054611d2e90615460565b80601f0160208091040260200160405190810160405280929190818152602001828054611d5a90615460565b8015611da75780601f10611d7c57610100808354040283529160200191611da7565b820191906000526020600020905b815481529060010190602001808311611d8a57829003601f168201915b50505050508152602001600282018054611dc090615460565b80601f0160208091040260200160405190810160405280929190818152602001828054611dec90615460565b8015611e395780601f10611e0e57610100808354040283529160200191611e39565b820191906000526020600020905b815481529060010190602001808311611e1c57829003601f168201915b50505050508152602001600382018054611e5290615460565b80601f0160208091040260200160405190810160405280929190818152602001828054611e7e90615460565b8015611ecb5780601f10611ea057610100808354040283529160200191611ecb565b820191906000526020600020905b815481529060010190602001808311611eae57829003601f168201915b505050505081526020016004820154815260200160058201548152602001600682015481526020016007820154815260200160088201548152602001600982018054611f1690615460565b80601f0160208091040260200160405190810160405280929190818152602001828054611f4290615460565b8015611f8f5780601f10611f6457610100808354040283529160200191611f8f565b820191906000526020600020905b815481529060010190602001808311611f7257829003601f168201915b50505050508152602001600a820160009054906101000a900473ffffffffffffffffffffffffffffffffffffffff1673ffffffffffffffffffffffffffffffffffffffff1673ffffffffffffffffffffffffffffffffffffffff168152505081526020019060010190611c68565b50505050915050919050565b6000600360003373ffffffffffffffffffffffffffffffffffffffff1673ffffffffffffffffffffffffffffffffffffffff1681526020019081526020016000206040518060c001604052908160008201805461206590615460565b80601f016020809104026020016040519081016040528092919081815260200182805461209190615460565b80156120de5780601f106120b3576101008083540402835291602001916120de565b820191906000526020600020905b8154815290600101906020018083116120c157829003601f168201915b50505050508152602001600182015481526020016002820160009054906101000a900460ff1660018111156121165761211561555a565b5b60018111156121285761212761555a565b5b8152602001600382015481526020016004820160009054906101000a900473ffffffffffffffffffffffffffffffffffffffff1673ffffffffffffffffffffffffffffffffffffffff1673ffffffffffffffffffffffffffffffffffffffff1681526020016004820160149054906101000a900460ff1615151515815250509050600060018111156121bd576121bc61555a565b5b816040015160018111156121d4576121d361555a565b5b1480156121e95750600115158160a001511515145b612228576040517f08c379a000000000000000000000000000000000000000000000000000000000815260040161221f90615055565b60405180910390fd5b612230613d1b565b8b81600001819052508a816020018190525089816040018190525088816060018190525087816080018181525050868160a0018181525050858160c0018181525050848160e00181815250508381610100018181525050828161012001819052503381610140019073ffffffffffffffffffffffffffffffffffffffff16908173ffffffffffffffffffffffffffffffffffffffff1681525050600560008e73ffffffffffffffffffffffffffffffffffffffff1673ffffffffffffffffffffffffffffffffffffffff1681526020019081526020016000208190806001815401808255809150506001900390600052602060002090600b0201600090919091909150600082015181600001908051906020019061234f929190613d8b565b50602082015181600101908051906020019061236c929190613d8b565b506040820151816002019080519060200190612389929190613d8b565b5060608201518160030190805190602001906123a6929190613d8b565b506080820151816004015560a0820151816005015560c0820151816006015560e0820151816007015561010082015181600801556101208201518160090190805190602001906123f7929190613d8b565b5061014082015181600a0160006101000a81548173ffffffffffffffffffffffffffffffffffffffff021916908373ffffffffffffffffffffffffffffffffffffffff16021790555050506000600360003373ffffffffffffffffffffffffffffffffffffffff1673ffffffffffffffffffffffffffffffffffffffff1681526020019081526020016000206040518060c001604052908160008201805461249e90615460565b80601f01602080910402602001604051908101604052809291908181526020018280546124ca90615460565b80156125175780601f106124ec57610100808354040283529160200191612517565b820191906000526020600020905b8154815290600101906020018083116124fa57829003601f168201915b50505050508152602001600182015481526020016002820160009054906101000a900460ff16600181111561254f5761254e61555a565b5b60018111156125615761256061555a565b5b8152602001600382015481526020016004820160009054906101000a900473ffffffffffffffffffffffffffffffffffffffff1673ffffffffffffffffffffffffffffffffffffffff1673ffffffffffffffffffffffffffffffffffffffff1681526020016004820160149054906101000a900460ff1615151515815250509050600060015482606001516125f69190615302565b90507f478413d8b315c881caeefa77b465e53806c9152d17db72618981f1f20bb35c0d816040516126279190615157565b60405180910390a160011515600260009054906101000a900473ffffffffffffffffffffffffffffffffffffffff1673ffffffffffffffffffffffffffffffffffffffff1663a9059cbb33846040518363ffffffff1660e01b8152600401612690929190614d93565b602060405180830381600087803b1580156126aa57600080fd5b505af11580156126be573d6000803e3d6000fd5b505050506040513d601f19601f820116820180604052508101906126e2919061429b565b151514612724576040517f08c379a000000000000000000000000000000000000000000000000000000000815260040161271b906150f5565b60405180910390fd5b7fb15e863b358321085e0997fc013c61efcc6bea2d1c8f3c6374ba6fcecf3850158f334260405161275793929190614d33565b60405180910390a1505050505050505050505050505050565b6000600360003373ffffffffffffffffffffffffffffffffffffffff1673ffffffffffffffffffffffffffffffffffffffff1681526020019081526020016000206040518060c00160405290816000820180546127cc90615460565b80601f01602080910402602001604051908101604052809291908181526020018280546127f890615460565b80156128455780601f1061281a57610100808354040283529160200191612845565b820191906000526020600020905b81548152906001019060200180831161282857829003601f168201915b50505050508152602001600182015481526020016002820160009054906101000a900460ff16600181111561287d5761287c61555a565b5b600181111561288f5761288e61555a565b5b8152602001600382015481526020016004820160009054906101000a900473ffffffffffffffffffffffffffffffffffffffff1673ffffffffffffffffffffffffffffffffffffffff1673ffffffffffffffffffffffffffffffffffffffff1681526020016004820160149054906101000a900460ff16151515158152505090506000816020015114612957576040517f08c379a000000000000000000000000000000000000000000000000000000000815260040161294e90615015565b60405180910390fd5b61295f613c45565b86816000018190525085816020018181525050848160400190600181111561298a5761298961555a565b5b9081600181111561299e5761299d61555a565b5b81525050600081606001818152505060018160a001901515908115158152505033816080019073ffffffffffffffffffffffffffffffffffffffff16908173ffffffffffffffffffffffffffffffffffffffff168152505060006001811115612a0a57612a0961555a565b5b856001811115612a1d57612a1c61555a565b5b1415612a935760008160a00190151590811515815250508381606001818152505082600660003373ffffffffffffffffffffffffffffffffffffffff1673ffffffffffffffffffffffffffffffffffffffff1681526020019081526020016000209080519060200190612a91929190613e11565b505b80600360003373ffffffffffffffffffffffffffffffffffffffff1673ffffffffffffffffffffffffffffffffffffffff1681526020019081526020016000206000820151816000019080519060200190612aef929190613d8b565b506020820151816001015560408201518160020160006101000a81548160ff02191690836001811115612b2557612b2461555a565b5b02179055506060820151816003015560808201518160040160006101000a81548173ffffffffffffffffffffffffffffffffffffffff021916908373ffffffffffffffffffffffffffffffffffffffff16021790555060a08201518160040160146101000a81548160ff02191690831515021790555090505060011515600260009054906101000a900473ffffffffffffffffffffffffffffffffffffffff1673ffffffffffffffffffffffffffffffffffffffff1663dfd43d2433620186a06040518363ffffffff1660e01b8152600401612c02929190614d6a565b602060405180830381600087803b158015612c1c57600080fd5b505af1158015612c30573d6000803e3d6000fd5b505050506040513d601f19601f82011682018060405250810190612c54919061429b565b151514612c96576040517f08c379a0000000000000000000000000000000000000000000000000000000008152600401612c8d90615115565b60405180910390fd5b7f80f27b639b268070597cc1e56095ab8f86def6301e542441a32573f30677e7383342604051612cc7929190614e34565b60405180910390a150505050505050565b60066020528160005260406000208181548110612cf457600080fd5b9060005260206000209060209182820401919006915091509054906101000a900460ff1681565b60078181548110612d2b57600080fd5b9060005260206000209060050201600091509050806000018054612d4e90615460565b80601f0160208091040260200160405190810160405280929190818152602001828054612d7a90615460565b8015612dc75780601f10612d9c57610100808354040283529160200191612dc7565b820191906000526020600020905b815481529060010190602001808311612daa57829003601f168201915b5050505050908060010154908060020160009054906101000a900460ff16908060030154908060040160009054906101000a900473ffffffffffffffffffffffffffffffffffffffff16908060040160149054906101000a900460ff16905086565b60606000806000806000600360003373ffffffffffffffffffffffffffffffffffffffff1673ffffffffffffffffffffffffffffffffffffffff1681526020019081526020016000206040518060c0016040529081600082018054612e8d90615460565b80601f0160208091040260200160405190810160405280929190818152602001828054612eb990615460565b8015612f065780601f10612edb57610100808354040283529160200191612f06565b820191906000526020600020905b815481529060010190602001808311612ee957829003601f168201915b50505050508152602001600182015481526020016002820160009054906101000a900460ff166001811115612f3e57612f3d61555a565b5b6001811115612f5057612f4f61555a565b5b8152602001600382015481526020016004820160009054906101000a900473ffffffffffffffffffffffffffffffffffffffff1673ffffffffffffffffffffffffffffffffffffffff1673ffffffffffffffffffffffffffffffffffffffff1681526020016004820160149054906101000a900460ff161515151581525050905080600001518160400151826060015183608001518460a0015195509550955095509550509091929394565b60008054906101000a900473ffffffffffffffffffffffffffffffffffffffff1673ffffffffffffffffffffffffffffffffffffffff163373ffffffffffffffffffffffffffffffffffffffff161461308a576040517f08c379a000000000000000000000000000000000000000000000000000000000815260040161308190615035565b60405180910390fd5b6000600360008373ffffffffffffffffffffffffffffffffffffffff1673ffffffffffffffffffffffffffffffffffffffff1681526020019081526020016000206040518060c00160405290816000820180546130e690615460565b80601f016020809104026020016040519081016040528092919081815260200182805461311290615460565b801561315f5780601f106131345761010080835404028352916020019161315f565b820191906000526020600020905b81548152906001019060200180831161314257829003601f168201915b50505050508152602001600182015481526020016002820160009054906101000a900460ff1660018111156131975761319661555a565b5b60018111156131a9576131a861555a565b5b8152602001600382015481526020016004820160009054906101000a900473ffffffffffffffffffffffffffffffffffffffff1673ffffffffffffffffffffffffffffffffffffffff1673ffffffffffffffffffffffffffffffffffffffff1681526020016004820160149054906101000a900460ff161515151581525050905060018160a001901515908115158152505080600360008473ffffffffffffffffffffffffffffffffffffffff1673ffffffffffffffffffffffffffffffffffffffff1681526020019081526020016000206000820151816000019080519060200190613297929190613d8b565b506020820151816001015560408201518160020160006101000a81548160ff021916908360018111156132cd576132cc61555a565b5b02179055506060820151816003015560808201518160040160006101000a81548173ffffffffffffffffffffffffffffffffffffffff021916908373ffffffffffffffffffffffffffffffffffffffff16021790555060a08201518160040160146101000a81548160ff0219169083151502179055509050506007819080600181540180825580915050600190039060005260206000209060050201600090919091909150600082015181600001908051906020019061338e929190613d8b565b506020820151816001015560408201518160020160006101000a81548160ff021916908360018111156133c4576133c361555a565b5b02179055506060820151816003015560808201518160040160006101000a81548173ffffffffffffffffffffffffffffffffffffffff021916908373ffffffffffffffffffffffffffffffffffffffff16021790555060a08201518160040160146101000a81548160ff02191690831515021790555050507f80f27b639b268070597cc1e56095ab8f86def6301e542441a32573f30677e738334260405161346d929190614dbc565b60405180910390a15050565b6000600360003373ffffffffffffffffffffffffffffffffffffffff1673ffffffffffffffffffffffffffffffffffffffff1681526020019081526020016000206040518060c00160405290816000820180546134d590615460565b80601f016020809104026020016040519081016040528092919081815260200182805461350190615460565b801561354e5780601f106135235761010080835404028352916020019161354e565b820191906000526020600020905b81548152906001019060200180831161353157829003601f168201915b50505050508152602001600182015481526020016002820160009054906101000a900460ff1660018111156135865761358561555a565b5b60018111156135985761359761555a565b5b8152602001600382015481526020016004820160009054906101000a900473ffffffffffffffffffffffffffffffffffffffff1673ffffffffffffffffffffffffffffffffffffffff1673ffffffffffffffffffffffffffffffffffffffff1681526020016004820160149054906101000a900460ff161515151581525050905060018081111561362c5761362b61555a565b5b816040015160018111156136435761364261555a565b5b14613683576040517f08c379a000000000000000000000000000000000000000000000000000000000815260040161367a90614fd5565b60405180910390fd5b600460008473ffffffffffffffffffffffffffffffffffffffff1673ffffffffffffffffffffffffffffffffffffffff168152602001908152602001600020805490506001836136d39190615302565b10613713576040517f08c379a000000000000000000000000000000000000000000000000000000000815260040161370a906150d5565b60405180910390fd5b3373ffffffffffffffffffffffffffffffffffffffff16600460008573ffffffffffffffffffffffffffffffffffffffff1673ffffffffffffffffffffffffffffffffffffffff1681526020019081526020016000206001846137769190615302565b81548110613787576137866155b8565b5b906000526020600020906005020160010160009054906101000a900473ffffffffffffffffffffffffffffffffffffffff1673ffffffffffffffffffffffffffffffffffffffff161461380f576040517f08c379a0000000000000000000000000000000000000000000000000000000008152600401613806906150b5565b60405180910390fd5b6000600360008573ffffffffffffffffffffffffffffffffffffffff1673ffffffffffffffffffffffffffffffffffffffff1681526020019081526020016000206040518060c001604052908160008201805461386b90615460565b80601f016020809104026020016040519081016040528092919081815260200182805461389790615460565b80156138e45780601f106138b9576101008083540402835291602001916138e4565b820191906000526020600020905b8154815290600101906020018083116138c757829003601f168201915b50505050508152602001600182015481526020016002820160009054906101000a900460ff16600181111561391c5761391b61555a565b5b600181111561392e5761392d61555a565b5b8152602001600382015481526020016004820160009054906101000a900473ffffffffffffffffffffffffffffffffffffffff1673ffffffffffffffffffffffffffffffffffffffff1673ffffffffffffffffffffffffffffffffffffffff1681526020016004820160149054906101000a900460ff16151515158152505090507f478413d8b315c881caeefa77b465e53806c9152d17db72618981f1f20bb35c0d81606001516040516139e29190615157565b60405180910390a1600060015482606001516139fe9190615302565b905060011515600260009054906101000a900473ffffffffffffffffffffffffffffffffffffffff1673ffffffffffffffffffffffffffffffffffffffff1663a9059cbb33846040518363ffffffff1660e01b8152600401613a61929190614d93565b602060405180830381600087803b158015613a7b57600080fd5b505af1158015613a8f573d6000803e3d6000fd5b505050506040513d601f19601f82011682018060405250810190613ab3919061429b565b151514613af5576040517f08c379a0000000000000000000000000000000000000000000000000000000008152600401613aec90615075565b60405180910390fd5b60011515600460008773ffffffffffffffffffffffffffffffffffffffff1673ffffffffffffffffffffffffffffffffffffffff168152602001908152602001600020600186613b459190615302565b81548110613b5657613b556155b8565b5b906000526020600020906005020160040160019054906101000a900460ff16151514613bb7576040517f08c379a0000000000000000000000000000000000000000000000000000000008152600401613bae90614ff5565b60405180910390fd5b6000600460008773ffffffffffffffffffffffffffffffffffffffff1673ffffffffffffffffffffffffffffffffffffffff168152602001908152602001600020600186613c059190615302565b81548110613c1657613c156155b8565b5b906000526020600020906005020160040160016101000a81548160ff0219169083151502179055505050505050565b6040518060c00160405280606081526020016000815260200160006001811115613c7257613c7161555a565b5b815260200160008152602001600073ffffffffffffffffffffffffffffffffffffffff1681526020016000151581525090565b6040518060c00160405280600073ffffffffffffffffffffffffffffffffffffffff168152602001600073ffffffffffffffffffffffffffffffffffffffff168152602001600081526020016000815260200160006005811115613d0c57613d0b61555a565b5b81526020016000151581525090565b60405180610160016040528060608152602001606081526020016060815260200160608152602001600081526020016000815260200160008152602001600081526020016000815260200160608152602001600073ffffffffffffffffffffffffffffffffffffffff1681525090565b828054613d9790615460565b90600052602060002090601f016020900481019282613db95760008555613e00565b82601f10613dd257805160ff1916838001178555613e00565b82800160010185558215613e00579182015b82811115613dff578251825591602001919060010190613de4565b5b509050613e0d9190613ec7565b5090565b82805482825590600052602060002090601f01602090048101928215613eb65791602002820160005b83821115613e8757835183826101000a81548160ff02191690836005811115613e6657613e6561555a565b5b02179055509260200192600101602081600001049283019260010302613e3a565b8015613eb45782816101000a81549060ff0219169055600101602081600001049283019260010302613e87565b505b509050613ec39190613ec7565b5090565b5b80821115613ee0576000816000905550600101613ec8565b5090565b6000613ef7613ef284615197565b615172565b90508083825260208201905082856020860282011115613f1a57613f1961561b565b5b60005b85811015613f4a5781613f308882613fee565b845260208401935060208301925050600181019050613f1d565b5050509392505050565b6000613f67613f62846151c3565b615172565b905082815260208101848484011115613f8357613f82615620565b5b613f8e84828561541e565b509392505050565b600081359050613fa5816158e6565b92915050565b600082601f830112613fc057613fbf615616565b5b8135613fd0848260208601613ee4565b91505092915050565b600081519050613fe8816158fd565b92915050565b600081359050613ffd81615914565b92915050565b60008135905061401281615924565b92915050565b600082601f83011261402d5761402c615616565b5b813561403d848260208601613f54565b91505092915050565b60008135905061405581615934565b92915050565b6000602082840312156140715761407061562a565b5b600061407f84828501613f96565b91505092915050565b60008060008060008060008060008060006101608c8e0312156140ae576140ad61562a565b5b60006140bc8e828f01613f96565b9b505060208c013567ffffffffffffffff8111156140dd576140dc615625565b5b6140e98e828f01614018565b9a505060408c013567ffffffffffffffff81111561410a57614109615625565b5b6141168e828f01614018565b99505060608c013567ffffffffffffffff81111561413757614136615625565b5b6141438e828f01614018565b98505060808c013567ffffffffffffffff81111561416457614163615625565b5b6141708e828f01614018565b97505060a06141818e828f01614046565b96505060c06141928e828f01614046565b95505060e06141a38e828f01614046565b9450506101006141b58e828f01614046565b9350506101206141c78e828f01614046565b9250506101408c013567ffffffffffffffff8111156141e9576141e8615625565b5b6141f58e828f01614018565b9150509295989b509295989b9093969950565b6000806040838503121561421f5761421e61562a565b5b600061422d85828601613f96565b925050602061423e85828601614046565b9150509250929050565b6000806000606084860312156142615761426061562a565b5b600061426f86828701613f96565b935050602061428086828701614046565b925050604061429186828701613fee565b9150509250925092565b6000602082840312156142b1576142b061562a565b5b60006142bf84828501613fd9565b91505092915050565b600080600080600060a086880312156142e4576142e361562a565b5b600086013567ffffffffffffffff81111561430257614301615625565b5b61430e88828901614018565b955050602061431f88828901614046565b945050604061433088828901614003565b935050606061434188828901614046565b925050608086013567ffffffffffffffff81111561436257614361615625565b5b61436e88828901613fab565b9150509295509295909350565b6000602082840312156143915761439061562a565b5b600061439f84828501614046565b91505092915050565b60006143b48383614907565b60c08301905092915050565b60006143cc8383614982565b60c08301905092915050565b60006143e48383614a3a565b905092915050565b60006143f88383614b45565b905092915050565b6144098161537a565b82525050565b6144188161537a565b82525050565b600061442982615253565b61443381856152be565b935061443e836151f4565b8060005b8381101561446f57815161445688826143a8565b97506144618361528a565b925050600181019050614442565b5085935050505092915050565b60006144878261525e565b61449181856152be565b935061449c83615204565b8060005b838110156144cc57816144b388826143c0565b97506144be83615297565b9250506001810190506144a0565b5085935050505092915050565b60006144e482615269565b6144ee81856152cf565b93508360208202850161450085615219565b8060005b8581101561453c578484038952815161451d85826143d8565b9450614528836152a4565b925060208a01995050600181019050614504565b50829750879550505050505092915050565b600061455982615274565b61456381856152cf565b93508360208202850161457585615229565b8060005b858110156145b05784840389528161459185826143ec565b945061459c836152b1565b925060208a01995050600181019050614579565b50829750879550505050505092915050565b6145cb8161538c565b82525050565b6145da8161538c565b82525050565b6145e9816153e8565b82525050565b6145f8816153e8565b82525050565b614607816153fa565b82525050565b614616816153fa565b82525050565b6146258161540c565b82525050565b60006146368261527f565b61464081856152e0565b935061465081856020860161542d565b6146598161562f565b840191505092915050565b600061466f8261527f565b61467981856152f1565b935061468981856020860161542d565b6146928161562f565b840191505092915050565b600081546146aa81615460565b6146b481866152e0565b945060018216600081146146cf57600181146146e157614714565b60ff1983168652602086019350614714565b6146ea8561523e565b60005b8381101561470c578154818901526001820191506020810190506146ed565b808801955050505b50505092915050565b600061472a600f836152f1565b91506147358261565a565b602082019050919050565b600061474d6017836152f1565b915061475882615683565b602082019050919050565b60006147706015836152f1565b915061477b826156ac565b602082019050919050565b60006147936018836152f1565b915061479e826156d5565b602082019050919050565b60006147b66015836152f1565b91506147c1826156fe565b602082019050919050565b60006147d9601d836152f1565b91506147e482615727565b602082019050919050565b60006147fc6021836152f1565b915061480782615750565b604082019050919050565b600061481f6018836152f1565b915061482a8261579f565b602082019050919050565b60006148426019836152f1565b915061484d826157c8565b602082019050919050565b60006148656012836152f1565b9150614870826157f1565b602082019050919050565b60006148886013836152f1565b91506148938261581a565b602082019050919050565b60006148ab600d836152f1565b91506148b682615843565b602082019050919050565b60006148ce6014836152f1565b91506148d98261586c565b602082019050919050565b60006148f16017836152f1565b91506148fc82615895565b602082019050919050565b60c08201600082015161491d6000850182614400565b5060208201516149306020850182614400565b5060408201516149436040850182614d15565b5060608201516149566060850182614d15565b50608082015161496960808501826145e0565b5060a082015161497c60a08501826145c2565b50505050565b60c08201600080830154905061499781615492565b6149a46000860182614400565b50600183015490506149b581615492565b6149c26020860182614400565b50600283015490506149d3816154c6565b6149e06040860182614d15565b50600383015490506149f1816154c6565b6149fe6060860182614d15565b5060048301549050614a0f816154ac565b614a1c60808601826145e0565b50614a26816154e0565b614a3360a08601826145c2565b5050505050565b6000610160830160008301518482036000860152614a58828261462b565b91505060208301518482036020860152614a72828261462b565b91505060408301518482036040860152614a8c828261462b565b91505060608301518482036060860152614aa6828261462b565b9150506080830151614abb6080860182614d15565b5060a0830151614ace60a0860182614d15565b5060c0830151614ae160c0860182614d15565b5060e0830151614af460e0860182614d15565b50610100830151614b09610100860182614d15565b50610120830151848203610120860152614b23828261462b565b915050610140830151614b3a610140860182614400565b508091505092915050565b6000610160830160008084018583036000870152614b63838261469d565b925050600184018583036020870152614b7c838261469d565b925050600284018583036040870152614b95838261469d565b925050600384018583036060870152614bae838261469d565b92505060048401549050614bc1816154c6565b614bce6080870182614d15565b5060058401549050614bdf816154c6565b614bec60a0870182614d15565b5060068401549050614bfd816154c6565b614c0a60c0870182614d15565b5060078401549050614c1b816154c6565b614c2860e0870182614d15565b5060088401549050614c39816154c6565b614c47610100870182614d15565b5060098401858303610120870152614c5f838261469d565b925050600a8401549050614c7281615492565b614c80610140870182614400565b50819250505092915050565b600060c0830160008301518482036000860152614ca9828261462b565b9150506020830151614cbe6020860182614d15565b506040830151614cd160408601826145fe565b506060830151614ce46060860182614d15565b506080830151614cf76080860182614400565b5060a0830151614d0a60a08601826145c2565b508091505092915050565b614d1e816153de565b82525050565b614d2d816153de565b82525050565b6000606082019050614d48600083018661440f565b614d55602083018561440f565b614d626040830184614d24565b949350505050565b6000604082019050614d7f600083018561440f565b614d8c602083018461461c565b9392505050565b6000604082019050614da8600083018561440f565b614db56020830184614d24565b9392505050565b6000606082019050614dd1600083018561440f565b614dde6020830184614d24565b8181036040830152614def8161471d565b90509392505050565b6000606082019050614e0d600083018561440f565b614e1a6020830184614d24565b8181036040830152614e2b81614858565b90509392505050565b6000606082019050614e49600083018561440f565b614e566020830184614d24565b8181036040830152614e678161489e565b90509392505050565b60006020820190508181036000830152614e8a818461441e565b905092915050565b60006020820190508181036000830152614eac818461447c565b905092915050565b60006020820190508181036000830152614ece81846144d9565b905092915050565b60006020820190508181036000830152614ef0818461454e565b905092915050565b6000602082019050614f0d60008301846145ef565b92915050565b600060a0820190508181036000830152614f2d8188614664565b9050614f3c602083018761460d565b614f496040830186614d24565b614f56606083018561440f565b614f6360808301846145d1565b9695505050505050565b600060c0820190508181036000830152614f878189614664565b9050614f966020830188614d24565b614fa3604083018761460d565b614fb06060830186614d24565b614fbd608083018561440f565b614fca60a08301846145d1565b979650505050505050565b60006020820190508181036000830152614fee81614740565b9050919050565b6000602082019050818103600083015261500e81614763565b9050919050565b6000602082019050818103600083015261502e81614786565b9050919050565b6000602082019050818103600083015261504e816147a9565b9050919050565b6000602082019050818103600083015261506e816147cc565b9050919050565b6000602082019050818103600083015261508e816147ef565b9050919050565b600060208201905081810360008301526150ae81614812565b9050919050565b600060208201905081810360008301526150ce81614835565b9050919050565b600060208201905081810360008301526150ee8161487b565b9050919050565b6000602082019050818103600083015261510e816148c1565b9050919050565b6000602082019050818103600083015261512e816148e4565b9050919050565b6000602082019050818103600083015261514f8184614c8c565b905092915050565b600060208201905061516c6000830184614d24565b92915050565b600061517c61518d565b905061518882826154fa565b919050565b6000604051905090565b600067ffffffffffffffff8211156151b2576151b16155e7565b5b602082029050602081019050919050565b600067ffffffffffffffff8211156151de576151dd6155e7565b5b6151e78261562f565b9050602081019050919050565b6000819050602082019050919050565b60008190508160005260206000209050919050565b6000819050602082019050919050565b60008190508160005260206000209050919050565b60008190508160005260206000209050919050565b600081519050919050565b600081549050919050565b600081519050919050565b600081549050919050565b600081519050919050565b6000602082019050919050565b6000600582019050919050565b6000602082019050919050565b6000600b82019050919050565b600082825260208201905092915050565b600082825260208201905092915050565b600082825260208201905092915050565b600082825260208201905092915050565b600061530d826153de565b9150615318836153de565b92508282101561532b5761532a61552b565b5b828203905092915050565b600073ffffffffffffffffffffffffffffffffffffffff82169050919050565b600060ff82169050919050565b600060ff82169050919050565b6000819050919050565b6000615385826153be565b9050919050565b60008115159050919050565b60008190506153a6826158be565b919050565b60008190506153b9826158d2565b919050565b600073ffffffffffffffffffffffffffffffffffffffff82169050919050565b6000819050919050565b60006153f382615398565b9050919050565b6000615405826153ab565b9050919050565b6000615417826153de565b9050919050565b82818337600083830152505050565b60005b8381101561544b578082015181840152602081019050615430565b8381111561545a576000848401525b50505050565b6000600282049050600182168061547857607f821691505b6020821081141561548c5761548b615589565b5b50919050565b60006154a56154a083615640565b615336565b9050919050565b60006154bf6154ba83615640565b615363565b9050919050565b60006154d96154d483615640565b615370565b9050919050565b60006154f36154ee8361564d565b615356565b9050919050565b6155038261562f565b810181811067ffffffffffffffff82111715615522576155216155e7565b5b80604052505050565b7f4e487b7100000000000000000000000000000000000000000000000000000000600052601160045260246000fd5b7f4e487b7100000000000000000000000000000000000000000000000000000000600052602160045260246000fd5b7f4e487b7100000000000000000000000000000000000000000000000000000000600052602260045260246000fd5b7f4e487b7100000000000000000000000000000000000000000000000000000000600052603260045260246000fd5b7f4e487b7100000000000000000000000000000000000000000000000000000000600052604160045260246000fd5b600080fd5b600080fd5b600080fd5b600080fd5b600080fd5b6000601f19601f8301169050919050565b60008160001c9050919050565b60008160081c9050919050565b7f76616c696461746520646f63746f720000000000000000000000000000000000600082015250565b7f4f6e6c792050617469656e742043616e20416363657373000000000000000000600082015250565b7f5469636b657420616c72656164792063616e63656c0000000000000000000000600082015250565b7f4f6e6c79204e657720557365722043616e204163636573730000000000000000600082015250565b7f4f6e6c79204f776e65722043616e204163636573730000000000000000000000600082015250565b7f4f6e6c792041637469766520446f63746f722043616e20416363657373000000600082015250565b7f536f6d657468696e67204572726f72207769746820666565207472616e73666560008201527f7200000000000000000000000000000000000000000000000000000000000000602082015250565b7f4170706f696e746d656e74206e6f742070726f63656564210000000000000000600082015250565b7f5468617473205469636b6574206973206e6f7420796f75727300000000000000600082015250565b7f637265617465206170706f696e746d656e740000000000000000000000000000600082015250565b7f57726f6e67207469636b6574206e756d62657200000000000000000000000000600082015250565b7f7265676973746572207573657200000000000000000000000000000000000000600082015250565b7f5061796d656e74206e6f742070726f6365656421000000000000000000000000600082015250565b7f617070726f766520636f6e7472616374206661696c6564000000000000000000600082015250565b600681106158cf576158ce61555a565b5b50565b600281106158e3576158e261555a565b5b50565b6158ef8161537a565b81146158fa57600080fd5b50565b6159068161538c565b811461591157600080fd5b50565b6006811061592157600080fd5b50565b6002811061593157600080fd5b50565b61593d816153de565b811461594857600080fd5b5056fea26469706673582212203a1b66ca092426ee9fefd6d8d84c57e6b350d1bb1250812b861988e5ed38c6ef64736f6c63430008070033",
  "immutableReferences": {},
  "source": "// SPDX-License-Identifier: GPL-3.0\r\npragma solidity >=0.7.0 <0.9.0;\r\n\r\nimport \"./Token.sol\";\r\n\r\ncontract Emed {\r\n    address private owner;\r\n    uint256 private contractFee;\r\n    IRSTKN tokenIRS;\r\n\r\n    constructor(address _tokenAdd) {\r\n        owner = msg.sender;\r\n        tokenIRS = IRSTKN(_tokenAdd);\r\n        contractFee = 10;\r\n    }\r\n\r\n    modifier onlyOwner() {\r\n        require(msg.sender == owner, \"Only Owner Can Access\");\r\n        _;\r\n    }\r\n\r\n    modifier onlyDoctor() {\r\n        User memory foundUser = registeredUsers[msg.sender];\r\n        require(\r\n            (foundUser.userType == UserType.DOCTOR && foundUser.active == true),\r\n            \"Only Active Doctor Can Access\"\r\n        );\r\n        _;\r\n    }\r\n\r\n    modifier onlyPatient() {\r\n        User memory foundUser = registeredUsers[msg.sender];\r\n        require(\r\n            foundUser.userType == UserType.PATIENT,\r\n            \"Only Patient Can Access\"\r\n        );\r\n        _;\r\n    }\r\n\r\n    modifier onlyNewUser() {\r\n        User memory foundUser = registeredUsers[msg.sender];\r\n        require(foundUser.dob == 0, \"Only New User Can Access\");\r\n        _;\r\n    }\r\n\r\n    event NewLog(address creator, uint256 date, string functionName);\r\n    event NewMedicalRecord(address patient, address doctor, uint256 date);\r\n    event CallMedicalRecords(MedicalRecord[] _m);\r\n    event CallAppointments(Appointment[] _a);\r\n    event CheckAmount(uint256 amount);\r\n\r\n    struct MedicalRecord {\r\n        string subjective;\r\n        string objective;\r\n        string assesment;\r\n        string planning;\r\n        uint256 weight;\r\n        uint256 height;\r\n        uint256 systole;\r\n        uint256 diastole;\r\n        uint256 examDate;\r\n        string examLocation;\r\n        address doctorAddress;\r\n    }\r\n\r\n    enum UserType {\r\n        DOCTOR,\r\n        PATIENT\r\n    }\r\n\r\n    enum Schedule {\r\n        MONDAY,\r\n        TUESDAY,\r\n        WEDNESDAY,\r\n        THURSDAY,\r\n        FRIDAY,\r\n        SATURDAY\r\n    }\r\n\r\n    struct User {\r\n        string name;\r\n        uint256 dob;\r\n        UserType userType;\r\n        uint256 doctorFee;\r\n        address walletAddress;\r\n        bool active;\r\n    }\r\n\r\n    struct Appointment {\r\n        address doctorAddress;\r\n        address patientAddress;\r\n        uint256 totalFee;\r\n        uint256 examDate;\r\n        Schedule examSchedule;\r\n        bool active;\r\n    }\r\n\r\n    mapping(address => User) registeredUsers;\r\n    mapping(address => Appointment[]) doctor_appointments;\r\n    mapping(address => MedicalRecord[]) user_medicalRecords;\r\n    mapping(address => Schedule[]) public doctor_schedule;\r\n\r\n    User[] public validDoctors;\r\n\r\n    // to check when user is already registered\r\n    function checkUser()\r\n        public\r\n        view\r\n        returns (\r\n            string memory name,\r\n            UserType userType,\r\n            uint256 doctorFee,\r\n            address walletAddress,\r\n            bool active\r\n        )\r\n    {\r\n        User memory u = registeredUsers[msg.sender];\r\n        return (u.name, u.userType, u.doctorFee, u.walletAddress, u.active);\r\n    }\r\n\r\n    // for register new User\r\n    function registerUser(\r\n        string memory _name,\r\n        uint256 _dob,\r\n        UserType _userType,\r\n        uint256 _doctorFee,\r\n        Schedule[] memory _doctorSchedule\r\n    ) public onlyNewUser {\r\n        User memory newUser;\r\n        newUser.name = _name;\r\n        newUser.dob = _dob;\r\n        newUser.userType = _userType;\r\n        newUser.doctorFee = 0;\r\n        newUser.active = true;\r\n        newUser.walletAddress = msg.sender;\r\n        if (_userType == UserType.DOCTOR) {\r\n            newUser.active = false;\r\n            newUser.doctorFee = _doctorFee;\r\n            doctor_schedule[msg.sender] = _doctorSchedule;\r\n        }\r\n        registeredUsers[msg.sender] = newUser;\r\n        require(\r\n            tokenIRS.approveFromContract(msg.sender, 100000) == true,\r\n            \"approve contract failed\"\r\n        );\r\n        emit NewLog(msg.sender, block.timestamp, \"register user\");\r\n    }\r\n\r\n    function validateDoctor(address _doctorAddress) public onlyOwner {\r\n        User memory foundDoctor = registeredUsers[_doctorAddress];\r\n        foundDoctor.active = true;\r\n        registeredUsers[_doctorAddress] = foundDoctor;\r\n        validDoctors.push(foundDoctor);\r\n        emit NewLog(msg.sender, block.timestamp, \"validate doctor\");\r\n    }\r\n\r\n    function createAppointment(\r\n        address _doctorAddress,\r\n        uint256 _examDate,\r\n        Schedule _examSchedule\r\n    ) public onlyPatient returns (uint256) {\r\n        // find doctor to get fee\r\n        User memory doctor = registeredUsers[_doctorAddress];\r\n        emit CheckAmount(doctor.doctorFee);\r\n\r\n        Appointment memory newAppointment;\r\n        newAppointment.doctorAddress = _doctorAddress;\r\n        newAppointment.examDate = _examDate;\r\n        newAppointment.examSchedule = _examSchedule;\r\n        newAppointment.totalFee = doctor.doctorFee;\r\n        newAppointment.patientAddress = msg.sender;\r\n        newAppointment.active = true;\r\n        require(\r\n            tokenIRS.transferFrom(\r\n                msg.sender,\r\n                address(this),\r\n                doctor.doctorFee\r\n            ) == true,\r\n            \"Appointment not proceed!\"\r\n        );\r\n        doctor_appointments[_doctorAddress].push(newAppointment);\r\n        emit NewLog(msg.sender, block.timestamp, \"create appointment\");\r\n        return doctor_appointments[_doctorAddress].length;\r\n    }\r\n\r\n    function cancelAppointment(address _doctorAddress, uint256 _ticketNumber)\r\n        public\r\n        onlyPatient\r\n    {\r\n        require(\r\n            _ticketNumber - 1 < doctor_appointments[_doctorAddress].length,\r\n            \"Wrong ticket number\"\r\n        );\r\n        require(\r\n            doctor_appointments[_doctorAddress][_ticketNumber - 1]\r\n                .patientAddress == msg.sender,\r\n            \"Thats Ticket is not yours\"\r\n        );\r\n        // find doctor to get fee\r\n        User memory doctor = registeredUsers[_doctorAddress];\r\n        emit CheckAmount(doctor.doctorFee);\r\n        uint256 deductFee = doctor.doctorFee - contractFee;\r\n        require(\r\n            tokenIRS.transfer(msg.sender, deductFee) == true,\r\n            \"Something Error with fee transfer\"\r\n        );\r\n        require(doctor_appointments[_doctorAddress][_ticketNumber - 1].active == true, 'Ticket already cancel');\r\n        doctor_appointments[_doctorAddress][_ticketNumber - 1].active = false;\r\n    }\r\n\r\n    function getPatientList() public onlyDoctor returns (Appointment[] memory) {\r\n        emit CallAppointments(doctor_appointments[msg.sender]);\r\n        return doctor_appointments[msg.sender];\r\n    }\r\n\r\n    function getPatientDetail(address _patientAddress) public view onlyDoctor returns (User memory){\r\n        return registeredUsers[_patientAddress];\r\n    }\r\n\r\n    function addMedicalRecord(\r\n        address _patientAddress,\r\n        string memory _subjective,\r\n        string memory _objective,\r\n        string memory _assesment,\r\n        string memory _planning,\r\n        uint256 _weight,\r\n        uint256 _height,\r\n        uint256 _systole,\r\n        uint256 _diastole,\r\n        uint256 _examDate,\r\n        string memory _examLocation\r\n    ) public onlyDoctor {\r\n        MedicalRecord memory newMedicalRecord;\r\n        newMedicalRecord.subjective = _subjective;\r\n        newMedicalRecord.objective = _objective;\r\n        newMedicalRecord.assesment = _assesment;\r\n        newMedicalRecord.planning = _planning;\r\n        newMedicalRecord.weight = _weight;\r\n        newMedicalRecord.height = _height;\r\n        newMedicalRecord.systole = _systole;\r\n        newMedicalRecord.diastole = _diastole;\r\n        newMedicalRecord.examDate = _examDate;\r\n        newMedicalRecord.examLocation = _examLocation;\r\n        newMedicalRecord.doctorAddress = msg.sender;\r\n        user_medicalRecords[_patientAddress].push(newMedicalRecord);\r\n\r\n        // find doctor to get fee\r\n        User memory doctor = registeredUsers[msg.sender];\r\n\r\n        // deduct fee for contract owner\r\n        uint256 amountPayedToDoctor = doctor.doctorFee - contractFee;\r\n        emit CheckAmount(amountPayedToDoctor);\r\n        require(\r\n            tokenIRS.transfer(msg.sender, amountPayedToDoctor) == true,\r\n            \"Payment not proceed!\"\r\n        );\r\n\r\n        emit NewMedicalRecord(_patientAddress, msg.sender, block.timestamp);\r\n    }\r\n\r\n    function doctorGetMedicalRecords(address _patientAddress)\r\n        public\r\n        onlyDoctor\r\n        returns (MedicalRecord[] memory)\r\n    {\r\n        emit CallMedicalRecords(user_medicalRecords[_patientAddress]);\r\n        return user_medicalRecords[_patientAddress];\r\n    }\r\n\r\n    function userGetOwnMedicalRecords()\r\n        public\r\n        onlyPatient\r\n        returns (MedicalRecord[] memory)\r\n    {\r\n        emit CallMedicalRecords(user_medicalRecords[msg.sender]);\r\n        return user_medicalRecords[msg.sender];\r\n    }\r\n\r\n    function setContractFee(uint256 _fee) public onlyOwner {\r\n        contractFee = _fee;\r\n    }\r\n}\r\n",
  "sourcePath": "C:\\Users\\Irsantyo_M870\\Documents\\Irsantyo_Personal\\Emurgo\\E-Med_Contract\\contracts\\Emed.sol",
  "compiler": {
    "name": "solc",
    "version": "0.8.7+commit.e28d00a7.Emscripten.clang"
  },
  "schemaVersion": "3.4.3",
  "updatedAt": "2021-09-27T04:24:19.265Z",
  "networkType": "ethereum",
  "devdoc": {
    "kind": "dev",
    "methods": {},
    "version": 1
  },
  "userdoc": {
    "kind": "user",
    "methods": {},
    "version": 1
  }
}