{
  "contractName": "IRSICO",
  "abi": [
    {
      "inputs": [
        {
          "internalType": "address",
          "name": "_token",
          "type": "address"
        }
      ],
      "stateMutability": "nonpayable",
      "type": "constructor"
    },
    {
      "inputs": [],
      "name": "numTokens",
      "outputs": [
        {
          "internalType": "uint256",
          "name": "",
          "type": "uint256"
        }
      ],
      "stateMutability": "view",
      "type": "function"
    },
    {
      "inputs": [],
      "name": "PurchaseTokens",
      "outputs": [
        {
          "internalType": "uint256",
          "name": "",
          "type": "uint256"
        }
      ],
      "stateMutability": "payable",
      "type": "function"
    }
  ],
  "bytecode": "0x60806040526103e860025534801561001657600080fd5b50604051610752380380610752833981810160405281019061003891906100d4565b806000806101000a81548173ffffffffffffffffffffffffffffffffffffffff021916908373ffffffffffffffffffffffffffffffffffffffff16021790555033600160006101000a81548173ffffffffffffffffffffffffffffffffffffffff021916908373ffffffffffffffffffffffffffffffffffffffff1602179055505061014f565b6000815190506100ce81610138565b92915050565b6000602082840312156100ea576100e9610133565b5b60006100f8848285016100bf565b91505092915050565b600061010c82610113565b9050919050565b600073ffffffffffffffffffffffffffffffffffffffff82169050919050565b600080fd5b61014181610101565b811461014c57600080fd5b50565b6105f48061015e6000396000f3fe6080604052600436106100295760003560e01c806344ed26a41461002e5780638e499bcf1461004c575b600080fd5b610036610077565b60405161004391906103df565b60405180910390f35b34801561005857600080fd5b50610061610294565b60405161006e91906103df565b60405180910390f35b6000600254670de0b6b3a764000034610090919061040b565b61009a919061043c565b60038190555060008060009054906101000a900473ffffffffffffffffffffffffffffffffffffffff1673ffffffffffffffffffffffffffffffffffffffff1663dd62ed3e600160009054906101000a900473ffffffffffffffffffffffffffffffffffffffff16306040518363ffffffff1660e01b815260040161012092919061035f565b60206040518083038186803b15801561013857600080fd5b505afa15801561014c573d6000803e3d6000fd5b505050506040513d601f19601f8201168201806040525081019061017091906102f1565b90506003548110156101b7576040517f08c379a00000000000000000000000000000000000000000000000000000000081526004016101ae906103bf565b60405180910390fd5b60008054906101000a900473ffffffffffffffffffffffffffffffffffffffff1673ffffffffffffffffffffffffffffffffffffffff166323b872dd600160009054906101000a900473ffffffffffffffffffffffffffffffffffffffff16336003546040518463ffffffff1660e01b815260040161023893929190610388565b602060405180830381600087803b15801561025257600080fd5b505af1158015610266573d6000803e3d6000fd5b505050506040513d601f19601f8201168201806040525081019061028a91906102c4565b5060035491505090565b60035481565b6000815190506102a981610590565b92915050565b6000815190506102be816105a7565b92915050565b6000602082840312156102da576102d961053c565b5b60006102e88482850161029a565b91505092915050565b6000602082840312156103075761030661053c565b5b6000610315848285016102af565b91505092915050565b61032781610496565b82525050565b600061033a6021836103fa565b915061034582610541565b604082019050919050565b610359816104d4565b82525050565b6000604082019050610374600083018561031e565b610381602083018461031e565b9392505050565b600060608201905061039d600083018661031e565b6103aa602083018561031e565b6103b76040830184610350565b949350505050565b600060208201905081810360008301526103d88161032d565b9050919050565b60006020820190506103f46000830184610350565b92915050565b600082825260208201905092915050565b6000610416826104d4565b9150610421836104d4565b9250826104315761043061050d565b5b828204905092915050565b6000610447826104d4565b9150610452836104d4565b9250817fffffffffffffffffffffffffffffffffffffffffffffffffffffffffffffffff048311821515161561048b5761048a6104de565b5b828202905092915050565b60006104a1826104b4565b9050919050565b60008115159050919050565b600073ffffffffffffffffffffffffffffffffffffffff82169050919050565b6000819050919050565b7f4e487b7100000000000000000000000000000000000000000000000000000000600052601160045260246000fd5b7f4e487b7100000000000000000000000000000000000000000000000000000000600052601260045260246000fd5b600080fd5b7f4e6f7420656e6f75676820746f6b656e7320746f2073656c6c20746f20796f7560008201527f2100000000000000000000000000000000000000000000000000000000000000602082015250565b610599816104a8565b81146105a457600080fd5b50565b6105b0816104d4565b81146105bb57600080fd5b5056fea26469706673582212202c887272f3657050b9c612b771e92ade10b942e05b07cc1bccf0b0dc59c0560864736f6c63430008070033",
  "immutableReferences": {},
  "source": "// SPDX-License-Identifier: GPL-3.0\npragma solidity ^0.8.0;\n\nimport \"@openzeppelin/contracts/token/ERC20/ERC20.sol\";\n\n// import \"https://github.com/OpenZeppelin/openzeppelin-contracts/blob/master/contracts/token/ERC20/ERC20.sol\";\n\n//minting token\ncontract XLCTKN is ERC20 {\n    constructor(uint256 initialSupply) ERC20(\"XellDoc Token\", \"XLC\") {\n        _mint(msg.sender, initialSupply);\n    }\n\n    function approveFromContract(address _user, uint256 _amount)\n        public\n        returns (bool)\n    {\n        _approve(_user, _msgSender(), _amount);\n        return true;\n    }\n}\n\n//selling token\ncontract IRSICO {\n    IERC20 token; //reference to the ERC20 interface contract\n    address owner;\n    uint256 tokensPerEther = 1000;\n    uint256 public numTokens;\n    modifier onlyOwner() {\n        require(msg.sender == owner, \"Only owner can call this function!\");\n        _;\n    }\n\n    constructor(address _token) {\n        token = XLCTKN(_token);\n        owner = msg.sender;\n    }\n\n    function PurchaseTokens() public payable returns (uint256) {\n        numTokens = (msg.value / (1 * 10**18)) * tokensPerEther; //handle truncation if exists\n        uint256 balance = token.allowance(owner, address(this));\n        require(balance >= numTokens, \"Not enough tokens to sell to you!\");\n        token.transferFrom(owner, msg.sender, numTokens);\n        return numTokens;\n    }\n}\n",
  "sourcePath": "/Users/irsantyohadi/Documents/E-Med_Contract/contracts/Token.sol",
  "compiler": {
    "name": "solc",
    "version": "0.8.7+commit.e28d00a7.Emscripten.clang"
  },
  "schemaVersion": "3.4.3",
  "updatedAt": "2021-10-21T13:17:26.642Z",
  "devdoc": {
    "kind": "dev",
    "methods": {},
    "version": 1
  },
  "userdoc": {
    "kind": "user",
    "methods": {},
    "version": 1
  }
}