{
  "contractName": "Emed",
  "abi": [
    {
      "inputs": [
        {
          "internalType": "contract IERC20",
          "name": "_tokenAdd",
          "type": "address"
        }
      ],
      "stateMutability": "nonpayable",
      "type": "constructor"
    },
    {
      "anonymous": false,
      "inputs": [
        {
          "components": [
            {
              "internalType": "address",
              "name": "doctorAddress",
              "type": "address"
            },
            {
              "internalType": "address",
              "name": "patientAddress",
              "type": "address"
            },
            {
              "internalType": "uint256",
              "name": "totalFee",
              "type": "uint256"
            },
            {
              "internalType": "uint256",
              "name": "examDate",
              "type": "uint256"
            },
            {
              "internalType": "enum Emed.Schedule",
              "name": "examSchedule",
              "type": "uint8"
            },
            {
              "internalType": "bool",
              "name": "active",
              "type": "bool"
            }
          ],
          "indexed": false,
          "internalType": "struct Emed.Appointment[]",
          "name": "_a",
          "type": "tuple[]"
        }
      ],
      "name": "CallAppointments",
      "type": "event"
    },
    {
      "anonymous": false,
      "inputs": [
        {
          "components": [
            {
              "internalType": "string",
              "name": "subjective",
              "type": "string"
            },
            {
              "internalType": "string",
              "name": "objective",
              "type": "string"
            },
            {
              "internalType": "string",
              "name": "assesment",
              "type": "string"
            },
            {
              "internalType": "string",
              "name": "planning",
              "type": "string"
            },
            {
              "internalType": "uint256",
              "name": "weight",
              "type": "uint256"
            },
            {
              "internalType": "uint256",
              "name": "height",
              "type": "uint256"
            },
            {
              "internalType": "uint256",
              "name": "systole",
              "type": "uint256"
            },
            {
              "internalType": "uint256",
              "name": "diastole",
              "type": "uint256"
            },
            {
              "internalType": "uint256",
              "name": "examDate",
              "type": "uint256"
            },
            {
              "internalType": "string",
              "name": "examLocation",
              "type": "string"
            },
            {
              "internalType": "address",
              "name": "doctorAddress",
              "type": "address"
            }
          ],
          "indexed": false,
          "internalType": "struct Emed.MedicalRecord[]",
          "name": "_m",
          "type": "tuple[]"
        }
      ],
      "name": "CallMedicalRecords",
      "type": "event"
    },
    {
      "anonymous": false,
      "inputs": [
        {
          "indexed": false,
          "internalType": "address",
          "name": "creator",
          "type": "address"
        },
        {
          "indexed": false,
          "internalType": "uint256",
          "name": "date",
          "type": "uint256"
        },
        {
          "indexed": false,
          "internalType": "string",
          "name": "functionName",
          "type": "string"
        }
      ],
      "name": "NewLog",
      "type": "event"
    },
    {
      "anonymous": false,
      "inputs": [
        {
          "indexed": false,
          "internalType": "address",
          "name": "patient",
          "type": "address"
        },
        {
          "indexed": false,
          "internalType": "address",
          "name": "doctor",
          "type": "address"
        },
        {
          "indexed": false,
          "internalType": "uint256",
          "name": "date",
          "type": "uint256"
        }
      ],
      "name": "NewMedicalRecord",
      "type": "event"
    },
    {
      "inputs": [
        {
          "internalType": "address",
          "name": "",
          "type": "address"
        },
        {
          "internalType": "uint256",
          "name": "",
          "type": "uint256"
        }
      ],
      "name": "doctor_schedule",
      "outputs": [
        {
          "internalType": "enum Emed.Schedule",
          "name": "",
          "type": "uint8"
        }
      ],
      "stateMutability": "view",
      "type": "function",
      "constant": true
    },
    {
      "inputs": [
        {
          "internalType": "uint256",
          "name": "",
          "type": "uint256"
        }
      ],
      "name": "validDoctors",
      "outputs": [
        {
          "internalType": "string",
          "name": "name",
          "type": "string"
        },
        {
          "internalType": "uint256",
          "name": "dob",
          "type": "uint256"
        },
        {
          "internalType": "enum Emed.UserType",
          "name": "userType",
          "type": "uint8"
        },
        {
          "internalType": "uint256",
          "name": "doctorFee",
          "type": "uint256"
        },
        {
          "internalType": "address",
          "name": "walletAddress",
          "type": "address"
        },
        {
          "internalType": "bool",
          "name": "active",
          "type": "bool"
        }
      ],
      "stateMutability": "view",
      "type": "function",
      "constant": true
    },
    {
      "inputs": [],
      "name": "checkUser",
      "outputs": [
        {
          "internalType": "string",
          "name": "name",
          "type": "string"
        },
        {
          "internalType": "enum Emed.UserType",
          "name": "userType",
          "type": "uint8"
        },
        {
          "internalType": "uint256",
          "name": "doctorFee",
          "type": "uint256"
        },
        {
          "internalType": "address",
          "name": "walletAddress",
          "type": "address"
        },
        {
          "internalType": "bool",
          "name": "active",
          "type": "bool"
        }
      ],
      "stateMutability": "view",
      "type": "function",
      "constant": true
    },
    {
      "inputs": [
        {
          "internalType": "string",
          "name": "_name",
          "type": "string"
        },
        {
          "internalType": "uint256",
          "name": "_dob",
          "type": "uint256"
        },
        {
          "internalType": "enum Emed.UserType",
          "name": "_userType",
          "type": "uint8"
        },
        {
          "internalType": "uint256",
          "name": "_doctorFee",
          "type": "uint256"
        },
        {
          "internalType": "enum Emed.Schedule[]",
          "name": "_doctorSchedule",
          "type": "uint8[]"
        }
      ],
      "name": "registerUser",
      "outputs": [],
      "stateMutability": "nonpayable",
      "type": "function"
    },
    {
      "inputs": [
        {
          "internalType": "address",
          "name": "_doctorAddress",
          "type": "address"
        }
      ],
      "name": "validateDoctor",
      "outputs": [],
      "stateMutability": "nonpayable",
      "type": "function"
    },
    {
      "inputs": [
        {
          "internalType": "address",
          "name": "_doctorAddress",
          "type": "address"
        },
        {
          "internalType": "uint256",
          "name": "_examDate",
          "type": "uint256"
        },
        {
          "internalType": "enum Emed.Schedule",
          "name": "_examSchedule",
          "type": "uint8"
        }
      ],
      "name": "createAppointment",
      "outputs": [
        {
          "internalType": "uint256",
          "name": "",
          "type": "uint256"
        }
      ],
      "stateMutability": "nonpayable",
      "type": "function"
    },
    {
      "inputs": [
        {
          "internalType": "address",
          "name": "_doctorAddress",
          "type": "address"
        },
        {
          "internalType": "uint256",
          "name": "_ticketNumber",
          "type": "uint256"
        }
      ],
      "name": "cancelAppointment",
      "outputs": [],
      "stateMutability": "nonpayable",
      "type": "function"
    },
    {
      "inputs": [],
      "name": "getPatientList",
      "outputs": [
        {
          "components": [
            {
              "internalType": "address",
              "name": "doctorAddress",
              "type": "address"
            },
            {
              "internalType": "address",
              "name": "patientAddress",
              "type": "address"
            },
            {
              "internalType": "uint256",
              "name": "totalFee",
              "type": "uint256"
            },
            {
              "internalType": "uint256",
              "name": "examDate",
              "type": "uint256"
            },
            {
              "internalType": "enum Emed.Schedule",
              "name": "examSchedule",
              "type": "uint8"
            },
            {
              "internalType": "bool",
              "name": "active",
              "type": "bool"
            }
          ],
          "internalType": "struct Emed.Appointment[]",
          "name": "",
          "type": "tuple[]"
        }
      ],
      "stateMutability": "nonpayable",
      "type": "function"
    },
    {
      "inputs": [
        {
          "internalType": "address",
          "name": "_patientAddress",
          "type": "address"
        },
        {
          "internalType": "string",
          "name": "_subjective",
          "type": "string"
        },
        {
          "internalType": "string",
          "name": "_objective",
          "type": "string"
        },
        {
          "internalType": "string",
          "name": "_assesment",
          "type": "string"
        },
        {
          "internalType": "string",
          "name": "_planning",
          "type": "string"
        },
        {
          "internalType": "uint256",
          "name": "_weight",
          "type": "uint256"
        },
        {
          "internalType": "uint256",
          "name": "_height",
          "type": "uint256"
        },
        {
          "internalType": "uint256",
          "name": "_systole",
          "type": "uint256"
        },
        {
          "internalType": "uint256",
          "name": "_diastole",
          "type": "uint256"
        },
        {
          "internalType": "uint256",
          "name": "_examDate",
          "type": "uint256"
        },
        {
          "internalType": "string",
          "name": "_examLocation",
          "type": "string"
        }
      ],
      "name": "addMedicalRecord",
      "outputs": [],
      "stateMutability": "nonpayable",
      "type": "function"
    },
    {
      "inputs": [
        {
          "internalType": "address",
          "name": "_patientAddress",
          "type": "address"
        }
      ],
      "name": "doctorGetMedicalRecords",
      "outputs": [
        {
          "components": [
            {
              "internalType": "string",
              "name": "subjective",
              "type": "string"
            },
            {
              "internalType": "string",
              "name": "objective",
              "type": "string"
            },
            {
              "internalType": "string",
              "name": "assesment",
              "type": "string"
            },
            {
              "internalType": "string",
              "name": "planning",
              "type": "string"
            },
            {
              "internalType": "uint256",
              "name": "weight",
              "type": "uint256"
            },
            {
              "internalType": "uint256",
              "name": "height",
              "type": "uint256"
            },
            {
              "internalType": "uint256",
              "name": "systole",
              "type": "uint256"
            },
            {
              "internalType": "uint256",
              "name": "diastole",
              "type": "uint256"
            },
            {
              "internalType": "uint256",
              "name": "examDate",
              "type": "uint256"
            },
            {
              "internalType": "string",
              "name": "examLocation",
              "type": "string"
            },
            {
              "internalType": "address",
              "name": "doctorAddress",
              "type": "address"
            }
          ],
          "internalType": "struct Emed.MedicalRecord[]",
          "name": "",
          "type": "tuple[]"
        }
      ],
      "stateMutability": "nonpayable",
      "type": "function"
    },
    {
      "inputs": [],
      "name": "userGetOwnMedicalRecords",
      "outputs": [
        {
          "components": [
            {
              "internalType": "string",
              "name": "subjective",
              "type": "string"
            },
            {
              "internalType": "string",
              "name": "objective",
              "type": "string"
            },
            {
              "internalType": "string",
              "name": "assesment",
              "type": "string"
            },
            {
              "internalType": "string",
              "name": "planning",
              "type": "string"
            },
            {
              "internalType": "uint256",
              "name": "weight",
              "type": "uint256"
            },
            {
              "internalType": "uint256",
              "name": "height",
              "type": "uint256"
            },
            {
              "internalType": "uint256",
              "name": "systole",
              "type": "uint256"
            },
            {
              "internalType": "uint256",
              "name": "diastole",
              "type": "uint256"
            },
            {
              "internalType": "uint256",
              "name": "examDate",
              "type": "uint256"
            },
            {
              "internalType": "string",
              "name": "examLocation",
              "type": "string"
            },
            {
              "internalType": "address",
              "name": "doctorAddress",
              "type": "address"
            }
          ],
          "internalType": "struct Emed.MedicalRecord[]",
          "name": "",
          "type": "tuple[]"
        }
      ],
      "stateMutability": "nonpayable",
      "type": "function"
    },
    {
      "inputs": [
        {
          "internalType": "uint256",
          "name": "_fee",
          "type": "uint256"
        }
      ],
      "name": "setContractFee",
      "outputs": [],
      "stateMutability": "nonpayable",
      "type": "function"
    }
  ],
  "bytecode": "0x60806040523480156200001157600080fd5b50604051620052a9380380620052a98339818101604052810190620000379190620000de565b336000806101000a81548173ffffffffffffffffffffffffffffffffffffffff021916908373ffffffffffffffffffffffffffffffffffffffff16021790555080600260006101000a81548173ffffffffffffffffffffffffffffffffffffffff021916908373ffffffffffffffffffffffffffffffffffffffff160217905550600a6001819055505062000177565b600081519050620000d8816200015d565b92915050565b600060208284031215620000f757620000f662000158565b5b60006200010784828501620000c7565b91505092915050565b60006200011d8262000138565b9050919050565b6000620001318262000110565b9050919050565b600073ffffffffffffffffffffffffffffffffffffffff82169050919050565b600080fd5b620001688162000124565b81146200017457600080fd5b50565b61512280620001876000396000f3fe608060405234801561001057600080fd5b50600436106100b45760003560e01c806383c0c9f51161007157806383c0c9f51461018d578063a79f990f146101a9578063bcf63216146101d9578063c15625471461020e578063e02f46ac14610230578063fa88ab821461024c576100b4565b80631bec3cbe146100b957806340ddfb29146100d75780634aa67d3114610107578063503b135414610123578063740f16eb1461014157806375d855c214610171575b600080fd5b6100c1610268565b6040516100ce919061471b565b60405180910390f35b6100f160048036038101906100ec9190613bc5565b6108e7565b6040516100fe919061495c565b60405180910390f35b610121600480360381019061011c9190613cf8565b611043565b005b61012b6110db565b60405161013891906146d7565b60405180910390f35b61015b600480360381019061015691906139d8565b611522565b604051610168919061471b565b60405180910390f35b61018b60048036038101906101869190613a05565b611bb8565b005b6101a760048036038101906101a29190613c45565b6122e8565b005b6101c360048036038101906101be9190613b85565b61274d565b6040516101d0919061475f565b60405180910390f35b6101f360048036038101906101ee9190613cf8565b612790565b604051610205969594939291906147d4565b60405180910390f35b61021661289e565b60405161022795949392919061477a565b60405180910390f35b61024a600480360381019061024591906139d8565b612a71565b005b61026660048036038101906102619190613b85565b612eee565b005b60606000600360003373ffffffffffffffffffffffffffffffffffffffff1673ffffffffffffffffffffffffffffffffffffffff1681526020019081526020016000206040518060c00160405290816000820180546102c690614c53565b80601f01602080910402602001604051908101604052809291908181526020018280546102f290614c53565b801561033f5780601f106103145761010080835404028352916020019161033f565b820191906000526020600020905b81548152906001019060200180831161032257829003601f168201915b50505050508152602001600182015481526020016002820160009054906101000a900460ff16600181111561037757610376614d4d565b5b600181111561038957610388614d4d565b5b8152602001600382015481526020016004820160009054906101000a900473ffffffffffffffffffffffffffffffffffffffff1673ffffffffffffffffffffffffffffffffffffffff1673ffffffffffffffffffffffffffffffffffffffff1681526020016004820160149054906101000a900460ff161515151581525050905060018081111561041d5761041c614d4d565b5b8160400151600181111561043457610433614d4d565b5b14610474576040517f08c379a000000000000000000000000000000000000000000000000000000000815260040161046b9061483c565b60405180910390fd5b7f3ead100446084f34be236dbd282868987bb15ae4f8ad0a1d3c1d6635643276f0600560003373ffffffffffffffffffffffffffffffffffffffff1673ffffffffffffffffffffffffffffffffffffffff1681526020019081526020016000206040516104e1919061473d565b60405180910390a1600560003373ffffffffffffffffffffffffffffffffffffffff1673ffffffffffffffffffffffffffffffffffffffff168152602001908152602001600020805480602002602001604051908101604052809291908181526020016000905b828210156108dd57838290600052602060002090600b02016040518061016001604052908160008201805461057c90614c53565b80601f01602080910402602001604051908101604052809291908181526020018280546105a890614c53565b80156105f55780601f106105ca576101008083540402835291602001916105f5565b820191906000526020600020905b8154815290600101906020018083116105d857829003601f168201915b5050505050815260200160018201805461060e90614c53565b80601f016020809104026020016040519081016040528092919081815260200182805461063a90614c53565b80156106875780601f1061065c57610100808354040283529160200191610687565b820191906000526020600020905b81548152906001019060200180831161066a57829003601f168201915b505050505081526020016002820180546106a090614c53565b80601f01602080910402602001604051908101604052809291908181526020018280546106cc90614c53565b80156107195780601f106106ee57610100808354040283529160200191610719565b820191906000526020600020905b8154815290600101906020018083116106fc57829003601f168201915b5050505050815260200160038201805461073290614c53565b80601f016020809104026020016040519081016040528092919081815260200182805461075e90614c53565b80156107ab5780601f10610780576101008083540402835291602001916107ab565b820191906000526020600020905b81548152906001019060200180831161078e57829003601f168201915b5050505050815260200160048201548152602001600582015481526020016006820154815260200160078201548152602001600882015481526020016009820180546107f690614c53565b80601f016020809104026020016040519081016040528092919081815260200182805461082290614c53565b801561086f5780601f106108445761010080835404028352916020019161086f565b820191906000526020600020905b81548152906001019060200180831161085257829003601f168201915b50505050508152602001600a820160009054906101000a900473ffffffffffffffffffffffffffffffffffffffff1673ffffffffffffffffffffffffffffffffffffffff1673ffffffffffffffffffffffffffffffffffffffff168152505081526020019060010190610548565b5050505091505090565b600080600360003373ffffffffffffffffffffffffffffffffffffffff1673ffffffffffffffffffffffffffffffffffffffff1681526020019081526020016000206040518060c001604052908160008201805461094490614c53565b80601f016020809104026020016040519081016040528092919081815260200182805461097090614c53565b80156109bd5780601f10610992576101008083540402835291602001916109bd565b820191906000526020600020905b8154815290600101906020018083116109a057829003601f168201915b50505050508152602001600182015481526020016002820160009054906101000a900460ff1660018111156109f5576109f4614d4d565b5b6001811115610a0757610a06614d4d565b5b8152602001600382015481526020016004820160009054906101000a900473ffffffffffffffffffffffffffffffffffffffff1673ffffffffffffffffffffffffffffffffffffffff1673ffffffffffffffffffffffffffffffffffffffff1681526020016004820160149054906101000a900460ff1615151515815250509050600180811115610a9b57610a9a614d4d565b5b81604001516001811115610ab257610ab1614d4d565b5b14610af2576040517f08c379a0000000000000000000000000000000000000000000000000000000008152600401610ae99061483c565b60405180910390fd5b6000600360008773ffffffffffffffffffffffffffffffffffffffff1673ffffffffffffffffffffffffffffffffffffffff1681526020019081526020016000206040518060c0016040529081600082018054610b4e90614c53565b80601f0160208091040260200160405190810160405280929190818152602001828054610b7a90614c53565b8015610bc75780601f10610b9c57610100808354040283529160200191610bc7565b820191906000526020600020905b815481529060010190602001808311610baa57829003601f168201915b50505050508152602001600182015481526020016002820160009054906101000a900460ff166001811115610bff57610bfe614d4d565b5b6001811115610c1157610c10614d4d565b5b8152602001600382015481526020016004820160009054906101000a900473ffffffffffffffffffffffffffffffffffffffff1673ffffffffffffffffffffffffffffffffffffffff1673ffffffffffffffffffffffffffffffffffffffff1681526020016004820160149054906101000a900460ff1615151515815250509050610c9a6135c2565b86816000019073ffffffffffffffffffffffffffffffffffffffff16908173ffffffffffffffffffffffffffffffffffffffff1681525050858160600181815250508481608001906005811115610cf457610cf3614d4d565b5b90816005811115610d0857610d07614d4d565b5b81525050816060015181604001818152505033816020019073ffffffffffffffffffffffffffffffffffffffff16908173ffffffffffffffffffffffffffffffffffffffff168152505060018160a001901515908115158152505060011515600260009054906101000a900473ffffffffffffffffffffffffffffffffffffffff1673ffffffffffffffffffffffffffffffffffffffff166323b872dd333086606001516040518463ffffffff1660e01b8152600401610dca939291906145c3565b602060405180830381600087803b158015610de457600080fd5b505af1158015610df8573d6000803e3d6000fd5b505050506040513d601f19601f82011682018060405250810190610e1c9190613c18565b151514610e5e576040517f08c379a0000000000000000000000000000000000000000000000000000000008152600401610e55906148dc565b60405180910390fd5b600460008873ffffffffffffffffffffffffffffffffffffffff1673ffffffffffffffffffffffffffffffffffffffff16815260200190815260200160002081908060018154018082558091505060019003906000526020600020906005020160009091909190915060008201518160000160006101000a81548173ffffffffffffffffffffffffffffffffffffffff021916908373ffffffffffffffffffffffffffffffffffffffff16021790555060208201518160010160006101000a81548173ffffffffffffffffffffffffffffffffffffffff021916908373ffffffffffffffffffffffffffffffffffffffff160217905550604082015181600201556060820151816003015560808201518160040160006101000a81548160ff02191690836005811115610f9457610f93614d4d565b5b021790555060a08201518160040160016101000a81548160ff02191690831515021790555050507f80f27b639b268070597cc1e56095ab8f86def6301e542441a32573f30677e7383342604051610fec92919061465f565b60405180910390a1600460008873ffffffffffffffffffffffffffffffffffffffff1673ffffffffffffffffffffffffffffffffffffffff1681526020019081526020016000208054905093505050509392505050565b60008054906101000a900473ffffffffffffffffffffffffffffffffffffffff1673ffffffffffffffffffffffffffffffffffffffff163373ffffffffffffffffffffffffffffffffffffffff16146110d1576040517f08c379a00000000000000000000000000000000000000000000000000000000081526004016110c89061487c565b60405180910390fd5b8060018190555050565b60606000600360003373ffffffffffffffffffffffffffffffffffffffff1673ffffffffffffffffffffffffffffffffffffffff1681526020019081526020016000206040518060c001604052908160008201805461113990614c53565b80601f016020809104026020016040519081016040528092919081815260200182805461116590614c53565b80156111b25780601f10611187576101008083540402835291602001916111b2565b820191906000526020600020905b81548152906001019060200180831161119557829003601f168201915b50505050508152602001600182015481526020016002820160009054906101000a900460ff1660018111156111ea576111e9614d4d565b5b60018111156111fc576111fb614d4d565b5b8152602001600382015481526020016004820160009054906101000a900473ffffffffffffffffffffffffffffffffffffffff1673ffffffffffffffffffffffffffffffffffffffff1673ffffffffffffffffffffffffffffffffffffffff1681526020016004820160149054906101000a900460ff16151515158152505090506000600181111561129157611290614d4d565b5b816040015160018111156112a8576112a7614d4d565b5b1480156112bd5750600115158160a001511515145b6112fc576040517f08c379a00000000000000000000000000000000000000000000000000000000081526004016112f39061489c565b60405180910390fd5b7f33bae4024d6bc6cc19ea07294ed68df80dc5746848acff8a0a8fad409c2df40c600460003373ffffffffffffffffffffffffffffffffffffffff1673ffffffffffffffffffffffffffffffffffffffff16815260200190815260200160002060405161136991906146f9565b60405180910390a1600460003373ffffffffffffffffffffffffffffffffffffffff1673ffffffffffffffffffffffffffffffffffffffff168152602001908152602001600020805480602002602001604051908101604052809291908181526020016000905b8282101561151857838290600052602060002090600502016040518060c00160405290816000820160009054906101000a900473ffffffffffffffffffffffffffffffffffffffff1673ffffffffffffffffffffffffffffffffffffffff1673ffffffffffffffffffffffffffffffffffffffff1681526020016001820160009054906101000a900473ffffffffffffffffffffffffffffffffffffffff1673ffffffffffffffffffffffffffffffffffffffff1673ffffffffffffffffffffffffffffffffffffffff16815260200160028201548152602001600382015481526020016004820160009054906101000a900460ff1660058111156114d8576114d7614d4d565b5b60058111156114ea576114e9614d4d565b5b81526020016004820160019054906101000a900460ff161515151581525050815260200190600101906113d0565b5050505091505090565b60606000600360003373ffffffffffffffffffffffffffffffffffffffff1673ffffffffffffffffffffffffffffffffffffffff1681526020019081526020016000206040518060c001604052908160008201805461158090614c53565b80601f01602080910402602001604051908101604052809291908181526020018280546115ac90614c53565b80156115f95780601f106115ce576101008083540402835291602001916115f9565b820191906000526020600020905b8154815290600101906020018083116115dc57829003601f168201915b50505050508152602001600182015481526020016002820160009054906101000a900460ff16600181111561163157611630614d4d565b5b600181111561164357611642614d4d565b5b8152602001600382015481526020016004820160009054906101000a900473ffffffffffffffffffffffffffffffffffffffff1673ffffffffffffffffffffffffffffffffffffffff1673ffffffffffffffffffffffffffffffffffffffff1681526020016004820160149054906101000a900460ff1615151515815250509050600060018111156116d8576116d7614d4d565b5b816040015160018111156116ef576116ee614d4d565b5b1480156117045750600115158160a001511515145b611743576040517f08c379a000000000000000000000000000000000000000000000000000000000815260040161173a9061489c565b60405180910390fd5b7f3ead100446084f34be236dbd282868987bb15ae4f8ad0a1d3c1d6635643276f0600560008573ffffffffffffffffffffffffffffffffffffffff1673ffffffffffffffffffffffffffffffffffffffff1681526020019081526020016000206040516117b0919061473d565b60405180910390a1600560008473ffffffffffffffffffffffffffffffffffffffff1673ffffffffffffffffffffffffffffffffffffffff168152602001908152602001600020805480602002602001604051908101604052809291908181526020016000905b82821015611bac57838290600052602060002090600b02016040518061016001604052908160008201805461184b90614c53565b80601f016020809104026020016040519081016040528092919081815260200182805461187790614c53565b80156118c45780601f10611899576101008083540402835291602001916118c4565b820191906000526020600020905b8154815290600101906020018083116118a757829003601f168201915b505050505081526020016001820180546118dd90614c53565b80601f016020809104026020016040519081016040528092919081815260200182805461190990614c53565b80156119565780601f1061192b57610100808354040283529160200191611956565b820191906000526020600020905b81548152906001019060200180831161193957829003601f168201915b5050505050815260200160028201805461196f90614c53565b80601f016020809104026020016040519081016040528092919081815260200182805461199b90614c53565b80156119e85780601f106119bd576101008083540402835291602001916119e8565b820191906000526020600020905b8154815290600101906020018083116119cb57829003601f168201915b50505050508152602001600382018054611a0190614c53565b80601f0160208091040260200160405190810160405280929190818152602001828054611a2d90614c53565b8015611a7a5780601f10611a4f57610100808354040283529160200191611a7a565b820191906000526020600020905b815481529060010190602001808311611a5d57829003601f168201915b505050505081526020016004820154815260200160058201548152602001600682015481526020016007820154815260200160088201548152602001600982018054611ac590614c53565b80601f0160208091040260200160405190810160405280929190818152602001828054611af190614c53565b8015611b3e5780601f10611b1357610100808354040283529160200191611b3e565b820191906000526020600020905b815481529060010190602001808311611b2157829003601f168201915b50505050508152602001600a820160009054906101000a900473ffffffffffffffffffffffffffffffffffffffff1673ffffffffffffffffffffffffffffffffffffffff1673ffffffffffffffffffffffffffffffffffffffff168152505081526020019060010190611817565b50505050915050919050565b6000600360003373ffffffffffffffffffffffffffffffffffffffff1673ffffffffffffffffffffffffffffffffffffffff1681526020019081526020016000206040518060c0016040529081600082018054611c1490614c53565b80601f0160208091040260200160405190810160405280929190818152602001828054611c4090614c53565b8015611c8d5780601f10611c6257610100808354040283529160200191611c8d565b820191906000526020600020905b815481529060010190602001808311611c7057829003601f168201915b50505050508152602001600182015481526020016002820160009054906101000a900460ff166001811115611cc557611cc4614d4d565b5b6001811115611cd757611cd6614d4d565b5b8152602001600382015481526020016004820160009054906101000a900473ffffffffffffffffffffffffffffffffffffffff1673ffffffffffffffffffffffffffffffffffffffff1673ffffffffffffffffffffffffffffffffffffffff1681526020016004820160149054906101000a900460ff161515151581525050905060006001811115611d6c57611d6b614d4d565b5b81604001516001811115611d8357611d82614d4d565b5b148015611d985750600115158160a001511515145b611dd7576040517f08c379a0000000000000000000000000000000000000000000000000000000008152600401611dce9061489c565b60405180910390fd5b611ddf613638565b8b81600001819052508a816020018190525089816040018190525088816060018190525087816080018181525050868160a0018181525050858160c0018181525050848160e00181815250508381610100018181525050828161012001819052503381610140019073ffffffffffffffffffffffffffffffffffffffff16908173ffffffffffffffffffffffffffffffffffffffff1681525050600560008e73ffffffffffffffffffffffffffffffffffffffff1673ffffffffffffffffffffffffffffffffffffffff1681526020019081526020016000208190806001815401808255809150506001900390600052602060002090600b02016000909190919091506000820151816000019080519060200190611efe9291906136a8565b506020820151816001019080519060200190611f1b9291906136a8565b506040820151816002019080519060200190611f389291906136a8565b506060820151816003019080519060200190611f559291906136a8565b506080820151816004015560a0820151816005015560c0820151816006015560e082015181600701556101008201518160080155610120820151816009019080519060200190611fa69291906136a8565b5061014082015181600a0160006101000a81548173ffffffffffffffffffffffffffffffffffffffff021916908373ffffffffffffffffffffffffffffffffffffffff16021790555050506000600360003373ffffffffffffffffffffffffffffffffffffffff1673ffffffffffffffffffffffffffffffffffffffff1681526020019081526020016000206040518060c001604052908160008201805461204d90614c53565b80601f016020809104026020016040519081016040528092919081815260200182805461207990614c53565b80156120c65780601f1061209b576101008083540402835291602001916120c6565b820191906000526020600020905b8154815290600101906020018083116120a957829003601f168201915b50505050508152602001600182015481526020016002820160009054906101000a900460ff1660018111156120fe576120fd614d4d565b5b60018111156121105761210f614d4d565b5b8152602001600382015481526020016004820160009054906101000a900473ffffffffffffffffffffffffffffffffffffffff1673ffffffffffffffffffffffffffffffffffffffff1673ffffffffffffffffffffffffffffffffffffffff1681526020016004820160149054906101000a900460ff1615151515815250509050600060015482606001516121a59190614b07565b905060011515600260009054906101000a900473ffffffffffffffffffffffffffffffffffffffff1673ffffffffffffffffffffffffffffffffffffffff1663a9059cbb33846040518363ffffffff1660e01b81526004016122089291906145fa565b602060405180830381600087803b15801561222257600080fd5b505af1158015612236573d6000803e3d6000fd5b505050506040513d601f19601f8201168201806040525081019061225a9190613c18565b15151461229c576040517f08c379a00000000000000000000000000000000000000000000000000000000081526004016122939061493c565b60405180910390fd5b7fb15e863b358321085e0997fc013c61efcc6bea2d1c8f3c6374ba6fcecf3850158f33426040516122cf939291906145c3565b60405180910390a1505050505050505050505050505050565b6000600360003373ffffffffffffffffffffffffffffffffffffffff1673ffffffffffffffffffffffffffffffffffffffff1681526020019081526020016000206040518060c001604052908160008201805461234490614c53565b80601f016020809104026020016040519081016040528092919081815260200182805461237090614c53565b80156123bd5780601f10612392576101008083540402835291602001916123bd565b820191906000526020600020905b8154815290600101906020018083116123a057829003601f168201915b50505050508152602001600182015481526020016002820160009054906101000a900460ff1660018111156123f5576123f4614d4d565b5b600181111561240757612406614d4d565b5b8152602001600382015481526020016004820160009054906101000a900473ffffffffffffffffffffffffffffffffffffffff1673ffffffffffffffffffffffffffffffffffffffff1673ffffffffffffffffffffffffffffffffffffffff1681526020016004820160149054906101000a900460ff161515151581525050905060008160200151146124cf576040517f08c379a00000000000000000000000000000000000000000000000000000000081526004016124c69061485c565b60405180910390fd5b6124d761372e565b86816000018190525085816020018181525050848160400190600181111561250257612501614d4d565b5b9081600181111561251657612515614d4d565b5b815250508381606001818152505060018160a001901515908115158152505033816080019073ffffffffffffffffffffffffffffffffffffffff16908173ffffffffffffffffffffffffffffffffffffffff16815250506000600181111561258157612580614d4d565b5b85600181111561259457612593614d4d565b5b14156126005760008160a001901515908115158152505082600660003373ffffffffffffffffffffffffffffffffffffffff1673ffffffffffffffffffffffffffffffffffffffff16815260200190815260200160002090805190602001906125fe92919061378e565b505b80600360003373ffffffffffffffffffffffffffffffffffffffff1673ffffffffffffffffffffffffffffffffffffffff168152602001908152602001600020600082015181600001908051906020019061265c9291906136a8565b506020820151816001015560408201518160020160006101000a81548160ff0219169083600181111561269257612691614d4d565b5b02179055506060820151816003015560808201518160040160006101000a81548173ffffffffffffffffffffffffffffffffffffffff021916908373ffffffffffffffffffffffffffffffffffffffff16021790555060a08201518160040160146101000a81548160ff0219169083151502179055509050507f80f27b639b268070597cc1e56095ab8f86def6301e542441a32573f30677e738334260405161273c92919061469b565b60405180910390a150505050505050565b6006602052816000526040600020818154811061276957600080fd5b9060005260206000209060209182820401919006915091509054906101000a900460ff1681565b600781815481106127a057600080fd5b90600052602060002090600502016000915090508060000180546127c390614c53565b80601f01602080910402602001604051908101604052809291908181526020018280546127ef90614c53565b801561283c5780601f106128115761010080835404028352916020019161283c565b820191906000526020600020905b81548152906001019060200180831161281f57829003601f168201915b5050505050908060010154908060020160009054906101000a900460ff16908060030154908060040160009054906101000a900473ffffffffffffffffffffffffffffffffffffffff16908060040160149054906101000a900460ff16905086565b60606000806000806000600360003373ffffffffffffffffffffffffffffffffffffffff1673ffffffffffffffffffffffffffffffffffffffff1681526020019081526020016000206040518060c001604052908160008201805461290290614c53565b80601f016020809104026020016040519081016040528092919081815260200182805461292e90614c53565b801561297b5780601f106129505761010080835404028352916020019161297b565b820191906000526020600020905b81548152906001019060200180831161295e57829003601f168201915b50505050508152602001600182015481526020016002820160009054906101000a900460ff1660018111156129b3576129b2614d4d565b5b60018111156129c5576129c4614d4d565b5b8152602001600382015481526020016004820160009054906101000a900473ffffffffffffffffffffffffffffffffffffffff1673ffffffffffffffffffffffffffffffffffffffff1673ffffffffffffffffffffffffffffffffffffffff1681526020016004820160149054906101000a900460ff161515151581525050905080600001518160400151826060015183608001518460a0015195509550955095509550509091929394565b60008054906101000a900473ffffffffffffffffffffffffffffffffffffffff1673ffffffffffffffffffffffffffffffffffffffff163373ffffffffffffffffffffffffffffffffffffffff1614612aff576040517f08c379a0000000000000000000000000000000000000000000000000000000008152600401612af69061487c565b60405180910390fd5b6000600360008373ffffffffffffffffffffffffffffffffffffffff1673ffffffffffffffffffffffffffffffffffffffff1681526020019081526020016000206040518060c0016040529081600082018054612b5b90614c53565b80601f0160208091040260200160405190810160405280929190818152602001828054612b8790614c53565b8015612bd45780601f10612ba957610100808354040283529160200191612bd4565b820191906000526020600020905b815481529060010190602001808311612bb757829003601f168201915b50505050508152602001600182015481526020016002820160009054906101000a900460ff166001811115612c0c57612c0b614d4d565b5b6001811115612c1e57612c1d614d4d565b5b8152602001600382015481526020016004820160009054906101000a900473ffffffffffffffffffffffffffffffffffffffff1673ffffffffffffffffffffffffffffffffffffffff1673ffffffffffffffffffffffffffffffffffffffff1681526020016004820160149054906101000a900460ff161515151581525050905060018160a001901515908115158152505080600360008473ffffffffffffffffffffffffffffffffffffffff1673ffffffffffffffffffffffffffffffffffffffff1681526020019081526020016000206000820151816000019080519060200190612d0c9291906136a8565b506020820151816001015560408201518160020160006101000a81548160ff02191690836001811115612d4257612d41614d4d565b5b02179055506060820151816003015560808201518160040160006101000a81548173ffffffffffffffffffffffffffffffffffffffff021916908373ffffffffffffffffffffffffffffffffffffffff16021790555060a08201518160040160146101000a81548160ff02191690831515021790555090505060078190806001815401808255809150506001900390600052602060002090600502016000909190919091506000820151816000019080519060200190612e039291906136a8565b506020820151816001015560408201518160020160006101000a81548160ff02191690836001811115612e3957612e38614d4d565b5b02179055506060820151816003015560808201518160040160006101000a81548173ffffffffffffffffffffffffffffffffffffffff021916908373ffffffffffffffffffffffffffffffffffffffff16021790555060a08201518160040160146101000a81548160ff02191690831515021790555050507f80f27b639b268070597cc1e56095ab8f86def6301e542441a32573f30677e7383342604051612ee2929190614623565b60405180910390a15050565b6000600360003373ffffffffffffffffffffffffffffffffffffffff1673ffffffffffffffffffffffffffffffffffffffff1681526020019081526020016000206040518060c0016040529081600082018054612f4a90614c53565b80601f0160208091040260200160405190810160405280929190818152602001828054612f7690614c53565b8015612fc35780601f10612f9857610100808354040283529160200191612fc3565b820191906000526020600020905b815481529060010190602001808311612fa657829003601f168201915b50505050508152602001600182015481526020016002820160009054906101000a900460ff166001811115612ffb57612ffa614d4d565b5b600181111561300d5761300c614d4d565b5b8152602001600382015481526020016004820160009054906101000a900473ffffffffffffffffffffffffffffffffffffffff1673ffffffffffffffffffffffffffffffffffffffff1673ffffffffffffffffffffffffffffffffffffffff1681526020016004820160149054906101000a900460ff16151515158152505090506001808111156130a1576130a0614d4d565b5b816040015160018111156130b8576130b7614d4d565b5b146130f8576040517f08c379a00000000000000000000000000000000000000000000000000000000081526004016130ef9061483c565b60405180910390fd5b600460008473ffffffffffffffffffffffffffffffffffffffff1673ffffffffffffffffffffffffffffffffffffffff168152602001908152602001600020805490506001836131489190614b07565b10613188576040517f08c379a000000000000000000000000000000000000000000000000000000000815260040161317f9061491c565b60405180910390fd5b3373ffffffffffffffffffffffffffffffffffffffff16600460008573ffffffffffffffffffffffffffffffffffffffff1673ffffffffffffffffffffffffffffffffffffffff168152602001908152602001600020600180856131ec9190614b07565b6131f69190614b07565b8154811061320757613206614dab565b5b906000526020600020906005020160010160009054906101000a900473ffffffffffffffffffffffffffffffffffffffff1673ffffffffffffffffffffffffffffffffffffffff161461328f576040517f08c379a0000000000000000000000000000000000000000000000000000000008152600401613286906148fc565b60405180910390fd5b6000600360008573ffffffffffffffffffffffffffffffffffffffff1673ffffffffffffffffffffffffffffffffffffffff1681526020019081526020016000206040518060c00160405290816000820180546132eb90614c53565b80601f016020809104026020016040519081016040528092919081815260200182805461331790614c53565b80156133645780601f1061333957610100808354040283529160200191613364565b820191906000526020600020905b81548152906001019060200180831161334757829003601f168201915b50505050508152602001600182015481526020016002820160009054906101000a900460ff16600181111561339c5761339b614d4d565b5b60018111156133ae576133ad614d4d565b5b8152602001600382015481526020016004820160009054906101000a900473ffffffffffffffffffffffffffffffffffffffff1673ffffffffffffffffffffffffffffffffffffffff1673ffffffffffffffffffffffffffffffffffffffff1681526020016004820160149054906101000a900460ff161515151581525050905060011515600260009054906101000a900473ffffffffffffffffffffffffffffffffffffffff1673ffffffffffffffffffffffffffffffffffffffff1663a9059cbb3360015485606001516134849190614b07565b6040518363ffffffff1660e01b81526004016134a19291906145fa565b602060405180830381600087803b1580156134bb57600080fd5b505af11580156134cf573d6000803e3d6000fd5b505050506040513d601f19601f820116820180604052508101906134f39190613c18565b151514613535576040517f08c379a000000000000000000000000000000000000000000000000000000000815260040161352c906148bc565b60405180910390fd5b6000600460008673ffffffffffffffffffffffffffffffffffffffff1673ffffffffffffffffffffffffffffffffffffffff1681526020019081526020016000206001856135839190614b07565b8154811061359457613593614dab565b5b906000526020600020906005020160040160016101000a81548160ff02191690831515021790555050505050565b6040518060c00160405280600073ffffffffffffffffffffffffffffffffffffffff168152602001600073ffffffffffffffffffffffffffffffffffffffff16815260200160008152602001600081526020016000600581111561362957613628614d4d565b5b81526020016000151581525090565b60405180610160016040528060608152602001606081526020016060815260200160608152602001600081526020016000815260200160008152602001600081526020016000815260200160608152602001600073ffffffffffffffffffffffffffffffffffffffff1681525090565b8280546136b490614c53565b90600052602060002090601f0160209004810192826136d6576000855561371d565b82601f106136ef57805160ff191683800117855561371d565b8280016001018555821561371d579182015b8281111561371c578251825591602001919060010190613701565b5b50905061372a9190613844565b5090565b6040518060c0016040528060608152602001600081526020016000600181111561375b5761375a614d4d565b5b815260200160008152602001600073ffffffffffffffffffffffffffffffffffffffff1681526020016000151581525090565b82805482825590600052602060002090601f016020900481019282156138335791602002820160005b8382111561380457835183826101000a81548160ff021916908360058111156137e3576137e2614d4d565b5b021790555092602001926001016020816000010492830192600103026137b7565b80156138315782816101000a81549060ff0219169055600101602081600001049283019260010302613804565b505b5090506138409190613844565b5090565b5b8082111561385d576000816000905550600101613845565b5090565b600061387461386f8461499c565b614977565b9050808382526020820190508285602086028201111561389757613896614e0e565b5b60005b858110156138c757816138ad888261396b565b84526020840193506020830192505060018101905061389a565b5050509392505050565b60006138e46138df846149c8565b614977565b905082815260208101848484011115613900576138ff614e13565b5b61390b848285614c11565b509392505050565b60008135905061392281615087565b92915050565b600082601f83011261393d5761393c614e09565b5b813561394d848260208601613861565b91505092915050565b6000815190506139658161509e565b92915050565b60008135905061397a816150b5565b92915050565b60008135905061398f816150c5565b92915050565b600082601f8301126139aa576139a9614e09565b5b81356139ba8482602086016138d1565b91505092915050565b6000813590506139d2816150d5565b92915050565b6000602082840312156139ee576139ed614e1d565b5b60006139fc84828501613913565b91505092915050565b60008060008060008060008060008060006101608c8e031215613a2b57613a2a614e1d565b5b6000613a398e828f01613913565b9b505060208c013567ffffffffffffffff811115613a5a57613a59614e18565b5b613a668e828f01613995565b9a505060408c013567ffffffffffffffff811115613a8757613a86614e18565b5b613a938e828f01613995565b99505060608c013567ffffffffffffffff811115613ab457613ab3614e18565b5b613ac08e828f01613995565b98505060808c013567ffffffffffffffff811115613ae157613ae0614e18565b5b613aed8e828f01613995565b97505060a0613afe8e828f016139c3565b96505060c0613b0f8e828f016139c3565b95505060e0613b208e828f016139c3565b945050610100613b328e828f016139c3565b935050610120613b448e828f016139c3565b9250506101408c013567ffffffffffffffff811115613b6657613b65614e18565b5b613b728e828f01613995565b9150509295989b509295989b9093969950565b60008060408385031215613b9c57613b9b614e1d565b5b6000613baa85828601613913565b9250506020613bbb858286016139c3565b9150509250929050565b600080600060608486031215613bde57613bdd614e1d565b5b6000613bec86828701613913565b9350506020613bfd868287016139c3565b9250506040613c0e8682870161396b565b9150509250925092565b600060208284031215613c2e57613c2d614e1d565b5b6000613c3c84828501613956565b91505092915050565b600080600080600060a08688031215613c6157613c60614e1d565b5b600086013567ffffffffffffffff811115613c7f57613c7e614e18565b5b613c8b88828901613995565b9550506020613c9c888289016139c3565b9450506040613cad88828901613980565b9350506060613cbe888289016139c3565b925050608086013567ffffffffffffffff811115613cdf57613cde614e18565b5b613ceb88828901613928565b9150509295509295909350565b600060208284031215613d0e57613d0d614e1d565b5b6000613d1c848285016139c3565b91505092915050565b6000613d318383614220565b60c08301905092915050565b6000613d49838361429b565b60c08301905092915050565b6000613d618383614353565b905092915050565b6000613d75838361445e565b905092915050565b613d8681614b7f565b82525050565b613d9581614b7f565b82525050565b6000613da682614a58565b613db08185614ac3565b9350613dbb836149f9565b8060005b83811015613dec578151613dd38882613d25565b9750613dde83614a8f565b925050600181019050613dbf565b5085935050505092915050565b6000613e0482614a63565b613e0e8185614ac3565b9350613e1983614a09565b8060005b83811015613e495781613e308882613d3d565b9750613e3b83614a9c565b925050600181019050613e1d565b5085935050505092915050565b6000613e6182614a6e565b613e6b8185614ad4565b935083602082028501613e7d85614a1e565b8060005b85811015613eb95784840389528151613e9a8582613d55565b9450613ea583614aa9565b925060208a01995050600181019050613e81565b50829750879550505050505092915050565b6000613ed682614a79565b613ee08185614ad4565b935083602082028501613ef285614a2e565b8060005b85811015613f2d57848403895281613f0e8582613d69565b9450613f1983614ab6565b925060208a01995050600181019050613ef6565b50829750879550505050505092915050565b613f4881614b91565b82525050565b613f5781614b91565b82525050565b613f6681614bed565b82525050565b613f7581614bed565b82525050565b613f8481614bff565b82525050565b6000613f9582614a84565b613f9f8185614ae5565b9350613faf818560208601614c20565b613fb881614e22565b840191505092915050565b6000613fce82614a84565b613fd88185614af6565b9350613fe8818560208601614c20565b613ff181614e22565b840191505092915050565b6000815461400981614c53565b6140138186614ae5565b9450600182166000811461402e576001811461404057614073565b60ff1983168652602086019350614073565b61404985614a43565b60005b8381101561406b5781548189015260018201915060208101905061404c565b808801955050505b50505092915050565b6000614089600f83614af6565b915061409482614e4d565b602082019050919050565b60006140ac601783614af6565b91506140b782614e76565b602082019050919050565b60006140cf601883614af6565b91506140da82614e9f565b602082019050919050565b60006140f2601583614af6565b91506140fd82614ec8565b602082019050919050565b6000614115601d83614af6565b915061412082614ef1565b602082019050919050565b6000614138602183614af6565b915061414382614f1a565b604082019050919050565b600061415b601883614af6565b915061416682614f69565b602082019050919050565b600061417e601983614af6565b915061418982614f92565b602082019050919050565b60006141a1601283614af6565b91506141ac82614fbb565b602082019050919050565b60006141c4601383614af6565b91506141cf82614fe4565b602082019050919050565b60006141e7600d83614af6565b91506141f28261500d565b602082019050919050565b600061420a601483614af6565b915061421582615036565b602082019050919050565b60c0820160008201516142366000850182613d7d565b5060208201516142496020850182613d7d565b50604082015161425c60408501826145a5565b50606082015161426f60608501826145a5565b5060808201516142826080850182613f5d565b5060a082015161429560a0850182613f3f565b50505050565b60c0820160008083015490506142b081614c85565b6142bd6000860182613d7d565b50600183015490506142ce81614c85565b6142db6020860182613d7d565b50600283015490506142ec81614cb9565b6142f960408601826145a5565b506003830154905061430a81614cb9565b61431760608601826145a5565b506004830154905061432881614c9f565b6143356080860182613f5d565b5061433f81614cd3565b61434c60a0860182613f3f565b5050505050565b60006101608301600083015184820360008601526143718282613f8a565b9150506020830151848203602086015261438b8282613f8a565b915050604083015184820360408601526143a58282613f8a565b915050606083015184820360608601526143bf8282613f8a565b91505060808301516143d460808601826145a5565b5060a08301516143e760a08601826145a5565b5060c08301516143fa60c08601826145a5565b5060e083015161440d60e08601826145a5565b506101008301516144226101008601826145a5565b5061012083015184820361012086015261443c8282613f8a565b915050610140830151614453610140860182613d7d565b508091505092915050565b600061016083016000808401858303600087015261447c8382613ffc565b9250506001840185830360208701526144958382613ffc565b9250506002840185830360408701526144ae8382613ffc565b9250506003840185830360608701526144c78382613ffc565b925050600484015490506144da81614cb9565b6144e760808701826145a5565b50600584015490506144f881614cb9565b61450560a08701826145a5565b506006840154905061451681614cb9565b61452360c08701826145a5565b506007840154905061453481614cb9565b61454160e08701826145a5565b506008840154905061455281614cb9565b6145606101008701826145a5565b50600984018583036101208701526145788382613ffc565b925050600a840154905061458b81614c85565b614599610140870182613d7d565b50819250505092915050565b6145ae81614be3565b82525050565b6145bd81614be3565b82525050565b60006060820190506145d86000830186613d8c565b6145e56020830185613d8c565b6145f260408301846145b4565b949350505050565b600060408201905061460f6000830185613d8c565b61461c60208301846145b4565b9392505050565b60006060820190506146386000830185613d8c565b61464560208301846145b4565b81810360408301526146568161407c565b90509392505050565b60006060820190506146746000830185613d8c565b61468160208301846145b4565b818103604083015261469281614194565b90509392505050565b60006060820190506146b06000830185613d8c565b6146bd60208301846145b4565b81810360408301526146ce816141da565b90509392505050565b600060208201905081810360008301526146f18184613d9b565b905092915050565b600060208201905081810360008301526147138184613df9565b905092915050565b600060208201905081810360008301526147358184613e56565b905092915050565b600060208201905081810360008301526147578184613ecb565b905092915050565b60006020820190506147746000830184613f6c565b92915050565b600060a08201905081810360008301526147948188613fc3565b90506147a36020830187613f7b565b6147b060408301866145b4565b6147bd6060830185613d8c565b6147ca6080830184613f4e565b9695505050505050565b600060c08201905081810360008301526147ee8189613fc3565b90506147fd60208301886145b4565b61480a6040830187613f7b565b61481760608301866145b4565b6148246080830185613d8c565b61483160a0830184613f4e565b979650505050505050565b600060208201905081810360008301526148558161409f565b9050919050565b60006020820190508181036000830152614875816140c2565b9050919050565b60006020820190508181036000830152614895816140e5565b9050919050565b600060208201905081810360008301526148b581614108565b9050919050565b600060208201905081810360008301526148d58161412b565b9050919050565b600060208201905081810360008301526148f58161414e565b9050919050565b6000602082019050818103600083015261491581614171565b9050919050565b60006020820190508181036000830152614935816141b7565b9050919050565b60006020820190508181036000830152614955816141fd565b9050919050565b600060208201905061497160008301846145b4565b92915050565b6000614981614992565b905061498d8282614ced565b919050565b6000604051905090565b600067ffffffffffffffff8211156149b7576149b6614dda565b5b602082029050602081019050919050565b600067ffffffffffffffff8211156149e3576149e2614dda565b5b6149ec82614e22565b9050602081019050919050565b6000819050602082019050919050565b60008190508160005260206000209050919050565b6000819050602082019050919050565b60008190508160005260206000209050919050565b60008190508160005260206000209050919050565b600081519050919050565b600081549050919050565b600081519050919050565b600081549050919050565b600081519050919050565b6000602082019050919050565b6000600582019050919050565b6000602082019050919050565b6000600b82019050919050565b600082825260208201905092915050565b600082825260208201905092915050565b600082825260208201905092915050565b600082825260208201905092915050565b6000614b1282614be3565b9150614b1d83614be3565b925082821015614b3057614b2f614d1e565b5b828203905092915050565b600073ffffffffffffffffffffffffffffffffffffffff82169050919050565b600060ff82169050919050565b600060ff82169050919050565b6000819050919050565b6000614b8a82614bc3565b9050919050565b60008115159050919050565b6000819050614bab8261505f565b919050565b6000819050614bbe82615073565b919050565b600073ffffffffffffffffffffffffffffffffffffffff82169050919050565b6000819050919050565b6000614bf882614b9d565b9050919050565b6000614c0a82614bb0565b9050919050565b82818337600083830152505050565b60005b83811015614c3e578082015181840152602081019050614c23565b83811115614c4d576000848401525b50505050565b60006002820490506001821680614c6b57607f821691505b60208210811415614c7f57614c7e614d7c565b5b50919050565b6000614c98614c9383614e33565b614b3b565b9050919050565b6000614cb2614cad83614e33565b614b68565b9050919050565b6000614ccc614cc783614e33565b614b75565b9050919050565b6000614ce6614ce183614e40565b614b5b565b9050919050565b614cf682614e22565b810181811067ffffffffffffffff82111715614d1557614d14614dda565b5b80604052505050565b7f4e487b7100000000000000000000000000000000000000000000000000000000600052601160045260246000fd5b7f4e487b7100000000000000000000000000000000000000000000000000000000600052602160045260246000fd5b7f4e487b7100000000000000000000000000000000000000000000000000000000600052602260045260246000fd5b7f4e487b7100000000000000000000000000000000000000000000000000000000600052603260045260246000fd5b7f4e487b7100000000000000000000000000000000000000000000000000000000600052604160045260246000fd5b600080fd5b600080fd5b600080fd5b600080fd5b600080fd5b6000601f19601f8301169050919050565b60008160001c9050919050565b60008160081c9050919050565b7f76616c696461746520646f63746f720000000000000000000000000000000000600082015250565b7f4f6e6c792050617469656e742043616e20416363657373000000000000000000600082015250565b7f4f6e6c79204e657720557365722043616e204163636573730000000000000000600082015250565b7f4f6e6c79204f776e65722043616e204163636573730000000000000000000000600082015250565b7f4f6e6c792041637469766520446f63746f722043616e20416363657373000000600082015250565b7f536f6d657468696e67204572726f72207769746820666565207472616e73666560008201527f7200000000000000000000000000000000000000000000000000000000000000602082015250565b7f4170706f696e746d656e74206e6f742070726f63656564210000000000000000600082015250565b7f5468617473205469636b6574206973206e6f7420796f75727300000000000000600082015250565b7f637265617465206170706f696e746d656e740000000000000000000000000000600082015250565b7f57726f6e67207469636b6574206e756d62657200000000000000000000000000600082015250565b7f7265676973746572207573657200000000000000000000000000000000000000600082015250565b7f5061796d656e74206e6f742070726f6365656421000000000000000000000000600082015250565b600681106150705761506f614d4d565b5b50565b6002811061508457615083614d4d565b5b50565b61509081614b7f565b811461509b57600080fd5b50565b6150a781614b91565b81146150b257600080fd5b50565b600681106150c257600080fd5b50565b600281106150d257600080fd5b50565b6150de81614be3565b81146150e957600080fd5b5056fea2646970667358221220a94648c81371ba7b89fe7bce753d8b9f6020df9d21c77d332f98c1f22cc8523b64736f6c63430008070033",
  "immutableReferences": {},
  "source": "// SPDX-License-Identifier: GPL-3.0\r\npragma solidity ^0.8.0;\r\n\r\nimport \"@openzeppelin/contracts/token/ERC20/ERC20.sol\";\r\n\r\n// import \"https://github.com/OpenZeppelin/openzeppelin-contracts/blob/master/contracts/token/ERC20/ERC20.sol\";\r\n\r\ncontract Emed {\r\n    address private owner;\r\n    uint256 private contractFee;\r\n    IERC20 tokenIRS;\r\n\r\n    constructor(IERC20 _tokenAdd) {\r\n        owner = msg.sender;\r\n        tokenIRS = _tokenAdd;\r\n        contractFee = 10;\r\n    }\r\n\r\n    modifier onlyOwner() {\r\n        require(msg.sender == owner, \"Only Owner Can Access\");\r\n        _;\r\n    }\r\n\r\n    modifier onlyDoctor() {\r\n        User memory foundUser = registeredUsers[msg.sender];\r\n        require(\r\n            (foundUser.userType == UserType.DOCTOR && foundUser.active == true),\r\n            \"Only Active Doctor Can Access\"\r\n        );\r\n        _;\r\n    }\r\n\r\n    modifier onlyPatient() {\r\n        User memory foundUser = registeredUsers[msg.sender];\r\n        require(\r\n            foundUser.userType == UserType.PATIENT,\r\n            \"Only Patient Can Access\"\r\n        );\r\n        _;\r\n    }\r\n\r\n    modifier onlyNewUser() {\r\n        User memory foundUser = registeredUsers[msg.sender];\r\n        require(foundUser.dob == 0, \"Only New User Can Access\");\r\n        _;\r\n    }\r\n\r\n    event NewLog(address creator, uint256 date, string functionName);\r\n    event NewMedicalRecord(address patient, address doctor, uint256 date);\r\n    event CallMedicalRecords(MedicalRecord[] _m);\r\n    event CallAppointments(Appointment[] _a);\r\n\r\n    struct MedicalRecord {\r\n        string subjective;\r\n        string objective;\r\n        string assesment;\r\n        string planning;\r\n        uint256 weight;\r\n        uint256 height;\r\n        uint256 systole;\r\n        uint256 diastole;\r\n        uint256 examDate;\r\n        string examLocation;\r\n        address doctorAddress;\r\n    }\r\n\r\n    enum UserType {\r\n        DOCTOR,\r\n        PATIENT\r\n    }\r\n\r\n    enum Schedule {\r\n        MONDAY,\r\n        TUESDAY,\r\n        WEDNESDAY,\r\n        THURSDAY,\r\n        FRIDAY,\r\n        SATURDAY\r\n    }\r\n\r\n    struct User {\r\n        string name;\r\n        uint256 dob;\r\n        UserType userType;\r\n        uint256 doctorFee;\r\n        address walletAddress;\r\n        bool active;\r\n    }\r\n\r\n    struct Appointment {\r\n        address doctorAddress;\r\n        address patientAddress;\r\n        uint256 totalFee;\r\n        uint256 examDate;\r\n        Schedule examSchedule;\r\n        bool active;\r\n    }\r\n\r\n    mapping(address => User) registeredUsers;\r\n    mapping(address => Appointment[]) doctor_appointments;\r\n    mapping(address => MedicalRecord[]) user_medicalRecords;\r\n    mapping(address => Schedule[]) public doctor_schedule;\r\n\r\n    User[] public validDoctors;\r\n\r\n    // to check when user is already registered\r\n    function checkUser()\r\n        public\r\n        view\r\n        returns (\r\n            string memory name,\r\n            UserType userType,\r\n            uint256 doctorFee,\r\n            address walletAddress,\r\n            bool active\r\n        )\r\n    {\r\n        User memory u = registeredUsers[msg.sender];\r\n        return (u.name, u.userType, u.doctorFee, u.walletAddress, u.active);\r\n    }\r\n\r\n    // for register new User\r\n    function registerUser(\r\n        string memory _name,\r\n        uint256 _dob,\r\n        UserType _userType,\r\n        uint256 _doctorFee,\r\n        Schedule[] memory _doctorSchedule\r\n    ) public onlyNewUser {\r\n        User memory newUser;\r\n        newUser.name = _name;\r\n        newUser.dob = _dob;\r\n        newUser.userType = _userType;\r\n        newUser.doctorFee = _doctorFee;\r\n        newUser.active = true;\r\n        newUser.walletAddress = msg.sender;\r\n        if (_userType == UserType.DOCTOR) {\r\n            newUser.active = false;\r\n            doctor_schedule[msg.sender] = _doctorSchedule;\r\n        }\r\n        registeredUsers[msg.sender] = newUser;\r\n\r\n        emit NewLog(msg.sender, block.timestamp, \"register user\");\r\n    }\r\n\r\n    function validateDoctor(address _doctorAddress) public onlyOwner {\r\n        User memory foundDoctor = registeredUsers[_doctorAddress];\r\n        foundDoctor.active = true;\r\n        registeredUsers[_doctorAddress] = foundDoctor;\r\n        validDoctors.push(foundDoctor);\r\n        emit NewLog(msg.sender, block.timestamp, \"validate doctor\");\r\n    }\r\n\r\n    function createAppointment(\r\n        address _doctorAddress,\r\n        uint256 _examDate,\r\n        Schedule _examSchedule\r\n    ) public onlyPatient returns (uint256) {\r\n        // find doctor to get fee\r\n        User memory doctor = registeredUsers[_doctorAddress];\r\n\r\n        Appointment memory newAppointment;\r\n        newAppointment.doctorAddress = _doctorAddress;\r\n        newAppointment.examDate = _examDate;\r\n        newAppointment.examSchedule = _examSchedule;\r\n        newAppointment.totalFee = doctor.doctorFee;\r\n        newAppointment.patientAddress = msg.sender;\r\n        newAppointment.active = true;\r\n        require(\r\n            tokenIRS.transferFrom(\r\n                msg.sender,\r\n                address(this),\r\n                doctor.doctorFee\r\n            ) == true,\r\n            \"Appointment not proceed!\"\r\n        );\r\n        doctor_appointments[_doctorAddress].push(newAppointment);\r\n        emit NewLog(msg.sender, block.timestamp, \"create appointment\");\r\n        return doctor_appointments[_doctorAddress].length;\r\n    }\r\n\r\n    function cancelAppointment(address _doctorAddress, uint256 _ticketNumber)\r\n        public\r\n        onlyPatient\r\n    {\r\n        require(\r\n            _ticketNumber - 1 < doctor_appointments[_doctorAddress].length,\r\n            \"Wrong ticket number\"\r\n        );\r\n        require(\r\n            doctor_appointments[_doctorAddress][_ticketNumber - 1 - 1]\r\n                .patientAddress == msg.sender,\r\n            \"Thats Ticket is not yours\"\r\n        );\r\n        // find doctor to get fee\r\n        User memory doctor = registeredUsers[_doctorAddress];\r\n        require(\r\n            tokenIRS.transfer(msg.sender, doctor.doctorFee - contractFee) ==\r\n                true,\r\n            \"Something Error with fee transfer\"\r\n        );\r\n        doctor_appointments[_doctorAddress][_ticketNumber - 1].active = false;\r\n    }\r\n\r\n    function getPatientList() public onlyDoctor returns (Appointment[] memory) {\r\n        emit CallAppointments(doctor_appointments[msg.sender]);\r\n        return doctor_appointments[msg.sender];\r\n    }\r\n\r\n    function addMedicalRecord(\r\n        address _patientAddress,\r\n        string memory _subjective,\r\n        string memory _objective,\r\n        string memory _assesment,\r\n        string memory _planning,\r\n        uint256 _weight,\r\n        uint256 _height,\r\n        uint256 _systole,\r\n        uint256 _diastole,\r\n        uint256 _examDate,\r\n        string memory _examLocation\r\n    ) public onlyDoctor {\r\n        MedicalRecord memory newMedicalRecord;\r\n        newMedicalRecord.subjective = _subjective;\r\n        newMedicalRecord.objective = _objective;\r\n        newMedicalRecord.assesment = _assesment;\r\n        newMedicalRecord.planning = _planning;\r\n        newMedicalRecord.weight = _weight;\r\n        newMedicalRecord.height = _height;\r\n        newMedicalRecord.systole = _systole;\r\n        newMedicalRecord.diastole = _diastole;\r\n        newMedicalRecord.examDate = _examDate;\r\n        newMedicalRecord.examLocation = _examLocation;\r\n        newMedicalRecord.doctorAddress = msg.sender;\r\n        user_medicalRecords[_patientAddress].push(newMedicalRecord);\r\n\r\n        // find doctor to get fee\r\n        User memory doctor = registeredUsers[msg.sender];\r\n\r\n        // deduct fee for contract owner\r\n        uint256 amountPayedToDoctor = doctor.doctorFee - contractFee;\r\n        require(\r\n            tokenIRS.transfer(msg.sender, amountPayedToDoctor) == true,\r\n            \"Payment not proceed!\"\r\n        );\r\n\r\n        emit NewMedicalRecord(_patientAddress, msg.sender, block.timestamp);\r\n    }\r\n\r\n    function doctorGetMedicalRecords(address _patientAddress)\r\n        public\r\n        onlyDoctor\r\n        returns (MedicalRecord[] memory)\r\n    {\r\n        emit CallMedicalRecords(user_medicalRecords[_patientAddress]);\r\n        return user_medicalRecords[_patientAddress];\r\n    }\r\n\r\n    function userGetOwnMedicalRecords()\r\n        public\r\n        onlyPatient\r\n        returns (MedicalRecord[] memory)\r\n    {\r\n        emit CallMedicalRecords(user_medicalRecords[msg.sender]);\r\n        return user_medicalRecords[msg.sender];\r\n    }\r\n\r\n    function setContractFee(uint256 _fee) public onlyOwner {\r\n        contractFee = _fee;\r\n    }\r\n}\r\n",
  "sourcePath": "C:\\Users\\Irsantyo_M870\\Documents\\Irsantyo_Personal\\Emurgo\\E-Med_Contract\\contracts\\Emed.sol",
  "compiler": {
    "name": "solc",
    "version": "0.8.7+commit.e28d00a7.Emscripten.clang"
  },
  "schemaVersion": "3.4.3",
  "updatedAt": "2021-09-24T23:46:28.596Z",
  "networkType": "ethereum",
  "devdoc": {
    "kind": "dev",
    "methods": {},
    "version": 1
  },
  "userdoc": {
    "kind": "user",
    "methods": {},
    "version": 1
  }
}